{"abi":[{"type":"constructor","inputs":[],"stateMutability":"nonpayable"},{"type":"function","name":"CLAIM_ADMIN_ROLE","inputs":[],"outputs":[{"name":"","type":"bytes32","internalType":"bytes32"}],"stateMutability":"view"},{"type":"function","name":"DEFAULT_ADMIN_ROLE","inputs":[],"outputs":[{"name":"","type":"bytes32","internalType":"bytes32"}],"stateMutability":"view"},{"type":"function","name":"claim","inputs":[],"outputs":[],"stateMutability":"nonpayable"},{"type":"function","name":"claimFor","inputs":[{"name":"user","type":"address","internalType":"address"}],"outputs":[],"stateMutability":"nonpayable"},{"type":"function","name":"claimHoursAgo","inputs":[{"name":"user","type":"address","internalType":"address"},{"name":"hoursAgo","type":"uint256","internalType":"uint256"}],"outputs":[],"stateMutability":"nonpayable"},{"type":"function","name":"definedMilestones","inputs":[{"name":"","type":"uint256","internalType":"uint256"}],"outputs":[{"name":"","type":"uint256","internalType":"uint256"}],"stateMutability":"view"},{"type":"function","name":"getBlockTimestamp","inputs":[],"outputs":[{"name":"","type":"uint256","internalType":"uint256"}],"stateMutability":"view"},{"type":"function","name":"getPointReward","inputs":[{"name":"milestone","type":"uint256","internalType":"uint256"}],"outputs":[{"name":"","type":"uint256","internalType":"uint256"}],"stateMutability":"view"},{"type":"function","name":"getRoleAdmin","inputs":[{"name":"role","type":"bytes32","internalType":"bytes32"}],"outputs":[{"name":"","type":"bytes32","internalType":"bytes32"}],"stateMutability":"view"},{"type":"function","name":"grantRole","inputs":[{"name":"role","type":"bytes32","internalType":"bytes32"},{"name":"account","type":"address","internalType":"address"}],"outputs":[],"stateMutability":"nonpayable"},{"type":"function","name":"hasRole","inputs":[{"name":"role","type":"bytes32","internalType":"bytes32"},{"name":"account","type":"address","internalType":"address"}],"outputs":[{"name":"","type":"bool","internalType":"bool"}],"stateMutability":"view"},{"type":"function","name":"lastClaimed","inputs":[{"name":"","type":"address","internalType":"address"}],"outputs":[{"name":"","type":"uint256","internalType":"uint256"}],"stateMutability":"view"},{"type":"function","name":"milestoneToPointReward","inputs":[{"name":"","type":"uint256","internalType":"uint256"}],"outputs":[{"name":"","type":"uint256","internalType":"uint256"}],"stateMutability":"view"},{"type":"function","name":"milestoneToTokenId","inputs":[{"name":"","type":"uint256","internalType":"uint256"}],"outputs":[{"name":"","type":"uint256","internalType":"uint256"}],"stateMutability":"view"},{"type":"function","name":"points","inputs":[{"name":"","type":"address","internalType":"address"}],"outputs":[{"name":"","type":"uint256","internalType":"uint256"}],"stateMutability":"view"},{"type":"function","name":"renounceRole","inputs":[{"name":"role","type":"bytes32","internalType":"bytes32"},{"name":"callerConfirmation","type":"address","internalType":"address"}],"outputs":[],"stateMutability":"nonpayable"},{"type":"function","name":"revokeRole","inputs":[{"name":"role","type":"bytes32","internalType":"bytes32"},{"name":"account","type":"address","internalType":"address"}],"outputs":[],"stateMutability":"nonpayable"},{"type":"function","name":"setPointMilestone","inputs":[{"name":"milestone","type":"uint256","internalType":"uint256"},{"name":"pointReward","type":"uint256","internalType":"uint256"}],"outputs":[],"stateMutability":"nonpayable"},{"type":"function","name":"setStreak","inputs":[{"name":"user","type":"address","internalType":"address"},{"name":"_streak","type":"uint256","internalType":"uint256"}],"outputs":[],"stateMutability":"nonpayable"},{"type":"function","name":"setStreakIncrementTime","inputs":[{"name":"_streakIncrementTime","type":"uint256","internalType":"uint256"}],"outputs":[],"stateMutability":"nonpayable"},{"type":"function","name":"setStreakResetTime","inputs":[{"name":"_streakResetTime","type":"uint256","internalType":"uint256"}],"outputs":[],"stateMutability":"nonpayable"},{"type":"function","name":"setTokenMilestone","inputs":[{"name":"milestone","type":"uint256","internalType":"uint256"},{"name":"tokenId","type":"uint256","internalType":"uint256"}],"outputs":[],"stateMutability":"nonpayable"},{"type":"function","name":"streak","inputs":[{"name":"","type":"address","internalType":"address"}],"outputs":[{"name":"","type":"uint256","internalType":"uint256"}],"stateMutability":"view"},{"type":"function","name":"streakIncrementTime","inputs":[],"outputs":[{"name":"","type":"uint256","internalType":"uint256"}],"stateMutability":"view"},{"type":"function","name":"streakResetTime","inputs":[],"outputs":[{"name":"","type":"uint256","internalType":"uint256"}],"stateMutability":"view"},{"type":"function","name":"supportsInterface","inputs":[{"name":"interfaceId","type":"bytes4","internalType":"bytes4"}],"outputs":[{"name":"","type":"bool","internalType":"bool"}],"stateMutability":"view"},{"type":"function","name":"timeUntilCanClaim","inputs":[{"name":"user","type":"address","internalType":"address"}],"outputs":[{"name":"","type":"uint256","internalType":"uint256"}],"stateMutability":"view"},{"type":"function","name":"timeUntilStreakReset","inputs":[{"name":"user","type":"address","internalType":"address"}],"outputs":[{"name":"","type":"uint256","internalType":"uint256"}],"stateMutability":"view"},{"type":"event","name":"Claimed","inputs":[{"name":"user","type":"address","indexed":true,"internalType":"address"},{"name":"streak","type":"uint256","indexed":true,"internalType":"uint256"},{"name":"tokenId","type":"uint256","indexed":true,"internalType":"uint256"}],"anonymous":false},{"type":"event","name":"EarnedNFT","inputs":[{"name":"user","type":"address","indexed":true,"internalType":"address"},{"name":"tokenId","type":"uint256","indexed":true,"internalType":"uint256"}],"anonymous":false},{"type":"event","name":"RoleAdminChanged","inputs":[{"name":"role","type":"bytes32","indexed":true,"internalType":"bytes32"},{"name":"previousAdminRole","type":"bytes32","indexed":true,"internalType":"bytes32"},{"name":"newAdminRole","type":"bytes32","indexed":true,"internalType":"bytes32"}],"anonymous":false},{"type":"event","name":"RoleGranted","inputs":[{"name":"role","type":"bytes32","indexed":true,"internalType":"bytes32"},{"name":"account","type":"address","indexed":true,"internalType":"address"},{"name":"sender","type":"address","indexed":true,"internalType":"address"}],"anonymous":false},{"type":"event","name":"RoleRevoked","inputs":[{"name":"role","type":"bytes32","indexed":true,"internalType":"bytes32"},{"name":"account","type":"address","indexed":true,"internalType":"address"},{"name":"sender","type":"address","indexed":true,"internalType":"address"}],"anonymous":false},{"type":"error","name":"AccessControlBadConfirmation","inputs":[]},{"type":"error","name":"AccessControlUnauthorizedAccount","inputs":[{"name":"account","type":"address","internalType":"address"},{"name":"neededRole","type":"bytes32","internalType":"bytes32"}]}],"bytecode":{"object":"0x60806040526202a3006001556201518060025534801561001d575f5ffd5b506100305f5f1b3361006760201b60201c565b506100617fb552f1bea17e2734c4b1d253bbc784c04b883a78e93589442d4b5d6e6a2f73bd3361006760201b60201c565b506101c6565b5f610078838361015c60201b60201c565b6101525760015f5f8581526020019081526020015f205f015f8473ffffffffffffffffffffffffffffffffffffffff1673ffffffffffffffffffffffffffffffffffffffff1681526020019081526020015f205f6101000a81548160ff0219169083151502179055506100ef6101bf60201b60201c565b73ffffffffffffffffffffffffffffffffffffffff168273ffffffffffffffffffffffffffffffffffffffff16847f2f8788117e7eff1d82e926ec794901d17c78024a50270940304540a733656f0d60405160405180910390a460019050610156565b5f90505b92915050565b5f5f5f8481526020019081526020015f205f015f8373ffffffffffffffffffffffffffffffffffffffff1673ffffffffffffffffffffffffffffffffffffffff1681526020019081526020015f205f9054906101000a900460ff16905092915050565b5f33905090565b6118c4806101d35f395ff3fe608060405234801561000f575f5ffd5b50600436106101c2575f3560e01c80636a2a6518116100f7578063ac40e39011610095578063d547741f1161006f578063d547741f1461053a578063ddeae03314610556578063e378d1fb14610572578063eaecdc2d146105a2576101c2565b8063ac40e390146104d0578063afbc13b514610500578063b3feee6f1461051e576101c2565b8063875b282f116100d1578063875b282f1461043657806391d1485414610466578063a217fddf14610496578063a2417418146104b4576101c2565b80636a2a6518146103b8578063796b89b9146103e857806384874b9114610406576101c2565b8063358b8166116101645780634e71d92d1161013e5780634e71d92d14610332578063508991ff1461033c5780635267c127146103585780635dca413414610388576101c2565b8063358b8166146102ca57806336568abe146102fa5780633b6c02fc14610316576101c2565b806311147ff1116101a057806311147ff11461024457806322d5049914610262578063248a9ca31461027e5780632f2ff15d146102ae576101c2565b8063013eba92146101c657806301ffc9a7146101f657806308625ddd14610226575b5f5ffd5b6101e060048036038101906101db91906113f4565b6105be565b6040516101ed9190611437565b60405180910390f35b610210600480360381019061020b91906114a5565b6105d3565b60405161021d91906114ea565b60405180910390f35b61022e61064c565b60405161023b919061151b565b60405180910390f35b61024c610670565b6040516102599190611437565b60405180910390f35b61027c6004803603810190610277919061155e565b610676565b005b610298600480360381019061029391906115b3565b61068d565b6040516102a5919061151b565b60405180910390f35b6102c860048036038101906102c391906115de565b6106a9565b005b6102e460048036038101906102df91906113f4565b6106cb565b6040516102f19190611437565b60405180910390f35b610314600480360381019061030f91906115de565b6106e0565b005b610330600480360381019061032b919061161c565b61075b565b005b61033a6107ae565b005b6103566004803603810190610351919061155e565b6107b9565b005b610372600480360381019061036d919061155e565b6107d0565b60405161037f9190611437565b60405180910390f35b6103a2600480360381019061039d919061155e565b6107e5565b6040516103af9190611437565b60405180910390f35b6103d260048036038101906103cd91906113f4565b610805565b6040516103df9190611437565b60405180910390f35b6103f061081a565b6040516103fd9190611437565b60405180910390f35b610420600480360381019061041b91906113f4565b610821565b60405161042d9190611437565b60405180910390f35b610450600480360381019061044b91906113f4565b610925565b60405161045d9190611437565b60405180910390f35b610480600480360381019061047b91906115de565b610a29565b60405161048d91906114ea565b60405180910390f35b61049e610a8c565b6040516104ab919061151b565b60405180910390f35b6104ce60048036038101906104c9919061165a565b610a92565b005b6104ea60048036038101906104e5919061155e565b610af8565b6040516104f79190611437565b60405180910390f35b610508610b0d565b6040516105159190611437565b60405180910390f35b6105386004803603810190610533919061165a565b610b13565b005b610554600480360381019061054f91906115de565b610b3a565b005b610570600480360381019061056b91906113f4565b610b5c565b005b61058c6004803603810190610587919061155e565b610b93565b6040516105999190611437565b60405180910390f35b6105bc60048036038101906105b7919061161c565b610c13565b005b6004602052805f5260405f205f915090505481565b5f7f7965db0b000000000000000000000000000000000000000000000000000000007bffffffffffffffffffffffffffffffffffffffffffffffffffffffff1916827bffffffffffffffffffffffffffffffffffffffffffffffffffffffff19161480610645575061064482610c7e565b5b9050919050565b7fb552f1bea17e2734c4b1d253bbc784c04b883a78e93589442d4b5d6e6a2f73bd81565b60025481565b5f5f1b61068281610ce7565b816002819055505050565b5f5f5f8381526020019081526020015f20600101549050919050565b6106b28261068d565b6106bb81610ce7565b6106c58383610cfb565b50505050565b6005602052805f5260405f205f915090505481565b6106e8610de4565b73ffffffffffffffffffffffffffffffffffffffff168173ffffffffffffffffffffffffffffffffffffffff161461074c576040517f6697b23200000000000000000000000000000000000000000000000000000000815260040160405180910390fd5b6107568282610deb565b505050565b5f5f1b61076781610ce7565b8160035f8573ffffffffffffffffffffffffffffffffffffffff1673ffffffffffffffffffffffffffffffffffffffff1681526020019081526020015f2081905550505050565b6107b733610ed4565b565b5f5f1b6107c581610ce7565b816001819055505050565b6007602052805f5260405f205f915090505481565b600881815481106107f4575f80fd5b905f5260205f20015f915090505481565b6003602052805f5260405f205f915090505481565b5f42905090565b5f5f60045f8473ffffffffffffffffffffffffffffffffffffffff1673ffffffffffffffffffffffffffffffffffffffff1681526020019081526020015f20540361086e575f9050610920565b60025460045f8473ffffffffffffffffffffffffffffffffffffffff1673ffffffffffffffffffffffffffffffffffffffff1681526020019081526020015f2054426108ba91906116c5565b106108c7575f9050610920565b60045f8373ffffffffffffffffffffffffffffffffffffffff1673ffffffffffffffffffffffffffffffffffffffff1681526020019081526020015f20544261091091906116c5565b60025461091d91906116c5565b90505b919050565b5f5f60045f8473ffffffffffffffffffffffffffffffffffffffff1673ffffffffffffffffffffffffffffffffffffffff1681526020019081526020015f205403610972575f9050610a24565b60025460045f8473ffffffffffffffffffffffffffffffffffffffff1673ffffffffffffffffffffffffffffffffffffffff1681526020019081526020015f2054426109be91906116c5565b106109cb575f9050610a24565b60045f8373ffffffffffffffffffffffffffffffffffffffff1673ffffffffffffffffffffffffffffffffffffffff1681526020019081526020015f205442610a1491906116c5565b600254610a2191906116c5565b90505b919050565b5f5f5f8481526020019081526020015f205f015f8373ffffffffffffffffffffffffffffffffffffffff1673ffffffffffffffffffffffffffffffffffffffff1681526020019081526020015f205f9054906101000a900460ff16905092915050565b5f5f1b81565b5f5f1b610a9e81610ce7565b5f60075f8581526020019081526020015f205403610add57600883908060018154018082558091505060019003905f5260205f20015f90919091909150555b8160075f8581526020019081526020015f2081905550505050565b6006602052805f5260405f205f915090505481565b60015481565b5f5f1b610b1f81610ce7565b8160065f8581526020019081526020015f2081905550505050565b610b438261068d565b610b4c81610ce7565b610b568383610deb565b50505050565b7fb552f1bea17e2734c4b1d253bbc784c04b883a78e93589442d4b5d6e6a2f73bd610b8681610ce7565b610b8f82610ed4565b5050565b5f5f5f90505f5f90505f5f90505b600880549050811015610c08575f60088281548110610bc357610bc26116f8565b5b905f5260205f2001549050858111158015610bdd57508281115b15610bfa5780925060075f8281526020019081526020015f205493505b508080600101915050610ba1565b508192505050919050565b5f5f1b610c1f81610ce7565b610e1082610c2d9190611725565b42610c3891906116c5565b60045f8573ffffffffffffffffffffffffffffffffffffffff1673ffffffffffffffffffffffffffffffffffffffff1681526020019081526020015f2081905550505050565b5f7f01ffc9a7000000000000000000000000000000000000000000000000000000007bffffffffffffffffffffffffffffffffffffffffffffffffffffffff1916827bffffffffffffffffffffffffffffffffffffffffffffffffffffffff1916149050919050565b610cf881610cf3610de4565b611345565b50565b5f610d068383610a29565b610dda5760015f5f8581526020019081526020015f205f015f8473ffffffffffffffffffffffffffffffffffffffff1673ffffffffffffffffffffffffffffffffffffffff1681526020019081526020015f205f6101000a81548160ff021916908315150217905550610d77610de4565b73ffffffffffffffffffffffffffffffffffffffff168273ffffffffffffffffffffffffffffffffffffffff16847f2f8788117e7eff1d82e926ec794901d17c78024a50270940304540a733656f0d60405160405180910390a460019050610dde565b5f90505b92915050565b5f33905090565b5f610df68383610a29565b15610eca575f5f5f8581526020019081526020015f205f015f8473ffffffffffffffffffffffffffffffffffffffff1673ffffffffffffffffffffffffffffffffffffffff1681526020019081526020015f205f6101000a81548160ff021916908315150217905550610e67610de4565b73ffffffffffffffffffffffffffffffffffffffff168273ffffffffffffffffffffffffffffffffffffffff16847ff6391f5c32d9c69d2a47ea670b442974b53935d1edc7fd64eb21e047a839171b60405160405180910390a460019050610ece565b5f90505b92915050565b5f60045f8373ffffffffffffffffffffffffffffffffffffffff1673ffffffffffffffffffffffffffffffffffffffff1681526020019081526020015f20541480610f7657505f60015414158015610f75575060015460045f8373ffffffffffffffffffffffffffffffffffffffff1673ffffffffffffffffffffffffffffffffffffffff1681526020019081526020015f205442610f7391906116c5565b115b5b15610fc357600160035f8373ffffffffffffffffffffffffffffffffffffffff1673ffffffffffffffffffffffffffffffffffffffff1681526020019081526020015f20819055506110a3565b60025460045f8373ffffffffffffffffffffffffffffffffffffffff1673ffffffffffffffffffffffffffffffffffffffff1681526020019081526020015f20544261100f91906116c5565b1015611050576040517f08c379a0000000000000000000000000000000000000000000000000000000008152600401611047906117c0565b60405180910390fd5b60035f8273ffffffffffffffffffffffffffffffffffffffff1673ffffffffffffffffffffffffffffffffffffffff1681526020019081526020015f205f81548092919061109d906117de565b91905055505b4260045f8373ffffffffffffffffffffffffffffffffffffffff1673ffffffffffffffffffffffffffffffffffffffff1681526020019081526020015f208190555060065f60035f8473ffffffffffffffffffffffffffffffffffffffff1673ffffffffffffffffffffffffffffffffffffffff1681526020019081526020015f205481526020019081526020015f205460035f8373ffffffffffffffffffffffffffffffffffffffff1673ffffffffffffffffffffffffffffffffffffffff1681526020019081526020015f20548273ffffffffffffffffffffffffffffffffffffffff167f987d620f307ff6b94d58743cb7a7509f24071586a77759b77c2d4e29f75a2f9a60405160405180910390a45f60065f60035f8573ffffffffffffffffffffffffffffffffffffffff1673ffffffffffffffffffffffffffffffffffffffff1681526020019081526020015f205481526020019081526020015f20541461129d5760065f60035f8473ffffffffffffffffffffffffffffffffffffffff1673ffffffffffffffffffffffffffffffffffffffff1681526020019081526020015f205481526020019081526020015f20548173ffffffffffffffffffffffffffffffffffffffff167f57958548394d02387e4204984f7d693567c1fd729fe1ed83ae8b233332e7319e60405160405180910390a35b5f6112e460035f8473ffffffffffffffffffffffffffffffffffffffff1673ffffffffffffffffffffffffffffffffffffffff1681526020019081526020015f2054610b93565b90505f8114611341578060055f8473ffffffffffffffffffffffffffffffffffffffff1673ffffffffffffffffffffffffffffffffffffffff1681526020019081526020015f205f8282546113399190611825565b925050819055505b5050565b61134f8282610a29565b6113925780826040517fe2517d3f000000000000000000000000000000000000000000000000000000008152600401611389929190611867565b60405180910390fd5b5050565b5f5ffd5b5f73ffffffffffffffffffffffffffffffffffffffff82169050919050565b5f6113c38261139a565b9050919050565b6113d3816113b9565b81146113dd575f5ffd5b50565b5f813590506113ee816113ca565b92915050565b5f6020828403121561140957611408611396565b5b5f611416848285016113e0565b91505092915050565b5f819050919050565b6114318161141f565b82525050565b5f60208201905061144a5f830184611428565b92915050565b5f7fffffffff0000000000000000000000000000000000000000000000000000000082169050919050565b61148481611450565b811461148e575f5ffd5b50565b5f8135905061149f8161147b565b92915050565b5f602082840312156114ba576114b9611396565b5b5f6114c784828501611491565b91505092915050565b5f8115159050919050565b6114e4816114d0565b82525050565b5f6020820190506114fd5f8301846114db565b92915050565b5f819050919050565b61151581611503565b82525050565b5f60208201905061152e5f83018461150c565b92915050565b61153d8161141f565b8114611547575f5ffd5b50565b5f8135905061155881611534565b92915050565b5f6020828403121561157357611572611396565b5b5f6115808482850161154a565b91505092915050565b61159281611503565b811461159c575f5ffd5b50565b5f813590506115ad81611589565b92915050565b5f602082840312156115c8576115c7611396565b5b5f6115d58482850161159f565b91505092915050565b5f5f604083850312156115f4576115f3611396565b5b5f6116018582860161159f565b9250506020611612858286016113e0565b9150509250929050565b5f5f6040838503121561163257611631611396565b5b5f61163f858286016113e0565b92505060206116508582860161154a565b9150509250929050565b5f5f604083850312156116705761166f611396565b5b5f61167d8582860161154a565b925050602061168e8582860161154a565b9150509250929050565b7f4e487b71000000000000000000000000000000000000000000000000000000005f52601160045260245ffd5b5f6116cf8261141f565b91506116da8361141f565b92508282039050818111156116f2576116f1611698565b5b92915050565b7f4e487b71000000000000000000000000000000000000000000000000000000005f52603260045260245ffd5b5f61172f8261141f565b915061173a8361141f565b92508282026117488161141f565b9150828204841483151761175f5761175e611698565b5b5092915050565b5f82825260208201905092915050565b7f596f752063616e277420636c61696d20796574000000000000000000000000005f82015250565b5f6117aa601383611766565b91506117b582611776565b602082019050919050565b5f6020820190508181035f8301526117d78161179e565b9050919050565b5f6117e88261141f565b91507fffffffffffffffffffffffffffffffffffffffffffffffffffffffffffffffff820361181a57611819611698565b5b600182019050919050565b5f61182f8261141f565b915061183a8361141f565b925082820190508082111561185257611851611698565b5b92915050565b611861816113b9565b82525050565b5f60408201905061187a5f830185611858565b611887602083018461150c565b939250505056fea26469706673582212209567952be22d7651e3360224f8c7c966d856508107c54c02a18614b12cd44ea564736f6c634300081c0033","linkReferences":{}},"methodIdentifiers":{"CLAIM_ADMIN_ROLE()":"08625ddd","DEFAULT_ADMIN_ROLE()":"a217fddf","claim()":"4e71d92d","claimFor(address)":"ddeae033","claimHoursAgo(address,uint256)":"eaecdc2d","definedMilestones(uint256)":"5dca4134","getBlockTimestamp()":"796b89b9","getPointReward(uint256)":"e378d1fb","getRoleAdmin(bytes32)":"248a9ca3","grantRole(bytes32,address)":"2f2ff15d","hasRole(bytes32,address)":"91d14854","lastClaimed(address)":"013eba92","milestoneToPointReward(uint256)":"5267c127","milestoneToTokenId(uint256)":"ac40e390","points(address)":"358b8166","renounceRole(bytes32,address)":"36568abe","revokeRole(bytes32,address)":"d547741f","setPointMilestone(uint256,uint256)":"a2417418","setStreak(address,uint256)":"3b6c02fc","setStreakIncrementTime(uint256)":"22d50499","setStreakResetTime(uint256)":"508991ff","setTokenMilestone(uint256,uint256)":"b3feee6f","streak(address)":"6a2a6518","streakIncrementTime()":"11147ff1","streakResetTime()":"afbc13b5","supportsInterface(bytes4)":"01ffc9a7","timeUntilCanClaim(address)":"875b282f","timeUntilStreakReset(address)":"84874b91"},"id":54}