{"contracts/RoguesItems.sol":{"RoguesItems":{"abi":[{"inputs":[{"internalType":"address","name":"defaultAdmin","type":"address"},{"internalType":"address","name":"pauser","type":"address"},{"internalType":"address","name":"minter","type":"address"}],"stateMutability":"nonpayable","type":"constructor"},{"inputs":[],"name":"AccessControlBadConfirmation","type":"error"},{"inputs":[{"internalType":"address","name":"account","type":"address"},{"internalType":"bytes32","name":"neededRole","type":"bytes32"}],"name":"AccessControlUnauthorizedAccount","type":"error"},{"inputs":[{"internalType":"address","name":"sender","type":"address"},{"internalType":"uint256","name":"balance","type":"uint256"},{"internalType":"uint256","name":"needed","type":"uint256"},{"internalType":"uint256","name":"tokenId","type":"uint256"}],"name":"ERC1155InsufficientBalance","type":"error"},{"inputs":[{"internalType":"address","name":"approver","type":"address"}],"name":"ERC1155InvalidApprover","type":"error"},{"inputs":[{"internalType":"uint256","name":"idsLength","type":"uint256"},{"internalType":"uint256","name":"valuesLength","type":"uint256"}],"name":"ERC1155InvalidArrayLength","type":"error"},{"inputs":[{"internalType":"address","name":"operator","type":"address"}],"name":"ERC1155InvalidOperator","type":"error"},{"inputs":[{"internalType":"address","name":"receiver","type":"address"}],"name":"ERC1155InvalidReceiver","type":"error"},{"inputs":[{"internalType":"address","name":"sender","type":"address"}],"name":"ERC1155InvalidSender","type":"error"},{"inputs":[{"internalType":"address","name":"operator","type":"address"},{"internalType":"address","name":"owner","type":"address"}],"name":"ERC1155MissingApprovalForAll","type":"error"},{"inputs":[],"name":"EnforcedPause","type":"error"},{"inputs":[],"name":"ExpectedPause","type":"error"},{"anonymous":false,"inputs":[{"indexed":true,"internalType":"address","name":"account","type":"address"},{"indexed":true,"internalType":"address","name":"operator","type":"address"},{"indexed":false,"internalType":"bool","name":"approved","type":"bool"}],"name":"ApprovalForAll","type":"event"},{"anonymous":false,"inputs":[{"indexed":false,"internalType":"address","name":"account","type":"address"}],"name":"Paused","type":"event"},{"anonymous":false,"inputs":[{"indexed":true,"internalType":"bytes32","name":"role","type":"bytes32"},{"indexed":true,"internalType":"bytes32","name":"previousAdminRole","type":"bytes32"},{"indexed":true,"internalType":"bytes32","name":"newAdminRole","type":"bytes32"}],"name":"RoleAdminChanged","type":"event"},{"anonymous":false,"inputs":[{"indexed":true,"internalType":"bytes32","name":"role","type":"bytes32"},{"indexed":true,"internalType":"address","name":"account","type":"address"},{"indexed":true,"internalType":"address","name":"sender","type":"address"}],"name":"RoleGranted","type":"event"},{"anonymous":false,"inputs":[{"indexed":true,"internalType":"bytes32","name":"role","type":"bytes32"},{"indexed":true,"internalType":"address","name":"account","type":"address"},{"indexed":true,"internalType":"address","name":"sender","type":"address"}],"name":"RoleRevoked","type":"event"},{"anonymous":false,"inputs":[{"indexed":true,"internalType":"address","name":"operator","type":"address"},{"indexed":true,"internalType":"address","name":"from","type":"address"},{"indexed":true,"internalType":"address","name":"to","type":"address"},{"indexed":false,"internalType":"uint256[]","name":"ids","type":"uint256[]"},{"indexed":false,"internalType":"uint256[]","name":"values","type":"uint256[]"}],"name":"TransferBatch","type":"event"},{"anonymous":false,"inputs":[{"indexed":true,"internalType":"address","name":"operator","type":"address"},{"indexed":true,"internalType":"address","name":"from","type":"address"},{"indexed":true,"internalType":"address","name":"to","type":"address"},{"indexed":false,"internalType":"uint256","name":"id","type":"uint256"},{"indexed":false,"internalType":"uint256","name":"value","type":"uint256"}],"name":"TransferSingle","type":"event"},{"anonymous":false,"inputs":[{"indexed":false,"internalType":"string","name":"value","type":"string"},{"indexed":true,"internalType":"uint256","name":"id","type":"uint256"}],"name":"URI","type":"event"},{"anonymous":false,"inputs":[{"indexed":false,"internalType":"address","name":"account","type":"address"}],"name":"Unpaused","type":"event"},{"inputs":[],"name":"DEFAULT_ADMIN_ROLE","outputs":[{"internalType":"bytes32","name":"","type":"bytes32"}],"stateMutability":"view","type":"function"},{"inputs":[],"name":"MINTER_ROLE","outputs":[{"internalType":"bytes32","name":"","type":"bytes32"}],"stateMutability":"view","type":"function"},{"inputs":[],"name":"PAUSER_ROLE","outputs":[{"internalType":"bytes32","name":"","type":"bytes32"}],"stateMutability":"view","type":"function"},{"inputs":[{"internalType":"address","name":"account","type":"address"},{"internalType":"uint256","name":"id","type":"uint256"}],"name":"balanceOf","outputs":[{"internalType":"uint256","name":"","type":"uint256"}],"stateMutability":"view","type":"function"},{"inputs":[{"internalType":"address[]","name":"accounts","type":"address[]"},{"internalType":"uint256[]","name":"ids","type":"uint256[]"}],"name":"balanceOfBatch","outputs":[{"internalType":"uint256[]","name":"","type":"uint256[]"}],"stateMutability":"view","type":"function"},{"inputs":[{"internalType":"address","name":"account","type":"address"},{"internalType":"uint256[]","name":"ids","type":"uint256[]"}],"name":"balanceOfBatchOneAddr","outputs":[{"internalType":"uint256[]","name":"","type":"uint256[]"}],"stateMutability":"view","type":"function"},{"inputs":[{"internalType":"address","name":"account","type":"address"},{"internalType":"uint256","name":"id","type":"uint256"},{"internalType":"uint256","name":"value","type":"uint256"}],"name":"burn","outputs":[],"stateMutability":"nonpayable","type":"function"},{"inputs":[{"internalType":"address","name":"account","type":"address"},{"internalType":"uint256[]","name":"ids","type":"uint256[]"},{"internalType":"uint256[]","name":"values","type":"uint256[]"}],"name":"burnBatch","outputs":[],"stateMutability":"nonpayable","type":"function"},{"inputs":[{"internalType":"bytes32","name":"role","type":"bytes32"}],"name":"getRoleAdmin","outputs":[{"internalType":"bytes32","name":"","type":"bytes32"}],"stateMutability":"view","type":"function"},{"inputs":[{"internalType":"address","name":"minter","type":"address"}],"name":"grantMinterRole","outputs":[],"stateMutability":"nonpayable","type":"function"},{"inputs":[{"internalType":"bytes32","name":"role","type":"bytes32"},{"internalType":"address","name":"account","type":"address"}],"name":"grantRole","outputs":[],"stateMutability":"nonpayable","type":"function"},{"inputs":[{"internalType":"bytes32","name":"role","type":"bytes32"},{"internalType":"address","name":"account","type":"address"}],"name":"hasRole","outputs":[{"internalType":"bool","name":"","type":"bool"}],"stateMutability":"view","type":"function"},{"inputs":[{"internalType":"address","name":"account","type":"address"},{"internalType":"address","name":"operator","type":"address"}],"name":"isApprovedForAll","outputs":[{"internalType":"bool","name":"","type":"bool"}],"stateMutability":"view","type":"function"},{"inputs":[{"internalType":"address","name":"account","type":"address"},{"internalType":"uint256","name":"id","type":"uint256"},{"internalType":"uint256","name":"amount","type":"uint256"},{"internalType":"bytes","name":"data","type":"bytes"}],"name":"mint","outputs":[],"stateMutability":"nonpayable","type":"function"},{"inputs":[{"internalType":"address","name":"to","type":"address"},{"internalType":"uint256[]","name":"ids","type":"uint256[]"},{"internalType":"uint256[]","name":"amounts","type":"uint256[]"},{"internalType":"bytes","name":"data","type":"bytes"}],"name":"mintBatch","outputs":[],"stateMutability":"nonpayable","type":"function"},{"inputs":[{"internalType":"address[]","name":"accounts","type":"address[]"},{"internalType":"uint256[]","name":"ids","type":"uint256[]"},{"internalType":"uint256[]","name":"amounts","type":"uint256[]"},{"internalType":"bytes","name":"data","type":"bytes"}],"name":"mintBatchAddr","outputs":[],"stateMutability":"nonpayable","type":"function"},{"inputs":[],"name":"pause","outputs":[],"stateMutability":"nonpayable","type":"function"},{"inputs":[],"name":"paused","outputs":[{"internalType":"bool","name":"","type":"bool"}],"stateMutability":"view","type":"function"},{"inputs":[{"internalType":"bytes32","name":"role","type":"bytes32"},{"internalType":"address","name":"callerConfirmation","type":"address"}],"name":"renounceRole","outputs":[],"stateMutability":"nonpayable","type":"function"},{"inputs":[{"internalType":"bytes32","name":"role","type":"bytes32"},{"internalType":"address","name":"account","type":"address"}],"name":"revokeRole","outputs":[],"stateMutability":"nonpayable","type":"function"},{"inputs":[{"internalType":"address","name":"from","type":"address"},{"internalType":"address","name":"to","type":"address"},{"internalType":"uint256[]","name":"ids","type":"uint256[]"},{"internalType":"uint256[]","name":"values","type":"uint256[]"},{"internalType":"bytes","name":"data","type":"bytes"}],"name":"safeBatchTransferFrom","outputs":[],"stateMutability":"nonpayable","type":"function"},{"inputs":[{"internalType":"address","name":"from","type":"address"},{"internalType":"address","name":"to","type":"address"},{"internalType":"uint256","name":"id","type":"uint256"},{"internalType":"uint256","name":"value","type":"uint256"},{"internalType":"bytes","name":"data","type":"bytes"}],"name":"safeTransferFrom","outputs":[],"stateMutability":"nonpayable","type":"function"},{"inputs":[{"internalType":"address","name":"operator","type":"address"},{"internalType":"bool","name":"approved","type":"bool"}],"name":"setApprovalForAll","outputs":[],"stateMutability":"nonpayable","type":"function"},{"inputs":[{"internalType":"string","name":"newuri","type":"string"}],"name":"setURI","outputs":[],"stateMutability":"nonpayable","type":"function"},{"inputs":[{"internalType":"bytes4","name":"interfaceId","type":"bytes4"}],"name":"supportsInterface","outputs":[{"internalType":"bool","name":"","type":"bool"}],"stateMutability":"view","type":"function"},{"inputs":[],"name":"unpause","outputs":[],"stateMutability":"nonpayable","type":"function"},{"inputs":[{"internalType":"uint256","name":"tokenId","type":"uint256"}],"name":"uri","outputs":[{"internalType":"string","name":"","type":"string"}],"stateMutability":"view","type":"function"}],"evm":{"bytecode":{"linkReferences":{},"object":"608060405234801561001057600080fd5b50604051613fb7380380613fb7833981810160405281019061003291906102d2565b60405180602001604052806000815250610051816100eb60201b60201c565b506000600460006101000a81548160ff0219169083151502179055506100806000801b846100fe60201b60201c565b506100b17f65d7a28e3265b37a6474929f336521b332c1681b933f6cb9f3376673440d862a836100fe60201b60201c565b506100e27f9f2df0fed2c77648de5860a4cc508cd0818c85b8b8a1ab4ceeef8d981c8956a6826100fe60201b60201c565b50505050610647565b80600290816100fa9190610575565b5050565b600061011083836101fc60201b60201c565b6101f15760016003600085815260200190815260200160002060000160008473ffffffffffffffffffffffffffffffffffffffff1673ffffffffffffffffffffffffffffffffffffffff16815260200190815260200160002060006101000a81548160ff02191690831515021790555061018e61026760201b60201c565b73ffffffffffffffffffffffffffffffffffffffff168273ffffffffffffffffffffffffffffffffffffffff16847f2f8788117e7eff1d82e926ec794901d17c78024a50270940304540a733656f0d60405160405180910390a4600190506101f6565b600090505b92915050565b60006003600084815260200190815260200160002060000160008373ffffffffffffffffffffffffffffffffffffffff1673ffffffffffffffffffffffffffffffffffffffff16815260200190815260200160002060009054906101000a900460ff16905092915050565b600033905090565b600080fd5b600073ffffffffffffffffffffffffffffffffffffffff82169050919050565b600061029f82610274565b9050919050565b6102af81610294565b81146102ba57600080fd5b50565b6000815190506102cc816102a6565b92915050565b6000806000606084860312156102eb576102ea61026f565b5b60006102f9868287016102bd565b935050602061030a868287016102bd565b925050604061031b868287016102bd565b9150509250925092565b600081519050919050565b7f4e487b7100000000000000000000000000000000000000000000000000000000600052604160045260246000fd5b7f4e487b7100000000000000000000000000000000000000000000000000000000600052602260045260246000fd5b600060028204905060018216806103a657607f821691505b6020821081036103b9576103b861035f565b5b50919050565b60008190508160005260206000209050919050565b60006020601f8301049050919050565b600082821b905092915050565b6000600883026104217fffffffffffffffffffffffffffffffffffffffffffffffffffffffffffffffff826103e4565b61042b86836103e4565b95508019841693508086168417925050509392505050565b6000819050919050565b6000819050919050565b600061047261046d61046884610443565b61044d565b610443565b9050919050565b6000819050919050565b61048c83610457565b6104a061049882610479565b8484546103f1565b825550505050565b600090565b6104b56104a8565b6104c0818484610483565b505050565b5b818110156104e4576104d96000826104ad565b6001810190506104c6565b5050565b601f821115610529576104fa816103bf565b610503846103d4565b81016020851015610512578190505b61052661051e856103d4565b8301826104c5565b50505b505050565b600082821c905092915050565b600061054c6000198460080261052e565b1980831691505092915050565b6000610565838361053b565b9150826002028217905092915050565b61057e82610325565b67ffffffffffffffff81111561059757610596610330565b5b6105a1825461038e565b6105ac8282856104e8565b600060209050601f8311600181146105df57600084156105cd578287015190505b6105d78582610559565b86555061063f565b601f1984166105ed866103bf565b60005b82811015610615578489015182556001820191506020850194506020810190506105f0565b86831015610632578489015161062e601f89168261053b565b8355505b6001600288020188555050505b505050505050565b613961806106566000396000f3fe608060405234801561001057600080fd5b50600436106101a85760003560e01c8063503a28bd116100f9578063a22cb46511610097578063e63ab1e911610071578063e63ab1e91461049f578063e985e9c5146104bd578063f242432a146104ed578063f5298aca14610509576101a8565b8063a22cb46514610449578063d539139314610465578063d547741f14610483576101a8565b8063731133e9116100d3578063731133e9146103d55780638456cb59146103f157806391d14854146103fb578063a217fddf1461042b576101a8565b8063503a28bd1461037f5780635c975abb1461039b5780636b20c454146103b9576101a8565b80632e240ade1161016657806336568abe1161014057806336568abe1461030d5780633dd1eb61146103295780633f4ba83a146103455780634e1273f41461034f576101a8565b80632e240ade146102a55780632eb2c2d6146102d55780632f2ff15d146102f1576101a8565b8062fdd58e146101ad57806301ffc9a7146101dd57806302fe53051461020d5780630e89341c146102295780631f7fdffa14610259578063248a9ca314610275575b600080fd5b6101c760048036038101906101c29190612551565b610525565b6040516101d491906125a0565b60405180910390f35b6101f760048036038101906101f29190612613565b61057f565b604051610204919061265b565b60405180910390f35b610227600480360381019061022291906127bc565b610591565b005b610243600480360381019061023e9190612805565b6105ab565b60405161025091906128b1565b60405180910390f35b610273600480360381019061026e9190612a3c565b6105ec565b005b61028f600480360381019061028a9190612b2d565b610629565b60405161029c9190612b69565b60405180910390f35b6102bf60048036038101906102ba9190612b84565b610649565b6040516102cc9190612c9e565b60405180910390f35b6102ef60048036038101906102ea9190612cc0565b6106fe565b005b61030b60048036038101906103069190612d8f565b6107a6565b005b61032760048036038101906103229190612d8f565b6107c8565b005b610343600480360381019061033e9190612dcf565b610843565b005b61034d61087f565b005b61036960048036038101906103649190612ebf565b6108b4565b6040516103769190612c9e565b60405180910390f35b61039960048036038101906103949190612f37565b6109bd565b005b6103a3610a60565b6040516103b0919061265b565b60405180910390f35b6103d360048036038101906103ce919061300e565b610a77565b005b6103ef60048036038101906103ea9190613099565b610b23565b005b6103f9610b60565b005b61041560048036038101906104109190612d8f565b610b95565b604051610422919061265b565b60405180910390f35b610433610c00565b6040516104409190612b69565b60405180910390f35b610463600480360381019061045e9190613148565b610c07565b005b61046d610c1d565b60405161047a9190612b69565b60405180910390f35b61049d60048036038101906104989190612d8f565b610c41565b005b6104a7610c63565b6040516104b49190612b69565b60405180910390f35b6104d760048036038101906104d29190613188565b610c87565b6040516104e4919061265b565b60405180910390f35b610507600480360381019061050291906131c8565b610d1b565b005b610523600480360381019061051e919061325f565b610dc3565b005b600080600083815260200190815260200160002060008473ffffffffffffffffffffffffffffffffffffffff1673ffffffffffffffffffffffffffffffffffffffff16815260200190815260200160002054905092915050565b600061058a82610e6f565b9050919050565b6000801b61059e81610ee9565b6105a782610efd565b5050565b606060006105b883610f10565b9050806105c484610fa4565b6040516020016105d59291906132ee565b604051602081830303815290604052915050919050565b7f9f2df0fed2c77648de5860a4cc508cd0818c85b8b8a1ab4ceeef8d981c8956a661061681610ee9565b61062285858585611072565b5050505050565b600060036000838152602001908152602001600020600101549050919050565b60606000825167ffffffffffffffff81111561066857610667612691565b5b6040519080825280602002602001820160405280156106965781602001602082028036833780820191505090505b50905060005b83518110156106f3576106c9858583815181106106bc576106bb613312565b5b6020026020010151610525565b8282815181106106dc576106db613312565b5b60200260200101818152505080600101905061069c565b508091505092915050565b60006107086110f8565b90508073ffffffffffffffffffffffffffffffffffffffff168673ffffffffffffffffffffffffffffffffffffffff161415801561074d575061074b8682610c87565b155b156107915780866040517fe237d922000000000000000000000000000000000000000000000000000000008152600401610788929190613350565b60405180910390fd5b61079e8686868686611100565b505050505050565b6107af82610629565b6107b881610ee9565b6107c283836111f8565b50505050565b6107d06110f8565b73ffffffffffffffffffffffffffffffffffffffff168173ffffffffffffffffffffffffffffffffffffffff1614610834576040517f6697b23200000000000000000000000000000000000000000000000000000000815260040160405180910390fd5b61083e82826112ea565b505050565b6000801b61085081610ee9565b61087a7f9f2df0fed2c77648de5860a4cc508cd0818c85b8b8a1ab4ceeef8d981c8956a6836111f8565b505050565b7f65d7a28e3265b37a6474929f336521b332c1681b933f6cb9f3376673440d862a6108a981610ee9565b6108b16113dd565b50565b6060815183511461090057815183516040517f5b0599910000000000000000000000000000000000000000000000000000000081526004016108f7929190613379565b60405180910390fd5b6000835167ffffffffffffffff81111561091d5761091c612691565b5b60405190808252806020026020018201604052801561094b5781602001602082028036833780820191505090505b50905060005b84518110156109b257610988610970828761144090919063ffffffff16565b610983838761145490919063ffffffff16565b610525565b82828151811061099b5761099a613312565b5b602002602001018181525050806001019050610951565b508091505092915050565b7f9f2df0fed2c77648de5860a4cc508cd0818c85b8b8a1ab4ceeef8d981c8956a66109e781610ee9565b60005b8551811015610a5857610a4d868281518110610a0957610a08613312565b5b6020026020010151868381518110610a2457610a23613312565b5b6020026020010151868481518110610a3f57610a3e613312565b5b602002602001015186611468565b8060010190506109ea565b505050505050565b6000600460009054906101000a900460ff16905090565b610a7f6110f8565b73ffffffffffffffffffffffffffffffffffffffff168373ffffffffffffffffffffffffffffffffffffffff1614158015610ac85750610ac683610ac16110f8565b610c87565b155b15610b1357610ad56110f8565b836040517fe237d922000000000000000000000000000000000000000000000000000000008152600401610b0a929190613350565b60405180910390fd5b610b1e838383611501565b505050565b7f9f2df0fed2c77648de5860a4cc508cd0818c85b8b8a1ab4ceeef8d981c8956a6610b4d81610ee9565b610b5985858585611468565b5050505050565b7f65d7a28e3265b37a6474929f336521b332c1681b933f6cb9f3376673440d862a610b8a81610ee9565b610b92611595565b50565b60006003600084815260200190815260200160002060000160008373ffffffffffffffffffffffffffffffffffffffff1673ffffffffffffffffffffffffffffffffffffffff16815260200190815260200160002060009054906101000a900460ff16905092915050565b6000801b81565b610c19610c126110f8565b83836115f8565b5050565b7f9f2df0fed2c77648de5860a4cc508cd0818c85b8b8a1ab4ceeef8d981c8956a681565b610c4a82610629565b610c5381610ee9565b610c5d83836112ea565b50505050565b7f65d7a28e3265b37a6474929f336521b332c1681b933f6cb9f3376673440d862a81565b6000600160008473ffffffffffffffffffffffffffffffffffffffff1673ffffffffffffffffffffffffffffffffffffffff16815260200190815260200160002060008373ffffffffffffffffffffffffffffffffffffffff1673ffffffffffffffffffffffffffffffffffffffff16815260200190815260200160002060009054906101000a900460ff16905092915050565b6000610d256110f8565b90508073ffffffffffffffffffffffffffffffffffffffff168673ffffffffffffffffffffffffffffffffffffffff1614158015610d6a5750610d688682610c87565b155b15610dae5780866040517fe237d922000000000000000000000000000000000000000000000000000000008152600401610da5929190613350565b60405180910390fd5b610dbb8686868686611768565b505050505050565b610dcb6110f8565b73ffffffffffffffffffffffffffffffffffffffff168373ffffffffffffffffffffffffffffffffffffffff1614158015610e145750610e1283610e0d6110f8565b610c87565b155b15610e5f57610e216110f8565b836040517fe237d922000000000000000000000000000000000000000000000000000000008152600401610e56929190613350565b60405180910390fd5b610e6a838383611873565b505050565b60007f7965db0b000000000000000000000000000000000000000000000000000000007bffffffffffffffffffffffffffffffffffffffffffffffffffffffff1916827bffffffffffffffffffffffffffffffffffffffffffffffffffffffff19161480610ee25750610ee18261191a565b5b9050919050565b610efa81610ef56110f8565b6119fc565b50565b8060029081610f0c91906135ae565b5050565b606060028054610f1f906133d1565b80601f0160208091040260200160405190810160405280929190818152602001828054610f4b906133d1565b8015610f985780601f10610f6d57610100808354040283529160200191610f98565b820191906000526020600020905b815481529060010190602001808311610f7b57829003601f168201915b50505050509050919050565b606060006001610fb384611a4d565b01905060008167ffffffffffffffff811115610fd257610fd1612691565b5b6040519080825280601f01601f1916602001820160405280156110045781602001600182028036833780820191505090505b509050600082602001820190505b600115611067578080600190039150507f3031323334353637383961626364656600000000000000000000000000000000600a86061a8153600a858161105b5761105a613680565b5b04945060008503611012575b819350505050919050565b600073ffffffffffffffffffffffffffffffffffffffff168473ffffffffffffffffffffffffffffffffffffffff16036110e45760006040517f57f447ce0000000000000000000000000000000000000000000000000000000081526004016110db91906136af565b60405180910390fd5b6110f2600085858585611ba0565b50505050565b600033905090565b600073ffffffffffffffffffffffffffffffffffffffff168473ffffffffffffffffffffffffffffffffffffffff16036111725760006040517f57f447ce00000000000000000000000000000000000000000000000000000000815260040161116991906136af565b60405180910390fd5b600073ffffffffffffffffffffffffffffffffffffffff168573ffffffffffffffffffffffffffffffffffffffff16036111e45760006040517f01a835140000000000000000000000000000000000000000000000000000000081526004016111db91906136af565b60405180910390fd5b6111f18585858585611ba0565b5050505050565b60006112048383610b95565b6112df5760016003600085815260200190815260200160002060000160008473ffffffffffffffffffffffffffffffffffffffff1673ffffffffffffffffffffffffffffffffffffffff16815260200190815260200160002060006101000a81548160ff02191690831515021790555061127c6110f8565b73ffffffffffffffffffffffffffffffffffffffff168273ffffffffffffffffffffffffffffffffffffffff16847f2f8788117e7eff1d82e926ec794901d17c78024a50270940304540a733656f0d60405160405180910390a4600190506112e4565b600090505b92915050565b60006112f68383610b95565b156113d25760006003600085815260200190815260200160002060000160008473ffffffffffffffffffffffffffffffffffffffff1673ffffffffffffffffffffffffffffffffffffffff16815260200190815260200160002060006101000a81548160ff02191690831515021790555061136f6110f8565b73ffffffffffffffffffffffffffffffffffffffff168273ffffffffffffffffffffffffffffffffffffffff16847ff6391f5c32d9c69d2a47ea670b442974b53935d1edc7fd64eb21e047a839171b60405160405180910390a4600190506113d7565b600090505b92915050565b6113e5611c52565b6000600460006101000a81548160ff0219169083151502179055507f5db9ee0a495bf2e6ff9c91a7834c1ba4fdd244a5e8aa4e537bd38aeae4b073aa6114296110f8565b60405161143691906136af565b60405180910390a1565b600060208202602084010151905092915050565b600060208202602084010151905092915050565b600073ffffffffffffffffffffffffffffffffffffffff168473ffffffffffffffffffffffffffffffffffffffff16036114da5760006040517f57f447ce0000000000000000000000000000000000000000000000000000000081526004016114d191906136af565b60405180910390fd5b6000806114e78585611c92565b915091506114f9600087848487611ba0565b505050505050565b600073ffffffffffffffffffffffffffffffffffffffff168373ffffffffffffffffffffffffffffffffffffffff16036115735760006040517f01a8351400000000000000000000000000000000000000000000000000000000815260040161156a91906136af565b60405180910390fd5b611590836000848460405180602001604052806000815250611ba0565b505050565b61159d611cc2565b6001600460006101000a81548160ff0219169083151502179055507f62e78cea01bee320cd4e420270b5ea74000d11b0c9f74754ebdbfc544b05a2586115e16110f8565b6040516115ee91906136af565b60405180910390a1565b600073ffffffffffffffffffffffffffffffffffffffff168273ffffffffffffffffffffffffffffffffffffffff160361166a5760006040517fced3e10000000000000000000000000000000000000000000000000000000000815260040161166191906136af565b60405180910390fd5b80600160008573ffffffffffffffffffffffffffffffffffffffff1673ffffffffffffffffffffffffffffffffffffffff16815260200190815260200160002060008473ffffffffffffffffffffffffffffffffffffffff1673ffffffffffffffffffffffffffffffffffffffff16815260200190815260200160002060006101000a81548160ff0219169083151502179055508173ffffffffffffffffffffffffffffffffffffffff168373ffffffffffffffffffffffffffffffffffffffff167f17307eab39ab6107e8899845ad3d59bd9653f200f220920489ca2b5937696c318360405161175b919061265b565b60405180910390a3505050565b600073ffffffffffffffffffffffffffffffffffffffff168473ffffffffffffffffffffffffffffffffffffffff16036117da5760006040517f57f447ce0000000000000000000000000000000000000000000000000000000081526004016117d191906136af565b60405180910390fd5b600073ffffffffffffffffffffffffffffffffffffffff168573ffffffffffffffffffffffffffffffffffffffff160361184c5760006040517f01a8351400000000000000000000000000000000000000000000000000000000815260040161184391906136af565b60405180910390fd5b6000806118598585611c92565b9150915061186a8787848487611ba0565b50505050505050565b600073ffffffffffffffffffffffffffffffffffffffff168373ffffffffffffffffffffffffffffffffffffffff16036118e55760006040517f01a835140000000000000000000000000000000000000000000000000000000081526004016118dc91906136af565b60405180910390fd5b6000806118f28484611c92565b91509150611913856000848460405180602001604052806000815250611ba0565b5050505050565b60007fd9b67a26000000000000000000000000000000000000000000000000000000007bffffffffffffffffffffffffffffffffffffffffffffffffffffffff1916827bffffffffffffffffffffffffffffffffffffffffffffffffffffffff191614806119e557507f0e89341c000000000000000000000000000000000000000000000000000000007bffffffffffffffffffffffffffffffffffffffffffffffffffffffff1916827bffffffffffffffffffffffffffffffffffffffffffffffffffffffff1916145b806119f557506119f482611d03565b5b9050919050565b611a068282610b95565b611a495780826040517fe2517d3f000000000000000000000000000000000000000000000000000000008152600401611a409291906136ca565b60405180910390fd5b5050565b600080600090507a184f03e93ff9f4daa797ed6e38ed64bf6a1f0100000000000000008310611aab577a184f03e93ff9f4daa797ed6e38ed64bf6a1f0100000000000000008381611aa157611aa0613680565b5b0492506040810190505b6d04ee2d6d415b85acef81000000008310611ae8576d04ee2d6d415b85acef81000000008381611ade57611add613680565b5b0492506020810190505b662386f26fc100008310611b1757662386f26fc100008381611b0d57611b0c613680565b5b0492506010810190505b6305f5e1008310611b40576305f5e1008381611b3657611b35613680565b5b0492506008810190505b6127108310611b65576127108381611b5b57611b5a613680565b5b0492506004810190505b60648310611b885760648381611b7e57611b7d613680565b5b0492506002810190505b600a8310611b97576001810190505b80915050919050565b611bac85858585611d6d565b600073ffffffffffffffffffffffffffffffffffffffff168473ffffffffffffffffffffffffffffffffffffffff1614611c4b576000611bea6110f8565b90506001845103611c3a576000611c0b60008661145490919063ffffffff16565b90506000611c2360008661145490919063ffffffff16565b9050611c33838989858589611d7f565b5050611c49565b611c48818787878787611f33565b5b505b5050505050565b611c5a610a60565b611c90576040517f8dfc202b00000000000000000000000000000000000000000000000000000000815260040160405180910390fd5b565b60608060405191506001825283602083015260408201905060018152826020820152604081016040529250929050565b611cca610a60565b15611d01576040517fd93c066500000000000000000000000000000000000000000000000000000000815260040160405180910390fd5b565b60007f01ffc9a7000000000000000000000000000000000000000000000000000000007bffffffffffffffffffffffffffffffffffffffffffffffffffffffff1916827bffffffffffffffffffffffffffffffffffffffffffffffffffffffff1916149050919050565b611d79848484846120e7565b50505050565b60008473ffffffffffffffffffffffffffffffffffffffff163b1115611f2b578373ffffffffffffffffffffffffffffffffffffffff1663f23a6e6187878686866040518663ffffffff1660e01b8152600401611de0959493929190613748565b6020604051808303816000875af1925050508015611e1c57506040513d601f19601f82011682018060405250810190611e1991906137b7565b60015b611ea0573d8060008114611e4c576040519150601f19603f3d011682016040523d82523d6000602084013e611e51565b606091505b506000815103611e9857846040517f57f447ce000000000000000000000000000000000000000000000000000000008152600401611e8f91906136af565b60405180910390fd5b805181602001fd5b63f23a6e6160e01b7bffffffffffffffffffffffffffffffffffffffffffffffffffffffff1916817bffffffffffffffffffffffffffffffffffffffffffffffffffffffff191614611f2957846040517f57f447ce000000000000000000000000000000000000000000000000000000008152600401611f2091906136af565b60405180910390fd5b505b505050505050565b60008473ffffffffffffffffffffffffffffffffffffffff163b11156120df578373ffffffffffffffffffffffffffffffffffffffff1663bc197c8187878686866040518663ffffffff1660e01b8152600401611f949594939291906137e4565b6020604051808303816000875af1925050508015611fd057506040513d601f19601f82011682018060405250810190611fcd91906137b7565b60015b612054573d8060008114612000576040519150601f19603f3d011682016040523d82523d6000602084013e612005565b606091505b50600081510361204c57846040517f57f447ce00000000000000000000000000000000000000000000000000000000815260040161204391906136af565b60405180910390fd5b805181602001fd5b63bc197c8160e01b7bffffffffffffffffffffffffffffffffffffffffffffffffffffffff1916817bffffffffffffffffffffffffffffffffffffffffffffffffffffffff1916146120dd57846040517f57f447ce0000000000000000000000000000000000000000000000000000000081526004016120d491906136af565b60405180910390fd5b505b505050505050565b6120ef611cc2565b6120fb84848484612101565b50505050565b805182511461214b57815181516040517f5b059991000000000000000000000000000000000000000000000000000000008152600401612142929190613379565b60405180910390fd5b60006121556110f8565b905060005b8351811015612364576000612178828661145490919063ffffffff16565b9050600061218f838661145490919063ffffffff16565b9050600073ffffffffffffffffffffffffffffffffffffffff168873ffffffffffffffffffffffffffffffffffffffff16146122bc57600080600084815260200190815260200160002060008a73ffffffffffffffffffffffffffffffffffffffff1673ffffffffffffffffffffffffffffffffffffffff1681526020019081526020016000205490508181101561226457888183856040517f03dee4c500000000000000000000000000000000000000000000000000000000815260040161225b949392919061384c565b60405180910390fd5b81810360008085815260200190815260200160002060008b73ffffffffffffffffffffffffffffffffffffffff1673ffffffffffffffffffffffffffffffffffffffff16815260200190815260200160002081905550505b600073ffffffffffffffffffffffffffffffffffffffff168773ffffffffffffffffffffffffffffffffffffffff1614612357578060008084815260200190815260200160002060008973ffffffffffffffffffffffffffffffffffffffff1673ffffffffffffffffffffffffffffffffffffffff168152602001908152602001600020600082825461234f91906138c0565b925050819055505b505080600101905061215a565b50600183510361242357600061238460008561145490919063ffffffff16565b9050600061239c60008561145490919063ffffffff16565b90508573ffffffffffffffffffffffffffffffffffffffff168773ffffffffffffffffffffffffffffffffffffffff168473ffffffffffffffffffffffffffffffffffffffff167fc3d58168c5ae7397731d063d5bbf3d657854427343f4c083240f7aacaa2d0f628585604051612414929190613379565b60405180910390a450506124a2565b8373ffffffffffffffffffffffffffffffffffffffff168573ffffffffffffffffffffffffffffffffffffffff168273ffffffffffffffffffffffffffffffffffffffff167f4a39dc06d4c0dbc64b70af90fd698a233a518aa5d07e595d983b8c0526c8f7fb86866040516124999291906138f4565b60405180910390a45b5050505050565b6000604051905090565b600080fd5b600080fd5b600073ffffffffffffffffffffffffffffffffffffffff82169050919050565b60006124e8826124bd565b9050919050565b6124f8816124dd565b811461250357600080fd5b50565b600081359050612515816124ef565b92915050565b6000819050919050565b61252e8161251b565b811461253957600080fd5b50565b60008135905061254b81612525565b92915050565b60008060408385031215612568576125676124b3565b5b600061257685828601612506565b92505060206125878582860161253c565b9150509250929050565b61259a8161251b565b82525050565b60006020820190506125b56000830184612591565b92915050565b60007fffffffff0000000000000000000000000000000000000000000000000000000082169050919050565b6125f0816125bb565b81146125fb57600080fd5b50565b60008135905061260d816125e7565b92915050565b600060208284031215612629576126286124b3565b5b6000612637848285016125fe565b91505092915050565b60008115159050919050565b61265581612640565b82525050565b6000602082019050612670600083018461264c565b92915050565b600080fd5b600080fd5b6000601f19601f8301169050919050565b7f4e487b7100000000000000000000000000000000000000000000000000000000600052604160045260246000fd5b6126c982612680565b810181811067ffffffffffffffff821117156126e8576126e7612691565b5b80604052505050565b60006126fb6124a9565b905061270782826126c0565b919050565b600067ffffffffffffffff82111561272757612726612691565b5b61273082612680565b9050602081019050919050565b82818337600083830152505050565b600061275f61275a8461270c565b6126f1565b90508281526020810184848401111561277b5761277a61267b565b5b61278684828561273d565b509392505050565b600082601f8301126127a3576127a2612676565b5b81356127b384826020860161274c565b91505092915050565b6000602082840312156127d2576127d16124b3565b5b600082013567ffffffffffffffff8111156127f0576127ef6124b8565b5b6127fc8482850161278e565b91505092915050565b60006020828403121561281b5761281a6124b3565b5b60006128298482850161253c565b91505092915050565b600081519050919050565b600082825260208201905092915050565b60005b8381101561286c578082015181840152602081019050612851565b60008484015250505050565b600061288382612832565b61288d818561283d565b935061289d81856020860161284e565b6128a681612680565b840191505092915050565b600060208201905081810360008301526128cb8184612878565b905092915050565b600067ffffffffffffffff8211156128ee576128ed612691565b5b602082029050602081019050919050565b600080fd5b6000612917612912846128d3565b6126f1565b9050808382526020820190506020840283018581111561293a576129396128ff565b5b835b81811015612963578061294f888261253c565b84526020840193505060208101905061293c565b5050509392505050565b600082601f83011261298257612981612676565b5b8135612992848260208601612904565b91505092915050565b600067ffffffffffffffff8211156129b6576129b5612691565b5b6129bf82612680565b9050602081019050919050565b60006129df6129da8461299b565b6126f1565b9050828152602081018484840111156129fb576129fa61267b565b5b612a0684828561273d565b509392505050565b600082601f830112612a2357612a22612676565b5b8135612a338482602086016129cc565b91505092915050565b60008060008060808587031215612a5657612a556124b3565b5b6000612a6487828801612506565b945050602085013567ffffffffffffffff811115612a8557612a846124b8565b5b612a918782880161296d565b935050604085013567ffffffffffffffff811115612ab257612ab16124b8565b5b612abe8782880161296d565b925050606085013567ffffffffffffffff811115612adf57612ade6124b8565b5b612aeb87828801612a0e565b91505092959194509250565b6000819050919050565b612b0a81612af7565b8114612b1557600080fd5b50565b600081359050612b2781612b01565b92915050565b600060208284031215612b4357612b426124b3565b5b6000612b5184828501612b18565b91505092915050565b612b6381612af7565b82525050565b6000602082019050612b7e6000830184612b5a565b92915050565b60008060408385031215612b9b57612b9a6124b3565b5b6000612ba985828601612506565b925050602083013567ffffffffffffffff811115612bca57612bc96124b8565b5b612bd68582860161296d565b9150509250929050565b600081519050919050565b600082825260208201905092915050565b6000819050602082019050919050565b612c158161251b565b82525050565b6000612c278383612c0c565b60208301905092915050565b6000602082019050919050565b6000612c4b82612be0565b612c558185612beb565b9350612c6083612bfc565b8060005b83811015612c91578151612c788882612c1b565b9750612c8383612c33565b925050600181019050612c64565b5085935050505092915050565b60006020820190508181036000830152612cb88184612c40565b905092915050565b600080600080600060a08688031215612cdc57612cdb6124b3565b5b6000612cea88828901612506565b9550506020612cfb88828901612506565b945050604086013567ffffffffffffffff811115612d1c57612d1b6124b8565b5b612d288882890161296d565b935050606086013567ffffffffffffffff811115612d4957612d486124b8565b5b612d558882890161296d565b925050608086013567ffffffffffffffff811115612d7657612d756124b8565b5b612d8288828901612a0e565b9150509295509295909350565b60008060408385031215612da657612da56124b3565b5b6000612db485828601612b18565b9250506020612dc585828601612506565b9150509250929050565b600060208284031215612de557612de46124b3565b5b6000612df384828501612506565b91505092915050565b600067ffffffffffffffff821115612e1757612e16612691565b5b602082029050602081019050919050565b6000612e3b612e3684612dfc565b6126f1565b90508083825260208201905060208402830185811115612e5e57612e5d6128ff565b5b835b81811015612e875780612e738882612506565b845260208401935050602081019050612e60565b5050509392505050565b600082601f830112612ea657612ea5612676565b5b8135612eb6848260208601612e28565b91505092915050565b60008060408385031215612ed657612ed56124b3565b5b600083013567ffffffffffffffff811115612ef457612ef36124b8565b5b612f0085828601612e91565b925050602083013567ffffffffffffffff811115612f2157612f206124b8565b5b612f2d8582860161296d565b9150509250929050565b60008060008060808587031215612f5157612f506124b3565b5b600085013567ffffffffffffffff811115612f6f57612f6e6124b8565b5b612f7b87828801612e91565b945050602085013567ffffffffffffffff811115612f9c57612f9b6124b8565b5b612fa88782880161296d565b935050604085013567ffffffffffffffff811115612fc957612fc86124b8565b5b612fd58782880161296d565b925050606085013567ffffffffffffffff811115612ff657612ff56124b8565b5b61300287828801612a0e565b91505092959194509250565b600080600060608486031215613027576130266124b3565b5b600061303586828701612506565b935050602084013567ffffffffffffffff811115613056576130556124b8565b5b6130628682870161296d565b925050604084013567ffffffffffffffff811115613083576130826124b8565b5b61308f8682870161296d565b9150509250925092565b600080600080608085870312156130b3576130b26124b3565b5b60006130c187828801612506565b94505060206130d28782880161253c565b93505060406130e38782880161253c565b925050606085013567ffffffffffffffff811115613104576131036124b8565b5b61311087828801612a0e565b91505092959194509250565b61312581612640565b811461313057600080fd5b50565b6000813590506131428161311c565b92915050565b6000806040838503121561315f5761315e6124b3565b5b600061316d85828601612506565b925050602061317e85828601613133565b9150509250929050565b6000806040838503121561319f5761319e6124b3565b5b60006131ad85828601612506565b92505060206131be85828601612506565b9150509250929050565b600080600080600060a086880312156131e4576131e36124b3565b5b60006131f288828901612506565b955050602061320388828901612506565b94505060406132148882890161253c565b93505060606132258882890161253c565b925050608086013567ffffffffffffffff811115613246576132456124b8565b5b61325288828901612a0e565b9150509295509295909350565b600080600060608486031215613278576132776124b3565b5b600061328686828701612506565b93505060206132978682870161253c565b92505060406132a88682870161253c565b9150509250925092565b600081905092915050565b60006132c882612832565b6132d281856132b2565b93506132e281856020860161284e565b80840191505092915050565b60006132fa82856132bd565b915061330682846132bd565b91508190509392505050565b7f4e487b7100000000000000000000000000000000000000000000000000000000600052603260045260246000fd5b61334a816124dd565b82525050565b60006040820190506133656000830185613341565b6133726020830184613341565b9392505050565b600060408201905061338e6000830185612591565b61339b6020830184612591565b9392505050565b7f4e487b7100000000000000000000000000000000000000000000000000000000600052602260045260246000fd5b600060028204905060018216806133e957607f821691505b6020821081036133fc576133fb6133a2565b5b50919050565b60008190508160005260206000209050919050565b60006020601f8301049050919050565b600082821b905092915050565b6000600883026134647fffffffffffffffffffffffffffffffffffffffffffffffffffffffffffffffff82613427565b61346e8683613427565b95508019841693508086168417925050509392505050565b6000819050919050565b60006134ab6134a66134a18461251b565b613486565b61251b565b9050919050565b6000819050919050565b6134c583613490565b6134d96134d1826134b2565b848454613434565b825550505050565b600090565b6134ee6134e1565b6134f98184846134bc565b505050565b5b8181101561351d576135126000826134e6565b6001810190506134ff565b5050565b601f8211156135625761353381613402565b61353c84613417565b8101602085101561354b578190505b61355f61355785613417565b8301826134fe565b50505b505050565b600082821c905092915050565b600061358560001984600802613567565b1980831691505092915050565b600061359e8383613574565b9150826002028217905092915050565b6135b782612832565b67ffffffffffffffff8111156135d0576135cf612691565b5b6135da82546133d1565b6135e5828285613521565b600060209050601f8311600181146136185760008415613606578287015190505b6136108582613592565b865550613678565b601f19841661362686613402565b60005b8281101561364e57848901518255600182019150602085019450602081019050613629565b8683101561366b5784890151613667601f891682613574565b8355505b6001600288020188555050505b505050505050565b7f4e487b7100000000000000000000000000000000000000000000000000000000600052601260045260246000fd5b60006020820190506136c46000830184613341565b92915050565b60006040820190506136df6000830185613341565b6136ec6020830184612b5a565b9392505050565b600081519050919050565b600082825260208201905092915050565b600061371a826136f3565b61372481856136fe565b935061373481856020860161284e565b61373d81612680565b840191505092915050565b600060a08201905061375d6000830188613341565b61376a6020830187613341565b6137776040830186612591565b6137846060830185612591565b8181036080830152613796818461370f565b90509695505050505050565b6000815190506137b1816125e7565b92915050565b6000602082840312156137cd576137cc6124b3565b5b60006137db848285016137a2565b91505092915050565b600060a0820190506137f96000830188613341565b6138066020830187613341565b81810360408301526138188186612c40565b9050818103606083015261382c8185612c40565b90508181036080830152613840818461370f565b90509695505050505050565b60006080820190506138616000830187613341565b61386e6020830186612591565b61387b6040830185612591565b6138886060830184612591565b95945050505050565b7f4e487b7100000000000000000000000000000000000000000000000000000000600052601160045260246000fd5b60006138cb8261251b565b91506138d68361251b565b92508282019050808211156138ee576138ed613891565b5b92915050565b6000604082019050818103600083015261390e8185612c40565b905081810360208301526139228184612c40565b9050939250505056fea26469706673582212205ac9dc5bc918f40527e482c2ed28889ca000ace2ceefe130411bc08ec42cbab864736f6c634300081c0033","opcodes":"PUSH1 0x80 PUSH1 0x40 MSTORE CALLVALUE DUP1 ISZERO PUSH2 0x10 JUMPI PUSH1 0x0 DUP1 REVERT JUMPDEST POP PUSH1 0x40 MLOAD PUSH2 0x3FB7 CODESIZE SUB DUP1 PUSH2 0x3FB7 DUP4 CODECOPY DUP2 DUP2 ADD PUSH1 0x40 MSTORE DUP2 ADD SWAP1 PUSH2 0x32 SWAP2 SWAP1 PUSH2 0x2D2 JUMP JUMPDEST PUSH1 0x40 MLOAD DUP1 PUSH1 0x20 ADD PUSH1 0x40 MSTORE DUP1 PUSH1 0x0 DUP2 MSTORE POP PUSH2 0x51 DUP2 PUSH2 0xEB PUSH1 0x20 SHL PUSH1 0x20 SHR JUMP JUMPDEST POP PUSH1 0x0 PUSH1 0x4 PUSH1 0x0 PUSH2 0x100 EXP DUP2 SLOAD DUP2 PUSH1 0xFF MUL NOT AND SWAP1 DUP4 ISZERO ISZERO MUL OR SWAP1 SSTORE POP PUSH2 0x80 PUSH1 0x0 DUP1 SHL DUP5 PUSH2 0xFE PUSH1 0x20 SHL PUSH1 0x20 SHR JUMP JUMPDEST POP PUSH2 0xB1 PUSH32 0x65D7A28E3265B37A6474929F336521B332C1681B933F6CB9F3376673440D862A DUP4 PUSH2 0xFE PUSH1 0x20 SHL PUSH1 0x20 SHR JUMP JUMPDEST POP PUSH2 0xE2 PUSH32 0x9F2DF0FED2C77648DE5860A4CC508CD0818C85B8B8A1AB4CEEEF8D981C8956A6 DUP3 PUSH2 0xFE PUSH1 0x20 SHL PUSH1 0x20 SHR JUMP JUMPDEST POP POP POP POP PUSH2 0x647 JUMP JUMPDEST DUP1 PUSH1 0x2 SWAP1 DUP2 PUSH2 0xFA SWAP2 SWAP1 PUSH2 0x575 JUMP JUMPDEST POP POP JUMP JUMPDEST PUSH1 0x0 PUSH2 0x110 DUP4 DUP4 PUSH2 0x1FC PUSH1 0x20 SHL PUSH1 0x20 SHR JUMP JUMPDEST PUSH2 0x1F1 JUMPI PUSH1 0x1 PUSH1 0x3 PUSH1 0x0 DUP6 DUP2 MSTORE PUSH1 0x20 ADD SWAP1 DUP2 MSTORE PUSH1 0x20 ADD PUSH1 0x0 KECCAK256 PUSH1 0x0 ADD PUSH1 0x0 DUP5 PUSH20 0xFFFFFFFFFFFFFFFFFFFFFFFFFFFFFFFFFFFFFFFF AND PUSH20 0xFFFFFFFFFFFFFFFFFFFFFFFFFFFFFFFFFFFFFFFF AND DUP2 MSTORE PUSH1 0x20 ADD SWAP1 DUP2 MSTORE PUSH1 0x20 ADD PUSH1 0x0 KECCAK256 PUSH1 0x0 PUSH2 0x100 EXP DUP2 SLOAD DUP2 PUSH1 0xFF MUL NOT AND SWAP1 DUP4 ISZERO ISZERO MUL OR SWAP1 SSTORE POP PUSH2 0x18E PUSH2 0x267 PUSH1 0x20 SHL PUSH1 0x20 SHR JUMP JUMPDEST PUSH20 0xFFFFFFFFFFFFFFFFFFFFFFFFFFFFFFFFFFFFFFFF AND DUP3 PUSH20 0xFFFFFFFFFFFFFFFFFFFFFFFFFFFFFFFFFFFFFFFF AND DUP5 PUSH32 0x2F8788117E7EFF1D82E926EC794901D17C78024A50270940304540A733656F0D PUSH1 0x40 MLOAD PUSH1 0x40 MLOAD DUP1 SWAP2 SUB SWAP1 LOG4 PUSH1 0x1 SWAP1 POP PUSH2 0x1F6 JUMP JUMPDEST PUSH1 0x0 SWAP1 POP JUMPDEST SWAP3 SWAP2 POP POP JUMP JUMPDEST PUSH1 0x0 PUSH1 0x3 PUSH1 0x0 DUP5 DUP2 MSTORE PUSH1 0x20 ADD SWAP1 DUP2 MSTORE PUSH1 0x20 ADD PUSH1 0x0 KECCAK256 PUSH1 0x0 ADD PUSH1 0x0 DUP4 PUSH20 0xFFFFFFFFFFFFFFFFFFFFFFFFFFFFFFFFFFFFFFFF AND PUSH20 0xFFFFFFFFFFFFFFFFFFFFFFFFFFFFFFFFFFFFFFFF AND DUP2 MSTORE PUSH1 0x20 ADD SWAP1 DUP2 MSTORE PUSH1 0x20 ADD PUSH1 0x0 KECCAK256 PUSH1 0x0 SWAP1 SLOAD SWAP1 PUSH2 0x100 EXP SWAP1 DIV PUSH1 0xFF AND SWAP1 POP SWAP3 SWAP2 POP POP JUMP JUMPDEST PUSH1 0x0 CALLER SWAP1 POP SWAP1 JUMP JUMPDEST PUSH1 0x0 DUP1 REVERT JUMPDEST PUSH1 0x0 PUSH20 0xFFFFFFFFFFFFFFFFFFFFFFFFFFFFFFFFFFFFFFFF DUP3 AND SWAP1 POP SWAP2 SWAP1 POP JUMP JUMPDEST PUSH1 0x0 PUSH2 0x29F DUP3 PUSH2 0x274 JUMP JUMPDEST SWAP1 POP SWAP2 SWAP1 POP JUMP JUMPDEST PUSH2 0x2AF DUP2 PUSH2 0x294 JUMP JUMPDEST DUP2 EQ PUSH2 0x2BA JUMPI PUSH1 0x0 DUP1 REVERT JUMPDEST POP JUMP JUMPDEST PUSH1 0x0 DUP2 MLOAD SWAP1 POP PUSH2 0x2CC DUP2 PUSH2 0x2A6 JUMP JUMPDEST SWAP3 SWAP2 POP POP JUMP JUMPDEST PUSH1 0x0 DUP1 PUSH1 0x0 PUSH1 0x60 DUP5 DUP7 SUB SLT ISZERO PUSH2 0x2EB JUMPI PUSH2 0x2EA PUSH2 0x26F JUMP JUMPDEST JUMPDEST PUSH1 0x0 PUSH2 0x2F9 DUP7 DUP3 DUP8 ADD PUSH2 0x2BD JUMP JUMPDEST SWAP4 POP POP PUSH1 0x20 PUSH2 0x30A DUP7 DUP3 DUP8 ADD PUSH2 0x2BD JUMP JUMPDEST SWAP3 POP POP PUSH1 0x40 PUSH2 0x31B DUP7 DUP3 DUP8 ADD PUSH2 0x2BD JUMP JUMPDEST SWAP2 POP POP SWAP3 POP SWAP3 POP SWAP3 JUMP JUMPDEST PUSH1 0x0 DUP2 MLOAD SWAP1 POP SWAP2 SWAP1 POP JUMP JUMPDEST PUSH32 0x4E487B7100000000000000000000000000000000000000000000000000000000 PUSH1 0x0 MSTORE PUSH1 0x41 PUSH1 0x4 MSTORE PUSH1 0x24 PUSH1 0x0 REVERT JUMPDEST PUSH32 0x4E487B7100000000000000000000000000000000000000000000000000000000 PUSH1 0x0 MSTORE PUSH1 0x22 PUSH1 0x4 MSTORE PUSH1 0x24 PUSH1 0x0 REVERT JUMPDEST PUSH1 0x0 PUSH1 0x2 DUP3 DIV SWAP1 POP PUSH1 0x1 DUP3 AND DUP1 PUSH2 0x3A6 JUMPI PUSH1 0x7F DUP3 AND SWAP2 POP JUMPDEST PUSH1 0x20 DUP3 LT DUP2 SUB PUSH2 0x3B9 JUMPI PUSH2 0x3B8 PUSH2 0x35F JUMP JUMPDEST JUMPDEST POP SWAP2 SWAP1 POP JUMP JUMPDEST PUSH1 0x0 DUP2 SWAP1 POP DUP2 PUSH1 0x0 MSTORE PUSH1 0x20 PUSH1 0x0 KECCAK256 SWAP1 POP SWAP2 SWAP1 POP JUMP JUMPDEST PUSH1 0x0 PUSH1 0x20 PUSH1 0x1F DUP4 ADD DIV SWAP1 POP SWAP2 SWAP1 POP JUMP JUMPDEST PUSH1 0x0 DUP3 DUP3 SHL SWAP1 POP SWAP3 SWAP2 POP POP JUMP JUMPDEST PUSH1 0x0 PUSH1 0x8 DUP4 MUL PUSH2 0x421 PUSH32 0xFFFFFFFFFFFFFFFFFFFFFFFFFFFFFFFFFFFFFFFFFFFFFFFFFFFFFFFFFFFFFFFF DUP3 PUSH2 0x3E4 JUMP JUMPDEST PUSH2 0x42B DUP7 DUP4 PUSH2 0x3E4 JUMP JUMPDEST SWAP6 POP DUP1 NOT DUP5 AND SWAP4 POP DUP1 DUP7 AND DUP5 OR SWAP3 POP POP POP SWAP4 SWAP3 POP POP POP JUMP JUMPDEST PUSH1 0x0 DUP2 SWAP1 POP SWAP2 SWAP1 POP JUMP JUMPDEST PUSH1 0x0 DUP2 SWAP1 POP SWAP2 SWAP1 POP JUMP JUMPDEST PUSH1 0x0 PUSH2 0x472 PUSH2 0x46D PUSH2 0x468 DUP5 PUSH2 0x443 JUMP JUMPDEST PUSH2 0x44D JUMP JUMPDEST PUSH2 0x443 JUMP JUMPDEST SWAP1 POP SWAP2 SWAP1 POP JUMP JUMPDEST PUSH1 0x0 DUP2 SWAP1 POP SWAP2 SWAP1 POP JUMP JUMPDEST PUSH2 0x48C DUP4 PUSH2 0x457 JUMP JUMPDEST PUSH2 0x4A0 PUSH2 0x498 DUP3 PUSH2 0x479 JUMP JUMPDEST DUP5 DUP5 SLOAD PUSH2 0x3F1 JUMP JUMPDEST DUP3 SSTORE POP POP POP POP JUMP JUMPDEST PUSH1 0x0 SWAP1 JUMP JUMPDEST PUSH2 0x4B5 PUSH2 0x4A8 JUMP JUMPDEST PUSH2 0x4C0 DUP2 DUP5 DUP5 PUSH2 0x483 JUMP JUMPDEST POP POP POP JUMP JUMPDEST JUMPDEST DUP2 DUP2 LT ISZERO PUSH2 0x4E4 JUMPI PUSH2 0x4D9 PUSH1 0x0 DUP3 PUSH2 0x4AD JUMP JUMPDEST PUSH1 0x1 DUP2 ADD SWAP1 POP PUSH2 0x4C6 JUMP JUMPDEST POP POP JUMP JUMPDEST PUSH1 0x1F DUP3 GT ISZERO PUSH2 0x529 JUMPI PUSH2 0x4FA DUP2 PUSH2 0x3BF JUMP JUMPDEST PUSH2 0x503 DUP5 PUSH2 0x3D4 JUMP JUMPDEST DUP2 ADD PUSH1 0x20 DUP6 LT ISZERO PUSH2 0x512 JUMPI DUP2 SWAP1 POP JUMPDEST PUSH2 0x526 PUSH2 0x51E DUP6 PUSH2 0x3D4 JUMP JUMPDEST DUP4 ADD DUP3 PUSH2 0x4C5 JUMP JUMPDEST POP POP JUMPDEST POP POP POP JUMP JUMPDEST PUSH1 0x0 DUP3 DUP3 SHR SWAP1 POP SWAP3 SWAP2 POP POP JUMP JUMPDEST PUSH1 0x0 PUSH2 0x54C PUSH1 0x0 NOT DUP5 PUSH1 0x8 MUL PUSH2 0x52E JUMP JUMPDEST NOT DUP1 DUP4 AND SWAP2 POP POP SWAP3 SWAP2 POP POP JUMP JUMPDEST PUSH1 0x0 PUSH2 0x565 DUP4 DUP4 PUSH2 0x53B JUMP JUMPDEST SWAP2 POP DUP3 PUSH1 0x2 MUL DUP3 OR SWAP1 POP SWAP3 SWAP2 POP POP JUMP JUMPDEST PUSH2 0x57E DUP3 PUSH2 0x325 JUMP JUMPDEST PUSH8 0xFFFFFFFFFFFFFFFF DUP2 GT ISZERO PUSH2 0x597 JUMPI PUSH2 0x596 PUSH2 0x330 JUMP JUMPDEST JUMPDEST PUSH2 0x5A1 DUP3 SLOAD PUSH2 0x38E JUMP JUMPDEST PUSH2 0x5AC DUP3 DUP3 DUP6 PUSH2 0x4E8 JUMP JUMPDEST PUSH1 0x0 PUSH1 0x20 SWAP1 POP PUSH1 0x1F DUP4 GT PUSH1 0x1 DUP2 EQ PUSH2 0x5DF JUMPI PUSH1 0x0 DUP5 ISZERO PUSH2 0x5CD JUMPI DUP3 DUP8 ADD MLOAD SWAP1 POP JUMPDEST PUSH2 0x5D7 DUP6 DUP3 PUSH2 0x559 JUMP JUMPDEST DUP7 SSTORE POP PUSH2 0x63F JUMP JUMPDEST PUSH1 0x1F NOT DUP5 AND PUSH2 0x5ED DUP7 PUSH2 0x3BF JUMP JUMPDEST PUSH1 0x0 JUMPDEST DUP3 DUP2 LT ISZERO PUSH2 0x615 JUMPI DUP5 DUP10 ADD MLOAD DUP3 SSTORE PUSH1 0x1 DUP3 ADD SWAP2 POP PUSH1 0x20 DUP6 ADD SWAP5 POP PUSH1 0x20 DUP2 ADD SWAP1 POP PUSH2 0x5F0 JUMP JUMPDEST DUP7 DUP4 LT ISZERO PUSH2 0x632 JUMPI DUP5 DUP10 ADD MLOAD PUSH2 0x62E PUSH1 0x1F DUP10 AND DUP3 PUSH2 0x53B JUMP JUMPDEST DUP4 SSTORE POP JUMPDEST PUSH1 0x1 PUSH1 0x2 DUP9 MUL ADD DUP9 SSTORE POP POP POP JUMPDEST POP POP POP POP POP POP JUMP JUMPDEST PUSH2 0x3961 DUP1 PUSH2 0x656 PUSH1 0x0 CODECOPY PUSH1 0x0 RETURN INVALID PUSH1 0x80 PUSH1 0x40 MSTORE CALLVALUE DUP1 ISZERO PUSH2 0x10 JUMPI PUSH1 0x0 DUP1 REVERT JUMPDEST POP PUSH1 0x4 CALLDATASIZE LT PUSH2 0x1A8 JUMPI PUSH1 0x0 CALLDATALOAD PUSH1 0xE0 SHR DUP1 PUSH4 0x503A28BD GT PUSH2 0xF9 JUMPI DUP1 PUSH4 0xA22CB465 GT PUSH2 0x97 JUMPI DUP1 PUSH4 0xE63AB1E9 GT PUSH2 0x71 JUMPI DUP1 PUSH4 0xE63AB1E9 EQ PUSH2 0x49F JUMPI DUP1 PUSH4 0xE985E9C5 EQ PUSH2 0x4BD JUMPI DUP1 PUSH4 0xF242432A EQ PUSH2 0x4ED JUMPI DUP1 PUSH4 0xF5298ACA EQ PUSH2 0x509 JUMPI PUSH2 0x1A8 JUMP JUMPDEST DUP1 PUSH4 0xA22CB465 EQ PUSH2 0x449 JUMPI DUP1 PUSH4 0xD5391393 EQ PUSH2 0x465 JUMPI DUP1 PUSH4 0xD547741F EQ PUSH2 0x483 JUMPI PUSH2 0x1A8 JUMP JUMPDEST DUP1 PUSH4 0x731133E9 GT PUSH2 0xD3 JUMPI DUP1 PUSH4 0x731133E9 EQ PUSH2 0x3D5 JUMPI DUP1 PUSH4 0x8456CB59 EQ PUSH2 0x3F1 JUMPI DUP1 PUSH4 0x91D14854 EQ PUSH2 0x3FB JUMPI DUP1 PUSH4 0xA217FDDF EQ PUSH2 0x42B JUMPI PUSH2 0x1A8 JUMP JUMPDEST DUP1 PUSH4 0x503A28BD EQ PUSH2 0x37F JUMPI DUP1 PUSH4 0x5C975ABB EQ PUSH2 0x39B JUMPI DUP1 PUSH4 0x6B20C454 EQ PUSH2 0x3B9 JUMPI PUSH2 0x1A8 JUMP JUMPDEST DUP1 PUSH4 0x2E240ADE GT PUSH2 0x166 JUMPI DUP1 PUSH4 0x36568ABE GT PUSH2 0x140 JUMPI DUP1 PUSH4 0x36568ABE EQ PUSH2 0x30D JUMPI DUP1 PUSH4 0x3DD1EB61 EQ PUSH2 0x329 JUMPI DUP1 PUSH4 0x3F4BA83A EQ PUSH2 0x345 JUMPI DUP1 PUSH4 0x4E1273F4 EQ PUSH2 0x34F JUMPI PUSH2 0x1A8 JUMP JUMPDEST DUP1 PUSH4 0x2E240ADE EQ PUSH2 0x2A5 JUMPI DUP1 PUSH4 0x2EB2C2D6 EQ PUSH2 0x2D5 JUMPI DUP1 PUSH4 0x2F2FF15D EQ PUSH2 0x2F1 JUMPI PUSH2 0x1A8 JUMP JUMPDEST DUP1 PUSH3 0xFDD58E EQ PUSH2 0x1AD JUMPI DUP1 PUSH4 0x1FFC9A7 EQ PUSH2 0x1DD JUMPI DUP1 PUSH4 0x2FE5305 EQ PUSH2 0x20D JUMPI DUP1 PUSH4 0xE89341C EQ PUSH2 0x229 JUMPI DUP1 PUSH4 0x1F7FDFFA EQ PUSH2 0x259 JUMPI DUP1 PUSH4 0x248A9CA3 EQ PUSH2 0x275 JUMPI JUMPDEST PUSH1 0x0 DUP1 REVERT JUMPDEST PUSH2 0x1C7 PUSH1 0x4 DUP1 CALLDATASIZE SUB DUP2 ADD SWAP1 PUSH2 0x1C2 SWAP2 SWAP1 PUSH2 0x2551 JUMP JUMPDEST PUSH2 0x525 JUMP JUMPDEST PUSH1 0x40 MLOAD PUSH2 0x1D4 SWAP2 SWAP1 PUSH2 0x25A0 JUMP JUMPDEST PUSH1 0x40 MLOAD DUP1 SWAP2 SUB SWAP1 RETURN JUMPDEST PUSH2 0x1F7 PUSH1 0x4 DUP1 CALLDATASIZE SUB DUP2 ADD SWAP1 PUSH2 0x1F2 SWAP2 SWAP1 PUSH2 0x2613 JUMP JUMPDEST PUSH2 0x57F JUMP JUMPDEST PUSH1 0x40 MLOAD PUSH2 0x204 SWAP2 SWAP1 PUSH2 0x265B JUMP JUMPDEST PUSH1 0x40 MLOAD DUP1 SWAP2 SUB SWAP1 RETURN JUMPDEST PUSH2 0x227 PUSH1 0x4 DUP1 CALLDATASIZE SUB DUP2 ADD SWAP1 PUSH2 0x222 SWAP2 SWAP1 PUSH2 0x27BC JUMP JUMPDEST PUSH2 0x591 JUMP JUMPDEST STOP JUMPDEST PUSH2 0x243 PUSH1 0x4 DUP1 CALLDATASIZE SUB DUP2 ADD SWAP1 PUSH2 0x23E SWAP2 SWAP1 PUSH2 0x2805 JUMP JUMPDEST PUSH2 0x5AB JUMP JUMPDEST PUSH1 0x40 MLOAD PUSH2 0x250 SWAP2 SWAP1 PUSH2 0x28B1 JUMP JUMPDEST PUSH1 0x40 MLOAD DUP1 SWAP2 SUB SWAP1 RETURN JUMPDEST PUSH2 0x273 PUSH1 0x4 DUP1 CALLDATASIZE SUB DUP2 ADD SWAP1 PUSH2 0x26E SWAP2 SWAP1 PUSH2 0x2A3C JUMP JUMPDEST PUSH2 0x5EC JUMP JUMPDEST STOP JUMPDEST PUSH2 0x28F PUSH1 0x4 DUP1 CALLDATASIZE SUB DUP2 ADD SWAP1 PUSH2 0x28A SWAP2 SWAP1 PUSH2 0x2B2D JUMP JUMPDEST PUSH2 0x629 JUMP JUMPDEST PUSH1 0x40 MLOAD PUSH2 0x29C SWAP2 SWAP1 PUSH2 0x2B69 JUMP JUMPDEST PUSH1 0x40 MLOAD DUP1 SWAP2 SUB SWAP1 RETURN JUMPDEST PUSH2 0x2BF PUSH1 0x4 DUP1 CALLDATASIZE SUB DUP2 ADD SWAP1 PUSH2 0x2BA SWAP2 SWAP1 PUSH2 0x2B84 JUMP JUMPDEST PUSH2 0x649 JUMP JUMPDEST PUSH1 0x40 MLOAD PUSH2 0x2CC SWAP2 SWAP1 PUSH2 0x2C9E JUMP JUMPDEST PUSH1 0x40 MLOAD DUP1 SWAP2 SUB SWAP1 RETURN JUMPDEST PUSH2 0x2EF PUSH1 0x4 DUP1 CALLDATASIZE SUB DUP2 ADD SWAP1 PUSH2 0x2EA SWAP2 SWAP1 PUSH2 0x2CC0 JUMP JUMPDEST PUSH2 0x6FE JUMP JUMPDEST STOP JUMPDEST PUSH2 0x30B PUSH1 0x4 DUP1 CALLDATASIZE SUB DUP2 ADD SWAP1 PUSH2 0x306 SWAP2 SWAP1 PUSH2 0x2D8F JUMP JUMPDEST PUSH2 0x7A6 JUMP JUMPDEST STOP JUMPDEST PUSH2 0x327 PUSH1 0x4 DUP1 CALLDATASIZE SUB DUP2 ADD SWAP1 PUSH2 0x322 SWAP2 SWAP1 PUSH2 0x2D8F JUMP JUMPDEST PUSH2 0x7C8 JUMP JUMPDEST STOP JUMPDEST PUSH2 0x343 PUSH1 0x4 DUP1 CALLDATASIZE SUB DUP2 ADD SWAP1 PUSH2 0x33E SWAP2 SWAP1 PUSH2 0x2DCF JUMP JUMPDEST PUSH2 0x843 JUMP JUMPDEST STOP JUMPDEST PUSH2 0x34D PUSH2 0x87F JUMP JUMPDEST STOP JUMPDEST PUSH2 0x369 PUSH1 0x4 DUP1 CALLDATASIZE SUB DUP2 ADD SWAP1 PUSH2 0x364 SWAP2 SWAP1 PUSH2 0x2EBF JUMP JUMPDEST PUSH2 0x8B4 JUMP JUMPDEST PUSH1 0x40 MLOAD PUSH2 0x376 SWAP2 SWAP1 PUSH2 0x2C9E JUMP JUMPDEST PUSH1 0x40 MLOAD DUP1 SWAP2 SUB SWAP1 RETURN JUMPDEST PUSH2 0x399 PUSH1 0x4 DUP1 CALLDATASIZE SUB DUP2 ADD SWAP1 PUSH2 0x394 SWAP2 SWAP1 PUSH2 0x2F37 JUMP JUMPDEST PUSH2 0x9BD JUMP JUMPDEST STOP JUMPDEST PUSH2 0x3A3 PUSH2 0xA60 JUMP JUMPDEST PUSH1 0x40 MLOAD PUSH2 0x3B0 SWAP2 SWAP1 PUSH2 0x265B JUMP JUMPDEST PUSH1 0x40 MLOAD DUP1 SWAP2 SUB SWAP1 RETURN JUMPDEST PUSH2 0x3D3 PUSH1 0x4 DUP1 CALLDATASIZE SUB DUP2 ADD SWAP1 PUSH2 0x3CE SWAP2 SWAP1 PUSH2 0x300E JUMP JUMPDEST PUSH2 0xA77 JUMP JUMPDEST STOP JUMPDEST PUSH2 0x3EF PUSH1 0x4 DUP1 CALLDATASIZE SUB DUP2 ADD SWAP1 PUSH2 0x3EA SWAP2 SWAP1 PUSH2 0x3099 JUMP JUMPDEST PUSH2 0xB23 JUMP JUMPDEST STOP JUMPDEST PUSH2 0x3F9 PUSH2 0xB60 JUMP JUMPDEST STOP JUMPDEST PUSH2 0x415 PUSH1 0x4 DUP1 CALLDATASIZE SUB DUP2 ADD SWAP1 PUSH2 0x410 SWAP2 SWAP1 PUSH2 0x2D8F JUMP JUMPDEST PUSH2 0xB95 JUMP JUMPDEST PUSH1 0x40 MLOAD PUSH2 0x422 SWAP2 SWAP1 PUSH2 0x265B JUMP JUMPDEST PUSH1 0x40 MLOAD DUP1 SWAP2 SUB SWAP1 RETURN JUMPDEST PUSH2 0x433 PUSH2 0xC00 JUMP JUMPDEST PUSH1 0x40 MLOAD PUSH2 0x440 SWAP2 SWAP1 PUSH2 0x2B69 JUMP JUMPDEST PUSH1 0x40 MLOAD DUP1 SWAP2 SUB SWAP1 RETURN JUMPDEST PUSH2 0x463 PUSH1 0x4 DUP1 CALLDATASIZE SUB DUP2 ADD SWAP1 PUSH2 0x45E SWAP2 SWAP1 PUSH2 0x3148 JUMP JUMPDEST PUSH2 0xC07 JUMP JUMPDEST STOP JUMPDEST PUSH2 0x46D PUSH2 0xC1D JUMP JUMPDEST PUSH1 0x40 MLOAD PUSH2 0x47A SWAP2 SWAP1 PUSH2 0x2B69 JUMP JUMPDEST PUSH1 0x40 MLOAD DUP1 SWAP2 SUB SWAP1 RETURN JUMPDEST PUSH2 0x49D PUSH1 0x4 DUP1 CALLDATASIZE SUB DUP2 ADD SWAP1 PUSH2 0x498 SWAP2 SWAP1 PUSH2 0x2D8F JUMP JUMPDEST PUSH2 0xC41 JUMP JUMPDEST STOP JUMPDEST PUSH2 0x4A7 PUSH2 0xC63 JUMP JUMPDEST PUSH1 0x40 MLOAD PUSH2 0x4B4 SWAP2 SWAP1 PUSH2 0x2B69 JUMP JUMPDEST PUSH1 0x40 MLOAD DUP1 SWAP2 SUB SWAP1 RETURN JUMPDEST PUSH2 0x4D7 PUSH1 0x4 DUP1 CALLDATASIZE SUB DUP2 ADD SWAP1 PUSH2 0x4D2 SWAP2 SWAP1 PUSH2 0x3188 JUMP JUMPDEST PUSH2 0xC87 JUMP JUMPDEST PUSH1 0x40 MLOAD PUSH2 0x4E4 SWAP2 SWAP1 PUSH2 0x265B JUMP JUMPDEST PUSH1 0x40 MLOAD DUP1 SWAP2 SUB SWAP1 RETURN JUMPDEST PUSH2 0x507 PUSH1 0x4 DUP1 CALLDATASIZE SUB DUP2 ADD SWAP1 PUSH2 0x502 SWAP2 SWAP1 PUSH2 0x31C8 JUMP JUMPDEST PUSH2 0xD1B JUMP JUMPDEST STOP JUMPDEST PUSH2 0x523 PUSH1 0x4 DUP1 CALLDATASIZE SUB DUP2 ADD SWAP1 PUSH2 0x51E SWAP2 SWAP1 PUSH2 0x325F JUMP JUMPDEST PUSH2 0xDC3 JUMP JUMPDEST STOP JUMPDEST PUSH1 0x0 DUP1 PUSH1 0x0 DUP4 DUP2 MSTORE PUSH1 0x20 ADD SWAP1 DUP2 MSTORE PUSH1 0x20 ADD PUSH1 0x0 KECCAK256 PUSH1 0x0 DUP5 PUSH20 0xFFFFFFFFFFFFFFFFFFFFFFFFFFFFFFFFFFFFFFFF AND PUSH20 0xFFFFFFFFFFFFFFFFFFFFFFFFFFFFFFFFFFFFFFFF AND DUP2 MSTORE PUSH1 0x20 ADD SWAP1 DUP2 MSTORE PUSH1 0x20 ADD PUSH1 0x0 KECCAK256 SLOAD SWAP1 POP SWAP3 SWAP2 POP POP JUMP JUMPDEST PUSH1 0x0 PUSH2 0x58A DUP3 PUSH2 0xE6F JUMP JUMPDEST SWAP1 POP SWAP2 SWAP1 POP JUMP JUMPDEST PUSH1 0x0 DUP1 SHL PUSH2 0x59E DUP2 PUSH2 0xEE9 JUMP JUMPDEST PUSH2 0x5A7 DUP3 PUSH2 0xEFD JUMP JUMPDEST POP POP JUMP JUMPDEST PUSH1 0x60 PUSH1 0x0 PUSH2 0x5B8 DUP4 PUSH2 0xF10 JUMP JUMPDEST SWAP1 POP DUP1 PUSH2 0x5C4 DUP5 PUSH2 0xFA4 JUMP JUMPDEST PUSH1 0x40 MLOAD PUSH1 0x20 ADD PUSH2 0x5D5 SWAP3 SWAP2 SWAP1 PUSH2 0x32EE JUMP JUMPDEST PUSH1 0x40 MLOAD PUSH1 0x20 DUP2 DUP4 SUB SUB DUP2 MSTORE SWAP1 PUSH1 0x40 MSTORE SWAP2 POP POP SWAP2 SWAP1 POP JUMP JUMPDEST PUSH32 0x9F2DF0FED2C77648DE5860A4CC508CD0818C85B8B8A1AB4CEEEF8D981C8956A6 PUSH2 0x616 DUP2 PUSH2 0xEE9 JUMP JUMPDEST PUSH2 0x622 DUP6 DUP6 DUP6 DUP6 PUSH2 0x1072 JUMP JUMPDEST POP POP POP POP POP JUMP JUMPDEST PUSH1 0x0 PUSH1 0x3 PUSH1 0x0 DUP4 DUP2 MSTORE PUSH1 0x20 ADD SWAP1 DUP2 MSTORE PUSH1 0x20 ADD PUSH1 0x0 KECCAK256 PUSH1 0x1 ADD SLOAD SWAP1 POP SWAP2 SWAP1 POP JUMP JUMPDEST PUSH1 0x60 PUSH1 0x0 DUP3 MLOAD PUSH8 0xFFFFFFFFFFFFFFFF DUP2 GT ISZERO PUSH2 0x668 JUMPI PUSH2 0x667 PUSH2 0x2691 JUMP JUMPDEST JUMPDEST PUSH1 0x40 MLOAD SWAP1 DUP1 DUP3 MSTORE DUP1 PUSH1 0x20 MUL PUSH1 0x20 ADD DUP3 ADD PUSH1 0x40 MSTORE DUP1 ISZERO PUSH2 0x696 JUMPI DUP2 PUSH1 0x20 ADD PUSH1 0x20 DUP3 MUL DUP1 CALLDATASIZE DUP4 CALLDATACOPY DUP1 DUP3 ADD SWAP2 POP POP SWAP1 POP JUMPDEST POP SWAP1 POP PUSH1 0x0 JUMPDEST DUP4 MLOAD DUP2 LT ISZERO PUSH2 0x6F3 JUMPI PUSH2 0x6C9 DUP6 DUP6 DUP4 DUP2 MLOAD DUP2 LT PUSH2 0x6BC JUMPI PUSH2 0x6BB PUSH2 0x3312 JUMP JUMPDEST JUMPDEST PUSH1 0x20 MUL PUSH1 0x20 ADD ADD MLOAD PUSH2 0x525 JUMP JUMPDEST DUP3 DUP3 DUP2 MLOAD DUP2 LT PUSH2 0x6DC JUMPI PUSH2 0x6DB PUSH2 0x3312 JUMP JUMPDEST JUMPDEST PUSH1 0x20 MUL PUSH1 0x20 ADD ADD DUP2 DUP2 MSTORE POP POP DUP1 PUSH1 0x1 ADD SWAP1 POP PUSH2 0x69C JUMP JUMPDEST POP DUP1 SWAP2 POP POP SWAP3 SWAP2 POP POP JUMP JUMPDEST PUSH1 0x0 PUSH2 0x708 PUSH2 0x10F8 JUMP JUMPDEST SWAP1 POP DUP1 PUSH20 0xFFFFFFFFFFFFFFFFFFFFFFFFFFFFFFFFFFFFFFFF AND DUP7 PUSH20 0xFFFFFFFFFFFFFFFFFFFFFFFFFFFFFFFFFFFFFFFF AND EQ ISZERO DUP1 ISZERO PUSH2 0x74D JUMPI POP PUSH2 0x74B DUP7 DUP3 PUSH2 0xC87 JUMP JUMPDEST ISZERO JUMPDEST ISZERO PUSH2 0x791 JUMPI DUP1 DUP7 PUSH1 0x40 MLOAD PUSH32 0xE237D92200000000000000000000000000000000000000000000000000000000 DUP2 MSTORE PUSH1 0x4 ADD PUSH2 0x788 SWAP3 SWAP2 SWAP1 PUSH2 0x3350 JUMP JUMPDEST PUSH1 0x40 MLOAD DUP1 SWAP2 SUB SWAP1 REVERT JUMPDEST PUSH2 0x79E DUP7 DUP7 DUP7 DUP7 DUP7 PUSH2 0x1100 JUMP JUMPDEST POP POP POP POP POP POP JUMP JUMPDEST PUSH2 0x7AF DUP3 PUSH2 0x629 JUMP JUMPDEST PUSH2 0x7B8 DUP2 PUSH2 0xEE9 JUMP JUMPDEST PUSH2 0x7C2 DUP4 DUP4 PUSH2 0x11F8 JUMP JUMPDEST POP POP POP POP JUMP JUMPDEST PUSH2 0x7D0 PUSH2 0x10F8 JUMP JUMPDEST PUSH20 0xFFFFFFFFFFFFFFFFFFFFFFFFFFFFFFFFFFFFFFFF AND DUP2 PUSH20 0xFFFFFFFFFFFFFFFFFFFFFFFFFFFFFFFFFFFFFFFF AND EQ PUSH2 0x834 JUMPI PUSH1 0x40 MLOAD PUSH32 0x6697B23200000000000000000000000000000000000000000000000000000000 DUP2 MSTORE PUSH1 0x4 ADD PUSH1 0x40 MLOAD DUP1 SWAP2 SUB SWAP1 REVERT JUMPDEST PUSH2 0x83E DUP3 DUP3 PUSH2 0x12EA JUMP JUMPDEST POP POP POP JUMP JUMPDEST PUSH1 0x0 DUP1 SHL PUSH2 0x850 DUP2 PUSH2 0xEE9 JUMP JUMPDEST PUSH2 0x87A PUSH32 0x9F2DF0FED2C77648DE5860A4CC508CD0818C85B8B8A1AB4CEEEF8D981C8956A6 DUP4 PUSH2 0x11F8 JUMP JUMPDEST POP POP POP JUMP JUMPDEST PUSH32 0x65D7A28E3265B37A6474929F336521B332C1681B933F6CB9F3376673440D862A PUSH2 0x8A9 DUP2 PUSH2 0xEE9 JUMP JUMPDEST PUSH2 0x8B1 PUSH2 0x13DD JUMP JUMPDEST POP JUMP JUMPDEST PUSH1 0x60 DUP2 MLOAD DUP4 MLOAD EQ PUSH2 0x900 JUMPI DUP2 MLOAD DUP4 MLOAD PUSH1 0x40 MLOAD PUSH32 0x5B05999100000000000000000000000000000000000000000000000000000000 DUP2 MSTORE PUSH1 0x4 ADD PUSH2 0x8F7 SWAP3 SWAP2 SWAP1 PUSH2 0x3379 JUMP JUMPDEST PUSH1 0x40 MLOAD DUP1 SWAP2 SUB SWAP1 REVERT JUMPDEST PUSH1 0x0 DUP4 MLOAD PUSH8 0xFFFFFFFFFFFFFFFF DUP2 GT ISZERO PUSH2 0x91D JUMPI PUSH2 0x91C PUSH2 0x2691 JUMP JUMPDEST JUMPDEST PUSH1 0x40 MLOAD SWAP1 DUP1 DUP3 MSTORE DUP1 PUSH1 0x20 MUL PUSH1 0x20 ADD DUP3 ADD PUSH1 0x40 MSTORE DUP1 ISZERO PUSH2 0x94B JUMPI DUP2 PUSH1 0x20 ADD PUSH1 0x20 DUP3 MUL DUP1 CALLDATASIZE DUP4 CALLDATACOPY DUP1 DUP3 ADD SWAP2 POP POP SWAP1 POP JUMPDEST POP SWAP1 POP PUSH1 0x0 JUMPDEST DUP5 MLOAD DUP2 LT ISZERO PUSH2 0x9B2 JUMPI PUSH2 0x988 PUSH2 0x970 DUP3 DUP8 PUSH2 0x1440 SWAP1 SWAP2 SWAP1 PUSH4 0xFFFFFFFF AND JUMP JUMPDEST PUSH2 0x983 DUP4 DUP8 PUSH2 0x1454 SWAP1 SWAP2 SWAP1 PUSH4 0xFFFFFFFF AND JUMP JUMPDEST PUSH2 0x525 JUMP JUMPDEST DUP3 DUP3 DUP2 MLOAD DUP2 LT PUSH2 0x99B JUMPI PUSH2 0x99A PUSH2 0x3312 JUMP JUMPDEST JUMPDEST PUSH1 0x20 MUL PUSH1 0x20 ADD ADD DUP2 DUP2 MSTORE POP POP DUP1 PUSH1 0x1 ADD SWAP1 POP PUSH2 0x951 JUMP JUMPDEST POP DUP1 SWAP2 POP POP SWAP3 SWAP2 POP POP JUMP JUMPDEST PUSH32 0x9F2DF0FED2C77648DE5860A4CC508CD0818C85B8B8A1AB4CEEEF8D981C8956A6 PUSH2 0x9E7 DUP2 PUSH2 0xEE9 JUMP JUMPDEST PUSH1 0x0 JUMPDEST DUP6 MLOAD DUP2 LT ISZERO PUSH2 0xA58 JUMPI PUSH2 0xA4D DUP7 DUP3 DUP2 MLOAD DUP2 LT PUSH2 0xA09 JUMPI PUSH2 0xA08 PUSH2 0x3312 JUMP JUMPDEST JUMPDEST PUSH1 0x20 MUL PUSH1 0x20 ADD ADD MLOAD DUP7 DUP4 DUP2 MLOAD DUP2 LT PUSH2 0xA24 JUMPI PUSH2 0xA23 PUSH2 0x3312 JUMP JUMPDEST JUMPDEST PUSH1 0x20 MUL PUSH1 0x20 ADD ADD MLOAD DUP7 DUP5 DUP2 MLOAD DUP2 LT PUSH2 0xA3F JUMPI PUSH2 0xA3E PUSH2 0x3312 JUMP JUMPDEST JUMPDEST PUSH1 0x20 MUL PUSH1 0x20 ADD ADD MLOAD DUP7 PUSH2 0x1468 JUMP JUMPDEST DUP1 PUSH1 0x1 ADD SWAP1 POP PUSH2 0x9EA JUMP JUMPDEST POP POP POP POP POP POP JUMP JUMPDEST PUSH1 0x0 PUSH1 0x4 PUSH1 0x0 SWAP1 SLOAD SWAP1 PUSH2 0x100 EXP SWAP1 DIV PUSH1 0xFF AND SWAP1 POP SWAP1 JUMP JUMPDEST PUSH2 0xA7F PUSH2 0x10F8 JUMP JUMPDEST PUSH20 0xFFFFFFFFFFFFFFFFFFFFFFFFFFFFFFFFFFFFFFFF AND DUP4 PUSH20 0xFFFFFFFFFFFFFFFFFFFFFFFFFFFFFFFFFFFFFFFF AND EQ ISZERO DUP1 ISZERO PUSH2 0xAC8 JUMPI POP PUSH2 0xAC6 DUP4 PUSH2 0xAC1 PUSH2 0x10F8 JUMP JUMPDEST PUSH2 0xC87 JUMP JUMPDEST ISZERO JUMPDEST ISZERO PUSH2 0xB13 JUMPI PUSH2 0xAD5 PUSH2 0x10F8 JUMP JUMPDEST DUP4 PUSH1 0x40 MLOAD PUSH32 0xE237D92200000000000000000000000000000000000000000000000000000000 DUP2 MSTORE PUSH1 0x4 ADD PUSH2 0xB0A SWAP3 SWAP2 SWAP1 PUSH2 0x3350 JUMP JUMPDEST PUSH1 0x40 MLOAD DUP1 SWAP2 SUB SWAP1 REVERT JUMPDEST PUSH2 0xB1E DUP4 DUP4 DUP4 PUSH2 0x1501 JUMP JUMPDEST POP POP POP JUMP JUMPDEST PUSH32 0x9F2DF0FED2C77648DE5860A4CC508CD0818C85B8B8A1AB4CEEEF8D981C8956A6 PUSH2 0xB4D DUP2 PUSH2 0xEE9 JUMP JUMPDEST PUSH2 0xB59 DUP6 DUP6 DUP6 DUP6 PUSH2 0x1468 JUMP JUMPDEST POP POP POP POP POP JUMP JUMPDEST PUSH32 0x65D7A28E3265B37A6474929F336521B332C1681B933F6CB9F3376673440D862A PUSH2 0xB8A DUP2 PUSH2 0xEE9 JUMP JUMPDEST PUSH2 0xB92 PUSH2 0x1595 JUMP JUMPDEST POP JUMP JUMPDEST PUSH1 0x0 PUSH1 0x3 PUSH1 0x0 DUP5 DUP2 MSTORE PUSH1 0x20 ADD SWAP1 DUP2 MSTORE PUSH1 0x20 ADD PUSH1 0x0 KECCAK256 PUSH1 0x0 ADD PUSH1 0x0 DUP4 PUSH20 0xFFFFFFFFFFFFFFFFFFFFFFFFFFFFFFFFFFFFFFFF AND PUSH20 0xFFFFFFFFFFFFFFFFFFFFFFFFFFFFFFFFFFFFFFFF AND DUP2 MSTORE PUSH1 0x20 ADD SWAP1 DUP2 MSTORE PUSH1 0x20 ADD PUSH1 0x0 KECCAK256 PUSH1 0x0 SWAP1 SLOAD SWAP1 PUSH2 0x100 EXP SWAP1 DIV PUSH1 0xFF AND SWAP1 POP SWAP3 SWAP2 POP POP JUMP JUMPDEST PUSH1 0x0 DUP1 SHL DUP2 JUMP JUMPDEST PUSH2 0xC19 PUSH2 0xC12 PUSH2 0x10F8 JUMP JUMPDEST DUP4 DUP4 PUSH2 0x15F8 JUMP JUMPDEST POP POP JUMP JUMPDEST PUSH32 0x9F2DF0FED2C77648DE5860A4CC508CD0818C85B8B8A1AB4CEEEF8D981C8956A6 DUP2 JUMP JUMPDEST PUSH2 0xC4A DUP3 PUSH2 0x629 JUMP JUMPDEST PUSH2 0xC53 DUP2 PUSH2 0xEE9 JUMP JUMPDEST PUSH2 0xC5D DUP4 DUP4 PUSH2 0x12EA JUMP JUMPDEST POP POP POP POP JUMP JUMPDEST PUSH32 0x65D7A28E3265B37A6474929F336521B332C1681B933F6CB9F3376673440D862A DUP2 JUMP JUMPDEST PUSH1 0x0 PUSH1 0x1 PUSH1 0x0 DUP5 PUSH20 0xFFFFFFFFFFFFFFFFFFFFFFFFFFFFFFFFFFFFFFFF AND PUSH20 0xFFFFFFFFFFFFFFFFFFFFFFFFFFFFFFFFFFFFFFFF AND DUP2 MSTORE PUSH1 0x20 ADD SWAP1 DUP2 MSTORE PUSH1 0x20 ADD PUSH1 0x0 KECCAK256 PUSH1 0x0 DUP4 PUSH20 0xFFFFFFFFFFFFFFFFFFFFFFFFFFFFFFFFFFFFFFFF AND PUSH20 0xFFFFFFFFFFFFFFFFFFFFFFFFFFFFFFFFFFFFFFFF AND DUP2 MSTORE PUSH1 0x20 ADD SWAP1 DUP2 MSTORE PUSH1 0x20 ADD PUSH1 0x0 KECCAK256 PUSH1 0x0 SWAP1 SLOAD SWAP1 PUSH2 0x100 EXP SWAP1 DIV PUSH1 0xFF AND SWAP1 POP SWAP3 SWAP2 POP POP JUMP JUMPDEST PUSH1 0x0 PUSH2 0xD25 PUSH2 0x10F8 JUMP JUMPDEST SWAP1 POP DUP1 PUSH20 0xFFFFFFFFFFFFFFFFFFFFFFFFFFFFFFFFFFFFFFFF AND DUP7 PUSH20 0xFFFFFFFFFFFFFFFFFFFFFFFFFFFFFFFFFFFFFFFF AND EQ ISZERO DUP1 ISZERO PUSH2 0xD6A JUMPI POP PUSH2 0xD68 DUP7 DUP3 PUSH2 0xC87 JUMP JUMPDEST ISZERO JUMPDEST ISZERO PUSH2 0xDAE JUMPI DUP1 DUP7 PUSH1 0x40 MLOAD PUSH32 0xE237D92200000000000000000000000000000000000000000000000000000000 DUP2 MSTORE PUSH1 0x4 ADD PUSH2 0xDA5 SWAP3 SWAP2 SWAP1 PUSH2 0x3350 JUMP JUMPDEST PUSH1 0x40 MLOAD DUP1 SWAP2 SUB SWAP1 REVERT JUMPDEST PUSH2 0xDBB DUP7 DUP7 DUP7 DUP7 DUP7 PUSH2 0x1768 JUMP JUMPDEST POP POP POP POP POP POP JUMP JUMPDEST PUSH2 0xDCB PUSH2 0x10F8 JUMP JUMPDEST PUSH20 0xFFFFFFFFFFFFFFFFFFFFFFFFFFFFFFFFFFFFFFFF AND DUP4 PUSH20 0xFFFFFFFFFFFFFFFFFFFFFFFFFFFFFFFFFFFFFFFF AND EQ ISZERO DUP1 ISZERO PUSH2 0xE14 JUMPI POP PUSH2 0xE12 DUP4 PUSH2 0xE0D PUSH2 0x10F8 JUMP JUMPDEST PUSH2 0xC87 JUMP JUMPDEST ISZERO JUMPDEST ISZERO PUSH2 0xE5F JUMPI PUSH2 0xE21 PUSH2 0x10F8 JUMP JUMPDEST DUP4 PUSH1 0x40 MLOAD PUSH32 0xE237D92200000000000000000000000000000000000000000000000000000000 DUP2 MSTORE PUSH1 0x4 ADD PUSH2 0xE56 SWAP3 SWAP2 SWAP1 PUSH2 0x3350 JUMP JUMPDEST PUSH1 0x40 MLOAD DUP1 SWAP2 SUB SWAP1 REVERT JUMPDEST PUSH2 0xE6A DUP4 DUP4 DUP4 PUSH2 0x1873 JUMP JUMPDEST POP POP POP JUMP JUMPDEST PUSH1 0x0 PUSH32 0x7965DB0B00000000000000000000000000000000000000000000000000000000 PUSH28 0xFFFFFFFFFFFFFFFFFFFFFFFFFFFFFFFFFFFFFFFFFFFFFFFFFFFFFFFF NOT AND DUP3 PUSH28 0xFFFFFFFFFFFFFFFFFFFFFFFFFFFFFFFFFFFFFFFFFFFFFFFFFFFFFFFF NOT AND EQ DUP1 PUSH2 0xEE2 JUMPI POP PUSH2 0xEE1 DUP3 PUSH2 0x191A JUMP JUMPDEST JUMPDEST SWAP1 POP SWAP2 SWAP1 POP JUMP JUMPDEST PUSH2 0xEFA DUP2 PUSH2 0xEF5 PUSH2 0x10F8 JUMP JUMPDEST PUSH2 0x19FC JUMP JUMPDEST POP JUMP JUMPDEST DUP1 PUSH1 0x2 SWAP1 DUP2 PUSH2 0xF0C SWAP2 SWAP1 PUSH2 0x35AE JUMP JUMPDEST POP POP JUMP JUMPDEST PUSH1 0x60 PUSH1 0x2 DUP1 SLOAD PUSH2 0xF1F SWAP1 PUSH2 0x33D1 JUMP JUMPDEST DUP1 PUSH1 0x1F ADD PUSH1 0x20 DUP1 SWAP2 DIV MUL PUSH1 0x20 ADD PUSH1 0x40 MLOAD SWAP1 DUP2 ADD PUSH1 0x40 MSTORE DUP1 SWAP3 SWAP2 SWAP1 DUP2 DUP2 MSTORE PUSH1 0x20 ADD DUP3 DUP1 SLOAD PUSH2 0xF4B SWAP1 PUSH2 0x33D1 JUMP JUMPDEST DUP1 ISZERO PUSH2 0xF98 JUMPI DUP1 PUSH1 0x1F LT PUSH2 0xF6D JUMPI PUSH2 0x100 DUP1 DUP4 SLOAD DIV MUL DUP4 MSTORE SWAP2 PUSH1 0x20 ADD SWAP2 PUSH2 0xF98 JUMP JUMPDEST DUP3 ADD SWAP2 SWAP1 PUSH1 0x0 MSTORE PUSH1 0x20 PUSH1 0x0 KECCAK256 SWAP1 JUMPDEST DUP2 SLOAD DUP2 MSTORE SWAP1 PUSH1 0x1 ADD SWAP1 PUSH1 0x20 ADD DUP1 DUP4 GT PUSH2 0xF7B JUMPI DUP3 SWAP1 SUB PUSH1 0x1F AND DUP3 ADD SWAP2 JUMPDEST POP POP POP POP POP SWAP1 POP SWAP2 SWAP1 POP JUMP JUMPDEST PUSH1 0x60 PUSH1 0x0 PUSH1 0x1 PUSH2 0xFB3 DUP5 PUSH2 0x1A4D JUMP JUMPDEST ADD SWAP1 POP PUSH1 0x0 DUP2 PUSH8 0xFFFFFFFFFFFFFFFF DUP2 GT ISZERO PUSH2 0xFD2 JUMPI PUSH2 0xFD1 PUSH2 0x2691 JUMP JUMPDEST JUMPDEST PUSH1 0x40 MLOAD SWAP1 DUP1 DUP3 MSTORE DUP1 PUSH1 0x1F ADD PUSH1 0x1F NOT AND PUSH1 0x20 ADD DUP3 ADD PUSH1 0x40 MSTORE DUP1 ISZERO PUSH2 0x1004 JUMPI DUP2 PUSH1 0x20 ADD PUSH1 0x1 DUP3 MUL DUP1 CALLDATASIZE DUP4 CALLDATACOPY DUP1 DUP3 ADD SWAP2 POP POP SWAP1 POP JUMPDEST POP SWAP1 POP PUSH1 0x0 DUP3 PUSH1 0x20 ADD DUP3 ADD SWAP1 POP JUMPDEST PUSH1 0x1 ISZERO PUSH2 0x1067 JUMPI DUP1 DUP1 PUSH1 0x1 SWAP1 SUB SWAP2 POP POP PUSH32 0x3031323334353637383961626364656600000000000000000000000000000000 PUSH1 0xA DUP7 MOD BYTE DUP2 MSTORE8 PUSH1 0xA DUP6 DUP2 PUSH2 0x105B JUMPI PUSH2 0x105A PUSH2 0x3680 JUMP JUMPDEST JUMPDEST DIV SWAP5 POP PUSH1 0x0 DUP6 SUB PUSH2 0x1012 JUMPI JUMPDEST DUP2 SWAP4 POP POP POP POP SWAP2 SWAP1 POP JUMP JUMPDEST PUSH1 0x0 PUSH20 0xFFFFFFFFFFFFFFFFFFFFFFFFFFFFFFFFFFFFFFFF AND DUP5 PUSH20 0xFFFFFFFFFFFFFFFFFFFFFFFFFFFFFFFFFFFFFFFF AND SUB PUSH2 0x10E4 JUMPI PUSH1 0x0 PUSH1 0x40 MLOAD PUSH32 0x57F447CE00000000000000000000000000000000000000000000000000000000 DUP2 MSTORE PUSH1 0x4 ADD PUSH2 0x10DB SWAP2 SWAP1 PUSH2 0x36AF JUMP JUMPDEST PUSH1 0x40 MLOAD DUP1 SWAP2 SUB SWAP1 REVERT JUMPDEST PUSH2 0x10F2 PUSH1 0x0 DUP6 DUP6 DUP6 DUP6 PUSH2 0x1BA0 JUMP JUMPDEST POP POP POP POP JUMP JUMPDEST PUSH1 0x0 CALLER SWAP1 POP SWAP1 JUMP JUMPDEST PUSH1 0x0 PUSH20 0xFFFFFFFFFFFFFFFFFFFFFFFFFFFFFFFFFFFFFFFF AND DUP5 PUSH20 0xFFFFFFFFFFFFFFFFFFFFFFFFFFFFFFFFFFFFFFFF AND SUB PUSH2 0x1172 JUMPI PUSH1 0x0 PUSH1 0x40 MLOAD PUSH32 0x57F447CE00000000000000000000000000000000000000000000000000000000 DUP2 MSTORE PUSH1 0x4 ADD PUSH2 0x1169 SWAP2 SWAP1 PUSH2 0x36AF JUMP JUMPDEST PUSH1 0x40 MLOAD DUP1 SWAP2 SUB SWAP1 REVERT JUMPDEST PUSH1 0x0 PUSH20 0xFFFFFFFFFFFFFFFFFFFFFFFFFFFFFFFFFFFFFFFF AND DUP6 PUSH20 0xFFFFFFFFFFFFFFFFFFFFFFFFFFFFFFFFFFFFFFFF AND SUB PUSH2 0x11E4 JUMPI PUSH1 0x0 PUSH1 0x40 MLOAD PUSH32 0x1A8351400000000000000000000000000000000000000000000000000000000 DUP2 MSTORE PUSH1 0x4 ADD PUSH2 0x11DB SWAP2 SWAP1 PUSH2 0x36AF JUMP JUMPDEST PUSH1 0x40 MLOAD DUP1 SWAP2 SUB SWAP1 REVERT JUMPDEST PUSH2 0x11F1 DUP6 DUP6 DUP6 DUP6 DUP6 PUSH2 0x1BA0 JUMP JUMPDEST POP POP POP POP POP JUMP JUMPDEST PUSH1 0x0 PUSH2 0x1204 DUP4 DUP4 PUSH2 0xB95 JUMP JUMPDEST PUSH2 0x12DF JUMPI PUSH1 0x1 PUSH1 0x3 PUSH1 0x0 DUP6 DUP2 MSTORE PUSH1 0x20 ADD SWAP1 DUP2 MSTORE PUSH1 0x20 ADD PUSH1 0x0 KECCAK256 PUSH1 0x0 ADD PUSH1 0x0 DUP5 PUSH20 0xFFFFFFFFFFFFFFFFFFFFFFFFFFFFFFFFFFFFFFFF AND PUSH20 0xFFFFFFFFFFFFFFFFFFFFFFFFFFFFFFFFFFFFFFFF AND DUP2 MSTORE PUSH1 0x20 ADD SWAP1 DUP2 MSTORE PUSH1 0x20 ADD PUSH1 0x0 KECCAK256 PUSH1 0x0 PUSH2 0x100 EXP DUP2 SLOAD DUP2 PUSH1 0xFF MUL NOT AND SWAP1 DUP4 ISZERO ISZERO MUL OR SWAP1 SSTORE POP PUSH2 0x127C PUSH2 0x10F8 JUMP JUMPDEST PUSH20 0xFFFFFFFFFFFFFFFFFFFFFFFFFFFFFFFFFFFFFFFF AND DUP3 PUSH20 0xFFFFFFFFFFFFFFFFFFFFFFFFFFFFFFFFFFFFFFFF AND DUP5 PUSH32 0x2F8788117E7EFF1D82E926EC794901D17C78024A50270940304540A733656F0D PUSH1 0x40 MLOAD PUSH1 0x40 MLOAD DUP1 SWAP2 SUB SWAP1 LOG4 PUSH1 0x1 SWAP1 POP PUSH2 0x12E4 JUMP JUMPDEST PUSH1 0x0 SWAP1 POP JUMPDEST SWAP3 SWAP2 POP POP JUMP JUMPDEST PUSH1 0x0 PUSH2 0x12F6 DUP4 DUP4 PUSH2 0xB95 JUMP JUMPDEST ISZERO PUSH2 0x13D2 JUMPI PUSH1 0x0 PUSH1 0x3 PUSH1 0x0 DUP6 DUP2 MSTORE PUSH1 0x20 ADD SWAP1 DUP2 MSTORE PUSH1 0x20 ADD PUSH1 0x0 KECCAK256 PUSH1 0x0 ADD PUSH1 0x0 DUP5 PUSH20 0xFFFFFFFFFFFFFFFFFFFFFFFFFFFFFFFFFFFFFFFF AND PUSH20 0xFFFFFFFFFFFFFFFFFFFFFFFFFFFFFFFFFFFFFFFF AND DUP2 MSTORE PUSH1 0x20 ADD SWAP1 DUP2 MSTORE PUSH1 0x20 ADD PUSH1 0x0 KECCAK256 PUSH1 0x0 PUSH2 0x100 EXP DUP2 SLOAD DUP2 PUSH1 0xFF MUL NOT AND SWAP1 DUP4 ISZERO ISZERO MUL OR SWAP1 SSTORE POP PUSH2 0x136F PUSH2 0x10F8 JUMP JUMPDEST PUSH20 0xFFFFFFFFFFFFFFFFFFFFFFFFFFFFFFFFFFFFFFFF AND DUP3 PUSH20 0xFFFFFFFFFFFFFFFFFFFFFFFFFFFFFFFFFFFFFFFF AND DUP5 PUSH32 0xF6391F5C32D9C69D2A47EA670B442974B53935D1EDC7FD64EB21E047A839171B PUSH1 0x40 MLOAD PUSH1 0x40 MLOAD DUP1 SWAP2 SUB SWAP1 LOG4 PUSH1 0x1 SWAP1 POP PUSH2 0x13D7 JUMP JUMPDEST PUSH1 0x0 SWAP1 POP JUMPDEST SWAP3 SWAP2 POP POP JUMP JUMPDEST PUSH2 0x13E5 PUSH2 0x1C52 JUMP JUMPDEST PUSH1 0x0 PUSH1 0x4 PUSH1 0x0 PUSH2 0x100 EXP DUP2 SLOAD DUP2 PUSH1 0xFF MUL NOT AND SWAP1 DUP4 ISZERO ISZERO MUL OR SWAP1 SSTORE POP PUSH32 0x5DB9EE0A495BF2E6FF9C91A7834C1BA4FDD244A5E8AA4E537BD38AEAE4B073AA PUSH2 0x1429 PUSH2 0x10F8 JUMP JUMPDEST PUSH1 0x40 MLOAD PUSH2 0x1436 SWAP2 SWAP1 PUSH2 0x36AF JUMP JUMPDEST PUSH1 0x40 MLOAD DUP1 SWAP2 SUB SWAP1 LOG1 JUMP JUMPDEST PUSH1 0x0 PUSH1 0x20 DUP3 MUL PUSH1 0x20 DUP5 ADD ADD MLOAD SWAP1 POP SWAP3 SWAP2 POP POP JUMP JUMPDEST PUSH1 0x0 PUSH1 0x20 DUP3 MUL PUSH1 0x20 DUP5 ADD ADD MLOAD SWAP1 POP SWAP3 SWAP2 POP POP JUMP JUMPDEST PUSH1 0x0 PUSH20 0xFFFFFFFFFFFFFFFFFFFFFFFFFFFFFFFFFFFFFFFF AND DUP5 PUSH20 0xFFFFFFFFFFFFFFFFFFFFFFFFFFFFFFFFFFFFFFFF AND SUB PUSH2 0x14DA JUMPI PUSH1 0x0 PUSH1 0x40 MLOAD PUSH32 0x57F447CE00000000000000000000000000000000000000000000000000000000 DUP2 MSTORE PUSH1 0x4 ADD PUSH2 0x14D1 SWAP2 SWAP1 PUSH2 0x36AF JUMP JUMPDEST PUSH1 0x40 MLOAD DUP1 SWAP2 SUB SWAP1 REVERT JUMPDEST PUSH1 0x0 DUP1 PUSH2 0x14E7 DUP6 DUP6 PUSH2 0x1C92 JUMP JUMPDEST SWAP2 POP SWAP2 POP PUSH2 0x14F9 PUSH1 0x0 DUP8 DUP5 DUP5 DUP8 PUSH2 0x1BA0 JUMP JUMPDEST POP POP POP POP POP POP JUMP JUMPDEST PUSH1 0x0 PUSH20 0xFFFFFFFFFFFFFFFFFFFFFFFFFFFFFFFFFFFFFFFF AND DUP4 PUSH20 0xFFFFFFFFFFFFFFFFFFFFFFFFFFFFFFFFFFFFFFFF AND SUB PUSH2 0x1573 JUMPI PUSH1 0x0 PUSH1 0x40 MLOAD PUSH32 0x1A8351400000000000000000000000000000000000000000000000000000000 DUP2 MSTORE PUSH1 0x4 ADD PUSH2 0x156A SWAP2 SWAP1 PUSH2 0x36AF JUMP JUMPDEST PUSH1 0x40 MLOAD DUP1 SWAP2 SUB SWAP1 REVERT JUMPDEST PUSH2 0x1590 DUP4 PUSH1 0x0 DUP5 DUP5 PUSH1 0x40 MLOAD DUP1 PUSH1 0x20 ADD PUSH1 0x40 MSTORE DUP1 PUSH1 0x0 DUP2 MSTORE POP PUSH2 0x1BA0 JUMP JUMPDEST POP POP POP JUMP JUMPDEST PUSH2 0x159D PUSH2 0x1CC2 JUMP JUMPDEST PUSH1 0x1 PUSH1 0x4 PUSH1 0x0 PUSH2 0x100 EXP DUP2 SLOAD DUP2 PUSH1 0xFF MUL NOT AND SWAP1 DUP4 ISZERO ISZERO MUL OR SWAP1 SSTORE POP PUSH32 0x62E78CEA01BEE320CD4E420270B5EA74000D11B0C9F74754EBDBFC544B05A258 PUSH2 0x15E1 PUSH2 0x10F8 JUMP JUMPDEST PUSH1 0x40 MLOAD PUSH2 0x15EE SWAP2 SWAP1 PUSH2 0x36AF JUMP JUMPDEST PUSH1 0x40 MLOAD DUP1 SWAP2 SUB SWAP1 LOG1 JUMP JUMPDEST PUSH1 0x0 PUSH20 0xFFFFFFFFFFFFFFFFFFFFFFFFFFFFFFFFFFFFFFFF AND DUP3 PUSH20 0xFFFFFFFFFFFFFFFFFFFFFFFFFFFFFFFFFFFFFFFF AND SUB PUSH2 0x166A JUMPI PUSH1 0x0 PUSH1 0x40 MLOAD PUSH32 0xCED3E10000000000000000000000000000000000000000000000000000000000 DUP2 MSTORE PUSH1 0x4 ADD PUSH2 0x1661 SWAP2 SWAP1 PUSH2 0x36AF JUMP JUMPDEST PUSH1 0x40 MLOAD DUP1 SWAP2 SUB SWAP1 REVERT JUMPDEST DUP1 PUSH1 0x1 PUSH1 0x0 DUP6 PUSH20 0xFFFFFFFFFFFFFFFFFFFFFFFFFFFFFFFFFFFFFFFF AND PUSH20 0xFFFFFFFFFFFFFFFFFFFFFFFFFFFFFFFFFFFFFFFF AND DUP2 MSTORE PUSH1 0x20 ADD SWAP1 DUP2 MSTORE PUSH1 0x20 ADD PUSH1 0x0 KECCAK256 PUSH1 0x0 DUP5 PUSH20 0xFFFFFFFFFFFFFFFFFFFFFFFFFFFFFFFFFFFFFFFF AND PUSH20 0xFFFFFFFFFFFFFFFFFFFFFFFFFFFFFFFFFFFFFFFF AND DUP2 MSTORE PUSH1 0x20 ADD SWAP1 DUP2 MSTORE PUSH1 0x20 ADD PUSH1 0x0 KECCAK256 PUSH1 0x0 PUSH2 0x100 EXP DUP2 SLOAD DUP2 PUSH1 0xFF MUL NOT AND SWAP1 DUP4 ISZERO ISZERO MUL OR SWAP1 SSTORE POP DUP2 PUSH20 0xFFFFFFFFFFFFFFFFFFFFFFFFFFFFFFFFFFFFFFFF AND DUP4 PUSH20 0xFFFFFFFFFFFFFFFFFFFFFFFFFFFFFFFFFFFFFFFF AND PUSH32 0x17307EAB39AB6107E8899845AD3D59BD9653F200F220920489CA2B5937696C31 DUP4 PUSH1 0x40 MLOAD PUSH2 0x175B SWAP2 SWAP1 PUSH2 0x265B JUMP JUMPDEST PUSH1 0x40 MLOAD DUP1 SWAP2 SUB SWAP1 LOG3 POP POP POP JUMP JUMPDEST PUSH1 0x0 PUSH20 0xFFFFFFFFFFFFFFFFFFFFFFFFFFFFFFFFFFFFFFFF AND DUP5 PUSH20 0xFFFFFFFFFFFFFFFFFFFFFFFFFFFFFFFFFFFFFFFF AND SUB PUSH2 0x17DA JUMPI PUSH1 0x0 PUSH1 0x40 MLOAD PUSH32 0x57F447CE00000000000000000000000000000000000000000000000000000000 DUP2 MSTORE PUSH1 0x4 ADD PUSH2 0x17D1 SWAP2 SWAP1 PUSH2 0x36AF JUMP JUMPDEST PUSH1 0x40 MLOAD DUP1 SWAP2 SUB SWAP1 REVERT JUMPDEST PUSH1 0x0 PUSH20 0xFFFFFFFFFFFFFFFFFFFFFFFFFFFFFFFFFFFFFFFF AND DUP6 PUSH20 0xFFFFFFFFFFFFFFFFFFFFFFFFFFFFFFFFFFFFFFFF AND SUB PUSH2 0x184C JUMPI PUSH1 0x0 PUSH1 0x40 MLOAD PUSH32 0x1A8351400000000000000000000000000000000000000000000000000000000 DUP2 MSTORE PUSH1 0x4 ADD PUSH2 0x1843 SWAP2 SWAP1 PUSH2 0x36AF JUMP JUMPDEST PUSH1 0x40 MLOAD DUP1 SWAP2 SUB SWAP1 REVERT JUMPDEST PUSH1 0x0 DUP1 PUSH2 0x1859 DUP6 DUP6 PUSH2 0x1C92 JUMP JUMPDEST SWAP2 POP SWAP2 POP PUSH2 0x186A DUP8 DUP8 DUP5 DUP5 DUP8 PUSH2 0x1BA0 JUMP JUMPDEST POP POP POP POP POP POP POP JUMP JUMPDEST PUSH1 0x0 PUSH20 0xFFFFFFFFFFFFFFFFFFFFFFFFFFFFFFFFFFFFFFFF AND DUP4 PUSH20 0xFFFFFFFFFFFFFFFFFFFFFFFFFFFFFFFFFFFFFFFF AND SUB PUSH2 0x18E5 JUMPI PUSH1 0x0 PUSH1 0x40 MLOAD PUSH32 0x1A8351400000000000000000000000000000000000000000000000000000000 DUP2 MSTORE PUSH1 0x4 ADD PUSH2 0x18DC SWAP2 SWAP1 PUSH2 0x36AF JUMP JUMPDEST PUSH1 0x40 MLOAD DUP1 SWAP2 SUB SWAP1 REVERT JUMPDEST PUSH1 0x0 DUP1 PUSH2 0x18F2 DUP5 DUP5 PUSH2 0x1C92 JUMP JUMPDEST SWAP2 POP SWAP2 POP PUSH2 0x1913 DUP6 PUSH1 0x0 DUP5 DUP5 PUSH1 0x40 MLOAD DUP1 PUSH1 0x20 ADD PUSH1 0x40 MSTORE DUP1 PUSH1 0x0 DUP2 MSTORE POP PUSH2 0x1BA0 JUMP JUMPDEST POP POP POP POP POP JUMP JUMPDEST PUSH1 0x0 PUSH32 0xD9B67A2600000000000000000000000000000000000000000000000000000000 PUSH28 0xFFFFFFFFFFFFFFFFFFFFFFFFFFFFFFFFFFFFFFFFFFFFFFFFFFFFFFFF NOT AND DUP3 PUSH28 0xFFFFFFFFFFFFFFFFFFFFFFFFFFFFFFFFFFFFFFFFFFFFFFFFFFFFFFFF NOT AND EQ DUP1 PUSH2 0x19E5 JUMPI POP PUSH32 0xE89341C00000000000000000000000000000000000000000000000000000000 PUSH28 0xFFFFFFFFFFFFFFFFFFFFFFFFFFFFFFFFFFFFFFFFFFFFFFFFFFFFFFFF NOT AND DUP3 PUSH28 0xFFFFFFFFFFFFFFFFFFFFFFFFFFFFFFFFFFFFFFFFFFFFFFFFFFFFFFFF NOT AND EQ JUMPDEST DUP1 PUSH2 0x19F5 JUMPI POP PUSH2 0x19F4 DUP3 PUSH2 0x1D03 JUMP JUMPDEST JUMPDEST SWAP1 POP SWAP2 SWAP1 POP JUMP JUMPDEST PUSH2 0x1A06 DUP3 DUP3 PUSH2 0xB95 JUMP JUMPDEST PUSH2 0x1A49 JUMPI DUP1 DUP3 PUSH1 0x40 MLOAD PUSH32 0xE2517D3F00000000000000000000000000000000000000000000000000000000 DUP2 MSTORE PUSH1 0x4 ADD PUSH2 0x1A40 SWAP3 SWAP2 SWAP1 PUSH2 0x36CA JUMP JUMPDEST PUSH1 0x40 MLOAD DUP1 SWAP2 SUB SWAP1 REVERT JUMPDEST POP POP JUMP JUMPDEST PUSH1 0x0 DUP1 PUSH1 0x0 SWAP1 POP PUSH27 0x184F03E93FF9F4DAA797ED6E38ED64BF6A1F010000000000000000 DUP4 LT PUSH2 0x1AAB JUMPI PUSH27 0x184F03E93FF9F4DAA797ED6E38ED64BF6A1F010000000000000000 DUP4 DUP2 PUSH2 0x1AA1 JUMPI PUSH2 0x1AA0 PUSH2 0x3680 JUMP JUMPDEST JUMPDEST DIV SWAP3 POP PUSH1 0x40 DUP2 ADD SWAP1 POP JUMPDEST PUSH14 0x4EE2D6D415B85ACEF8100000000 DUP4 LT PUSH2 0x1AE8 JUMPI PUSH14 0x4EE2D6D415B85ACEF8100000000 DUP4 DUP2 PUSH2 0x1ADE JUMPI PUSH2 0x1ADD PUSH2 0x3680 JUMP JUMPDEST JUMPDEST DIV SWAP3 POP PUSH1 0x20 DUP2 ADD SWAP1 POP JUMPDEST PUSH7 0x2386F26FC10000 DUP4 LT PUSH2 0x1B17 JUMPI PUSH7 0x2386F26FC10000 DUP4 DUP2 PUSH2 0x1B0D JUMPI PUSH2 0x1B0C PUSH2 0x3680 JUMP JUMPDEST JUMPDEST DIV SWAP3 POP PUSH1 0x10 DUP2 ADD SWAP1 POP JUMPDEST PUSH4 0x5F5E100 DUP4 LT PUSH2 0x1B40 JUMPI PUSH4 0x5F5E100 DUP4 DUP2 PUSH2 0x1B36 JUMPI PUSH2 0x1B35 PUSH2 0x3680 JUMP JUMPDEST JUMPDEST DIV SWAP3 POP PUSH1 0x8 DUP2 ADD SWAP1 POP JUMPDEST PUSH2 0x2710 DUP4 LT PUSH2 0x1B65 JUMPI PUSH2 0x2710 DUP4 DUP2 PUSH2 0x1B5B JUMPI PUSH2 0x1B5A PUSH2 0x3680 JUMP JUMPDEST JUMPDEST DIV SWAP3 POP PUSH1 0x4 DUP2 ADD SWAP1 POP JUMPDEST PUSH1 0x64 DUP4 LT PUSH2 0x1B88 JUMPI PUSH1 0x64 DUP4 DUP2 PUSH2 0x1B7E JUMPI PUSH2 0x1B7D PUSH2 0x3680 JUMP JUMPDEST JUMPDEST DIV SWAP3 POP PUSH1 0x2 DUP2 ADD SWAP1 POP JUMPDEST PUSH1 0xA DUP4 LT PUSH2 0x1B97 JUMPI PUSH1 0x1 DUP2 ADD SWAP1 POP JUMPDEST DUP1 SWAP2 POP POP SWAP2 SWAP1 POP JUMP JUMPDEST PUSH2 0x1BAC DUP6 DUP6 DUP6 DUP6 PUSH2 0x1D6D JUMP JUMPDEST PUSH1 0x0 PUSH20 0xFFFFFFFFFFFFFFFFFFFFFFFFFFFFFFFFFFFFFFFF AND DUP5 PUSH20 0xFFFFFFFFFFFFFFFFFFFFFFFFFFFFFFFFFFFFFFFF AND EQ PUSH2 0x1C4B JUMPI PUSH1 0x0 PUSH2 0x1BEA PUSH2 0x10F8 JUMP JUMPDEST SWAP1 POP PUSH1 0x1 DUP5 MLOAD SUB PUSH2 0x1C3A JUMPI PUSH1 0x0 PUSH2 0x1C0B PUSH1 0x0 DUP7 PUSH2 0x1454 SWAP1 SWAP2 SWAP1 PUSH4 0xFFFFFFFF AND JUMP JUMPDEST SWAP1 POP PUSH1 0x0 PUSH2 0x1C23 PUSH1 0x0 DUP7 PUSH2 0x1454 SWAP1 SWAP2 SWAP1 PUSH4 0xFFFFFFFF AND JUMP JUMPDEST SWAP1 POP PUSH2 0x1C33 DUP4 DUP10 DUP10 DUP6 DUP6 DUP10 PUSH2 0x1D7F JUMP JUMPDEST POP POP PUSH2 0x1C49 JUMP JUMPDEST PUSH2 0x1C48 DUP2 DUP8 DUP8 DUP8 DUP8 DUP8 PUSH2 0x1F33 JUMP JUMPDEST JUMPDEST POP JUMPDEST POP POP POP POP POP JUMP JUMPDEST PUSH2 0x1C5A PUSH2 0xA60 JUMP JUMPDEST PUSH2 0x1C90 JUMPI PUSH1 0x40 MLOAD PUSH32 0x8DFC202B00000000000000000000000000000000000000000000000000000000 DUP2 MSTORE PUSH1 0x4 ADD PUSH1 0x40 MLOAD DUP1 SWAP2 SUB SWAP1 REVERT JUMPDEST JUMP JUMPDEST PUSH1 0x60 DUP1 PUSH1 0x40 MLOAD SWAP2 POP PUSH1 0x1 DUP3 MSTORE DUP4 PUSH1 0x20 DUP4 ADD MSTORE PUSH1 0x40 DUP3 ADD SWAP1 POP PUSH1 0x1 DUP2 MSTORE DUP3 PUSH1 0x20 DUP3 ADD MSTORE PUSH1 0x40 DUP2 ADD PUSH1 0x40 MSTORE SWAP3 POP SWAP3 SWAP1 POP JUMP JUMPDEST PUSH2 0x1CCA PUSH2 0xA60 JUMP JUMPDEST ISZERO PUSH2 0x1D01 JUMPI PUSH1 0x40 MLOAD PUSH32 0xD93C066500000000000000000000000000000000000000000000000000000000 DUP2 MSTORE PUSH1 0x4 ADD PUSH1 0x40 MLOAD DUP1 SWAP2 SUB SWAP1 REVERT JUMPDEST JUMP JUMPDEST PUSH1 0x0 PUSH32 0x1FFC9A700000000000000000000000000000000000000000000000000000000 PUSH28 0xFFFFFFFFFFFFFFFFFFFFFFFFFFFFFFFFFFFFFFFFFFFFFFFFFFFFFFFF NOT AND DUP3 PUSH28 0xFFFFFFFFFFFFFFFFFFFFFFFFFFFFFFFFFFFFFFFFFFFFFFFFFFFFFFFF NOT AND EQ SWAP1 POP SWAP2 SWAP1 POP JUMP JUMPDEST PUSH2 0x1D79 DUP5 DUP5 DUP5 DUP5 PUSH2 0x20E7 JUMP JUMPDEST POP POP POP POP JUMP JUMPDEST PUSH1 0x0 DUP5 PUSH20 0xFFFFFFFFFFFFFFFFFFFFFFFFFFFFFFFFFFFFFFFF AND EXTCODESIZE GT ISZERO PUSH2 0x1F2B JUMPI DUP4 PUSH20 0xFFFFFFFFFFFFFFFFFFFFFFFFFFFFFFFFFFFFFFFF AND PUSH4 0xF23A6E61 DUP8 DUP8 DUP7 DUP7 DUP7 PUSH1 0x40 MLOAD DUP7 PUSH4 0xFFFFFFFF AND PUSH1 0xE0 SHL DUP2 MSTORE PUSH1 0x4 ADD PUSH2 0x1DE0 SWAP6 SWAP5 SWAP4 SWAP3 SWAP2 SWAP1 PUSH2 0x3748 JUMP JUMPDEST PUSH1 0x20 PUSH1 0x40 MLOAD DUP1 DUP4 SUB DUP2 PUSH1 0x0 DUP8 GAS CALL SWAP3 POP POP POP DUP1 ISZERO PUSH2 0x1E1C JUMPI POP PUSH1 0x40 MLOAD RETURNDATASIZE PUSH1 0x1F NOT PUSH1 0x1F DUP3 ADD AND DUP3 ADD DUP1 PUSH1 0x40 MSTORE POP DUP2 ADD SWAP1 PUSH2 0x1E19 SWAP2 SWAP1 PUSH2 0x37B7 JUMP JUMPDEST PUSH1 0x1 JUMPDEST PUSH2 0x1EA0 JUMPI RETURNDATASIZE DUP1 PUSH1 0x0 DUP2 EQ PUSH2 0x1E4C JUMPI PUSH1 0x40 MLOAD SWAP2 POP PUSH1 0x1F NOT PUSH1 0x3F RETURNDATASIZE ADD AND DUP3 ADD PUSH1 0x40 MSTORE RETURNDATASIZE DUP3 MSTORE RETURNDATASIZE PUSH1 0x0 PUSH1 0x20 DUP5 ADD RETURNDATACOPY PUSH2 0x1E51 JUMP JUMPDEST PUSH1 0x60 SWAP2 POP JUMPDEST POP PUSH1 0x0 DUP2 MLOAD SUB PUSH2 0x1E98 JUMPI DUP5 PUSH1 0x40 MLOAD PUSH32 0x57F447CE00000000000000000000000000000000000000000000000000000000 DUP2 MSTORE PUSH1 0x4 ADD PUSH2 0x1E8F SWAP2 SWAP1 PUSH2 0x36AF JUMP JUMPDEST PUSH1 0x40 MLOAD DUP1 SWAP2 SUB SWAP1 REVERT JUMPDEST DUP1 MLOAD DUP2 PUSH1 0x20 ADD REVERT JUMPDEST PUSH4 0xF23A6E61 PUSH1 0xE0 SHL PUSH28 0xFFFFFFFFFFFFFFFFFFFFFFFFFFFFFFFFFFFFFFFFFFFFFFFFFFFFFFFF NOT AND DUP2 PUSH28 0xFFFFFFFFFFFFFFFFFFFFFFFFFFFFFFFFFFFFFFFFFFFFFFFFFFFFFFFF NOT AND EQ PUSH2 0x1F29 JUMPI DUP5 PUSH1 0x40 MLOAD PUSH32 0x57F447CE00000000000000000000000000000000000000000000000000000000 DUP2 MSTORE PUSH1 0x4 ADD PUSH2 0x1F20 SWAP2 SWAP1 PUSH2 0x36AF JUMP JUMPDEST PUSH1 0x40 MLOAD DUP1 SWAP2 SUB SWAP1 REVERT JUMPDEST POP JUMPDEST POP POP POP POP POP POP JUMP JUMPDEST PUSH1 0x0 DUP5 PUSH20 0xFFFFFFFFFFFFFFFFFFFFFFFFFFFFFFFFFFFFFFFF AND EXTCODESIZE GT ISZERO PUSH2 0x20DF JUMPI DUP4 PUSH20 0xFFFFFFFFFFFFFFFFFFFFFFFFFFFFFFFFFFFFFFFF AND PUSH4 0xBC197C81 DUP8 DUP8 DUP7 DUP7 DUP7 PUSH1 0x40 MLOAD DUP7 PUSH4 0xFFFFFFFF AND PUSH1 0xE0 SHL DUP2 MSTORE PUSH1 0x4 ADD PUSH2 0x1F94 SWAP6 SWAP5 SWAP4 SWAP3 SWAP2 SWAP1 PUSH2 0x37E4 JUMP JUMPDEST PUSH1 0x20 PUSH1 0x40 MLOAD DUP1 DUP4 SUB DUP2 PUSH1 0x0 DUP8 GAS CALL SWAP3 POP POP POP DUP1 ISZERO PUSH2 0x1FD0 JUMPI POP PUSH1 0x40 MLOAD RETURNDATASIZE PUSH1 0x1F NOT PUSH1 0x1F DUP3 ADD AND DUP3 ADD DUP1 PUSH1 0x40 MSTORE POP DUP2 ADD SWAP1 PUSH2 0x1FCD SWAP2 SWAP1 PUSH2 0x37B7 JUMP JUMPDEST PUSH1 0x1 JUMPDEST PUSH2 0x2054 JUMPI RETURNDATASIZE DUP1 PUSH1 0x0 DUP2 EQ PUSH2 0x2000 JUMPI PUSH1 0x40 MLOAD SWAP2 POP PUSH1 0x1F NOT PUSH1 0x3F RETURNDATASIZE ADD AND DUP3 ADD PUSH1 0x40 MSTORE RETURNDATASIZE DUP3 MSTORE RETURNDATASIZE PUSH1 0x0 PUSH1 0x20 DUP5 ADD RETURNDATACOPY PUSH2 0x2005 JUMP JUMPDEST PUSH1 0x60 SWAP2 POP JUMPDEST POP PUSH1 0x0 DUP2 MLOAD SUB PUSH2 0x204C JUMPI DUP5 PUSH1 0x40 MLOAD PUSH32 0x57F447CE00000000000000000000000000000000000000000000000000000000 DUP2 MSTORE PUSH1 0x4 ADD PUSH2 0x2043 SWAP2 SWAP1 PUSH2 0x36AF JUMP JUMPDEST PUSH1 0x40 MLOAD DUP1 SWAP2 SUB SWAP1 REVERT JUMPDEST DUP1 MLOAD DUP2 PUSH1 0x20 ADD REVERT JUMPDEST PUSH4 0xBC197C81 PUSH1 0xE0 SHL PUSH28 0xFFFFFFFFFFFFFFFFFFFFFFFFFFFFFFFFFFFFFFFFFFFFFFFFFFFFFFFF NOT AND DUP2 PUSH28 0xFFFFFFFFFFFFFFFFFFFFFFFFFFFFFFFFFFFFFFFFFFFFFFFFFFFFFFFF NOT AND EQ PUSH2 0x20DD JUMPI DUP5 PUSH1 0x40 MLOAD PUSH32 0x57F447CE00000000000000000000000000000000000000000000000000000000 DUP2 MSTORE PUSH1 0x4 ADD PUSH2 0x20D4 SWAP2 SWAP1 PUSH2 0x36AF JUMP JUMPDEST PUSH1 0x40 MLOAD DUP1 SWAP2 SUB SWAP1 REVERT JUMPDEST POP JUMPDEST POP POP POP POP POP POP JUMP JUMPDEST PUSH2 0x20EF PUSH2 0x1CC2 JUMP JUMPDEST PUSH2 0x20FB DUP5 DUP5 DUP5 DUP5 PUSH2 0x2101 JUMP JUMPDEST POP POP POP POP JUMP JUMPDEST DUP1 MLOAD DUP3 MLOAD EQ PUSH2 0x214B JUMPI DUP2 MLOAD DUP2 MLOAD PUSH1 0x40 MLOAD PUSH32 0x5B05999100000000000000000000000000000000000000000000000000000000 DUP2 MSTORE PUSH1 0x4 ADD PUSH2 0x2142 SWAP3 SWAP2 SWAP1 PUSH2 0x3379 JUMP JUMPDEST PUSH1 0x40 MLOAD DUP1 SWAP2 SUB SWAP1 REVERT JUMPDEST PUSH1 0x0 PUSH2 0x2155 PUSH2 0x10F8 JUMP JUMPDEST SWAP1 POP PUSH1 0x0 JUMPDEST DUP4 MLOAD DUP2 LT ISZERO PUSH2 0x2364 JUMPI PUSH1 0x0 PUSH2 0x2178 DUP3 DUP7 PUSH2 0x1454 SWAP1 SWAP2 SWAP1 PUSH4 0xFFFFFFFF AND JUMP JUMPDEST SWAP1 POP PUSH1 0x0 PUSH2 0x218F DUP4 DUP7 PUSH2 0x1454 SWAP1 SWAP2 SWAP1 PUSH4 0xFFFFFFFF AND JUMP JUMPDEST SWAP1 POP PUSH1 0x0 PUSH20 0xFFFFFFFFFFFFFFFFFFFFFFFFFFFFFFFFFFFFFFFF AND DUP9 PUSH20 0xFFFFFFFFFFFFFFFFFFFFFFFFFFFFFFFFFFFFFFFF AND EQ PUSH2 0x22BC JUMPI PUSH1 0x0 DUP1 PUSH1 0x0 DUP5 DUP2 MSTORE PUSH1 0x20 ADD SWAP1 DUP2 MSTORE PUSH1 0x20 ADD PUSH1 0x0 KECCAK256 PUSH1 0x0 DUP11 PUSH20 0xFFFFFFFFFFFFFFFFFFFFFFFFFFFFFFFFFFFFFFFF AND PUSH20 0xFFFFFFFFFFFFFFFFFFFFFFFFFFFFFFFFFFFFFFFF AND DUP2 MSTORE PUSH1 0x20 ADD SWAP1 DUP2 MSTORE PUSH1 0x20 ADD PUSH1 0x0 KECCAK256 SLOAD SWAP1 POP DUP2 DUP2 LT ISZERO PUSH2 0x2264 JUMPI DUP9 DUP2 DUP4 DUP6 PUSH1 0x40 MLOAD PUSH32 0x3DEE4C500000000000000000000000000000000000000000000000000000000 DUP2 MSTORE PUSH1 0x4 ADD PUSH2 0x225B SWAP5 SWAP4 SWAP3 SWAP2 SWAP1 PUSH2 0x384C JUMP JUMPDEST PUSH1 0x40 MLOAD DUP1 SWAP2 SUB SWAP1 REVERT JUMPDEST DUP2 DUP2 SUB PUSH1 0x0 DUP1 DUP6 DUP2 MSTORE PUSH1 0x20 ADD SWAP1 DUP2 MSTORE PUSH1 0x20 ADD PUSH1 0x0 KECCAK256 PUSH1 0x0 DUP12 PUSH20 0xFFFFFFFFFFFFFFFFFFFFFFFFFFFFFFFFFFFFFFFF AND PUSH20 0xFFFFFFFFFFFFFFFFFFFFFFFFFFFFFFFFFFFFFFFF AND DUP2 MSTORE PUSH1 0x20 ADD SWAP1 DUP2 MSTORE PUSH1 0x20 ADD PUSH1 0x0 KECCAK256 DUP2 SWAP1 SSTORE POP POP JUMPDEST PUSH1 0x0 PUSH20 0xFFFFFFFFFFFFFFFFFFFFFFFFFFFFFFFFFFFFFFFF AND DUP8 PUSH20 0xFFFFFFFFFFFFFFFFFFFFFFFFFFFFFFFFFFFFFFFF AND EQ PUSH2 0x2357 JUMPI DUP1 PUSH1 0x0 DUP1 DUP5 DUP2 MSTORE PUSH1 0x20 ADD SWAP1 DUP2 MSTORE PUSH1 0x20 ADD PUSH1 0x0 KECCAK256 PUSH1 0x0 DUP10 PUSH20 0xFFFFFFFFFFFFFFFFFFFFFFFFFFFFFFFFFFFFFFFF AND PUSH20 0xFFFFFFFFFFFFFFFFFFFFFFFFFFFFFFFFFFFFFFFF AND DUP2 MSTORE PUSH1 0x20 ADD SWAP1 DUP2 MSTORE PUSH1 0x20 ADD PUSH1 0x0 KECCAK256 PUSH1 0x0 DUP3 DUP3 SLOAD PUSH2 0x234F SWAP2 SWAP1 PUSH2 0x38C0 JUMP JUMPDEST SWAP3 POP POP DUP2 SWAP1 SSTORE POP JUMPDEST POP POP DUP1 PUSH1 0x1 ADD SWAP1 POP PUSH2 0x215A JUMP JUMPDEST POP PUSH1 0x1 DUP4 MLOAD SUB PUSH2 0x2423 JUMPI PUSH1 0x0 PUSH2 0x2384 PUSH1 0x0 DUP6 PUSH2 0x1454 SWAP1 SWAP2 SWAP1 PUSH4 0xFFFFFFFF AND JUMP JUMPDEST SWAP1 POP PUSH1 0x0 PUSH2 0x239C PUSH1 0x0 DUP6 PUSH2 0x1454 SWAP1 SWAP2 SWAP1 PUSH4 0xFFFFFFFF AND JUMP JUMPDEST SWAP1 POP DUP6 PUSH20 0xFFFFFFFFFFFFFFFFFFFFFFFFFFFFFFFFFFFFFFFF AND DUP8 PUSH20 0xFFFFFFFFFFFFFFFFFFFFFFFFFFFFFFFFFFFFFFFF AND DUP5 PUSH20 0xFFFFFFFFFFFFFFFFFFFFFFFFFFFFFFFFFFFFFFFF AND PUSH32 0xC3D58168C5AE7397731D063D5BBF3D657854427343F4C083240F7AACAA2D0F62 DUP6 DUP6 PUSH1 0x40 MLOAD PUSH2 0x2414 SWAP3 SWAP2 SWAP1 PUSH2 0x3379 JUMP JUMPDEST PUSH1 0x40 MLOAD DUP1 SWAP2 SUB SWAP1 LOG4 POP POP PUSH2 0x24A2 JUMP JUMPDEST DUP4 PUSH20 0xFFFFFFFFFFFFFFFFFFFFFFFFFFFFFFFFFFFFFFFF AND DUP6 PUSH20 0xFFFFFFFFFFFFFFFFFFFFFFFFFFFFFFFFFFFFFFFF AND DUP3 PUSH20 0xFFFFFFFFFFFFFFFFFFFFFFFFFFFFFFFFFFFFFFFF AND PUSH32 0x4A39DC06D4C0DBC64B70AF90FD698A233A518AA5D07E595D983B8C0526C8F7FB DUP7 DUP7 PUSH1 0x40 MLOAD PUSH2 0x2499 SWAP3 SWAP2 SWAP1 PUSH2 0x38F4 JUMP JUMPDEST PUSH1 0x40 MLOAD DUP1 SWAP2 SUB SWAP1 LOG4 JUMPDEST POP POP POP POP POP JUMP JUMPDEST PUSH1 0x0 PUSH1 0x40 MLOAD SWAP1 POP SWAP1 JUMP JUMPDEST PUSH1 0x0 DUP1 REVERT JUMPDEST PUSH1 0x0 DUP1 REVERT JUMPDEST PUSH1 0x0 PUSH20 0xFFFFFFFFFFFFFFFFFFFFFFFFFFFFFFFFFFFFFFFF DUP3 AND SWAP1 POP SWAP2 SWAP1 POP JUMP JUMPDEST PUSH1 0x0 PUSH2 0x24E8 DUP3 PUSH2 0x24BD JUMP JUMPDEST SWAP1 POP SWAP2 SWAP1 POP JUMP JUMPDEST PUSH2 0x24F8 DUP2 PUSH2 0x24DD JUMP JUMPDEST DUP2 EQ PUSH2 0x2503 JUMPI PUSH1 0x0 DUP1 REVERT JUMPDEST POP JUMP JUMPDEST PUSH1 0x0 DUP2 CALLDATALOAD SWAP1 POP PUSH2 0x2515 DUP2 PUSH2 0x24EF JUMP JUMPDEST SWAP3 SWAP2 POP POP JUMP JUMPDEST PUSH1 0x0 DUP2 SWAP1 POP SWAP2 SWAP1 POP JUMP JUMPDEST PUSH2 0x252E DUP2 PUSH2 0x251B JUMP JUMPDEST DUP2 EQ PUSH2 0x2539 JUMPI PUSH1 0x0 DUP1 REVERT JUMPDEST POP JUMP JUMPDEST PUSH1 0x0 DUP2 CALLDATALOAD SWAP1 POP PUSH2 0x254B DUP2 PUSH2 0x2525 JUMP JUMPDEST SWAP3 SWAP2 POP POP JUMP JUMPDEST PUSH1 0x0 DUP1 PUSH1 0x40 DUP4 DUP6 SUB SLT ISZERO PUSH2 0x2568 JUMPI PUSH2 0x2567 PUSH2 0x24B3 JUMP JUMPDEST JUMPDEST PUSH1 0x0 PUSH2 0x2576 DUP6 DUP3 DUP7 ADD PUSH2 0x2506 JUMP JUMPDEST SWAP3 POP POP PUSH1 0x20 PUSH2 0x2587 DUP6 DUP3 DUP7 ADD PUSH2 0x253C JUMP JUMPDEST SWAP2 POP POP SWAP3 POP SWAP3 SWAP1 POP JUMP JUMPDEST PUSH2 0x259A DUP2 PUSH2 0x251B JUMP JUMPDEST DUP3 MSTORE POP POP JUMP JUMPDEST PUSH1 0x0 PUSH1 0x20 DUP3 ADD SWAP1 POP PUSH2 0x25B5 PUSH1 0x0 DUP4 ADD DUP5 PUSH2 0x2591 JUMP JUMPDEST SWAP3 SWAP2 POP POP JUMP JUMPDEST PUSH1 0x0 PUSH32 0xFFFFFFFF00000000000000000000000000000000000000000000000000000000 DUP3 AND SWAP1 POP SWAP2 SWAP1 POP JUMP JUMPDEST PUSH2 0x25F0 DUP2 PUSH2 0x25BB JUMP JUMPDEST DUP2 EQ PUSH2 0x25FB JUMPI PUSH1 0x0 DUP1 REVERT JUMPDEST POP JUMP JUMPDEST PUSH1 0x0 DUP2 CALLDATALOAD SWAP1 POP PUSH2 0x260D DUP2 PUSH2 0x25E7 JUMP JUMPDEST SWAP3 SWAP2 POP POP JUMP JUMPDEST PUSH1 0x0 PUSH1 0x20 DUP3 DUP5 SUB SLT ISZERO PUSH2 0x2629 JUMPI PUSH2 0x2628 PUSH2 0x24B3 JUMP JUMPDEST JUMPDEST PUSH1 0x0 PUSH2 0x2637 DUP5 DUP3 DUP6 ADD PUSH2 0x25FE JUMP JUMPDEST SWAP2 POP POP SWAP3 SWAP2 POP POP JUMP JUMPDEST PUSH1 0x0 DUP2 ISZERO ISZERO SWAP1 POP SWAP2 SWAP1 POP JUMP JUMPDEST PUSH2 0x2655 DUP2 PUSH2 0x2640 JUMP JUMPDEST DUP3 MSTORE POP POP JUMP JUMPDEST PUSH1 0x0 PUSH1 0x20 DUP3 ADD SWAP1 POP PUSH2 0x2670 PUSH1 0x0 DUP4 ADD DUP5 PUSH2 0x264C JUMP JUMPDEST SWAP3 SWAP2 POP POP JUMP JUMPDEST PUSH1 0x0 DUP1 REVERT JUMPDEST PUSH1 0x0 DUP1 REVERT JUMPDEST PUSH1 0x0 PUSH1 0x1F NOT PUSH1 0x1F DUP4 ADD AND SWAP1 POP SWAP2 SWAP1 POP JUMP JUMPDEST PUSH32 0x4E487B7100000000000000000000000000000000000000000000000000000000 PUSH1 0x0 MSTORE PUSH1 0x41 PUSH1 0x4 MSTORE PUSH1 0x24 PUSH1 0x0 REVERT JUMPDEST PUSH2 0x26C9 DUP3 PUSH2 0x2680 JUMP JUMPDEST DUP2 ADD DUP2 DUP2 LT PUSH8 0xFFFFFFFFFFFFFFFF DUP3 GT OR ISZERO PUSH2 0x26E8 JUMPI PUSH2 0x26E7 PUSH2 0x2691 JUMP JUMPDEST JUMPDEST DUP1 PUSH1 0x40 MSTORE POP POP POP JUMP JUMPDEST PUSH1 0x0 PUSH2 0x26FB PUSH2 0x24A9 JUMP JUMPDEST SWAP1 POP PUSH2 0x2707 DUP3 DUP3 PUSH2 0x26C0 JUMP JUMPDEST SWAP2 SWAP1 POP JUMP JUMPDEST PUSH1 0x0 PUSH8 0xFFFFFFFFFFFFFFFF DUP3 GT ISZERO PUSH2 0x2727 JUMPI PUSH2 0x2726 PUSH2 0x2691 JUMP JUMPDEST JUMPDEST PUSH2 0x2730 DUP3 PUSH2 0x2680 JUMP JUMPDEST SWAP1 POP PUSH1 0x20 DUP2 ADD SWAP1 POP SWAP2 SWAP1 POP JUMP JUMPDEST DUP3 DUP2 DUP4 CALLDATACOPY PUSH1 0x0 DUP4 DUP4 ADD MSTORE POP POP POP JUMP JUMPDEST PUSH1 0x0 PUSH2 0x275F PUSH2 0x275A DUP5 PUSH2 0x270C JUMP JUMPDEST PUSH2 0x26F1 JUMP JUMPDEST SWAP1 POP DUP3 DUP2 MSTORE PUSH1 0x20 DUP2 ADD DUP5 DUP5 DUP5 ADD GT ISZERO PUSH2 0x277B JUMPI PUSH2 0x277A PUSH2 0x267B JUMP JUMPDEST JUMPDEST PUSH2 0x2786 DUP5 DUP3 DUP6 PUSH2 0x273D JUMP JUMPDEST POP SWAP4 SWAP3 POP POP POP JUMP JUMPDEST PUSH1 0x0 DUP3 PUSH1 0x1F DUP4 ADD SLT PUSH2 0x27A3 JUMPI PUSH2 0x27A2 PUSH2 0x2676 JUMP JUMPDEST JUMPDEST DUP2 CALLDATALOAD PUSH2 0x27B3 DUP5 DUP3 PUSH1 0x20 DUP7 ADD PUSH2 0x274C JUMP JUMPDEST SWAP2 POP POP SWAP3 SWAP2 POP POP JUMP JUMPDEST PUSH1 0x0 PUSH1 0x20 DUP3 DUP5 SUB SLT ISZERO PUSH2 0x27D2 JUMPI PUSH2 0x27D1 PUSH2 0x24B3 JUMP JUMPDEST JUMPDEST PUSH1 0x0 DUP3 ADD CALLDATALOAD PUSH8 0xFFFFFFFFFFFFFFFF DUP2 GT ISZERO PUSH2 0x27F0 JUMPI PUSH2 0x27EF PUSH2 0x24B8 JUMP JUMPDEST JUMPDEST PUSH2 0x27FC DUP5 DUP3 DUP6 ADD PUSH2 0x278E JUMP JUMPDEST SWAP2 POP POP SWAP3 SWAP2 POP POP JUMP JUMPDEST PUSH1 0x0 PUSH1 0x20 DUP3 DUP5 SUB SLT ISZERO PUSH2 0x281B JUMPI PUSH2 0x281A PUSH2 0x24B3 JUMP JUMPDEST JUMPDEST PUSH1 0x0 PUSH2 0x2829 DUP5 DUP3 DUP6 ADD PUSH2 0x253C JUMP JUMPDEST SWAP2 POP POP SWAP3 SWAP2 POP POP JUMP JUMPDEST PUSH1 0x0 DUP2 MLOAD SWAP1 POP SWAP2 SWAP1 POP JUMP JUMPDEST PUSH1 0x0 DUP3 DUP3 MSTORE PUSH1 0x20 DUP3 ADD SWAP1 POP SWAP3 SWAP2 POP POP JUMP JUMPDEST PUSH1 0x0 JUMPDEST DUP4 DUP2 LT ISZERO PUSH2 0x286C JUMPI DUP1 DUP3 ADD MLOAD DUP2 DUP5 ADD MSTORE PUSH1 0x20 DUP2 ADD SWAP1 POP PUSH2 0x2851 JUMP JUMPDEST PUSH1 0x0 DUP5 DUP5 ADD MSTORE POP POP POP POP JUMP JUMPDEST PUSH1 0x0 PUSH2 0x2883 DUP3 PUSH2 0x2832 JUMP JUMPDEST PUSH2 0x288D DUP2 DUP6 PUSH2 0x283D JUMP JUMPDEST SWAP4 POP PUSH2 0x289D DUP2 DUP6 PUSH1 0x20 DUP7 ADD PUSH2 0x284E JUMP JUMPDEST PUSH2 0x28A6 DUP2 PUSH2 0x2680 JUMP JUMPDEST DUP5 ADD SWAP2 POP POP SWAP3 SWAP2 POP POP JUMP JUMPDEST PUSH1 0x0 PUSH1 0x20 DUP3 ADD SWAP1 POP DUP2 DUP2 SUB PUSH1 0x0 DUP4 ADD MSTORE PUSH2 0x28CB DUP2 DUP5 PUSH2 0x2878 JUMP JUMPDEST SWAP1 POP SWAP3 SWAP2 POP POP JUMP JUMPDEST PUSH1 0x0 PUSH8 0xFFFFFFFFFFFFFFFF DUP3 GT ISZERO PUSH2 0x28EE JUMPI PUSH2 0x28ED PUSH2 0x2691 JUMP JUMPDEST JUMPDEST PUSH1 0x20 DUP3 MUL SWAP1 POP PUSH1 0x20 DUP2 ADD SWAP1 POP SWAP2 SWAP1 POP JUMP JUMPDEST PUSH1 0x0 DUP1 REVERT JUMPDEST PUSH1 0x0 PUSH2 0x2917 PUSH2 0x2912 DUP5 PUSH2 0x28D3 JUMP JUMPDEST PUSH2 0x26F1 JUMP JUMPDEST SWAP1 POP DUP1 DUP4 DUP3 MSTORE PUSH1 0x20 DUP3 ADD SWAP1 POP PUSH1 0x20 DUP5 MUL DUP4 ADD DUP6 DUP2 GT ISZERO PUSH2 0x293A JUMPI PUSH2 0x2939 PUSH2 0x28FF JUMP JUMPDEST JUMPDEST DUP4 JUMPDEST DUP2 DUP2 LT ISZERO PUSH2 0x2963 JUMPI DUP1 PUSH2 0x294F DUP9 DUP3 PUSH2 0x253C JUMP JUMPDEST DUP5 MSTORE PUSH1 0x20 DUP5 ADD SWAP4 POP POP PUSH1 0x20 DUP2 ADD SWAP1 POP PUSH2 0x293C JUMP JUMPDEST POP POP POP SWAP4 SWAP3 POP POP POP JUMP JUMPDEST PUSH1 0x0 DUP3 PUSH1 0x1F DUP4 ADD SLT PUSH2 0x2982 JUMPI PUSH2 0x2981 PUSH2 0x2676 JUMP JUMPDEST JUMPDEST DUP2 CALLDATALOAD PUSH2 0x2992 DUP5 DUP3 PUSH1 0x20 DUP7 ADD PUSH2 0x2904 JUMP JUMPDEST SWAP2 POP POP SWAP3 SWAP2 POP POP JUMP JUMPDEST PUSH1 0x0 PUSH8 0xFFFFFFFFFFFFFFFF DUP3 GT ISZERO PUSH2 0x29B6 JUMPI PUSH2 0x29B5 PUSH2 0x2691 JUMP JUMPDEST JUMPDEST PUSH2 0x29BF DUP3 PUSH2 0x2680 JUMP JUMPDEST SWAP1 POP PUSH1 0x20 DUP2 ADD SWAP1 POP SWAP2 SWAP1 POP JUMP JUMPDEST PUSH1 0x0 PUSH2 0x29DF PUSH2 0x29DA DUP5 PUSH2 0x299B JUMP JUMPDEST PUSH2 0x26F1 JUMP JUMPDEST SWAP1 POP DUP3 DUP2 MSTORE PUSH1 0x20 DUP2 ADD DUP5 DUP5 DUP5 ADD GT ISZERO PUSH2 0x29FB JUMPI PUSH2 0x29FA PUSH2 0x267B JUMP JUMPDEST JUMPDEST PUSH2 0x2A06 DUP5 DUP3 DUP6 PUSH2 0x273D JUMP JUMPDEST POP SWAP4 SWAP3 POP POP POP JUMP JUMPDEST PUSH1 0x0 DUP3 PUSH1 0x1F DUP4 ADD SLT PUSH2 0x2A23 JUMPI PUSH2 0x2A22 PUSH2 0x2676 JUMP JUMPDEST JUMPDEST DUP2 CALLDATALOAD PUSH2 0x2A33 DUP5 DUP3 PUSH1 0x20 DUP7 ADD PUSH2 0x29CC JUMP JUMPDEST SWAP2 POP POP SWAP3 SWAP2 POP POP JUMP JUMPDEST PUSH1 0x0 DUP1 PUSH1 0x0 DUP1 PUSH1 0x80 DUP6 DUP8 SUB SLT ISZERO PUSH2 0x2A56 JUMPI PUSH2 0x2A55 PUSH2 0x24B3 JUMP JUMPDEST JUMPDEST PUSH1 0x0 PUSH2 0x2A64 DUP8 DUP3 DUP9 ADD PUSH2 0x2506 JUMP JUMPDEST SWAP5 POP POP PUSH1 0x20 DUP6 ADD CALLDATALOAD PUSH8 0xFFFFFFFFFFFFFFFF DUP2 GT ISZERO PUSH2 0x2A85 JUMPI PUSH2 0x2A84 PUSH2 0x24B8 JUMP JUMPDEST JUMPDEST PUSH2 0x2A91 DUP8 DUP3 DUP9 ADD PUSH2 0x296D JUMP JUMPDEST SWAP4 POP POP PUSH1 0x40 DUP6 ADD CALLDATALOAD PUSH8 0xFFFFFFFFFFFFFFFF DUP2 GT ISZERO PUSH2 0x2AB2 JUMPI PUSH2 0x2AB1 PUSH2 0x24B8 JUMP JUMPDEST JUMPDEST PUSH2 0x2ABE DUP8 DUP3 DUP9 ADD PUSH2 0x296D JUMP JUMPDEST SWAP3 POP POP PUSH1 0x60 DUP6 ADD CALLDATALOAD PUSH8 0xFFFFFFFFFFFFFFFF DUP2 GT ISZERO PUSH2 0x2ADF JUMPI PUSH2 0x2ADE PUSH2 0x24B8 JUMP JUMPDEST JUMPDEST PUSH2 0x2AEB DUP8 DUP3 DUP9 ADD PUSH2 0x2A0E JUMP JUMPDEST SWAP2 POP POP SWAP3 SWAP6 SWAP2 SWAP5 POP SWAP3 POP JUMP JUMPDEST PUSH1 0x0 DUP2 SWAP1 POP SWAP2 SWAP1 POP JUMP JUMPDEST PUSH2 0x2B0A DUP2 PUSH2 0x2AF7 JUMP JUMPDEST DUP2 EQ PUSH2 0x2B15 JUMPI PUSH1 0x0 DUP1 REVERT JUMPDEST POP JUMP JUMPDEST PUSH1 0x0 DUP2 CALLDATALOAD SWAP1 POP PUSH2 0x2B27 DUP2 PUSH2 0x2B01 JUMP JUMPDEST SWAP3 SWAP2 POP POP JUMP JUMPDEST PUSH1 0x0 PUSH1 0x20 DUP3 DUP5 SUB SLT ISZERO PUSH2 0x2B43 JUMPI PUSH2 0x2B42 PUSH2 0x24B3 JUMP JUMPDEST JUMPDEST PUSH1 0x0 PUSH2 0x2B51 DUP5 DUP3 DUP6 ADD PUSH2 0x2B18 JUMP JUMPDEST SWAP2 POP POP SWAP3 SWAP2 POP POP JUMP JUMPDEST PUSH2 0x2B63 DUP2 PUSH2 0x2AF7 JUMP JUMPDEST DUP3 MSTORE POP POP JUMP JUMPDEST PUSH1 0x0 PUSH1 0x20 DUP3 ADD SWAP1 POP PUSH2 0x2B7E PUSH1 0x0 DUP4 ADD DUP5 PUSH2 0x2B5A JUMP JUMPDEST SWAP3 SWAP2 POP POP JUMP JUMPDEST PUSH1 0x0 DUP1 PUSH1 0x40 DUP4 DUP6 SUB SLT ISZERO PUSH2 0x2B9B JUMPI PUSH2 0x2B9A PUSH2 0x24B3 JUMP JUMPDEST JUMPDEST PUSH1 0x0 PUSH2 0x2BA9 DUP6 DUP3 DUP7 ADD PUSH2 0x2506 JUMP JUMPDEST SWAP3 POP POP PUSH1 0x20 DUP4 ADD CALLDATALOAD PUSH8 0xFFFFFFFFFFFFFFFF DUP2 GT ISZERO PUSH2 0x2BCA JUMPI PUSH2 0x2BC9 PUSH2 0x24B8 JUMP JUMPDEST JUMPDEST PUSH2 0x2BD6 DUP6 DUP3 DUP7 ADD PUSH2 0x296D JUMP JUMPDEST SWAP2 POP POP SWAP3 POP SWAP3 SWAP1 POP JUMP JUMPDEST PUSH1 0x0 DUP2 MLOAD SWAP1 POP SWAP2 SWAP1 POP JUMP JUMPDEST PUSH1 0x0 DUP3 DUP3 MSTORE PUSH1 0x20 DUP3 ADD SWAP1 POP SWAP3 SWAP2 POP POP JUMP JUMPDEST PUSH1 0x0 DUP2 SWAP1 POP PUSH1 0x20 DUP3 ADD SWAP1 POP SWAP2 SWAP1 POP JUMP JUMPDEST PUSH2 0x2C15 DUP2 PUSH2 0x251B JUMP JUMPDEST DUP3 MSTORE POP POP JUMP JUMPDEST PUSH1 0x0 PUSH2 0x2C27 DUP4 DUP4 PUSH2 0x2C0C JUMP JUMPDEST PUSH1 0x20 DUP4 ADD SWAP1 POP SWAP3 SWAP2 POP POP JUMP JUMPDEST PUSH1 0x0 PUSH1 0x20 DUP3 ADD SWAP1 POP SWAP2 SWAP1 POP JUMP JUMPDEST PUSH1 0x0 PUSH2 0x2C4B DUP3 PUSH2 0x2BE0 JUMP JUMPDEST PUSH2 0x2C55 DUP2 DUP6 PUSH2 0x2BEB JUMP JUMPDEST SWAP4 POP PUSH2 0x2C60 DUP4 PUSH2 0x2BFC JUMP JUMPDEST DUP1 PUSH1 0x0 JUMPDEST DUP4 DUP2 LT ISZERO PUSH2 0x2C91 JUMPI DUP2 MLOAD PUSH2 0x2C78 DUP9 DUP3 PUSH2 0x2C1B JUMP JUMPDEST SWAP8 POP PUSH2 0x2C83 DUP4 PUSH2 0x2C33 JUMP JUMPDEST SWAP3 POP POP PUSH1 0x1 DUP2 ADD SWAP1 POP PUSH2 0x2C64 JUMP JUMPDEST POP DUP6 SWAP4 POP POP POP POP SWAP3 SWAP2 POP POP JUMP JUMPDEST PUSH1 0x0 PUSH1 0x20 DUP3 ADD SWAP1 POP DUP2 DUP2 SUB PUSH1 0x0 DUP4 ADD MSTORE PUSH2 0x2CB8 DUP2 DUP5 PUSH2 0x2C40 JUMP JUMPDEST SWAP1 POP SWAP3 SWAP2 POP POP JUMP JUMPDEST PUSH1 0x0 DUP1 PUSH1 0x0 DUP1 PUSH1 0x0 PUSH1 0xA0 DUP7 DUP9 SUB SLT ISZERO PUSH2 0x2CDC JUMPI PUSH2 0x2CDB PUSH2 0x24B3 JUMP JUMPDEST JUMPDEST PUSH1 0x0 PUSH2 0x2CEA DUP9 DUP3 DUP10 ADD PUSH2 0x2506 JUMP JUMPDEST SWAP6 POP POP PUSH1 0x20 PUSH2 0x2CFB DUP9 DUP3 DUP10 ADD PUSH2 0x2506 JUMP JUMPDEST SWAP5 POP POP PUSH1 0x40 DUP7 ADD CALLDATALOAD PUSH8 0xFFFFFFFFFFFFFFFF DUP2 GT ISZERO PUSH2 0x2D1C JUMPI PUSH2 0x2D1B PUSH2 0x24B8 JUMP JUMPDEST JUMPDEST PUSH2 0x2D28 DUP9 DUP3 DUP10 ADD PUSH2 0x296D JUMP JUMPDEST SWAP4 POP POP PUSH1 0x60 DUP7 ADD CALLDATALOAD PUSH8 0xFFFFFFFFFFFFFFFF DUP2 GT ISZERO PUSH2 0x2D49 JUMPI PUSH2 0x2D48 PUSH2 0x24B8 JUMP JUMPDEST JUMPDEST PUSH2 0x2D55 DUP9 DUP3 DUP10 ADD PUSH2 0x296D JUMP JUMPDEST SWAP3 POP POP PUSH1 0x80 DUP7 ADD CALLDATALOAD PUSH8 0xFFFFFFFFFFFFFFFF DUP2 GT ISZERO PUSH2 0x2D76 JUMPI PUSH2 0x2D75 PUSH2 0x24B8 JUMP JUMPDEST JUMPDEST PUSH2 0x2D82 DUP9 DUP3 DUP10 ADD PUSH2 0x2A0E JUMP JUMPDEST SWAP2 POP POP SWAP3 SWAP6 POP SWAP3 SWAP6 SWAP1 SWAP4 POP JUMP JUMPDEST PUSH1 0x0 DUP1 PUSH1 0x40 DUP4 DUP6 SUB SLT ISZERO PUSH2 0x2DA6 JUMPI PUSH2 0x2DA5 PUSH2 0x24B3 JUMP JUMPDEST JUMPDEST PUSH1 0x0 PUSH2 0x2DB4 DUP6 DUP3 DUP7 ADD PUSH2 0x2B18 JUMP JUMPDEST SWAP3 POP POP PUSH1 0x20 PUSH2 0x2DC5 DUP6 DUP3 DUP7 ADD PUSH2 0x2506 JUMP JUMPDEST SWAP2 POP POP SWAP3 POP SWAP3 SWAP1 POP JUMP JUMPDEST PUSH1 0x0 PUSH1 0x20 DUP3 DUP5 SUB SLT ISZERO PUSH2 0x2DE5 JUMPI PUSH2 0x2DE4 PUSH2 0x24B3 JUMP JUMPDEST JUMPDEST PUSH1 0x0 PUSH2 0x2DF3 DUP5 DUP3 DUP6 ADD PUSH2 0x2506 JUMP JUMPDEST SWAP2 POP POP SWAP3 SWAP2 POP POP JUMP JUMPDEST PUSH1 0x0 PUSH8 0xFFFFFFFFFFFFFFFF DUP3 GT ISZERO PUSH2 0x2E17 JUMPI PUSH2 0x2E16 PUSH2 0x2691 JUMP JUMPDEST JUMPDEST PUSH1 0x20 DUP3 MUL SWAP1 POP PUSH1 0x20 DUP2 ADD SWAP1 POP SWAP2 SWAP1 POP JUMP JUMPDEST PUSH1 0x0 PUSH2 0x2E3B PUSH2 0x2E36 DUP5 PUSH2 0x2DFC JUMP JUMPDEST PUSH2 0x26F1 JUMP JUMPDEST SWAP1 POP DUP1 DUP4 DUP3 MSTORE PUSH1 0x20 DUP3 ADD SWAP1 POP PUSH1 0x20 DUP5 MUL DUP4 ADD DUP6 DUP2 GT ISZERO PUSH2 0x2E5E JUMPI PUSH2 0x2E5D PUSH2 0x28FF JUMP JUMPDEST JUMPDEST DUP4 JUMPDEST DUP2 DUP2 LT ISZERO PUSH2 0x2E87 JUMPI DUP1 PUSH2 0x2E73 DUP9 DUP3 PUSH2 0x2506 JUMP JUMPDEST DUP5 MSTORE PUSH1 0x20 DUP5 ADD SWAP4 POP POP PUSH1 0x20 DUP2 ADD SWAP1 POP PUSH2 0x2E60 JUMP JUMPDEST POP POP POP SWAP4 SWAP3 POP POP POP JUMP JUMPDEST PUSH1 0x0 DUP3 PUSH1 0x1F DUP4 ADD SLT PUSH2 0x2EA6 JUMPI PUSH2 0x2EA5 PUSH2 0x2676 JUMP JUMPDEST JUMPDEST DUP2 CALLDATALOAD PUSH2 0x2EB6 DUP5 DUP3 PUSH1 0x20 DUP7 ADD PUSH2 0x2E28 JUMP JUMPDEST SWAP2 POP POP SWAP3 SWAP2 POP POP JUMP JUMPDEST PUSH1 0x0 DUP1 PUSH1 0x40 DUP4 DUP6 SUB SLT ISZERO PUSH2 0x2ED6 JUMPI PUSH2 0x2ED5 PUSH2 0x24B3 JUMP JUMPDEST JUMPDEST PUSH1 0x0 DUP4 ADD CALLDATALOAD PUSH8 0xFFFFFFFFFFFFFFFF DUP2 GT ISZERO PUSH2 0x2EF4 JUMPI PUSH2 0x2EF3 PUSH2 0x24B8 JUMP JUMPDEST JUMPDEST PUSH2 0x2F00 DUP6 DUP3 DUP7 ADD PUSH2 0x2E91 JUMP JUMPDEST SWAP3 POP POP PUSH1 0x20 DUP4 ADD CALLDATALOAD PUSH8 0xFFFFFFFFFFFFFFFF DUP2 GT ISZERO PUSH2 0x2F21 JUMPI PUSH2 0x2F20 PUSH2 0x24B8 JUMP JUMPDEST JUMPDEST PUSH2 0x2F2D DUP6 DUP3 DUP7 ADD PUSH2 0x296D JUMP JUMPDEST SWAP2 POP POP SWAP3 POP SWAP3 SWAP1 POP JUMP JUMPDEST PUSH1 0x0 DUP1 PUSH1 0x0 DUP1 PUSH1 0x80 DUP6 DUP8 SUB SLT ISZERO PUSH2 0x2F51 JUMPI PUSH2 0x2F50 PUSH2 0x24B3 JUMP JUMPDEST JUMPDEST PUSH1 0x0 DUP6 ADD CALLDATALOAD PUSH8 0xFFFFFFFFFFFFFFFF DUP2 GT ISZERO PUSH2 0x2F6F JUMPI PUSH2 0x2F6E PUSH2 0x24B8 JUMP JUMPDEST JUMPDEST PUSH2 0x2F7B DUP8 DUP3 DUP9 ADD PUSH2 0x2E91 JUMP JUMPDEST SWAP5 POP POP PUSH1 0x20 DUP6 ADD CALLDATALOAD PUSH8 0xFFFFFFFFFFFFFFFF DUP2 GT ISZERO PUSH2 0x2F9C JUMPI PUSH2 0x2F9B PUSH2 0x24B8 JUMP JUMPDEST JUMPDEST PUSH2 0x2FA8 DUP8 DUP3 DUP9 ADD PUSH2 0x296D JUMP JUMPDEST SWAP4 POP POP PUSH1 0x40 DUP6 ADD CALLDATALOAD PUSH8 0xFFFFFFFFFFFFFFFF DUP2 GT ISZERO PUSH2 0x2FC9 JUMPI PUSH2 0x2FC8 PUSH2 0x24B8 JUMP JUMPDEST JUMPDEST PUSH2 0x2FD5 DUP8 DUP3 DUP9 ADD PUSH2 0x296D JUMP JUMPDEST SWAP3 POP POP PUSH1 0x60 DUP6 ADD CALLDATALOAD PUSH8 0xFFFFFFFFFFFFFFFF DUP2 GT ISZERO PUSH2 0x2FF6 JUMPI PUSH2 0x2FF5 PUSH2 0x24B8 JUMP JUMPDEST JUMPDEST PUSH2 0x3002 DUP8 DUP3 DUP9 ADD PUSH2 0x2A0E JUMP JUMPDEST SWAP2 POP POP SWAP3 SWAP6 SWAP2 SWAP5 POP SWAP3 POP JUMP JUMPDEST PUSH1 0x0 DUP1 PUSH1 0x0 PUSH1 0x60 DUP5 DUP7 SUB SLT ISZERO PUSH2 0x3027 JUMPI PUSH2 0x3026 PUSH2 0x24B3 JUMP JUMPDEST JUMPDEST PUSH1 0x0 PUSH2 0x3035 DUP7 DUP3 DUP8 ADD PUSH2 0x2506 JUMP JUMPDEST SWAP4 POP POP PUSH1 0x20 DUP5 ADD CALLDATALOAD PUSH8 0xFFFFFFFFFFFFFFFF DUP2 GT ISZERO PUSH2 0x3056 JUMPI PUSH2 0x3055 PUSH2 0x24B8 JUMP JUMPDEST JUMPDEST PUSH2 0x3062 DUP7 DUP3 DUP8 ADD PUSH2 0x296D JUMP JUMPDEST SWAP3 POP POP PUSH1 0x40 DUP5 ADD CALLDATALOAD PUSH8 0xFFFFFFFFFFFFFFFF DUP2 GT ISZERO PUSH2 0x3083 JUMPI PUSH2 0x3082 PUSH2 0x24B8 JUMP JUMPDEST JUMPDEST PUSH2 0x308F DUP7 DUP3 DUP8 ADD PUSH2 0x296D JUMP JUMPDEST SWAP2 POP POP SWAP3 POP SWAP3 POP SWAP3 JUMP JUMPDEST PUSH1 0x0 DUP1 PUSH1 0x0 DUP1 PUSH1 0x80 DUP6 DUP8 SUB SLT ISZERO PUSH2 0x30B3 JUMPI PUSH2 0x30B2 PUSH2 0x24B3 JUMP JUMPDEST JUMPDEST PUSH1 0x0 PUSH2 0x30C1 DUP8 DUP3 DUP9 ADD PUSH2 0x2506 JUMP JUMPDEST SWAP5 POP POP PUSH1 0x20 PUSH2 0x30D2 DUP8 DUP3 DUP9 ADD PUSH2 0x253C JUMP JUMPDEST SWAP4 POP POP PUSH1 0x40 PUSH2 0x30E3 DUP8 DUP3 DUP9 ADD PUSH2 0x253C JUMP JUMPDEST SWAP3 POP POP PUSH1 0x60 DUP6 ADD CALLDATALOAD PUSH8 0xFFFFFFFFFFFFFFFF DUP2 GT ISZERO PUSH2 0x3104 JUMPI PUSH2 0x3103 PUSH2 0x24B8 JUMP JUMPDEST JUMPDEST PUSH2 0x3110 DUP8 DUP3 DUP9 ADD PUSH2 0x2A0E JUMP JUMPDEST SWAP2 POP POP SWAP3 SWAP6 SWAP2 SWAP5 POP SWAP3 POP JUMP JUMPDEST PUSH2 0x3125 DUP2 PUSH2 0x2640 JUMP JUMPDEST DUP2 EQ PUSH2 0x3130 JUMPI PUSH1 0x0 DUP1 REVERT JUMPDEST POP JUMP JUMPDEST PUSH1 0x0 DUP2 CALLDATALOAD SWAP1 POP PUSH2 0x3142 DUP2 PUSH2 0x311C JUMP JUMPDEST SWAP3 SWAP2 POP POP JUMP JUMPDEST PUSH1 0x0 DUP1 PUSH1 0x40 DUP4 DUP6 SUB SLT ISZERO PUSH2 0x315F JUMPI PUSH2 0x315E PUSH2 0x24B3 JUMP JUMPDEST JUMPDEST PUSH1 0x0 PUSH2 0x316D DUP6 DUP3 DUP7 ADD PUSH2 0x2506 JUMP JUMPDEST SWAP3 POP POP PUSH1 0x20 PUSH2 0x317E DUP6 DUP3 DUP7 ADD PUSH2 0x3133 JUMP JUMPDEST SWAP2 POP POP SWAP3 POP SWAP3 SWAP1 POP JUMP JUMPDEST PUSH1 0x0 DUP1 PUSH1 0x40 DUP4 DUP6 SUB SLT ISZERO PUSH2 0x319F JUMPI PUSH2 0x319E PUSH2 0x24B3 JUMP JUMPDEST JUMPDEST PUSH1 0x0 PUSH2 0x31AD DUP6 DUP3 DUP7 ADD PUSH2 0x2506 JUMP JUMPDEST SWAP3 POP POP PUSH1 0x20 PUSH2 0x31BE DUP6 DUP3 DUP7 ADD PUSH2 0x2506 JUMP JUMPDEST SWAP2 POP POP SWAP3 POP SWAP3 SWAP1 POP JUMP JUMPDEST PUSH1 0x0 DUP1 PUSH1 0x0 DUP1 PUSH1 0x0 PUSH1 0xA0 DUP7 DUP9 SUB SLT ISZERO PUSH2 0x31E4 JUMPI PUSH2 0x31E3 PUSH2 0x24B3 JUMP JUMPDEST JUMPDEST PUSH1 0x0 PUSH2 0x31F2 DUP9 DUP3 DUP10 ADD PUSH2 0x2506 JUMP JUMPDEST SWAP6 POP POP PUSH1 0x20 PUSH2 0x3203 DUP9 DUP3 DUP10 ADD PUSH2 0x2506 JUMP JUMPDEST SWAP5 POP POP PUSH1 0x40 PUSH2 0x3214 DUP9 DUP3 DUP10 ADD PUSH2 0x253C JUMP JUMPDEST SWAP4 POP POP PUSH1 0x60 PUSH2 0x3225 DUP9 DUP3 DUP10 ADD PUSH2 0x253C JUMP JUMPDEST SWAP3 POP POP PUSH1 0x80 DUP7 ADD CALLDATALOAD PUSH8 0xFFFFFFFFFFFFFFFF DUP2 GT ISZERO PUSH2 0x3246 JUMPI PUSH2 0x3245 PUSH2 0x24B8 JUMP JUMPDEST JUMPDEST PUSH2 0x3252 DUP9 DUP3 DUP10 ADD PUSH2 0x2A0E JUMP JUMPDEST SWAP2 POP POP SWAP3 SWAP6 POP SWAP3 SWAP6 SWAP1 SWAP4 POP JUMP JUMPDEST PUSH1 0x0 DUP1 PUSH1 0x0 PUSH1 0x60 DUP5 DUP7 SUB SLT ISZERO PUSH2 0x3278 JUMPI PUSH2 0x3277 PUSH2 0x24B3 JUMP JUMPDEST JUMPDEST PUSH1 0x0 PUSH2 0x3286 DUP7 DUP3 DUP8 ADD PUSH2 0x2506 JUMP JUMPDEST SWAP4 POP POP PUSH1 0x20 PUSH2 0x3297 DUP7 DUP3 DUP8 ADD PUSH2 0x253C JUMP JUMPDEST SWAP3 POP POP PUSH1 0x40 PUSH2 0x32A8 DUP7 DUP3 DUP8 ADD PUSH2 0x253C JUMP JUMPDEST SWAP2 POP POP SWAP3 POP SWAP3 POP SWAP3 JUMP JUMPDEST PUSH1 0x0 DUP2 SWAP1 POP SWAP3 SWAP2 POP POP JUMP JUMPDEST PUSH1 0x0 PUSH2 0x32C8 DUP3 PUSH2 0x2832 JUMP JUMPDEST PUSH2 0x32D2 DUP2 DUP6 PUSH2 0x32B2 JUMP JUMPDEST SWAP4 POP PUSH2 0x32E2 DUP2 DUP6 PUSH1 0x20 DUP7 ADD PUSH2 0x284E JUMP JUMPDEST DUP1 DUP5 ADD SWAP2 POP POP SWAP3 SWAP2 POP POP JUMP JUMPDEST PUSH1 0x0 PUSH2 0x32FA DUP3 DUP6 PUSH2 0x32BD JUMP JUMPDEST SWAP2 POP PUSH2 0x3306 DUP3 DUP5 PUSH2 0x32BD JUMP JUMPDEST SWAP2 POP DUP2 SWAP1 POP SWAP4 SWAP3 POP POP POP JUMP JUMPDEST PUSH32 0x4E487B7100000000000000000000000000000000000000000000000000000000 PUSH1 0x0 MSTORE PUSH1 0x32 PUSH1 0x4 MSTORE PUSH1 0x24 PUSH1 0x0 REVERT JUMPDEST PUSH2 0x334A DUP2 PUSH2 0x24DD JUMP JUMPDEST DUP3 MSTORE POP POP JUMP JUMPDEST PUSH1 0x0 PUSH1 0x40 DUP3 ADD SWAP1 POP PUSH2 0x3365 PUSH1 0x0 DUP4 ADD DUP6 PUSH2 0x3341 JUMP JUMPDEST PUSH2 0x3372 PUSH1 0x20 DUP4 ADD DUP5 PUSH2 0x3341 JUMP JUMPDEST SWAP4 SWAP3 POP POP POP JUMP JUMPDEST PUSH1 0x0 PUSH1 0x40 DUP3 ADD SWAP1 POP PUSH2 0x338E PUSH1 0x0 DUP4 ADD DUP6 PUSH2 0x2591 JUMP JUMPDEST PUSH2 0x339B PUSH1 0x20 DUP4 ADD DUP5 PUSH2 0x2591 JUMP JUMPDEST SWAP4 SWAP3 POP POP POP JUMP JUMPDEST PUSH32 0x4E487B7100000000000000000000000000000000000000000000000000000000 PUSH1 0x0 MSTORE PUSH1 0x22 PUSH1 0x4 MSTORE PUSH1 0x24 PUSH1 0x0 REVERT JUMPDEST PUSH1 0x0 PUSH1 0x2 DUP3 DIV SWAP1 POP PUSH1 0x1 DUP3 AND DUP1 PUSH2 0x33E9 JUMPI PUSH1 0x7F DUP3 AND SWAP2 POP JUMPDEST PUSH1 0x20 DUP3 LT DUP2 SUB PUSH2 0x33FC JUMPI PUSH2 0x33FB PUSH2 0x33A2 JUMP JUMPDEST JUMPDEST POP SWAP2 SWAP1 POP JUMP JUMPDEST PUSH1 0x0 DUP2 SWAP1 POP DUP2 PUSH1 0x0 MSTORE PUSH1 0x20 PUSH1 0x0 KECCAK256 SWAP1 POP SWAP2 SWAP1 POP JUMP JUMPDEST PUSH1 0x0 PUSH1 0x20 PUSH1 0x1F DUP4 ADD DIV SWAP1 POP SWAP2 SWAP1 POP JUMP JUMPDEST PUSH1 0x0 DUP3 DUP3 SHL SWAP1 POP SWAP3 SWAP2 POP POP JUMP JUMPDEST PUSH1 0x0 PUSH1 0x8 DUP4 MUL PUSH2 0x3464 PUSH32 0xFFFFFFFFFFFFFFFFFFFFFFFFFFFFFFFFFFFFFFFFFFFFFFFFFFFFFFFFFFFFFFFF DUP3 PUSH2 0x3427 JUMP JUMPDEST PUSH2 0x346E DUP7 DUP4 PUSH2 0x3427 JUMP JUMPDEST SWAP6 POP DUP1 NOT DUP5 AND SWAP4 POP DUP1 DUP7 AND DUP5 OR SWAP3 POP POP POP SWAP4 SWAP3 POP POP POP JUMP JUMPDEST PUSH1 0x0 DUP2 SWAP1 POP SWAP2 SWAP1 POP JUMP JUMPDEST PUSH1 0x0 PUSH2 0x34AB PUSH2 0x34A6 PUSH2 0x34A1 DUP5 PUSH2 0x251B JUMP JUMPDEST PUSH2 0x3486 JUMP JUMPDEST PUSH2 0x251B JUMP JUMPDEST SWAP1 POP SWAP2 SWAP1 POP JUMP JUMPDEST PUSH1 0x0 DUP2 SWAP1 POP SWAP2 SWAP1 POP JUMP JUMPDEST PUSH2 0x34C5 DUP4 PUSH2 0x3490 JUMP JUMPDEST PUSH2 0x34D9 PUSH2 0x34D1 DUP3 PUSH2 0x34B2 JUMP JUMPDEST DUP5 DUP5 SLOAD PUSH2 0x3434 JUMP JUMPDEST DUP3 SSTORE POP POP POP POP JUMP JUMPDEST PUSH1 0x0 SWAP1 JUMP JUMPDEST PUSH2 0x34EE PUSH2 0x34E1 JUMP JUMPDEST PUSH2 0x34F9 DUP2 DUP5 DUP5 PUSH2 0x34BC JUMP JUMPDEST POP POP POP JUMP JUMPDEST JUMPDEST DUP2 DUP2 LT ISZERO PUSH2 0x351D JUMPI PUSH2 0x3512 PUSH1 0x0 DUP3 PUSH2 0x34E6 JUMP JUMPDEST PUSH1 0x1 DUP2 ADD SWAP1 POP PUSH2 0x34FF JUMP JUMPDEST POP POP JUMP JUMPDEST PUSH1 0x1F DUP3 GT ISZERO PUSH2 0x3562 JUMPI PUSH2 0x3533 DUP2 PUSH2 0x3402 JUMP JUMPDEST PUSH2 0x353C DUP5 PUSH2 0x3417 JUMP JUMPDEST DUP2 ADD PUSH1 0x20 DUP6 LT ISZERO PUSH2 0x354B JUMPI DUP2 SWAP1 POP JUMPDEST PUSH2 0x355F PUSH2 0x3557 DUP6 PUSH2 0x3417 JUMP JUMPDEST DUP4 ADD DUP3 PUSH2 0x34FE JUMP JUMPDEST POP POP JUMPDEST POP POP POP JUMP JUMPDEST PUSH1 0x0 DUP3 DUP3 SHR SWAP1 POP SWAP3 SWAP2 POP POP JUMP JUMPDEST PUSH1 0x0 PUSH2 0x3585 PUSH1 0x0 NOT DUP5 PUSH1 0x8 MUL PUSH2 0x3567 JUMP JUMPDEST NOT DUP1 DUP4 AND SWAP2 POP POP SWAP3 SWAP2 POP POP JUMP JUMPDEST PUSH1 0x0 PUSH2 0x359E DUP4 DUP4 PUSH2 0x3574 JUMP JUMPDEST SWAP2 POP DUP3 PUSH1 0x2 MUL DUP3 OR SWAP1 POP SWAP3 SWAP2 POP POP JUMP JUMPDEST PUSH2 0x35B7 DUP3 PUSH2 0x2832 JUMP JUMPDEST PUSH8 0xFFFFFFFFFFFFFFFF DUP2 GT ISZERO PUSH2 0x35D0 JUMPI PUSH2 0x35CF PUSH2 0x2691 JUMP JUMPDEST JUMPDEST PUSH2 0x35DA DUP3 SLOAD PUSH2 0x33D1 JUMP JUMPDEST PUSH2 0x35E5 DUP3 DUP3 DUP6 PUSH2 0x3521 JUMP JUMPDEST PUSH1 0x0 PUSH1 0x20 SWAP1 POP PUSH1 0x1F DUP4 GT PUSH1 0x1 DUP2 EQ PUSH2 0x3618 JUMPI PUSH1 0x0 DUP5 ISZERO PUSH2 0x3606 JUMPI DUP3 DUP8 ADD MLOAD SWAP1 POP JUMPDEST PUSH2 0x3610 DUP6 DUP3 PUSH2 0x3592 JUMP JUMPDEST DUP7 SSTORE POP PUSH2 0x3678 JUMP JUMPDEST PUSH1 0x1F NOT DUP5 AND PUSH2 0x3626 DUP7 PUSH2 0x3402 JUMP JUMPDEST PUSH1 0x0 JUMPDEST DUP3 DUP2 LT ISZERO PUSH2 0x364E JUMPI DUP5 DUP10 ADD MLOAD DUP3 SSTORE PUSH1 0x1 DUP3 ADD SWAP2 POP PUSH1 0x20 DUP6 ADD SWAP5 POP PUSH1 0x20 DUP2 ADD SWAP1 POP PUSH2 0x3629 JUMP JUMPDEST DUP7 DUP4 LT ISZERO PUSH2 0x366B JUMPI DUP5 DUP10 ADD MLOAD PUSH2 0x3667 PUSH1 0x1F DUP10 AND DUP3 PUSH2 0x3574 JUMP JUMPDEST DUP4 SSTORE POP JUMPDEST PUSH1 0x1 PUSH1 0x2 DUP9 MUL ADD DUP9 SSTORE POP POP POP JUMPDEST POP POP POP POP POP POP JUMP JUMPDEST PUSH32 0x4E487B7100000000000000000000000000000000000000000000000000000000 PUSH1 0x0 MSTORE PUSH1 0x12 PUSH1 0x4 MSTORE PUSH1 0x24 PUSH1 0x0 REVERT JUMPDEST PUSH1 0x0 PUSH1 0x20 DUP3 ADD SWAP1 POP PUSH2 0x36C4 PUSH1 0x0 DUP4 ADD DUP5 PUSH2 0x3341 JUMP JUMPDEST SWAP3 SWAP2 POP POP JUMP JUMPDEST PUSH1 0x0 PUSH1 0x40 DUP3 ADD SWAP1 POP PUSH2 0x36DF PUSH1 0x0 DUP4 ADD DUP6 PUSH2 0x3341 JUMP JUMPDEST PUSH2 0x36EC PUSH1 0x20 DUP4 ADD DUP5 PUSH2 0x2B5A JUMP JUMPDEST SWAP4 SWAP3 POP POP POP JUMP JUMPDEST PUSH1 0x0 DUP2 MLOAD SWAP1 POP SWAP2 SWAP1 POP JUMP JUMPDEST PUSH1 0x0 DUP3 DUP3 MSTORE PUSH1 0x20 DUP3 ADD SWAP1 POP SWAP3 SWAP2 POP POP JUMP JUMPDEST PUSH1 0x0 PUSH2 0x371A DUP3 PUSH2 0x36F3 JUMP JUMPDEST PUSH2 0x3724 DUP2 DUP6 PUSH2 0x36FE JUMP JUMPDEST SWAP4 POP PUSH2 0x3734 DUP2 DUP6 PUSH1 0x20 DUP7 ADD PUSH2 0x284E JUMP JUMPDEST PUSH2 0x373D DUP2 PUSH2 0x2680 JUMP JUMPDEST DUP5 ADD SWAP2 POP POP SWAP3 SWAP2 POP POP JUMP JUMPDEST PUSH1 0x0 PUSH1 0xA0 DUP3 ADD SWAP1 POP PUSH2 0x375D PUSH1 0x0 DUP4 ADD DUP9 PUSH2 0x3341 JUMP JUMPDEST PUSH2 0x376A PUSH1 0x20 DUP4 ADD DUP8 PUSH2 0x3341 JUMP JUMPDEST PUSH2 0x3777 PUSH1 0x40 DUP4 ADD DUP7 PUSH2 0x2591 JUMP JUMPDEST PUSH2 0x3784 PUSH1 0x60 DUP4 ADD DUP6 PUSH2 0x2591 JUMP JUMPDEST DUP2 DUP2 SUB PUSH1 0x80 DUP4 ADD MSTORE PUSH2 0x3796 DUP2 DUP5 PUSH2 0x370F JUMP JUMPDEST SWAP1 POP SWAP7 SWAP6 POP POP POP POP POP POP JUMP JUMPDEST PUSH1 0x0 DUP2 MLOAD SWAP1 POP PUSH2 0x37B1 DUP2 PUSH2 0x25E7 JUMP JUMPDEST SWAP3 SWAP2 POP POP JUMP JUMPDEST PUSH1 0x0 PUSH1 0x20 DUP3 DUP5 SUB SLT ISZERO PUSH2 0x37CD JUMPI PUSH2 0x37CC PUSH2 0x24B3 JUMP JUMPDEST JUMPDEST PUSH1 0x0 PUSH2 0x37DB DUP5 DUP3 DUP6 ADD PUSH2 0x37A2 JUMP JUMPDEST SWAP2 POP POP SWAP3 SWAP2 POP POP JUMP JUMPDEST PUSH1 0x0 PUSH1 0xA0 DUP3 ADD SWAP1 POP PUSH2 0x37F9 PUSH1 0x0 DUP4 ADD DUP9 PUSH2 0x3341 JUMP JUMPDEST PUSH2 0x3806 PUSH1 0x20 DUP4 ADD DUP8 PUSH2 0x3341 JUMP JUMPDEST DUP2 DUP2 SUB PUSH1 0x40 DUP4 ADD MSTORE PUSH2 0x3818 DUP2 DUP7 PUSH2 0x2C40 JUMP JUMPDEST SWAP1 POP DUP2 DUP2 SUB PUSH1 0x60 DUP4 ADD MSTORE PUSH2 0x382C DUP2 DUP6 PUSH2 0x2C40 JUMP JUMPDEST SWAP1 POP DUP2 DUP2 SUB PUSH1 0x80 DUP4 ADD MSTORE PUSH2 0x3840 DUP2 DUP5 PUSH2 0x370F JUMP JUMPDEST SWAP1 POP SWAP7 SWAP6 POP POP POP POP POP POP JUMP JUMPDEST PUSH1 0x0 PUSH1 0x80 DUP3 ADD SWAP1 POP PUSH2 0x3861 PUSH1 0x0 DUP4 ADD DUP8 PUSH2 0x3341 JUMP JUMPDEST PUSH2 0x386E PUSH1 0x20 DUP4 ADD DUP7 PUSH2 0x2591 JUMP JUMPDEST PUSH2 0x387B PUSH1 0x40 DUP4 ADD DUP6 PUSH2 0x2591 JUMP JUMPDEST PUSH2 0x3888 PUSH1 0x60 DUP4 ADD DUP5 PUSH2 0x2591 JUMP JUMPDEST SWAP6 SWAP5 POP POP POP POP POP JUMP JUMPDEST PUSH32 0x4E487B7100000000000000000000000000000000000000000000000000000000 PUSH1 0x0 MSTORE PUSH1 0x11 PUSH1 0x4 MSTORE PUSH1 0x24 PUSH1 0x0 REVERT JUMPDEST PUSH1 0x0 PUSH2 0x38CB DUP3 PUSH2 0x251B JUMP JUMPDEST SWAP2 POP PUSH2 0x38D6 DUP4 PUSH2 0x251B JUMP JUMPDEST SWAP3 POP DUP3 DUP3 ADD SWAP1 POP DUP1 DUP3 GT ISZERO PUSH2 0x38EE JUMPI PUSH2 0x38ED PUSH2 0x3891 JUMP JUMPDEST JUMPDEST SWAP3 SWAP2 POP POP JUMP JUMPDEST PUSH1 0x0 PUSH1 0x40 DUP3 ADD SWAP1 POP DUP2 DUP2 SUB PUSH1 0x0 DUP4 ADD MSTORE PUSH2 0x390E DUP2 DUP6 PUSH2 0x2C40 JUMP JUMPDEST SWAP1 POP DUP2 DUP2 SUB PUSH1 0x20 DUP4 ADD MSTORE PUSH2 0x3922 DUP2 DUP5 PUSH2 0x2C40 JUMP JUMPDEST SWAP1 POP SWAP4 SWAP3 POP POP POP JUMP INVALID LOG2 PUSH5 0x6970667358 0x22 SLT KECCAK256 GAS 0xC9 0xDC JUMPDEST 0xC9 XOR DELEGATECALL SDIV 0x27 0xE4 DUP3 0xC2 0xED 0x28 DUP9 SWAP13 LOG0 STOP 0xAC 0xE2 0xCE 0xEF 0xE1 ADDRESS COINBASE SHL 0xC0 DUP15 0xC4 0x2C 0xBA 0xB8 PUSH5 0x736F6C6343 STOP ADDMOD SHR STOP CALLER "},"methodIdentifiers":{"DEFAULT_ADMIN_ROLE()":"a217fddf","MINTER_ROLE()":"d5391393","PAUSER_ROLE()":"e63ab1e9","balanceOf(address,uint256)":"00fdd58e","balanceOfBatch(address[],uint256[])":"4e1273f4","balanceOfBatchOneAddr(address,uint256[])":"2e240ade","burn(address,uint256,uint256)":"f5298aca","burnBatch(address,uint256[],uint256[])":"6b20c454","getRoleAdmin(bytes32)":"248a9ca3","grantMinterRole(address)":"3dd1eb61","grantRole(bytes32,address)":"2f2ff15d","hasRole(bytes32,address)":"91d14854","isApprovedForAll(address,address)":"e985e9c5","mint(address,uint256,uint256,bytes)":"731133e9","mintBatch(address,uint256[],uint256[],bytes)":"1f7fdffa","mintBatchAddr(address[],uint256[],uint256[],bytes)":"503a28bd","pause()":"8456cb59","paused()":"5c975abb","renounceRole(bytes32,address)":"36568abe","revokeRole(bytes32,address)":"d547741f","safeBatchTransferFrom(address,address,uint256[],uint256[],bytes)":"2eb2c2d6","safeTransferFrom(address,address,uint256,uint256,bytes)":"f242432a","setApprovalForAll(address,bool)":"a22cb465","setURI(string)":"02fe5305","supportsInterface(bytes4)":"01ffc9a7","unpause()":"3f4ba83a","uri(uint256)":"0e89341c"}}}}}