{
  "_format": "hh-sol-artifact-1",
  "contractName": "Rogues",
  "sourceName": "contracts/Rogues.sol",
  "abi": [
    {
      "inputs": [
        {
          "internalType": "address",
          "name": "initialOwner",
          "type": "address"
        }
      ],
      "stateMutability": "nonpayable",
      "type": "constructor"
    },
    {
      "inputs": [],
      "name": "ERC721EnumerableForbiddenBatchMint",
      "type": "error"
    },
    {
      "inputs": [
        {
          "internalType": "address",
          "name": "sender",
          "type": "address"
        },
        {
          "internalType": "uint256",
          "name": "tokenId",
          "type": "uint256"
        },
        {
          "internalType": "address",
          "name": "owner",
          "type": "address"
        }
      ],
      "name": "ERC721IncorrectOwner",
      "type": "error"
    },
    {
      "inputs": [
        {
          "internalType": "address",
          "name": "operator",
          "type": "address"
        },
        {
          "internalType": "uint256",
          "name": "tokenId",
          "type": "uint256"
        }
      ],
      "name": "ERC721InsufficientApproval",
      "type": "error"
    },
    {
      "inputs": [
        {
          "internalType": "address",
          "name": "approver",
          "type": "address"
        }
      ],
      "name": "ERC721InvalidApprover",
      "type": "error"
    },
    {
      "inputs": [
        {
          "internalType": "address",
          "name": "operator",
          "type": "address"
        }
      ],
      "name": "ERC721InvalidOperator",
      "type": "error"
    },
    {
      "inputs": [
        {
          "internalType": "address",
          "name": "owner",
          "type": "address"
        }
      ],
      "name": "ERC721InvalidOwner",
      "type": "error"
    },
    {
      "inputs": [
        {
          "internalType": "address",
          "name": "receiver",
          "type": "address"
        }
      ],
      "name": "ERC721InvalidReceiver",
      "type": "error"
    },
    {
      "inputs": [
        {
          "internalType": "address",
          "name": "sender",
          "type": "address"
        }
      ],
      "name": "ERC721InvalidSender",
      "type": "error"
    },
    {
      "inputs": [
        {
          "internalType": "uint256",
          "name": "tokenId",
          "type": "uint256"
        }
      ],
      "name": "ERC721NonexistentToken",
      "type": "error"
    },
    {
      "inputs": [
        {
          "internalType": "address",
          "name": "owner",
          "type": "address"
        },
        {
          "internalType": "uint256",
          "name": "index",
          "type": "uint256"
        }
      ],
      "name": "ERC721OutOfBoundsIndex",
      "type": "error"
    },
    {
      "inputs": [],
      "name": "EnforcedPause",
      "type": "error"
    },
    {
      "inputs": [],
      "name": "ExpectedPause",
      "type": "error"
    },
    {
      "inputs": [
        {
          "internalType": "address",
          "name": "owner",
          "type": "address"
        }
      ],
      "name": "OwnableInvalidOwner",
      "type": "error"
    },
    {
      "inputs": [
        {
          "internalType": "address",
          "name": "account",
          "type": "address"
        }
      ],
      "name": "OwnableUnauthorizedAccount",
      "type": "error"
    },
    {
      "anonymous": false,
      "inputs": [
        {
          "indexed": true,
          "internalType": "address",
          "name": "owner",
          "type": "address"
        },
        {
          "indexed": true,
          "internalType": "address",
          "name": "approved",
          "type": "address"
        },
        {
          "indexed": true,
          "internalType": "uint256",
          "name": "tokenId",
          "type": "uint256"
        }
      ],
      "name": "Approval",
      "type": "event"
    },
    {
      "anonymous": false,
      "inputs": [
        {
          "indexed": true,
          "internalType": "address",
          "name": "owner",
          "type": "address"
        },
        {
          "indexed": true,
          "internalType": "address",
          "name": "operator",
          "type": "address"
        },
        {
          "indexed": false,
          "internalType": "bool",
          "name": "approved",
          "type": "bool"
        }
      ],
      "name": "ApprovalForAll",
      "type": "event"
    },
    {
      "anonymous": false,
      "inputs": [
        {
          "indexed": true,
          "internalType": "address",
          "name": "previousOwner",
          "type": "address"
        },
        {
          "indexed": true,
          "internalType": "address",
          "name": "newOwner",
          "type": "address"
        }
      ],
      "name": "OwnershipTransferred",
      "type": "event"
    },
    {
      "anonymous": false,
      "inputs": [
        {
          "indexed": false,
          "internalType": "address",
          "name": "account",
          "type": "address"
        }
      ],
      "name": "Paused",
      "type": "event"
    },
    {
      "anonymous": false,
      "inputs": [
        {
          "indexed": true,
          "internalType": "address",
          "name": "from",
          "type": "address"
        },
        {
          "indexed": true,
          "internalType": "address",
          "name": "to",
          "type": "address"
        },
        {
          "indexed": true,
          "internalType": "uint256",
          "name": "tokenId",
          "type": "uint256"
        }
      ],
      "name": "Transfer",
      "type": "event"
    },
    {
      "anonymous": false,
      "inputs": [
        {
          "indexed": false,
          "internalType": "address",
          "name": "account",
          "type": "address"
        }
      ],
      "name": "Unpaused",
      "type": "event"
    },
    {
      "inputs": [
        {
          "internalType": "address",
          "name": "to",
          "type": "address"
        },
        {
          "internalType": "uint256",
          "name": "tokenId",
          "type": "uint256"
        }
      ],
      "name": "approve",
      "outputs": [],
      "stateMutability": "nonpayable",
      "type": "function"
    },
    {
      "inputs": [
        {
          "internalType": "address",
          "name": "owner",
          "type": "address"
        }
      ],
      "name": "balanceOf",
      "outputs": [
        {
          "internalType": "uint256",
          "name": "",
          "type": "uint256"
        }
      ],
      "stateMutability": "view",
      "type": "function"
    },
    {
      "inputs": [],
      "name": "baseTokenURI",
      "outputs": [
        {
          "internalType": "string",
          "name": "",
          "type": "string"
        }
      ],
      "stateMutability": "view",
      "type": "function"
    },
    {
      "inputs": [
        {
          "internalType": "uint256",
          "name": "tokenId",
          "type": "uint256"
        }
      ],
      "name": "getApproved",
      "outputs": [
        {
          "internalType": "address",
          "name": "",
          "type": "address"
        }
      ],
      "stateMutability": "view",
      "type": "function"
    },
    {
      "inputs": [
        {
          "internalType": "address",
          "name": "owner",
          "type": "address"
        },
        {
          "internalType": "address",
          "name": "operator",
          "type": "address"
        }
      ],
      "name": "isApprovedForAll",
      "outputs": [
        {
          "internalType": "bool",
          "name": "",
          "type": "bool"
        }
      ],
      "stateMutability": "view",
      "type": "function"
    },
    {
      "inputs": [
        {
          "internalType": "address",
          "name": "_addr",
          "type": "address"
        }
      ],
      "name": "isWhiteListed",
      "outputs": [
        {
          "internalType": "bool",
          "name": "",
          "type": "bool"
        }
      ],
      "stateMutability": "view",
      "type": "function"
    },
    {
      "inputs": [],
      "name": "max_supply",
      "outputs": [
        {
          "internalType": "uint256",
          "name": "",
          "type": "uint256"
        }
      ],
      "stateMutability": "view",
      "type": "function"
    },
    {
      "inputs": [
        {
          "internalType": "uint256",
          "name": "_count",
          "type": "uint256"
        }
      ],
      "name": "mint",
      "outputs": [],
      "stateMutability": "payable",
      "type": "function"
    },
    {
      "inputs": [
        {
          "internalType": "uint256",
          "name": "_mintAmount",
          "type": "uint256"
        }
      ],
      "name": "mintForOwner",
      "outputs": [],
      "stateMutability": "nonpayable",
      "type": "function"
    },
    {
      "inputs": [],
      "name": "minting",
      "outputs": [
        {
          "internalType": "bool",
          "name": "",
          "type": "bool"
        }
      ],
      "stateMutability": "view",
      "type": "function"
    },
    {
      "inputs": [],
      "name": "name",
      "outputs": [
        {
          "internalType": "string",
          "name": "",
          "type": "string"
        }
      ],
      "stateMutability": "view",
      "type": "function"
    },
    {
      "inputs": [],
      "name": "owner",
      "outputs": [
        {
          "internalType": "address",
          "name": "",
          "type": "address"
        }
      ],
      "stateMutability": "view",
      "type": "function"
    },
    {
      "inputs": [
        {
          "internalType": "uint256",
          "name": "tokenId",
          "type": "uint256"
        }
      ],
      "name": "ownerOf",
      "outputs": [
        {
          "internalType": "address",
          "name": "",
          "type": "address"
        }
      ],
      "stateMutability": "view",
      "type": "function"
    },
    {
      "inputs": [],
      "name": "pause",
      "outputs": [],
      "stateMutability": "nonpayable",
      "type": "function"
    },
    {
      "inputs": [],
      "name": "paused",
      "outputs": [
        {
          "internalType": "bool",
          "name": "",
          "type": "bool"
        }
      ],
      "stateMutability": "view",
      "type": "function"
    },
    {
      "inputs": [],
      "name": "price",
      "outputs": [
        {
          "internalType": "uint256",
          "name": "",
          "type": "uint256"
        }
      ],
      "stateMutability": "view",
      "type": "function"
    },
    {
      "inputs": [],
      "name": "renounceOwnership",
      "outputs": [],
      "stateMutability": "nonpayable",
      "type": "function"
    },
    {
      "inputs": [
        {
          "internalType": "address",
          "name": "from",
          "type": "address"
        },
        {
          "internalType": "address",
          "name": "to",
          "type": "address"
        },
        {
          "internalType": "uint256",
          "name": "tokenId",
          "type": "uint256"
        }
      ],
      "name": "safeTransferFrom",
      "outputs": [],
      "stateMutability": "nonpayable",
      "type": "function"
    },
    {
      "inputs": [
        {
          "internalType": "address",
          "name": "from",
          "type": "address"
        },
        {
          "internalType": "address",
          "name": "to",
          "type": "address"
        },
        {
          "internalType": "uint256",
          "name": "tokenId",
          "type": "uint256"
        },
        {
          "internalType": "bytes",
          "name": "data",
          "type": "bytes"
        }
      ],
      "name": "safeTransferFrom",
      "outputs": [],
      "stateMutability": "nonpayable",
      "type": "function"
    },
    {
      "inputs": [
        {
          "internalType": "address",
          "name": "operator",
          "type": "address"
        },
        {
          "internalType": "bool",
          "name": "approved",
          "type": "bool"
        }
      ],
      "name": "setApprovalForAll",
      "outputs": [],
      "stateMutability": "nonpayable",
      "type": "function"
    },
    {
      "inputs": [
        {
          "internalType": "string",
          "name": "_baseTokenURI",
          "type": "string"
        }
      ],
      "name": "setBaseURI",
      "outputs": [],
      "stateMutability": "nonpayable",
      "type": "function"
    },
    {
      "inputs": [
        {
          "internalType": "uint256",
          "name": "_max_supply",
          "type": "uint256"
        }
      ],
      "name": "setMaxSupply",
      "outputs": [],
      "stateMutability": "nonpayable",
      "type": "function"
    },
    {
      "inputs": [
        {
          "internalType": "bool",
          "name": "_state",
          "type": "bool"
        }
      ],
      "name": "setMinting",
      "outputs": [],
      "stateMutability": "nonpayable",
      "type": "function"
    },
    {
      "inputs": [
        {
          "internalType": "uint256",
          "name": "_price",
          "type": "uint256"
        }
      ],
      "name": "setPrice",
      "outputs": [],
      "stateMutability": "nonpayable",
      "type": "function"
    },
    {
      "inputs": [
        {
          "internalType": "address[]",
          "name": "addresses",
          "type": "address[]"
        }
      ],
      "name": "setWhiteList",
      "outputs": [],
      "stateMutability": "nonpayable",
      "type": "function"
    },
    {
      "inputs": [
        {
          "internalType": "bytes4",
          "name": "interfaceId",
          "type": "bytes4"
        }
      ],
      "name": "supportsInterface",
      "outputs": [
        {
          "internalType": "bool",
          "name": "",
          "type": "bool"
        }
      ],
      "stateMutability": "view",
      "type": "function"
    },
    {
      "inputs": [],
      "name": "symbol",
      "outputs": [
        {
          "internalType": "string",
          "name": "",
          "type": "string"
        }
      ],
      "stateMutability": "view",
      "type": "function"
    },
    {
      "inputs": [
        {
          "internalType": "uint256",
          "name": "index",
          "type": "uint256"
        }
      ],
      "name": "tokenByIndex",
      "outputs": [
        {
          "internalType": "uint256",
          "name": "",
          "type": "uint256"
        }
      ],
      "stateMutability": "view",
      "type": "function"
    },
    {
      "inputs": [
        {
          "internalType": "address",
          "name": "owner",
          "type": "address"
        },
        {
          "internalType": "uint256",
          "name": "index",
          "type": "uint256"
        }
      ],
      "name": "tokenOfOwnerByIndex",
      "outputs": [
        {
          "internalType": "uint256",
          "name": "",
          "type": "uint256"
        }
      ],
      "stateMutability": "view",
      "type": "function"
    },
    {
      "inputs": [
        {
          "internalType": "uint256",
          "name": "tokenId",
          "type": "uint256"
        }
      ],
      "name": "tokenURI",
      "outputs": [
        {
          "internalType": "string",
          "name": "",
          "type": "string"
        }
      ],
      "stateMutability": "view",
      "type": "function"
    },
    {
      "inputs": [
        {
          "internalType": "address",
          "name": "_owner",
          "type": "address"
        }
      ],
      "name": "tokensOfOwner",
      "outputs": [
        {
          "internalType": "uint256[]",
          "name": "",
          "type": "uint256[]"
        }
      ],
      "stateMutability": "view",
      "type": "function"
    },
    {
      "inputs": [],
      "name": "totalSupply",
      "outputs": [
        {
          "internalType": "uint256",
          "name": "",
          "type": "uint256"
        }
      ],
      "stateMutability": "view",
      "type": "function"
    },
    {
      "inputs": [
        {
          "internalType": "address",
          "name": "from",
          "type": "address"
        },
        {
          "internalType": "address",
          "name": "to",
          "type": "address"
        },
        {
          "internalType": "uint256",
          "name": "tokenId",
          "type": "uint256"
        }
      ],
      "name": "transferFrom",
      "outputs": [],
      "stateMutability": "nonpayable",
      "type": "function"
    },
    {
      "inputs": [
        {
          "internalType": "address",
          "name": "newOwner",
          "type": "address"
        }
      ],
      "name": "transferOwnership",
      "outputs": [],
      "stateMutability": "nonpayable",
      "type": "function"
    },
    {
      "inputs": [],
      "name": "unpause",
      "outputs": [],
      "stateMutability": "nonpayable",
      "type": "function"
    },
    {
      "inputs": [
        {
          "internalType": "uint256",
          "name": "",
          "type": "uint256"
        }
      ],
      "name": "whitelist",
      "outputs": [
        {
          "internalType": "address",
          "name": "",
          "type": "address"
        }
      ],
      "stateMutability": "view",
      "type": "function"
    },
    {
      "inputs": [],
      "name": "withdraw",
      "outputs": [],
      "stateMutability": "payable",
      "type": "function"
    }
  ],
  "bytecode": "0x608060405234801561001057600080fd5b506040516145293803806145298339818101604052810190610032919061028d565b806040518060400160405280600681526020017f526f6775657300000000000000000000000000000000000000000000000000008152506040518060400160405280600381526020017f524753000000000000000000000000000000000000000000000000000000000081525081600090816100ae919061050a565b5080600190816100be919061050a565b5050506000600a60006101000a81548160ff021916908315150217905550600073ffffffffffffffffffffffffffffffffffffffff168173ffffffffffffffffffffffffffffffffffffffff160361014e5760006040517f1e4fbdf700000000000000000000000000000000000000000000000000000000815260040161014591906105eb565b60405180910390fd5b61015d8161016460201b60201c565b5050610606565b6000600a60019054906101000a900473ffffffffffffffffffffffffffffffffffffffff16905081600a60016101000a81548173ffffffffffffffffffffffffffffffffffffffff021916908373ffffffffffffffffffffffffffffffffffffffff1602179055508173ffffffffffffffffffffffffffffffffffffffff168173ffffffffffffffffffffffffffffffffffffffff167f8be0079c531659141344cd1fd0a4f28419497f9722a3daafe3b4186f6b6457e060405160405180910390a35050565b600080fd5b600073ffffffffffffffffffffffffffffffffffffffff82169050919050565b600061025a8261022f565b9050919050565b61026a8161024f565b811461027557600080fd5b50565b60008151905061028781610261565b92915050565b6000602082840312156102a3576102a261022a565b5b60006102b184828501610278565b91505092915050565b600081519050919050565b7f4e487b7100000000000000000000000000000000000000000000000000000000600052604160045260246000fd5b7f4e487b7100000000000000000000000000000000000000000000000000000000600052602260045260246000fd5b6000600282049050600182168061033b57607f821691505b60208210810361034e5761034d6102f4565b5b50919050565b60008190508160005260206000209050919050565b60006020601f8301049050919050565b600082821b905092915050565b6000600883026103b67fffffffffffffffffffffffffffffffffffffffffffffffffffffffffffffffff82610379565b6103c08683610379565b95508019841693508086168417925050509392505050565b6000819050919050565b6000819050919050565b60006104076104026103fd846103d8565b6103e2565b6103d8565b9050919050565b6000819050919050565b610421836103ec565b61043561042d8261040e565b848454610386565b825550505050565b600090565b61044a61043d565b610455818484610418565b505050565b5b818110156104795761046e600082610442565b60018101905061045b565b5050565b601f8211156104be5761048f81610354565b61049884610369565b810160208510156104a7578190505b6104bb6104b385610369565b83018261045a565b50505b505050565b600082821c905092915050565b60006104e1600019846008026104c3565b1980831691505092915050565b60006104fa83836104d0565b9150826002028217905092915050565b610513826102ba565b67ffffffffffffffff81111561052c5761052b6102c5565b5b6105368254610323565b61054182828561047d565b600060209050601f8311600181146105745760008415610562578287015190505b61056c85826104ee565b8655506105d4565b601f19841661058286610354565b60005b828110156105aa57848901518255600182019150602085019450602081019050610585565b868310156105c757848901516105c3601f8916826104d0565b8355505b6001600288020188555050505b505050505050565b6105e58161024f565b82525050565b600060208201905061060060008301846105dc565b92915050565b613f14806106156000396000f3fe60806040526004361061021a5760003560e01c8063715018a61161012357806395d89b41116100ab578063b88d4fde1161006f578063b88d4fde146107a1578063c87b56dd146107ca578063d547cfb714610807578063e985e9c514610832578063f2fde38b1461086f5761021a565b806395d89b41146106dd578063a035b1fe14610708578063a0712d6814610733578063a22cb4651461074f578063b4c7f066146107785761021a565b80638456cb59116100f25780638456cb591461060a5780638462151c146106215780638a333b501461065e5780638da5cb5b1461068957806391b7f5ed146106b45761021a565b8063715018a614610562578063775b9c13146105795780637dc2268c146105a25780637ebd1b30146105cd5761021a565b806342842e0e116101a65780636352211e116101755780636352211e1461045957806363bc312a146104965780636f8b44b0146104bf5780636f9170f6146104e857806370a08231146105255761021a565b806342842e0e1461039f5780634f6ccce7146103c857806355f804b3146104055780635c975abb1461042e5761021a565b806318160ddd116101ed57806318160ddd146102ed57806323b872dd146103185780632f745c59146103415780633ccfd60b1461037e5780633f4ba83a146103885761021a565b806301ffc9a71461021f57806306fdde031461025c578063081812fc14610287578063095ea7b3146102c4575b600080fd5b34801561022b57600080fd5b5061024660048036038101906102419190612ce7565b610898565b6040516102539190612d2f565b60405180910390f35b34801561026857600080fd5b506102716108aa565b60405161027e9190612dda565b60405180910390f35b34801561029357600080fd5b506102ae60048036038101906102a99190612e32565b61093c565b6040516102bb9190612ea0565b60405180910390f35b3480156102d057600080fd5b506102eb60048036038101906102e69190612ee7565b610958565b005b3480156102f957600080fd5b5061030261096e565b60405161030f9190612f36565b60405180910390f35b34801561032457600080fd5b5061033f600480360381019061033a9190612f51565b61097b565b005b34801561034d57600080fd5b5061036860048036038101906103639190612ee7565b610a7d565b6040516103759190612f36565b60405180910390f35b610386610b26565b005b34801561039457600080fd5b5061039d610c26565b005b3480156103ab57600080fd5b506103c660048036038101906103c19190612f51565b610c38565b005b3480156103d457600080fd5b506103ef60048036038101906103ea9190612e32565b610c58565b6040516103fc9190612f36565b60405180910390f35b34801561041157600080fd5b5061042c600480360381019061042791906130d9565b610cce565b005b34801561043a57600080fd5b50610443610ce9565b6040516104509190612d2f565b60405180910390f35b34801561046557600080fd5b50610480600480360381019061047b9190612e32565b610d00565b60405161048d9190612ea0565b60405180910390f35b3480156104a257600080fd5b506104bd60048036038101906104b89190612e32565b610d12565b005b3480156104cb57600080fd5b506104e660048036038101906104e19190612e32565b610d46565b005b3480156104f457600080fd5b5061050f600480360381019061050a9190613122565b610d58565b60405161051c9190612d2f565b60405180910390f35b34801561053157600080fd5b5061054c60048036038101906105479190613122565b610e00565b6040516105599190612f36565b60405180910390f35b34801561056e57600080fd5b50610577610eba565b005b34801561058557600080fd5b506105a0600480360381019061059b91906131af565b610ece565b005b3480156105ae57600080fd5b506105b7610efa565b6040516105c49190612d2f565b60405180910390f35b3480156105d957600080fd5b506105f460048036038101906105ef9190612e32565b610f0d565b6040516106019190612ea0565b60405180910390f35b34801561061657600080fd5b5061061f610f4c565b005b34801561062d57600080fd5b5061064860048036038101906106439190613122565b610f5e565b60405161065591906132ba565b60405180910390f35b34801561066a57600080fd5b50610673611006565b6040516106809190612f36565b60405180910390f35b34801561069557600080fd5b5061069e61100c565b6040516106ab9190612ea0565b60405180910390f35b3480156106c057600080fd5b506106db60048036038101906106d69190612e32565b611036565b005b3480156106e957600080fd5b506106f2611048565b6040516106ff9190612dda565b60405180910390f35b34801561071457600080fd5b5061071d6110da565b60405161072a9190612f36565b60405180910390f35b61074d60048036038101906107489190612e32565b6110e0565b005b34801561075b57600080fd5b5061077660048036038101906107719190613308565b6112e9565b005b34801561078457600080fd5b5061079f600480360381019061079a9190613348565b6112ff565b005b3480156107ad57600080fd5b506107c860048036038101906107c39190613416565b611324565b005b3480156107d657600080fd5b506107f160048036038101906107ec9190612e32565b611349565b6040516107fe9190612dda565b60405180910390f35b34801561081357600080fd5b5061081c6113b2565b6040516108299190612dda565b60405180910390f35b34801561083e57600080fd5b5061085960048036038101906108549190613499565b611440565b6040516108669190612d2f565b60405180910390f35b34801561087b57600080fd5b5061089660048036038101906108919190613122565b6114d4565b005b60006108a38261155a565b9050919050565b6060600080546108b990613508565b80601f01602080910402602001604051908101604052809291908181526020018280546108e590613508565b80156109325780601f1061090757610100808354040283529160200191610932565b820191906000526020600020905b81548152906001019060200180831161091557829003601f168201915b5050505050905090565b6000610947826115d4565b506109518261165c565b9050919050565b61096a8282610965611699565b6116a1565b5050565b6000600880549050905090565b600073ffffffffffffffffffffffffffffffffffffffff168273ffffffffffffffffffffffffffffffffffffffff16036109ed5760006040517f64a0ae920000000000000000000000000000000000000000000000000000000081526004016109e49190612ea0565b60405180910390fd5b6000610a0183836109fc611699565b6116b3565b90508373ffffffffffffffffffffffffffffffffffffffff168173ffffffffffffffffffffffffffffffffffffffff1614610a77578382826040517f64283d7b000000000000000000000000000000000000000000000000000000008152600401610a6e93929190613539565b60405180910390fd5b50505050565b6000610a8883610e00565b8210610acd5782826040517fa57d13dc000000000000000000000000000000000000000000000000000000008152600401610ac4929190613570565b60405180910390fd5b600660008473ffffffffffffffffffffffffffffffffffffffff1673ffffffffffffffffffffffffffffffffffffffff168152602001908152602001600020600083815260200190815260200160002054905092915050565b610b2e6116c9565b600047905060008111610b76576040517f08c379a0000000000000000000000000000000000000000000000000000000008152600401610b6d906135e5565b60405180910390fd5b60003373ffffffffffffffffffffffffffffffffffffffff1682604051610b9c90613636565b60006040518083038185875af1925050503d8060008114610bd9576040519150601f19603f3d011682016040523d82523d6000602084013e610bde565b606091505b5050905080610c22576040517f08c379a0000000000000000000000000000000000000000000000000000000008152600401610c1990613697565b60405180910390fd5b5050565b610c2e6116c9565b610c36611750565b565b610c5383838360405180602001604052806000815250611324565b505050565b6000610c6261096e565b8210610ca8576000826040517fa57d13dc000000000000000000000000000000000000000000000000000000008152600401610c9f929190613570565b60405180910390fd5b60088281548110610cbc57610cbb6136b7565b5b90600052602060002001549050919050565b610cd66116c9565b80600c9081610ce59190613892565b5050565b6000600a60009054906101000a900460ff16905090565b6000610d0b826115d4565b9050919050565b610d1a6116c9565b60005b81811015610d4257610d35610d3061100c565b6117b3565b8080600101915050610d1d565b5050565b610d4e6116c9565b80600d8190555050565b600080600090505b600f80549050811015610df5578273ffffffffffffffffffffffffffffffffffffffff16600f8281548110610d9857610d976136b7565b5b9060005260206000200160009054906101000a900473ffffffffffffffffffffffffffffffffffffffff1673ffffffffffffffffffffffffffffffffffffffff1603610de8576001915050610dfb565b8080600101915050610d60565b50600090505b919050565b60008073ffffffffffffffffffffffffffffffffffffffff168273ffffffffffffffffffffffffffffffffffffffff1603610e735760006040517f89c62b64000000000000000000000000000000000000000000000000000000008152600401610e6a9190612ea0565b60405180910390fd5b600360008373ffffffffffffffffffffffffffffffffffffffff1673ffffffffffffffffffffffffffffffffffffffff168152602001908152602001600020549050919050565b610ec26116c9565b610ecc60006117da565b565b610ed66116c9565b600f6000610ee49190612b9d565b8181600f9190610ef5929190612bbe565b505050565b601060009054906101000a900460ff1681565b600f8181548110610f1d57600080fd5b906000526020600020016000915054906101000a900473ffffffffffffffffffffffffffffffffffffffff1681565b610f546116c9565b610f5c6118a0565b565b60606000610f6b83610e00565b905060008167ffffffffffffffff811115610f8957610f88612fae565b5b604051908082528060200260200182016040528015610fb75781602001602082028036833780820191505090505b50905060005b82811015610ffb57610fcf8582610a7d565b828281518110610fe257610fe16136b7565b5b6020026020010181815250508080600101915050610fbd565b508092505050919050565b600d5481565b6000600a60019054906101000a900473ffffffffffffffffffffffffffffffffffffffff16905090565b61103e6116c9565b80600e8190555050565b60606001805461105790613508565b80601f016020809104026020016040519081016040528092919081815260200182805461108390613508565b80156110d05780601f106110a5576101008083540402835291602001916110d0565b820191906000526020600020905b8154815290600101906020018083116110b357829003601f168201915b5050505050905090565b600e5481565b6110e8611903565b601060009054906101000a900460ff166111455761110533610d58565b611144576040517f08c379a000000000000000000000000000000000000000000000000000000000815260040161113b906139d6565b60405180910390fd5b5b60008111611188576040517f08c379a000000000000000000000000000000000000000000000000000000000815260040161117f90613a42565b60405180910390fd5b60148111156111cc576040517f08c379a00000000000000000000000000000000000000000000000000000000081526004016111c390613ad4565b60405180910390fd5b600d54816111d861096e565b6111e29190613b23565b1115611223576040517f08c379a000000000000000000000000000000000000000000000000000000000815260040161121a90613bc9565b60405180910390fd5b60008061123b83600e5461194490919063ffffffff16565b915091508161127f576040517f08c379a000000000000000000000000000000000000000000000000000000000815260040161127690613c35565b60405180910390fd5b803410156112c2576040517f08c379a00000000000000000000000000000000000000000000000000000000081526004016112b990613ca1565b60405180910390fd5b60005b838110156112e3576112d6336117b3565b80806001019150506112c5565b50505050565b6112fb6112f4611699565b8383611997565b5050565b6113076116c9565b80601060006101000a81548160ff02191690831515021790555050565b61132f84848461097b565b61134361133a611699565b85858585611b06565b50505050565b6060611354826115d4565b50600061135f611cb7565b9050600081511161137f57604051806020016040528060008152506113aa565b8061138984611d49565b60405160200161139a929190613cfd565b6040516020818303038152906040525b915050919050565b600c80546113bf90613508565b80601f01602080910402602001604051908101604052809291908181526020018280546113eb90613508565b80156114385780601f1061140d57610100808354040283529160200191611438565b820191906000526020600020905b81548152906001019060200180831161141b57829003601f168201915b505050505081565b6000600560008473ffffffffffffffffffffffffffffffffffffffff1673ffffffffffffffffffffffffffffffffffffffff16815260200190815260200160002060008373ffffffffffffffffffffffffffffffffffffffff1673ffffffffffffffffffffffffffffffffffffffff16815260200190815260200160002060009054906101000a900460ff16905092915050565b6114dc6116c9565b600073ffffffffffffffffffffffffffffffffffffffff168173ffffffffffffffffffffffffffffffffffffffff160361154e5760006040517f1e4fbdf70000000000000000000000000000000000000000000000000000000081526004016115459190612ea0565b60405180910390fd5b611557816117da565b50565b60007f780e9d63000000000000000000000000000000000000000000000000000000007bffffffffffffffffffffffffffffffffffffffffffffffffffffffff1916827bffffffffffffffffffffffffffffffffffffffffffffffffffffffff191614806115cd57506115cc82611e17565b5b9050919050565b6000806115e083611ef9565b9050600073ffffffffffffffffffffffffffffffffffffffff168173ffffffffffffffffffffffffffffffffffffffff160361165357826040517f7e27328900000000000000000000000000000000000000000000000000000000815260040161164a9190612f36565b60405180910390fd5b80915050919050565b60006004600083815260200190815260200160002060009054906101000a900473ffffffffffffffffffffffffffffffffffffffff169050919050565b600033905090565b6116ae8383836001611f36565b505050565b60006116c08484846120fb565b90509392505050565b6116d1611699565b73ffffffffffffffffffffffffffffffffffffffff166116ef61100c565b73ffffffffffffffffffffffffffffffffffffffff161461174e57611712611699565b6040517f118cdaa70000000000000000000000000000000000000000000000000000000081526004016117459190612ea0565b60405180910390fd5b565b611758612119565b6000600a60006101000a81548160ff0219169083151502179055507f5db9ee0a495bf2e6ff9c91a7834c1ba4fdd244a5e8aa4e537bd38aeae4b073aa61179c611699565b6040516117a99190612ea0565b60405180910390a1565b6000600b600081546117c490613d21565b91905081905590506117d68282612159565b5050565b6000600a60019054906101000a900473ffffffffffffffffffffffffffffffffffffffff16905081600a60016101000a81548173ffffffffffffffffffffffffffffffffffffffff021916908373ffffffffffffffffffffffffffffffffffffffff1602179055508173ffffffffffffffffffffffffffffffffffffffff168173ffffffffffffffffffffffffffffffffffffffff167f8be0079c531659141344cd1fd0a4f28419497f9722a3daafe3b4186f6b6457e060405160405180910390a35050565b6118a8611903565b6001600a60006101000a81548160ff0219169083151502179055507f62e78cea01bee320cd4e420270b5ea74000d11b0c9f74754ebdbfc544b05a2586118ec611699565b6040516118f99190612ea0565b60405180910390a1565b61190b610ce9565b15611942576040517fd93c066500000000000000000000000000000000000000000000000000000000815260040160405180910390fd5b565b6000806000840361195c576001600091509150611990565b600083850290508385828161197457611973613d69565b5b0414611987576000809250925050611990565b60018192509250505b9250929050565b600073ffffffffffffffffffffffffffffffffffffffff168273ffffffffffffffffffffffffffffffffffffffff1603611a0857816040517f5b08ba180000000000000000000000000000000000000000000000000000000081526004016119ff9190612ea0565b60405180910390fd5b80600560008573ffffffffffffffffffffffffffffffffffffffff1673ffffffffffffffffffffffffffffffffffffffff16815260200190815260200160002060008473ffffffffffffffffffffffffffffffffffffffff1673ffffffffffffffffffffffffffffffffffffffff16815260200190815260200160002060006101000a81548160ff0219169083151502179055508173ffffffffffffffffffffffffffffffffffffffff168373ffffffffffffffffffffffffffffffffffffffff167f17307eab39ab6107e8899845ad3d59bd9653f200f220920489ca2b5937696c3183604051611af99190612d2f565b60405180910390a3505050565b60008373ffffffffffffffffffffffffffffffffffffffff163b1115611cb0578273ffffffffffffffffffffffffffffffffffffffff1663150b7a02868685856040518563ffffffff1660e01b8152600401611b659493929190613ded565b6020604051808303816000875af1925050508015611ba157506040513d601f19601f82011682018060405250810190611b9e9190613e4e565b60015b611c25573d8060008114611bd1576040519150601f19603f3d011682016040523d82523d6000602084013e611bd6565b606091505b506000815103611c1d57836040517f64a0ae92000000000000000000000000000000000000000000000000000000008152600401611c149190612ea0565b60405180910390fd5b805181602001fd5b63150b7a0260e01b7bffffffffffffffffffffffffffffffffffffffffffffffffffffffff1916817bffffffffffffffffffffffffffffffffffffffffffffffffffffffff191614611cae57836040517f64a0ae92000000000000000000000000000000000000000000000000000000008152600401611ca59190612ea0565b60405180910390fd5b505b5050505050565b6060600c8054611cc690613508565b80601f0160208091040260200160405190810160405280929190818152602001828054611cf290613508565b8015611d3f5780601f10611d1457610100808354040283529160200191611d3f565b820191906000526020600020905b815481529060010190602001808311611d2257829003601f168201915b5050505050905090565b606060006001611d5884612177565b01905060008167ffffffffffffffff811115611d7757611d76612fae565b5b6040519080825280601f01601f191660200182016040528015611da95781602001600182028036833780820191505090505b509050600082602001820190505b600115611e0c578080600190039150507f3031323334353637383961626364656600000000000000000000000000000000600a86061a8153600a8581611e0057611dff613d69565b5b04945060008503611db7575b819350505050919050565b60007f80ac58cd000000000000000000000000000000000000000000000000000000007bffffffffffffffffffffffffffffffffffffffffffffffffffffffff1916827bffffffffffffffffffffffffffffffffffffffffffffffffffffffff19161480611ee257507f5b5e139f000000000000000000000000000000000000000000000000000000007bffffffffffffffffffffffffffffffffffffffffffffffffffffffff1916827bffffffffffffffffffffffffffffffffffffffffffffffffffffffff1916145b80611ef25750611ef1826122ca565b5b9050919050565b60006002600083815260200190815260200160002060009054906101000a900473ffffffffffffffffffffffffffffffffffffffff169050919050565b8080611f6f5750600073ffffffffffffffffffffffffffffffffffffffff168273ffffffffffffffffffffffffffffffffffffffff1614155b156120a3576000611f7f846115d4565b9050600073ffffffffffffffffffffffffffffffffffffffff168373ffffffffffffffffffffffffffffffffffffffff1614158015611fea57508273ffffffffffffffffffffffffffffffffffffffff168173ffffffffffffffffffffffffffffffffffffffff1614155b8015611ffd5750611ffb8184611440565b155b1561203f57826040517fa9fbf51f0000000000000000000000000000000000000000000000000000000081526004016120369190612ea0565b60405180910390fd5b81156120a157838573ffffffffffffffffffffffffffffffffffffffff168273ffffffffffffffffffffffffffffffffffffffff167f8c5be1e5ebec7d5bd14f71427d1e84f3dd0314c0f7b2291e5b200ac8c7c3b92560405160405180910390a45b505b836004600085815260200190815260200160002060006101000a81548173ffffffffffffffffffffffffffffffffffffffff021916908373ffffffffffffffffffffffffffffffffffffffff16021790555050505050565b6000612105611903565b612110848484612334565b90509392505050565b612121610ce9565b612157576040517f8dfc202b00000000000000000000000000000000000000000000000000000000815260040160405180910390fd5b565b612173828260405180602001604052806000815250612451565b5050565b600080600090507a184f03e93ff9f4daa797ed6e38ed64bf6a1f01000000000000000083106121d5577a184f03e93ff9f4daa797ed6e38ed64bf6a1f01000000000000000083816121cb576121ca613d69565b5b0492506040810190505b6d04ee2d6d415b85acef81000000008310612212576d04ee2d6d415b85acef8100000000838161220857612207613d69565b5b0492506020810190505b662386f26fc10000831061224157662386f26fc10000838161223757612236613d69565b5b0492506010810190505b6305f5e100831061226a576305f5e10083816122605761225f613d69565b5b0492506008810190505b612710831061228f57612710838161228557612284613d69565b5b0492506004810190505b606483106122b257606483816122a8576122a7613d69565b5b0492506002810190505b600a83106122c1576001810190505b80915050919050565b60007f01ffc9a7000000000000000000000000000000000000000000000000000000007bffffffffffffffffffffffffffffffffffffffffffffffffffffffff1916827bffffffffffffffffffffffffffffffffffffffffffffffffffffffff1916149050919050565b600080612342858585612475565b9050600073ffffffffffffffffffffffffffffffffffffffff168173ffffffffffffffffffffffffffffffffffffffff1603612386576123818461268f565b6123c5565b8473ffffffffffffffffffffffffffffffffffffffff168173ffffffffffffffffffffffffffffffffffffffff16146123c4576123c381856126d8565b5b5b600073ffffffffffffffffffffffffffffffffffffffff168573ffffffffffffffffffffffffffffffffffffffff160361240757612402846127c3565b612446565b8473ffffffffffffffffffffffffffffffffffffffff168173ffffffffffffffffffffffffffffffffffffffff1614612445576124448585612894565b5b5b809150509392505050565b61245b838361291f565b612470612466611699565b6000858585611b06565b505050565b60008061248184611ef9565b9050600073ffffffffffffffffffffffffffffffffffffffff168373ffffffffffffffffffffffffffffffffffffffff16146124c3576124c2818486612a18565b5b600073ffffffffffffffffffffffffffffffffffffffff168173ffffffffffffffffffffffffffffffffffffffff161461255457612505600085600080611f36565b6001600360008373ffffffffffffffffffffffffffffffffffffffff1673ffffffffffffffffffffffffffffffffffffffff168152602001908152602001600020600082825403925050819055505b600073ffffffffffffffffffffffffffffffffffffffff168573ffffffffffffffffffffffffffffffffffffffff16146125d7576001600360008773ffffffffffffffffffffffffffffffffffffffff1673ffffffffffffffffffffffffffffffffffffffff168152602001908152602001600020600082825401925050819055505b846002600086815260200190815260200160002060006101000a81548173ffffffffffffffffffffffffffffffffffffffff021916908373ffffffffffffffffffffffffffffffffffffffff160217905550838573ffffffffffffffffffffffffffffffffffffffff168273ffffffffffffffffffffffffffffffffffffffff167fddf252ad1be2c89b69c2b068fc378daa952ba7f163c4a11628f55a4df523b3ef60405160405180910390a4809150509392505050565b6008805490506009600083815260200190815260200160002081905550600881908060018154018082558091505060019003906000526020600020016000909190919091505550565b60006126e383610e00565b90506000600760008481526020019081526020016000205490506000600660008673ffffffffffffffffffffffffffffffffffffffff1673ffffffffffffffffffffffffffffffffffffffff168152602001908152602001600020905082821461278f5760008160008581526020019081526020016000205490508082600085815260200190815260200160002081905550826007600083815260200190815260200160002081905550505b6007600085815260200190815260200160002060009055806000848152602001908152602001600020600090555050505050565b600060016008805490506127d79190613e7b565b9050600060096000848152602001908152602001600020549050600060088381548110612807576128066136b7565b5b906000526020600020015490508060088381548110612829576128286136b7565b5b90600052602060002001819055508160096000838152602001908152602001600020819055506009600085815260200190815260200160002060009055600880548061287857612877613eaf565b5b6001900381819060005260206000200160009055905550505050565b600060016128a184610e00565b6128ab9190613e7b565b905081600660008573ffffffffffffffffffffffffffffffffffffffff1673ffffffffffffffffffffffffffffffffffffffff168152602001908152602001600020600083815260200190815260200160002081905550806007600084815260200190815260200160002081905550505050565b600073ffffffffffffffffffffffffffffffffffffffff168273ffffffffffffffffffffffffffffffffffffffff16036129915760006040517f64a0ae920000000000000000000000000000000000000000000000000000000081526004016129889190612ea0565b60405180910390fd5b600061299f838360006116b3565b9050600073ffffffffffffffffffffffffffffffffffffffff168173ffffffffffffffffffffffffffffffffffffffff1614612a135760006040517f73c6ac6e000000000000000000000000000000000000000000000000000000008152600401612a0a9190612ea0565b60405180910390fd5b505050565b612a23838383612adc565b612ad757600073ffffffffffffffffffffffffffffffffffffffff168373ffffffffffffffffffffffffffffffffffffffff1603612a9857806040517f7e273289000000000000000000000000000000000000000000000000000000008152600401612a8f9190612f36565b60405180910390fd5b81816040517f177e802f000000000000000000000000000000000000000000000000000000008152600401612ace929190613570565b60405180910390fd5b505050565b60008073ffffffffffffffffffffffffffffffffffffffff168373ffffffffffffffffffffffffffffffffffffffff1614158015612b9457508273ffffffffffffffffffffffffffffffffffffffff168473ffffffffffffffffffffffffffffffffffffffff161480612b555750612b548484611440565b5b80612b9357508273ffffffffffffffffffffffffffffffffffffffff16612b7b8361165c565b73ffffffffffffffffffffffffffffffffffffffff16145b5b90509392505050565b5080546000825590600052602060002090810190612bbb9190612c5e565b50565b828054828255906000526020600020908101928215612c4d579160200282015b82811115612c4c57823573ffffffffffffffffffffffffffffffffffffffff168260006101000a81548173ffffffffffffffffffffffffffffffffffffffff021916908373ffffffffffffffffffffffffffffffffffffffff16021790555091602001919060010190612bde565b5b509050612c5a9190612c5e565b5090565b5b80821115612c77576000816000905550600101612c5f565b5090565b6000604051905090565b600080fd5b600080fd5b60007fffffffff0000000000000000000000000000000000000000000000000000000082169050919050565b612cc481612c8f565b8114612ccf57600080fd5b50565b600081359050612ce181612cbb565b92915050565b600060208284031215612cfd57612cfc612c85565b5b6000612d0b84828501612cd2565b91505092915050565b60008115159050919050565b612d2981612d14565b82525050565b6000602082019050612d446000830184612d20565b92915050565b600081519050919050565b600082825260208201905092915050565b60005b83811015612d84578082015181840152602081019050612d69565b60008484015250505050565b6000601f19601f8301169050919050565b6000612dac82612d4a565b612db68185612d55565b9350612dc6818560208601612d66565b612dcf81612d90565b840191505092915050565b60006020820190508181036000830152612df48184612da1565b905092915050565b6000819050919050565b612e0f81612dfc565b8114612e1a57600080fd5b50565b600081359050612e2c81612e06565b92915050565b600060208284031215612e4857612e47612c85565b5b6000612e5684828501612e1d565b91505092915050565b600073ffffffffffffffffffffffffffffffffffffffff82169050919050565b6000612e8a82612e5f565b9050919050565b612e9a81612e7f565b82525050565b6000602082019050612eb56000830184612e91565b92915050565b612ec481612e7f565b8114612ecf57600080fd5b50565b600081359050612ee181612ebb565b92915050565b60008060408385031215612efe57612efd612c85565b5b6000612f0c85828601612ed2565b9250506020612f1d85828601612e1d565b9150509250929050565b612f3081612dfc565b82525050565b6000602082019050612f4b6000830184612f27565b92915050565b600080600060608486031215612f6a57612f69612c85565b5b6000612f7886828701612ed2565b9350506020612f8986828701612ed2565b9250506040612f9a86828701612e1d565b9150509250925092565b600080fd5b600080fd5b7f4e487b7100000000000000000000000000000000000000000000000000000000600052604160045260246000fd5b612fe682612d90565b810181811067ffffffffffffffff8211171561300557613004612fae565b5b80604052505050565b6000613018612c7b565b90506130248282612fdd565b919050565b600067ffffffffffffffff82111561304457613043612fae565b5b61304d82612d90565b9050602081019050919050565b82818337600083830152505050565b600061307c61307784613029565b61300e565b90508281526020810184848401111561309857613097612fa9565b5b6130a384828561305a565b509392505050565b600082601f8301126130c0576130bf612fa4565b5b81356130d0848260208601613069565b91505092915050565b6000602082840312156130ef576130ee612c85565b5b600082013567ffffffffffffffff81111561310d5761310c612c8a565b5b613119848285016130ab565b91505092915050565b60006020828403121561313857613137612c85565b5b600061314684828501612ed2565b91505092915050565b600080fd5b600080fd5b60008083601f84011261316f5761316e612fa4565b5b8235905067ffffffffffffffff81111561318c5761318b61314f565b5b6020830191508360208202830111156131a8576131a7613154565b5b9250929050565b600080602083850312156131c6576131c5612c85565b5b600083013567ffffffffffffffff8111156131e4576131e3612c8a565b5b6131f085828601613159565b92509250509250929050565b600081519050919050565b600082825260208201905092915050565b6000819050602082019050919050565b61323181612dfc565b82525050565b60006132438383613228565b60208301905092915050565b6000602082019050919050565b6000613267826131fc565b6132718185613207565b935061327c83613218565b8060005b838110156132ad5781516132948882613237565b975061329f8361324f565b925050600181019050613280565b5085935050505092915050565b600060208201905081810360008301526132d4818461325c565b905092915050565b6132e581612d14565b81146132f057600080fd5b50565b600081359050613302816132dc565b92915050565b6000806040838503121561331f5761331e612c85565b5b600061332d85828601612ed2565b925050602061333e858286016132f3565b9150509250929050565b60006020828403121561335e5761335d612c85565b5b600061336c848285016132f3565b91505092915050565b600067ffffffffffffffff8211156133905761338f612fae565b5b61339982612d90565b9050602081019050919050565b60006133b96133b484613375565b61300e565b9050828152602081018484840111156133d5576133d4612fa9565b5b6133e084828561305a565b509392505050565b600082601f8301126133fd576133fc612fa4565b5b813561340d8482602086016133a6565b91505092915050565b600080600080608085870312156134305761342f612c85565b5b600061343e87828801612ed2565b945050602061344f87828801612ed2565b935050604061346087828801612e1d565b925050606085013567ffffffffffffffff81111561348157613480612c8a565b5b61348d878288016133e8565b91505092959194509250565b600080604083850312156134b0576134af612c85565b5b60006134be85828601612ed2565b92505060206134cf85828601612ed2565b9150509250929050565b7f4e487b7100000000000000000000000000000000000000000000000000000000600052602260045260246000fd5b6000600282049050600182168061352057607f821691505b602082108103613533576135326134d9565b5b50919050565b600060608201905061354e6000830186612e91565b61355b6020830185612f27565b6135686040830184612e91565b949350505050565b60006040820190506135856000830185612e91565b6135926020830184612f27565b9392505050565b7f4e6f206574686572000000000000000000000000000000000000000000000000600082015250565b60006135cf600883612d55565b91506135da82613599565b602082019050919050565b600060208201905081810360008301526135fe816135c2565b9050919050565b600081905092915050565b50565b6000613620600083613605565b915061362b82613610565b600082019050919050565b600061364182613613565b9150819050919050565b7f5472616e73666572206661696c65642e00000000000000000000000000000000600082015250565b6000613681601083612d55565b915061368c8261364b565b602082019050919050565b600060208201905081810360008301526136b081613674565b9050919050565b7f4e487b7100000000000000000000000000000000000000000000000000000000600052603260045260246000fd5b60008190508160005260206000209050919050565b60006020601f8301049050919050565b600082821b905092915050565b6000600883026137487fffffffffffffffffffffffffffffffffffffffffffffffffffffffffffffffff8261370b565b613752868361370b565b95508019841693508086168417925050509392505050565b6000819050919050565b600061378f61378a61378584612dfc565b61376a565b612dfc565b9050919050565b6000819050919050565b6137a983613774565b6137bd6137b582613796565b848454613718565b825550505050565b600090565b6137d26137c5565b6137dd8184846137a0565b505050565b5b81811015613801576137f66000826137ca565b6001810190506137e3565b5050565b601f82111561384657613817816136e6565b613820846136fb565b8101602085101561382f578190505b61384361383b856136fb565b8301826137e2565b50505b505050565b600082821c905092915050565b60006138696000198460080261384b565b1980831691505092915050565b60006138828383613858565b9150826002028217905092915050565b61389b82612d4a565b67ffffffffffffffff8111156138b4576138b3612fae565b5b6138be8254613508565b6138c9828285613805565b600060209050601f8311600181146138fc57600084156138ea578287015190505b6138f48582613876565b86555061395c565b601f19841661390a866136e6565b60005b828110156139325784890151825560018201915060208501945060208101905061390d565b8683101561394f578489015161394b601f891682613858565b8355505b6001600288020188555050505b505050505050565b7f4f6e6c792077686974656c6973746564206164647265737365732063616e206d60008201527f696e740000000000000000000000000000000000000000000000000000000000602082015250565b60006139c0602383612d55565b91506139cb82613964565b604082019050919050565b600060208201905081810360008301526139ef816139b3565b9050919050565b7f4d757374206d696e74206174206c65617374206f6e6520746f6b656e00000000600082015250565b6000613a2c601c83612d55565b9150613a37826139f6565b602082019050919050565b60006020820190508181036000830152613a5b81613a1f565b9050919050565b7f43616e6e6f74206d696e74206d6f7265207468616e20323020746f6b656e732060008201527f6174206f6e636500000000000000000000000000000000000000000000000000602082015250565b6000613abe602783612d55565b9150613ac982613a62565b604082019050919050565b60006020820190508181036000830152613aed81613ab1565b9050919050565b7f4e487b7100000000000000000000000000000000000000000000000000000000600052601160045260246000fd5b6000613b2e82612dfc565b9150613b3983612dfc565b9250828201905080821115613b5157613b50613af4565b5b92915050565b7f507572636861736520776f756c6420657863656564206d617820737570706c7960008201527f206f6620746f6b656e7300000000000000000000000000000000000000000000602082015250565b6000613bb3602a83612d55565b9150613bbe82613b57565b604082019050919050565b60006020820190508181036000830152613be281613ba6565b9050919050565b7f4d756c7469706c69636174696f6e206f766572666c6f77000000000000000000600082015250565b6000613c1f601783612d55565b9150613c2a82613be9565b602082019050919050565b60006020820190508181036000830152613c4e81613c12565b9050919050565b7f45746865722076616c75652073656e74206973206e6f7420636f727265637400600082015250565b6000613c8b601f83612d55565b9150613c9682613c55565b602082019050919050565b60006020820190508181036000830152613cba81613c7e565b9050919050565b600081905092915050565b6000613cd782612d4a565b613ce18185613cc1565b9350613cf1818560208601612d66565b80840191505092915050565b6000613d098285613ccc565b9150613d158284613ccc565b91508190509392505050565b6000613d2c82612dfc565b91507fffffffffffffffffffffffffffffffffffffffffffffffffffffffffffffffff8203613d5e57613d5d613af4565b5b600182019050919050565b7f4e487b7100000000000000000000000000000000000000000000000000000000600052601260045260246000fd5b600081519050919050565b600082825260208201905092915050565b6000613dbf82613d98565b613dc98185613da3565b9350613dd9818560208601612d66565b613de281612d90565b840191505092915050565b6000608082019050613e026000830187612e91565b613e0f6020830186612e91565b613e1c6040830185612f27565b8181036060830152613e2e8184613db4565b905095945050505050565b600081519050613e4881612cbb565b92915050565b600060208284031215613e6457613e63612c85565b5b6000613e7284828501613e39565b91505092915050565b6000613e8682612dfc565b9150613e9183612dfc565b9250828203905081811115613ea957613ea8613af4565b5b92915050565b7f4e487b7100000000000000000000000000000000000000000000000000000000600052603160045260246000fdfea26469706673582212207723b937b8865b6d88db967e36b98692bafa0f69fc6975a0e61a899510a5135364736f6c634300081c0033",
  "linkReferences": {},
  "deployedLinkReferences": {}
}