{
  "_format": "hh-sol-artifact-1",
  "contractName": "CooldownSystem",
  "sourceName": "contracts/CooldownSystem.sol",
  "abi": [
    {
      "inputs": [],
      "stateMutability": "nonpayable",
      "type": "constructor"
    },
    {
      "inputs": [],
      "name": "AccessControlBadConfirmation",
      "type": "error"
    },
    {
      "inputs": [
        {
          "internalType": "address",
          "name": "account",
          "type": "address"
        },
        {
          "internalType": "bytes32",
          "name": "neededRole",
          "type": "bytes32"
        }
      ],
      "name": "AccessControlUnauthorizedAccount",
      "type": "error"
    },
    {
      "anonymous": false,
      "inputs": [
        {
          "indexed": true,
          "internalType": "address",
          "name": "user",
          "type": "address"
        },
        {
          "indexed": false,
          "internalType": "string",
          "name": "cooldownType",
          "type": "string"
        },
        {
          "indexed": false,
          "internalType": "uint256",
          "name": "index",
          "type": "uint256"
        },
        {
          "indexed": false,
          "internalType": "uint256",
          "name": "newTimestamp",
          "type": "uint256"
        }
      ],
      "name": "CooldownReset",
      "type": "event"
    },
    {
      "anonymous": false,
      "inputs": [
        {
          "indexed": true,
          "internalType": "address",
          "name": "user",
          "type": "address"
        },
        {
          "indexed": false,
          "internalType": "string",
          "name": "cooldownType",
          "type": "string"
        },
        {
          "indexed": false,
          "internalType": "uint256",
          "name": "index",
          "type": "uint256"
        },
        {
          "indexed": false,
          "internalType": "uint256",
          "name": "timestamp",
          "type": "uint256"
        }
      ],
      "name": "CooldownStarted",
      "type": "event"
    },
    {
      "anonymous": false,
      "inputs": [
        {
          "indexed": false,
          "internalType": "string",
          "name": "cooldownType",
          "type": "string"
        },
        {
          "indexed": false,
          "internalType": "uint256",
          "name": "newCount",
          "type": "uint256"
        },
        {
          "indexed": false,
          "internalType": "uint256",
          "name": "newDuration",
          "type": "uint256"
        }
      ],
      "name": "CooldownTypeAmended",
      "type": "event"
    },
    {
      "anonymous": false,
      "inputs": [
        {
          "indexed": false,
          "internalType": "string",
          "name": "cooldownType",
          "type": "string"
        },
        {
          "indexed": false,
          "internalType": "uint256",
          "name": "count",
          "type": "uint256"
        },
        {
          "indexed": false,
          "internalType": "uint256",
          "name": "duration",
          "type": "uint256"
        }
      ],
      "name": "CooldownTypeDefined",
      "type": "event"
    },
    {
      "anonymous": false,
      "inputs": [
        {
          "indexed": true,
          "internalType": "bytes32",
          "name": "role",
          "type": "bytes32"
        },
        {
          "indexed": true,
          "internalType": "bytes32",
          "name": "previousAdminRole",
          "type": "bytes32"
        },
        {
          "indexed": true,
          "internalType": "bytes32",
          "name": "newAdminRole",
          "type": "bytes32"
        }
      ],
      "name": "RoleAdminChanged",
      "type": "event"
    },
    {
      "anonymous": false,
      "inputs": [
        {
          "indexed": true,
          "internalType": "bytes32",
          "name": "role",
          "type": "bytes32"
        },
        {
          "indexed": true,
          "internalType": "address",
          "name": "account",
          "type": "address"
        },
        {
          "indexed": true,
          "internalType": "address",
          "name": "sender",
          "type": "address"
        }
      ],
      "name": "RoleGranted",
      "type": "event"
    },
    {
      "anonymous": false,
      "inputs": [
        {
          "indexed": true,
          "internalType": "bytes32",
          "name": "role",
          "type": "bytes32"
        },
        {
          "indexed": true,
          "internalType": "address",
          "name": "account",
          "type": "address"
        },
        {
          "indexed": true,
          "internalType": "address",
          "name": "sender",
          "type": "address"
        }
      ],
      "name": "RoleRevoked",
      "type": "event"
    },
    {
      "inputs": [],
      "name": "COOLDOWN_ADMIN_ROLE",
      "outputs": [
        {
          "internalType": "bytes32",
          "name": "",
          "type": "bytes32"
        }
      ],
      "stateMutability": "view",
      "type": "function"
    },
    {
      "inputs": [],
      "name": "DEFAULT_ADMIN_ROLE",
      "outputs": [
        {
          "internalType": "bytes32",
          "name": "",
          "type": "bytes32"
        }
      ],
      "stateMutability": "view",
      "type": "function"
    },
    {
      "inputs": [
        {
          "internalType": "string",
          "name": "_type",
          "type": "string"
        },
        {
          "internalType": "uint256",
          "name": "_newCount",
          "type": "uint256"
        },
        {
          "internalType": "uint256",
          "name": "_newDuration",
          "type": "uint256"
        }
      ],
      "name": "amendCooldownType",
      "outputs": [],
      "stateMutability": "nonpayable",
      "type": "function"
    },
    {
      "inputs": [
        {
          "internalType": "uint256",
          "name": "",
          "type": "uint256"
        }
      ],
      "name": "cooldownTypeList",
      "outputs": [
        {
          "internalType": "string",
          "name": "",
          "type": "string"
        }
      ],
      "stateMutability": "view",
      "type": "function"
    },
    {
      "inputs": [
        {
          "internalType": "string",
          "name": "",
          "type": "string"
        }
      ],
      "name": "cooldownTypes",
      "outputs": [
        {
          "internalType": "uint256",
          "name": "count",
          "type": "uint256"
        },
        {
          "internalType": "uint256",
          "name": "duration",
          "type": "uint256"
        },
        {
          "internalType": "bool",
          "name": "exists",
          "type": "bool"
        }
      ],
      "stateMutability": "view",
      "type": "function"
    },
    {
      "inputs": [
        {
          "internalType": "string",
          "name": "_type",
          "type": "string"
        },
        {
          "internalType": "uint256",
          "name": "_count",
          "type": "uint256"
        },
        {
          "internalType": "uint256",
          "name": "_duration",
          "type": "uint256"
        }
      ],
      "name": "defineCooldownType",
      "outputs": [],
      "stateMutability": "nonpayable",
      "type": "function"
    },
    {
      "inputs": [
        {
          "internalType": "string",
          "name": "_type",
          "type": "string"
        },
        {
          "internalType": "address",
          "name": "user",
          "type": "address"
        }
      ],
      "name": "getActiveCooldownsForType",
      "outputs": [
        {
          "components": [
            {
              "internalType": "uint256",
              "name": "index",
              "type": "uint256"
            },
            {
              "internalType": "uint256",
              "name": "remainingTime",
              "type": "uint256"
            }
          ],
          "internalType": "struct CooldownSystem.ActiveCooldown[]",
          "name": "",
          "type": "tuple[]"
        }
      ],
      "stateMutability": "view",
      "type": "function"
    },
    {
      "inputs": [],
      "name": "getAllCooldownTypeData",
      "outputs": [
        {
          "components": [
            {
              "internalType": "string",
              "name": "name",
              "type": "string"
            },
            {
              "internalType": "uint256",
              "name": "count",
              "type": "uint256"
            },
            {
              "internalType": "uint256",
              "name": "duration",
              "type": "uint256"
            },
            {
              "internalType": "bool",
              "name": "exists",
              "type": "bool"
            }
          ],
          "internalType": "struct CooldownSystem.CooldownTypeInfo[]",
          "name": "",
          "type": "tuple[]"
        }
      ],
      "stateMutability": "view",
      "type": "function"
    },
    {
      "inputs": [
        {
          "internalType": "string",
          "name": "_type",
          "type": "string"
        }
      ],
      "name": "getCooldownType",
      "outputs": [
        {
          "internalType": "uint256",
          "name": "count",
          "type": "uint256"
        },
        {
          "internalType": "uint256",
          "name": "duration",
          "type": "uint256"
        },
        {
          "internalType": "bool",
          "name": "exists",
          "type": "bool"
        }
      ],
      "stateMutability": "view",
      "type": "function"
    },
    {
      "inputs": [
        {
          "internalType": "string",
          "name": "_type",
          "type": "string"
        },
        {
          "internalType": "address",
          "name": "_user",
          "type": "address"
        },
        {
          "internalType": "uint256",
          "name": "_index",
          "type": "uint256"
        }
      ],
      "name": "getRemainingCooldown",
      "outputs": [
        {
          "internalType": "uint256",
          "name": "",
          "type": "uint256"
        }
      ],
      "stateMutability": "view",
      "type": "function"
    },
    {
      "inputs": [
        {
          "internalType": "bytes32",
          "name": "role",
          "type": "bytes32"
        }
      ],
      "name": "getRoleAdmin",
      "outputs": [
        {
          "internalType": "bytes32",
          "name": "",
          "type": "bytes32"
        }
      ],
      "stateMutability": "view",
      "type": "function"
    },
    {
      "inputs": [
        {
          "internalType": "bytes32",
          "name": "role",
          "type": "bytes32"
        },
        {
          "internalType": "address",
          "name": "account",
          "type": "address"
        }
      ],
      "name": "grantRole",
      "outputs": [],
      "stateMutability": "nonpayable",
      "type": "function"
    },
    {
      "inputs": [
        {
          "internalType": "bytes32",
          "name": "role",
          "type": "bytes32"
        },
        {
          "internalType": "address",
          "name": "account",
          "type": "address"
        }
      ],
      "name": "hasRole",
      "outputs": [
        {
          "internalType": "bool",
          "name": "",
          "type": "bool"
        }
      ],
      "stateMutability": "view",
      "type": "function"
    },
    {
      "inputs": [
        {
          "internalType": "string",
          "name": "_type",
          "type": "string"
        },
        {
          "internalType": "address",
          "name": "_user",
          "type": "address"
        },
        {
          "internalType": "uint256",
          "name": "_index",
          "type": "uint256"
        }
      ],
      "name": "isOnCooldown",
      "outputs": [
        {
          "internalType": "bool",
          "name": "",
          "type": "bool"
        }
      ],
      "stateMutability": "view",
      "type": "function"
    },
    {
      "inputs": [
        {
          "internalType": "bytes32",
          "name": "role",
          "type": "bytes32"
        },
        {
          "internalType": "address",
          "name": "callerConfirmation",
          "type": "address"
        }
      ],
      "name": "renounceRole",
      "outputs": [],
      "stateMutability": "nonpayable",
      "type": "function"
    },
    {
      "inputs": [
        {
          "internalType": "bytes32",
          "name": "role",
          "type": "bytes32"
        },
        {
          "internalType": "address",
          "name": "account",
          "type": "address"
        }
      ],
      "name": "revokeRole",
      "outputs": [],
      "stateMutability": "nonpayable",
      "type": "function"
    },
    {
      "inputs": [
        {
          "internalType": "string",
          "name": "_type",
          "type": "string"
        },
        {
          "internalType": "uint256",
          "name": "_index",
          "type": "uint256"
        }
      ],
      "name": "startCooldown",
      "outputs": [],
      "stateMutability": "nonpayable",
      "type": "function"
    },
    {
      "inputs": [
        {
          "internalType": "address",
          "name": "user",
          "type": "address"
        },
        {
          "internalType": "string",
          "name": "_type",
          "type": "string"
        },
        {
          "internalType": "uint256",
          "name": "_index",
          "type": "uint256"
        }
      ],
      "name": "startCooldownFor",
      "outputs": [],
      "stateMutability": "nonpayable",
      "type": "function"
    },
    {
      "inputs": [
        {
          "internalType": "bytes4",
          "name": "interfaceId",
          "type": "bytes4"
        }
      ],
      "name": "supportsInterface",
      "outputs": [
        {
          "internalType": "bool",
          "name": "",
          "type": "bool"
        }
      ],
      "stateMutability": "view",
      "type": "function"
    },
    {
      "inputs": [
        {
          "internalType": "string",
          "name": "",
          "type": "string"
        },
        {
          "internalType": "address",
          "name": "",
          "type": "address"
        },
        {
          "internalType": "uint256",
          "name": "",
          "type": "uint256"
        }
      ],
      "name": "userCooldowns",
      "outputs": [
        {
          "internalType": "uint256",
          "name": "",
          "type": "uint256"
        }
      ],
      "stateMutability": "view",
      "type": "function"
    }
  ],
  "bytecode": "0x608060405234801561001057600080fd5b506100246000801b3361005b60201b60201c565b506100557f9d3d1e55e847b84088dc1cff35a11a5a54368c17b4a2cae501a7cc49cd6062fa3361005b60201b60201c565b506101ca565b600061006d838361015860201b60201c565b61014d57600160008085815260200190815260200160002060000160008473ffffffffffffffffffffffffffffffffffffffff1673ffffffffffffffffffffffffffffffffffffffff16815260200190815260200160002060006101000a81548160ff0219169083151502179055506100ea6101c260201b60201c565b73ffffffffffffffffffffffffffffffffffffffff168273ffffffffffffffffffffffffffffffffffffffff16847f2f8788117e7eff1d82e926ec794901d17c78024a50270940304540a733656f0d60405160405180910390a460019050610152565b600090505b92915050565b600080600084815260200190815260200160002060000160008373ffffffffffffffffffffffffffffffffffffffff1673ffffffffffffffffffffffffffffffffffffffff16815260200190815260200160002060009054906101000a900460ff16905092915050565b600033905090565b612a86806101d96000396000f3fe608060405234801561001057600080fd5b506004361061012c5760003560e01c806374ff3560116100ad5780639e3ffce0116100715780639e3ffce014610379578063a217fddf14610397578063d547741f146103b5578063d79e7e3b146103d1578063ee37a444146104015761012c565b806374ff3560146102c35780637c8e4985146102e15780638ca3332f1461031157806391d148541461032d5780639615ecdd1461035d5761012c565b806336568abe116100f457806336568abe1461020d5780633b2bb63f146102295780633db2f03a14610259578063557d878e1461028b5780635b6e8ede146102a75761012c565b806301ffc9a71461013157806310067e4e14610161578063248a9ca3146101915780632f2ff15d146101c15780633410ea0c146101dd575b600080fd5b61014b60048036038101906101469190611a49565b610433565b6040516101589190611a91565b60405180910390f35b61017b60048036038101906101769190611c86565b6104ad565b6040516101889190611d04565b60405180910390f35b6101ab60048036038101906101a69190611d55565b6105eb565b6040516101b89190611d91565b60405180910390f35b6101db60048036038101906101d69190611dac565b61060a565b005b6101f760048036038101906101f29190611dec565b61062c565b6040516102049190611f35565b60405180910390f35b61022760048036038101906102229190611dac565b6108cd565b005b610243600480360381019061023e9190611f57565b610948565b6040516102509190612003565b60405180910390f35b610273600480360381019061026e9190612025565b6109f4565b6040516102829392919061206e565b60405180910390f35b6102a560048036038101906102a091906120a5565b610a44565b005b6102c160048036038101906102bc9190612114565b610c04565b005b6102cb610e7f565b6040516102d891906122ee565b60405180910390f35b6102fb60048036038101906102f69190611c86565b61102d565b6040516103089190611d04565b60405180910390f35b61032b600480360381019061032691906120a5565b611075565b005b61034760048036038101906103429190611dac565b6111da565b6040516103549190611a91565b60405180910390f35b61037760048036038101906103729190612310565b611244565b005b610381611529565b60405161038e9190611d91565b60405180910390f35b61039f61154d565b6040516103ac9190611d91565b60405180910390f35b6103cf60048036038101906103ca9190611dac565b611554565b005b6103eb60048036038101906103e69190611c86565b611576565b6040516103f89190611a91565b60405180910390f35b61041b60048036038101906104169190612025565b611692565b60405161042a9392919061206e565b60405180910390f35b60007f7965db0b000000000000000000000000000000000000000000000000000000007bffffffffffffffffffffffffffffffffffffffffffffffffffffffff1916827bffffffffffffffffffffffffffffffffffffffffffffffffffffffff191614806104a657506104a5826116df565b5b9050919050565b6000836001816040516104c091906123bb565b908152602001604051809103902060020160009054906101000a900460ff1661051e576040517f08c379a00000000000000000000000000000000000000000000000000000000081526004016105159061241e565b60405180910390fd5b600060028660405161053091906123bb565b908152602001604051809103902060008673ffffffffffffffffffffffffffffffffffffffff1673ffffffffffffffffffffffffffffffffffffffff168152602001908152602001600020600085815260200190815260200160002054905060006001876040516105a191906123bb565b908152602001604051809103902060010154826105be919061246d565b90508042106105d2576000935050506105e3565b42816105de91906124a1565b935050505b509392505050565b6000806000838152602001908152602001600020600101549050919050565b610613826105eb565b61061c81611749565b610626838361175d565b50505050565b60608260018160405161063f91906123bb565b908152602001604051809103902060020160009054906101000a900460ff1661069d576040517f08c379a00000000000000000000000000000000000000000000000000000000081526004016106949061241e565b60405180910390fd5b60006001856040516106af91906123bb565b9081526020016040518091039020905060008160000154905060008167ffffffffffffffff8111156106e4576106e3611ac7565b5b60405190808252806020026020018201604052801561071d57816020015b61070a611999565b8152602001906001900390816107025790505b5090506000805b8381101561081357600060028a60405161073e91906123bb565b908152602001604051809103902060008a73ffffffffffffffffffffffffffffffffffffffff1673ffffffffffffffffffffffffffffffffffffffff168152602001908152602001600020600083815260200190815260200160002054905060008660010154826107af919061246d565b90508042101561080457604051806040016040528084815260200142836107d691906124a1565b8152508585806107e5906124d5565b9650815181106107f8576107f761251d565b5b60200260200101819052505b50508080600101915050610724565b5060008167ffffffffffffffff8111156108305761082f611ac7565b5b60405190808252806020026020018201604052801561086957816020015b610856611999565b81526020019060019003908161084e5790505b50905060005b828110156108bd5783818151811061088a5761088961251d565b5b60200260200101518282815181106108a5576108a461251d565b5b6020026020010181905250808060010191505061086f565b5080965050505050505092915050565b6108d561184e565b73ffffffffffffffffffffffffffffffffffffffff168173ffffffffffffffffffffffffffffffffffffffff1614610939576040517f6697b23200000000000000000000000000000000000000000000000000000000815260040160405180910390fd5b6109438282611856565b505050565b6003818154811061095857600080fd5b9060005260206000200160009150905080546109739061257b565b80601f016020809104026020016040519081016040528092919081815260200182805461099f9061257b565b80156109ec5780601f106109c1576101008083540402835291602001916109ec565b820191906000526020600020905b8154815290600101906020018083116109cf57829003601f168201915b505050505081565b600080600080600185604051610a0a91906123bb565b90815260200160405180910390209050806000015481600101548260020160009054906101000a900460ff16935093509350509193909250565b610a6e7f9d3d1e55e847b84088dc1cff35a11a5a54368c17b4a2cae501a7cc49cd6062fa336111da565b610aad576040517f08c379a0000000000000000000000000000000000000000000000000000000008152600401610aa4906125f8565b60405180910390fd5b600183604051610abd91906123bb565b908152602001604051809103902060020160009054906101000a900460ff1615610b1c576040517f08c379a0000000000000000000000000000000000000000000000000000000008152600401610b1390612664565b60405180910390fd5b604051806060016040528083815260200182815260200160011515815250600184604051610b4a91906123bb565b9081526020016040518091039020600082015181600001556020820151816001015560408201518160020160006101000a81548160ff021916908315150217905550905050600383908060018154018082558091505060019003906000526020600020016000909190919091509081610bc39190612830565b507f995407e76c68f2b907408db6beb3fdd935b0717eff6e872a418d9ace345ba2dd838383604051610bf793929190612902565b60405180910390a1505050565b81600181604051610c1591906123bb565b908152602001604051809103902060020160009054906101000a900460ff16610c73576040517f08c379a0000000000000000000000000000000000000000000000000000000008152600401610c6a9061241e565b60405180910390fd5b600183604051610c8391906123bb565b9081526020016040518091039020600001548210610cd6576040517f08c379a0000000000000000000000000000000000000000000000000000000008152600401610ccd9061298c565b60405180910390fd5b6000600284604051610ce891906123bb565b908152602001604051809103902060003373ffffffffffffffffffffffffffffffffffffffff1673ffffffffffffffffffffffffffffffffffffffff1681526020019081526020016000206000848152602001908152602001600020549050600184604051610d5791906123bb565b90815260200160405180910390206001015481610d74919061246d565b421015610db6576040517f08c379a0000000000000000000000000000000000000000000000000000000008152600401610dad906129f8565b60405180910390fd5b42600285604051610dc791906123bb565b908152602001604051809103902060003373ffffffffffffffffffffffffffffffffffffffff1673ffffffffffffffffffffffffffffffffffffffff1681526020019081526020016000206000858152602001908152602001600020819055503373ffffffffffffffffffffffffffffffffffffffff167fab2cdc504dcd122cb133f0befb209032abac31c4ccb2a6ecebc484b869d87fa8858542604051610e7193929190612902565b60405180910390a250505050565b60606000600380549050905060008167ffffffffffffffff811115610ea757610ea6611ac7565b5b604051908082528060200260200182016040528015610ee057816020015b610ecd6119b3565b815260200190600190039081610ec55790505b50905060005b8281101561102457600060038281548110610f0457610f0361251d565b5b906000526020600020018054610f199061257b565b80601f0160208091040260200160405190810160405280929190818152602001828054610f459061257b565b8015610f925780601f10610f6757610100808354040283529160200191610f92565b820191906000526020600020905b815481529060010190602001808311610f7557829003601f168201915b505050505090506000600182604051610fab91906123bb565b90815260200160405180910390209050604051806080016040528083815260200182600001548152602001826001015481526020018260020160009054906101000a900460ff16151581525084848151811061100a5761100961251d565b5b602002602001018190525050508080600101915050610ee6565b50809250505090565b60028380516020810182018051848252602083016020850120818352809550505050505060205281600052604060002060205280600052604060002060009250925050505481565b61109f7f9d3d1e55e847b84088dc1cff35a11a5a54368c17b4a2cae501a7cc49cd6062fa336111da565b6110de576040517f08c379a00000000000000000000000000000000000000000000000000000000081526004016110d5906125f8565b60405180910390fd5b826001816040516110ef91906123bb565b908152602001604051809103902060020160009054906101000a900460ff1661114d576040517f08c379a00000000000000000000000000000000000000000000000000000000081526004016111449061241e565b60405180910390fd5b8260018560405161115e91906123bb565b9081526020016040518091039020600001819055508160018560405161118491906123bb565b9081526020016040518091039020600101819055507f0cee57fd7439ef7a4ca8351fa235d119bc717365d1e721249a4d97f6a6c084818484846040516111cc93929190612902565b60405180910390a150505050565b600080600084815260200190815260200160002060000160008373ffffffffffffffffffffffffffffffffffffffff1673ffffffffffffffffffffffffffffffffffffffff16815260200190815260200160002060009054906101000a900460ff16905092915050565b8160018160405161125591906123bb565b908152602001604051809103902060020160009054906101000a900460ff166112b3576040517f08c379a00000000000000000000000000000000000000000000000000000000081526004016112aa9061241e565b60405180910390fd5b6112dd7f9d3d1e55e847b84088dc1cff35a11a5a54368c17b4a2cae501a7cc49cd6062fa336111da565b61131c576040517f08c379a0000000000000000000000000000000000000000000000000000000008152600401611313906125f8565b60405180910390fd5b60018360405161132c91906123bb565b908152602001604051809103902060000154821061137f576040517f08c379a00000000000000000000000000000000000000000000000000000000081526004016113769061298c565b60405180910390fd5b600060028460405161139191906123bb565b908152602001604051809103902060008673ffffffffffffffffffffffffffffffffffffffff1673ffffffffffffffffffffffffffffffffffffffff168152602001908152602001600020600084815260200190815260200160002054905060018460405161140091906123bb565b9081526020016040518091039020600101548161141d919061246d565b42101561145f576040517f08c379a0000000000000000000000000000000000000000000000000000000008152600401611456906129f8565b60405180910390fd5b4260028560405161147091906123bb565b908152602001604051809103902060008773ffffffffffffffffffffffffffffffffffffffff1673ffffffffffffffffffffffffffffffffffffffff1681526020019081526020016000206000858152602001908152602001600020819055508473ffffffffffffffffffffffffffffffffffffffff167fab2cdc504dcd122cb133f0befb209032abac31c4ccb2a6ecebc484b869d87fa885854260405161151a93929190612902565b60405180910390a25050505050565b7f9d3d1e55e847b84088dc1cff35a11a5a54368c17b4a2cae501a7cc49cd6062fa81565b6000801b81565b61155d826105eb565b61156681611749565b6115708383611856565b50505050565b60008360018160405161158991906123bb565b908152602001604051809103902060020160009054906101000a900460ff166115e7576040517f08c379a00000000000000000000000000000000000000000000000000000000081526004016115de9061241e565b60405180910390fd5b60006002866040516115f991906123bb565b908152602001604051809103902060008673ffffffffffffffffffffffffffffffffffffffff1673ffffffffffffffffffffffffffffffffffffffff168152602001908152602001600020600085815260200190815260200160002054905060018660405161166891906123bb565b90815260200160405180910390206001015481611685919061246d565b4210925050509392505050565b6001818051602081018201805184825260208301602085012081835280955050505050506000915090508060000154908060010154908060020160009054906101000a900460ff16905083565b60007f01ffc9a7000000000000000000000000000000000000000000000000000000007bffffffffffffffffffffffffffffffffffffffffffffffffffffffff1916827bffffffffffffffffffffffffffffffffffffffffffffffffffffffff1916149050919050565b61175a8161175561184e565b611948565b50565b600061176983836111da565b61184357600160008085815260200190815260200160002060000160008473ffffffffffffffffffffffffffffffffffffffff1673ffffffffffffffffffffffffffffffffffffffff16815260200190815260200160002060006101000a81548160ff0219169083151502179055506117e061184e565b73ffffffffffffffffffffffffffffffffffffffff168273ffffffffffffffffffffffffffffffffffffffff16847f2f8788117e7eff1d82e926ec794901d17c78024a50270940304540a733656f0d60405160405180910390a460019050611848565b600090505b92915050565b600033905090565b600061186283836111da565b1561193d57600080600085815260200190815260200160002060000160008473ffffffffffffffffffffffffffffffffffffffff1673ffffffffffffffffffffffffffffffffffffffff16815260200190815260200160002060006101000a81548160ff0219169083151502179055506118da61184e565b73ffffffffffffffffffffffffffffffffffffffff168273ffffffffffffffffffffffffffffffffffffffff16847ff6391f5c32d9c69d2a47ea670b442974b53935d1edc7fd64eb21e047a839171b60405160405180910390a460019050611942565b600090505b92915050565b61195282826111da565b6119955780826040517fe2517d3f00000000000000000000000000000000000000000000000000000000815260040161198c929190612a27565b60405180910390fd5b5050565b604051806040016040528060008152602001600081525090565b60405180608001604052806060815260200160008152602001600081526020016000151581525090565b6000604051905090565b600080fd5b600080fd5b60007fffffffff0000000000000000000000000000000000000000000000000000000082169050919050565b611a26816119f1565b8114611a3157600080fd5b50565b600081359050611a4381611a1d565b92915050565b600060208284031215611a5f57611a5e6119e7565b5b6000611a6d84828501611a34565b91505092915050565b60008115159050919050565b611a8b81611a76565b82525050565b6000602082019050611aa66000830184611a82565b92915050565b600080fd5b600080fd5b6000601f19601f8301169050919050565b7f4e487b7100000000000000000000000000000000000000000000000000000000600052604160045260246000fd5b611aff82611ab6565b810181811067ffffffffffffffff82111715611b1e57611b1d611ac7565b5b80604052505050565b6000611b316119dd565b9050611b3d8282611af6565b919050565b600067ffffffffffffffff821115611b5d57611b5c611ac7565b5b611b6682611ab6565b9050602081019050919050565b82818337600083830152505050565b6000611b95611b9084611b42565b611b27565b905082815260208101848484011115611bb157611bb0611ab1565b5b611bbc848285611b73565b509392505050565b600082601f830112611bd957611bd8611aac565b5b8135611be9848260208601611b82565b91505092915050565b600073ffffffffffffffffffffffffffffffffffffffff82169050919050565b6000611c1d82611bf2565b9050919050565b611c2d81611c12565b8114611c3857600080fd5b50565b600081359050611c4a81611c24565b92915050565b6000819050919050565b611c6381611c50565b8114611c6e57600080fd5b50565b600081359050611c8081611c5a565b92915050565b600080600060608486031215611c9f57611c9e6119e7565b5b600084013567ffffffffffffffff811115611cbd57611cbc6119ec565b5b611cc986828701611bc4565b9350506020611cda86828701611c3b565b9250506040611ceb86828701611c71565b9150509250925092565b611cfe81611c50565b82525050565b6000602082019050611d196000830184611cf5565b92915050565b6000819050919050565b611d3281611d1f565b8114611d3d57600080fd5b50565b600081359050611d4f81611d29565b92915050565b600060208284031215611d6b57611d6a6119e7565b5b6000611d7984828501611d40565b91505092915050565b611d8b81611d1f565b82525050565b6000602082019050611da66000830184611d82565b92915050565b60008060408385031215611dc357611dc26119e7565b5b6000611dd185828601611d40565b9250506020611de285828601611c3b565b9150509250929050565b60008060408385031215611e0357611e026119e7565b5b600083013567ffffffffffffffff811115611e2157611e206119ec565b5b611e2d85828601611bc4565b9250506020611e3e85828601611c3b565b9150509250929050565b600081519050919050565b600082825260208201905092915050565b6000819050602082019050919050565b611e7d81611c50565b82525050565b604082016000820151611e996000850182611e74565b506020820151611eac6020850182611e74565b50505050565b6000611ebe8383611e83565b60408301905092915050565b6000602082019050919050565b6000611ee282611e48565b611eec8185611e53565b9350611ef783611e64565b8060005b83811015611f28578151611f0f8882611eb2565b9750611f1a83611eca565b925050600181019050611efb565b5085935050505092915050565b60006020820190508181036000830152611f4f8184611ed7565b905092915050565b600060208284031215611f6d57611f6c6119e7565b5b6000611f7b84828501611c71565b91505092915050565b600081519050919050565b600082825260208201905092915050565b60005b83811015611fbe578082015181840152602081019050611fa3565b60008484015250505050565b6000611fd582611f84565b611fdf8185611f8f565b9350611fef818560208601611fa0565b611ff881611ab6565b840191505092915050565b6000602082019050818103600083015261201d8184611fca565b905092915050565b60006020828403121561203b5761203a6119e7565b5b600082013567ffffffffffffffff811115612059576120586119ec565b5b61206584828501611bc4565b91505092915050565b60006060820190506120836000830186611cf5565b6120906020830185611cf5565b61209d6040830184611a82565b949350505050565b6000806000606084860312156120be576120bd6119e7565b5b600084013567ffffffffffffffff8111156120dc576120db6119ec565b5b6120e886828701611bc4565b93505060206120f986828701611c71565b925050604061210a86828701611c71565b9150509250925092565b6000806040838503121561212b5761212a6119e7565b5b600083013567ffffffffffffffff811115612149576121486119ec565b5b61215585828601611bc4565b925050602061216685828601611c71565b9150509250929050565b600081519050919050565b600082825260208201905092915050565b6000819050602082019050919050565b600082825260208201905092915050565b60006121b882611f84565b6121c2818561219c565b93506121d2818560208601611fa0565b6121db81611ab6565b840191505092915050565b6121ef81611a76565b82525050565b6000608083016000830151848203600086015261221282826121ad565b91505060208301516122276020860182611e74565b50604083015161223a6040860182611e74565b50606083015161224d60608601826121e6565b508091505092915050565b600061226483836121f5565b905092915050565b6000602082019050919050565b600061228482612170565b61228e818561217b565b9350836020820285016122a08561218c565b8060005b858110156122dc57848403895281516122bd8582612258565b94506122c88361226c565b925060208a019950506001810190506122a4565b50829750879550505050505092915050565b600060208201905081810360008301526123088184612279565b905092915050565b600080600060608486031215612329576123286119e7565b5b600061233786828701611c3b565b935050602084013567ffffffffffffffff811115612358576123576119ec565b5b61236486828701611bc4565b925050604061237586828701611c71565b9150509250925092565b600081905092915050565b600061239582611f84565b61239f818561237f565b93506123af818560208601611fa0565b80840191505092915050565b60006123c7828461238a565b915081905092915050565b7f436f6f6c646f776e207479706520646f6573206e6f7420657869737400000000600082015250565b6000612408601c83611f8f565b9150612413826123d2565b602082019050919050565b60006020820190508181036000830152612437816123fb565b9050919050565b7f4e487b7100000000000000000000000000000000000000000000000000000000600052601160045260246000fd5b600061247882611c50565b915061248383611c50565b925082820190508082111561249b5761249a61243e565b5b92915050565b60006124ac82611c50565b91506124b783611c50565b92508282039050818111156124cf576124ce61243e565b5b92915050565b60006124e082611c50565b91507fffffffffffffffffffffffffffffffffffffffffffffffffffffffffffffffff82036125125761251161243e565b5b600182019050919050565b7f4e487b7100000000000000000000000000000000000000000000000000000000600052603260045260246000fd5b7f4e487b7100000000000000000000000000000000000000000000000000000000600052602260045260246000fd5b6000600282049050600182168061259357607f821691505b6020821081036125a6576125a561254c565b5b50919050565b7f4e6f7420636f6f6c646f776e2061646d696e0000000000000000000000000000600082015250565b60006125e2601283611f8f565b91506125ed826125ac565b602082019050919050565b60006020820190508181036000830152612611816125d5565b9050919050565b7f436f6f6c646f776e207479706520616c726561647920646566696e6564000000600082015250565b600061264e601d83611f8f565b915061265982612618565b602082019050919050565b6000602082019050818103600083015261267d81612641565b9050919050565b60008190508160005260206000209050919050565b60006020601f8301049050919050565b600082821b905092915050565b6000600883026126e67fffffffffffffffffffffffffffffffffffffffffffffffffffffffffffffffff826126a9565b6126f086836126a9565b95508019841693508086168417925050509392505050565b6000819050919050565b600061272d61272861272384611c50565b612708565b611c50565b9050919050565b6000819050919050565b61274783612712565b61275b61275382612734565b8484546126b6565b825550505050565b600090565b612770612763565b61277b81848461273e565b505050565b5b8181101561279f57612794600082612768565b600181019050612781565b5050565b601f8211156127e4576127b581612684565b6127be84612699565b810160208510156127cd578190505b6127e16127d985612699565b830182612780565b50505b505050565b600082821c905092915050565b6000612807600019846008026127e9565b1980831691505092915050565b600061282083836127f6565b9150826002028217905092915050565b61283982611f84565b67ffffffffffffffff81111561285257612851611ac7565b5b61285c825461257b565b6128678282856127a3565b600060209050601f83116001811461289a5760008415612888578287015190505b6128928582612814565b8655506128fa565b601f1984166128a886612684565b60005b828110156128d0578489015182556001820191506020850194506020810190506128ab565b868310156128ed57848901516128e9601f8916826127f6565b8355505b6001600288020188555050505b505050505050565b6000606082019050818103600083015261291c8186611fca565b905061292b6020830185611cf5565b6129386040830184611cf5565b949350505050565b7f496e76616c696420636f6f6c646f776e20696e64657800000000000000000000600082015250565b6000612976601683611f8f565b915061298182612940565b602082019050919050565b600060208201905081810360008301526129a581612969565b9050919050565b7f436f6f6c646f776e206e6f742066696e69736865640000000000000000000000600082015250565b60006129e2601583611f8f565b91506129ed826129ac565b602082019050919050565b60006020820190508181036000830152612a11816129d5565b9050919050565b612a2181611c12565b82525050565b6000604082019050612a3c6000830185612a18565b612a496020830184611d82565b939250505056fea264697066735822122010b5a5db25ceed92d7720414c3efed94f875a3920c5e807eb0c832bd0e8778e264736f6c634300081c0033",
  "linkReferences": {},
  "deployedLinkReferences": {}
}