{"abi":[{"type":"constructor","inputs":[{"name":"_usdcAddress","type":"address","internalType":"address"}],"stateMutability":"nonpayable"},{"type":"function","name":"contractBalance","inputs":[],"outputs":[{"name":"","type":"uint256","internalType":"uint256"}],"stateMutability":"view"},{"type":"function","name":"getUserPaymentCount","inputs":[{"name":"user","type":"address","internalType":"address"}],"outputs":[{"name":"","type":"uint256","internalType":"uint256"}],"stateMutability":"view"},{"type":"function","name":"getUserPayments","inputs":[{"name":"user","type":"address","internalType":"address"}],"outputs":[{"name":"","type":"tuple[]","internalType":"struct GamePayment.Payment[]","components":[{"name":"amount","type":"uint256","internalType":"uint256"},{"name":"itemId","type":"string","internalType":"string"},{"name":"userId","type":"string","internalType":"string"}]}],"stateMutability":"view"},{"type":"function","name":"owner","inputs":[],"outputs":[{"name":"","type":"address","internalType":"address"}],"stateMutability":"view"},{"type":"function","name":"payForItem","inputs":[{"name":"amount","type":"uint256","internalType":"uint256"},{"name":"itemId","type":"string","internalType":"string"},{"name":"userId","type":"string","internalType":"string"}],"outputs":[],"stateMutability":"nonpayable"},{"type":"function","name":"renounceOwnership","inputs":[],"outputs":[],"stateMutability":"nonpayable"},{"type":"function","name":"transferOwnership","inputs":[{"name":"newOwner","type":"address","internalType":"address"}],"outputs":[],"stateMutability":"nonpayable"},{"type":"function","name":"usdc","inputs":[],"outputs":[{"name":"","type":"address","internalType":"contract IERC20"}],"stateMutability":"view"},{"type":"function","name":"userPayments","inputs":[{"name":"","type":"address","internalType":"address"},{"name":"","type":"uint256","internalType":"uint256"}],"outputs":[{"name":"amount","type":"uint256","internalType":"uint256"},{"name":"itemId","type":"string","internalType":"string"},{"name":"userId","type":"string","internalType":"string"}],"stateMutability":"view"},{"type":"function","name":"withdraw","inputs":[{"name":"to","type":"address","internalType":"address"}],"outputs":[],"stateMutability":"nonpayable"},{"type":"event","name":"OwnershipTransferred","inputs":[{"name":"previousOwner","type":"address","indexed":true,"internalType":"address"},{"name":"newOwner","type":"address","indexed":true,"internalType":"address"}],"anonymous":false},{"type":"event","name":"PaymentReceived","inputs":[{"name":"payer","type":"address","indexed":true,"internalType":"address"},{"name":"amount","type":"uint256","indexed":false,"internalType":"uint256"},{"name":"itemId","type":"string","indexed":false,"internalType":"string"},{"name":"userId","type":"string","indexed":false,"internalType":"string"}],"anonymous":false},{"type":"event","name":"Withdrawal","inputs":[{"name":"to","type":"address","indexed":true,"internalType":"address"},{"name":"amount","type":"uint256","indexed":false,"internalType":"uint256"}],"anonymous":false},{"type":"error","name":"OwnableInvalidOwner","inputs":[{"name":"owner","type":"address","internalType":"address"}]},{"type":"error","name":"OwnableUnauthorizedAccount","inputs":[{"name":"account","type":"address","internalType":"address"}]},{"type":"error","name":"SafeERC20FailedOperation","inputs":[{"name":"token","type":"address","internalType":"address"}]}],"bytecode":{"object":"0x60a060405234801561000f575f5ffd5b50604051611c88380380611c8883398181016040528101906100319190610279565b335f73ffffffffffffffffffffffffffffffffffffffff168173ffffffffffffffffffffffffffffffffffffffff16036100a2575f6040517f1e4fbdf700000000000000000000000000000000000000000000000000000000815260040161009991906102b3565b60405180910390fd5b6100b18161015a60201b60201c565b505f73ffffffffffffffffffffffffffffffffffffffff168173ffffffffffffffffffffffffffffffffffffffff1603610120576040517f08c379a000000000000000000000000000000000000000000000000000000000815260040161011790610326565b60405180910390fd5b8073ffffffffffffffffffffffffffffffffffffffff1660808173ffffffffffffffffffffffffffffffffffffffff168152505050610344565b5f5f5f9054906101000a900473ffffffffffffffffffffffffffffffffffffffff169050815f5f6101000a81548173ffffffffffffffffffffffffffffffffffffffff021916908373ffffffffffffffffffffffffffffffffffffffff1602179055508173ffffffffffffffffffffffffffffffffffffffff168173ffffffffffffffffffffffffffffffffffffffff167f8be0079c531659141344cd1fd0a4f28419497f9722a3daafe3b4186f6b6457e060405160405180910390a35050565b5f5ffd5b5f73ffffffffffffffffffffffffffffffffffffffff82169050919050565b5f6102488261021f565b9050919050565b6102588161023e565b8114610262575f5ffd5b50565b5f815190506102738161024f565b92915050565b5f6020828403121561028e5761028d61021b565b5b5f61029b84828501610265565b91505092915050565b6102ad8161023e565b82525050565b5f6020820190506102c65f8301846102a4565b92915050565b5f82825260208201905092915050565b7f496e76616c6964205553444320616464726573730000000000000000000000005f82015250565b5f6103106014836102cc565b915061031b826102dc565b602082019050919050565b5f6020820190508181035f83015261033d81610304565b9050919050565b6080516119106103785f395f81816101ec015281816102de015281816104a701528181610588015261067d01526119105ff3fe608060405234801561000f575f5ffd5b506004361061009c575f3560e01c80638b7afe2e116100645780638b7afe2e146101305780638cfeab351461014e5780638da5cb5b146101805780639d7dadeb1461019e578063f2fde38b146101ce5761009c565b80633e413bee146100a05780634e7f7096146100be57806351cff8d9146100da578063715018a6146100f65780638362492f14610100575b5f5ffd5b6100a86101ea565b6040516100b59190610e36565b60405180910390f35b6100d860048036038101906100d39190610fcf565b61020e565b005b6100f460048036038101906100ef9190611092565b61042e565b005b6100fe61061e565b005b61011a60048036038101906101159190611092565b610631565b60405161012791906110cc565b60405180910390f35b61013861067a565b60405161014591906110cc565b60405180910390f35b610168600480360381019061016391906110e5565b610718565b60405161017793929190611183565b60405180910390f35b610188610864565b60405161019591906111d5565b60405180910390f35b6101b860048036038101906101b39190611092565b61088b565b6040516101c59190611354565b60405180910390f35b6101e860048036038101906101e39190611092565b610a4d565b005b7f000000000000000000000000000000000000000000000000000000000000000081565b5f8311610250576040517f08c379a0000000000000000000000000000000000000000000000000000000008152600401610247906113be565b60405180910390fd5b5f825111610293576040517f08c379a000000000000000000000000000000000000000000000000000000000815260040161028a90611426565b60405180910390fd5b5f8151116102d6576040517f08c379a00000000000000000000000000000000000000000000000000000000081526004016102cd9061148e565b60405180910390fd5b6103233330857f000000000000000000000000000000000000000000000000000000000000000073ffffffffffffffffffffffffffffffffffffffff16610ad1909392919063ffffffff16565b60015f3373ffffffffffffffffffffffffffffffffffffffff1673ffffffffffffffffffffffffffffffffffffffff1681526020019081526020015f20604051806060016040528085815260200184815260200183815250908060018154018082558091505060019003905f5260205f2090600302015f909190919091505f820151815f015560208201518160010190816103be91906116a0565b5060408201518160020190816103d491906116a0565b5050503373ffffffffffffffffffffffffffffffffffffffff167f25f3ac702ad69406c1a408e457df3b1d43ef14ca2db0f3bca712fc1c0486326784848460405161042193929190611183565b60405180910390a2505050565b610436610b53565b5f73ffffffffffffffffffffffffffffffffffffffff168173ffffffffffffffffffffffffffffffffffffffff16036104a4576040517f08c379a000000000000000000000000000000000000000000000000000000000815260040161049b906117b9565b60405180910390fd5b5f7f000000000000000000000000000000000000000000000000000000000000000073ffffffffffffffffffffffffffffffffffffffff166370a08231306040518263ffffffff1660e01b81526004016104fe91906111d5565b602060405180830381865afa158015610519573d5f5f3e3d5ffd5b505050506040513d601f19601f8201168201806040525081019061053d91906117eb565b90505f8111610581576040517f08c379a000000000000000000000000000000000000000000000000000000000815260040161057890611860565b60405180910390fd5b6105cc82827f000000000000000000000000000000000000000000000000000000000000000073ffffffffffffffffffffffffffffffffffffffff16610bda9092919063ffffffff16565b8173ffffffffffffffffffffffffffffffffffffffff167f7fcf532c15f0a6db0bd6d0e038bea71d30d808c7d98cb3bf7268a95bf5081b658260405161061291906110cc565b60405180910390a25050565b610626610b53565b61062f5f610c59565b565b5f60015f8373ffffffffffffffffffffffffffffffffffffffff1673ffffffffffffffffffffffffffffffffffffffff1681526020019081526020015f20805490509050919050565b5f7f000000000000000000000000000000000000000000000000000000000000000073ffffffffffffffffffffffffffffffffffffffff166370a08231306040518263ffffffff1660e01b81526004016106d491906111d5565b602060405180830381865afa1580156106ef573d5f5f3e3d5ffd5b505050506040513d601f19601f8201168201806040525081019061071391906117eb565b905090565b6001602052815f5260405f208181548110610731575f80fd5b905f5260205f2090600302015f9150915050805f015490806001018054610757906114d9565b80601f0160208091040260200160405190810160405280929190818152602001828054610783906114d9565b80156107ce5780601f106107a5576101008083540402835291602001916107ce565b820191905f5260205f20905b8154815290600101906020018083116107b157829003601f168201915b5050505050908060020180546107e3906114d9565b80601f016020809104026020016040519081016040528092919081815260200182805461080f906114d9565b801561085a5780601f106108315761010080835404028352916020019161085a565b820191905f5260205f20905b81548152906001019060200180831161083d57829003601f168201915b5050505050905083565b5f5f5f9054906101000a900473ffffffffffffffffffffffffffffffffffffffff16905090565b606060015f8373ffffffffffffffffffffffffffffffffffffffff1673ffffffffffffffffffffffffffffffffffffffff1681526020019081526020015f20805480602002602001604051908101604052809291908181526020015f905b82821015610a42578382905f5260205f2090600302016040518060600160405290815f8201548152602001600182018054610923906114d9565b80601f016020809104026020016040519081016040528092919081815260200182805461094f906114d9565b801561099a5780601f106109715761010080835404028352916020019161099a565b820191905f5260205f20905b81548152906001019060200180831161097d57829003601f168201915b505050505081526020016002820180546109b3906114d9565b80601f01602080910402602001604051908101604052809291908181526020018280546109df906114d9565b8015610a2a5780601f10610a0157610100808354040283529160200191610a2a565b820191905f5260205f20905b815481529060010190602001808311610a0d57829003601f168201915b505050505081525050815260200190600101906108e9565b505050509050919050565b610a55610b53565b5f73ffffffffffffffffffffffffffffffffffffffff168173ffffffffffffffffffffffffffffffffffffffff1603610ac5575f6040517f1e4fbdf7000000000000000000000000000000000000000000000000000000008152600401610abc91906111d5565b60405180910390fd5b610ace81610c59565b50565b610b4d848573ffffffffffffffffffffffffffffffffffffffff166323b872dd868686604051602401610b069392919061187e565b604051602081830303815290604052915060e01b6020820180517bffffffffffffffffffffffffffffffffffffffffffffffffffffffff8381831617835250505050610d1a565b50505050565b610b5b610db5565b73ffffffffffffffffffffffffffffffffffffffff16610b79610864565b73ffffffffffffffffffffffffffffffffffffffff1614610bd857610b9c610db5565b6040517f118cdaa7000000000000000000000000000000000000000000000000000000008152600401610bcf91906111d5565b60405180910390fd5b565b610c54838473ffffffffffffffffffffffffffffffffffffffff1663a9059cbb8585604051602401610c0d9291906118b3565b604051602081830303815290604052915060e01b6020820180517bffffffffffffffffffffffffffffffffffffffffffffffffffffffff8381831617835250505050610d1a565b505050565b5f5f5f9054906101000a900473ffffffffffffffffffffffffffffffffffffffff169050815f5f6101000a81548173ffffffffffffffffffffffffffffffffffffffff021916908373ffffffffffffffffffffffffffffffffffffffff1602179055508173ffffffffffffffffffffffffffffffffffffffff168173ffffffffffffffffffffffffffffffffffffffff167f8be0079c531659141344cd1fd0a4f28419497f9722a3daafe3b4186f6b6457e060405160405180910390a35050565b5f5f60205f8451602086015f885af180610d39576040513d5f823e3d81fd5b3d92505f519150505f8214610d52576001811415610d6d565b5f8473ffffffffffffffffffffffffffffffffffffffff163b145b15610daf57836040517f5274afe7000000000000000000000000000000000000000000000000000000008152600401610da691906111d5565b60405180910390fd5b50505050565b5f33905090565b5f73ffffffffffffffffffffffffffffffffffffffff82169050919050565b5f819050919050565b5f610dfe610df9610df484610dbc565b610ddb565b610dbc565b9050919050565b5f610e0f82610de4565b9050919050565b5f610e2082610e05565b9050919050565b610e3081610e16565b82525050565b5f602082019050610e495f830184610e27565b92915050565b5f604051905090565b5f5ffd5b5f5ffd5b5f819050919050565b610e7281610e60565b8114610e7c575f5ffd5b50565b5f81359050610e8d81610e69565b92915050565b5f5ffd5b5f5ffd5b5f601f19601f8301169050919050565b7f4e487b71000000000000000000000000000000000000000000000000000000005f52604160045260245ffd5b610ee182610e9b565b810181811067ffffffffffffffff82111715610f0057610eff610eab565b5b80604052505050565b5f610f12610e4f565b9050610f1e8282610ed8565b919050565b5f67ffffffffffffffff821115610f3d57610f3c610eab565b5b610f4682610e9b565b9050602081019050919050565b828183375f83830152505050565b5f610f73610f6e84610f23565b610f09565b905082815260208101848484011115610f8f57610f8e610e97565b5b610f9a848285610f53565b509392505050565b5f82601f830112610fb657610fb5610e93565b5b8135610fc6848260208601610f61565b91505092915050565b5f5f5f60608486031215610fe657610fe5610e58565b5b5f610ff386828701610e7f565b935050602084013567ffffffffffffffff81111561101457611013610e5c565b5b61102086828701610fa2565b925050604084013567ffffffffffffffff81111561104157611040610e5c565b5b61104d86828701610fa2565b9150509250925092565b5f61106182610dbc565b9050919050565b61107181611057565b811461107b575f5ffd5b50565b5f8135905061108c81611068565b92915050565b5f602082840312156110a7576110a6610e58565b5b5f6110b48482850161107e565b91505092915050565b6110c681610e60565b82525050565b5f6020820190506110df5f8301846110bd565b92915050565b5f5f604083850312156110fb576110fa610e58565b5b5f6111088582860161107e565b925050602061111985828601610e7f565b9150509250929050565b5f81519050919050565b5f82825260208201905092915050565b8281835e5f83830152505050565b5f61115582611123565b61115f818561112d565b935061116f81856020860161113d565b61117881610e9b565b840191505092915050565b5f6060820190506111965f8301866110bd565b81810360208301526111a8818561114b565b905081810360408301526111bc818461114b565b9050949350505050565b6111cf81611057565b82525050565b5f6020820190506111e85f8301846111c6565b92915050565b5f81519050919050565b5f82825260208201905092915050565b5f819050602082019050919050565b61122081610e60565b82525050565b5f82825260208201905092915050565b5f61124082611123565b61124a8185611226565b935061125a81856020860161113d565b61126381610e9b565b840191505092915050565b5f606083015f8301516112835f860182611217565b506020830151848203602086015261129b8282611236565b915050604083015184820360408601526112b58282611236565b9150508091505092915050565b5f6112cd838361126e565b905092915050565b5f602082019050919050565b5f6112eb826111ee565b6112f581856111f8565b93508360208202850161130785611208565b805f5b85811015611342578484038952815161132385826112c2565b945061132e836112d5565b925060208a0199505060018101905061130a565b50829750879550505050505092915050565b5f6020820190508181035f83015261136c81846112e1565b905092915050565b7f416d6f756e74206d7573742062652067726561746572207468616e20300000005f82015250565b5f6113a8601d8361112d565b91506113b382611374565b602082019050919050565b5f6020820190508181035f8301526113d58161139c565b9050919050565b7f4974656d204944207265717569726564000000000000000000000000000000005f82015250565b5f61141060108361112d565b915061141b826113dc565b602082019050919050565b5f6020820190508181035f83015261143d81611404565b9050919050565b7f55736572204944207265717569726564000000000000000000000000000000005f82015250565b5f61147860108361112d565b915061148382611444565b602082019050919050565b5f6020820190508181035f8301526114a58161146c565b9050919050565b7f4e487b71000000000000000000000000000000000000000000000000000000005f52602260045260245ffd5b5f60028204905060018216806114f057607f821691505b602082108103611503576115026114ac565b5b50919050565b5f819050815f5260205f209050919050565b5f6020601f8301049050919050565b5f82821b905092915050565b5f600883026115657fffffffffffffffffffffffffffffffffffffffffffffffffffffffffffffffff8261152a565b61156f868361152a565b95508019841693508086168417925050509392505050565b5f6115a161159c61159784610e60565b610ddb565b610e60565b9050919050565b5f819050919050565b6115ba83611587565b6115ce6115c6826115a8565b848454611536565b825550505050565b5f5f905090565b6115e56115d6565b6115f08184846115b1565b505050565b5b81811015611613576116085f826115dd565b6001810190506115f6565b5050565b601f8211156116585761162981611509565b6116328461151b565b81016020851015611641578190505b61165561164d8561151b565b8301826115f5565b50505b505050565b5f82821c905092915050565b5f6116785f198460080261165d565b1980831691505092915050565b5f6116908383611669565b9150826002028217905092915050565b6116a982611123565b67ffffffffffffffff8111156116c2576116c1610eab565b5b6116cc82546114d9565b6116d7828285611617565b5f60209050601f831160018114611708575f84156116f6578287015190505b6117008582611685565b865550611767565b601f19841661171686611509565b5f5b8281101561173d57848901518255600182019150602085019450602081019050611718565b8683101561175a5784890151611756601f891682611669565b8355505b6001600288020188555050505b505050505050565b7f496e76616c696420726563697069656e742061646472657373000000000000005f82015250565b5f6117a360198361112d565b91506117ae8261176f565b602082019050919050565b5f6020820190508181035f8301526117d081611797565b9050919050565b5f815190506117e581610e69565b92915050565b5f60208284031215611800576117ff610e58565b5b5f61180d848285016117d7565b91505092915050565b7f4e6f205553444320746f207769746864726177000000000000000000000000005f82015250565b5f61184a60138361112d565b915061185582611816565b602082019050919050565b5f6020820190508181035f8301526118778161183e565b9050919050565b5f6060820190506118915f8301866111c6565b61189e60208301856111c6565b6118ab60408301846110bd565b949350505050565b5f6040820190506118c65f8301856111c6565b6118d360208301846110bd565b939250505056fea2646970667358221220984c22cc4907e7644b67e4c7636703f94f89efd3a091b862541dccfd9dfb7a9d64736f6c634300081c0033","linkReferences":{}},"methodIdentifiers":{"contractBalance()":"8b7afe2e","getUserPaymentCount(address)":"8362492f","getUserPayments(address)":"9d7dadeb","owner()":"8da5cb5b","payForItem(uint256,string,string)":"4e7f7096","renounceOwnership()":"715018a6","transferOwnership(address)":"f2fde38b","usdc()":"3e413bee","userPayments(address,uint256)":"8cfeab35","withdraw(address)":"51cff8d9"},"id":27}