{
  "_format": "hh-sol-artifact-1",
  "contractName": "DailyStreakSystem",
  "sourceName": "contracts/DailyStreakSystem.sol",
  "abi": [
    {
      "inputs": [
        {
          "internalType": "address",
          "name": "initialOwner",
          "type": "address"
        },
        {
          "internalType": "address",
          "name": "_externalERC1155Address",
          "type": "address"
        }
      ],
      "stateMutability": "nonpayable",
      "type": "constructor"
    },
    {
      "inputs": [
        {
          "internalType": "address",
          "name": "owner",
          "type": "address"
        }
      ],
      "name": "OwnableInvalidOwner",
      "type": "error"
    },
    {
      "inputs": [
        {
          "internalType": "address",
          "name": "account",
          "type": "address"
        }
      ],
      "name": "OwnableUnauthorizedAccount",
      "type": "error"
    },
    {
      "anonymous": false,
      "inputs": [
        {
          "indexed": true,
          "internalType": "address",
          "name": "user",
          "type": "address"
        },
        {
          "indexed": false,
          "internalType": "uint256",
          "name": "streak",
          "type": "uint256"
        }
      ],
      "name": "Claimed",
      "type": "event"
    },
    {
      "anonymous": false,
      "inputs": [
        {
          "indexed": true,
          "internalType": "address",
          "name": "previousOwner",
          "type": "address"
        },
        {
          "indexed": true,
          "internalType": "address",
          "name": "newOwner",
          "type": "address"
        }
      ],
      "name": "OwnershipTransferred",
      "type": "event"
    },
    {
      "inputs": [],
      "name": "claim",
      "outputs": [],
      "stateMutability": "nonpayable",
      "type": "function"
    },
    {
      "inputs": [
        {
          "internalType": "address",
          "name": "user",
          "type": "address"
        }
      ],
      "name": "claimFor",
      "outputs": [],
      "stateMutability": "nonpayable",
      "type": "function"
    },
    {
      "inputs": [
        {
          "internalType": "address",
          "name": "user",
          "type": "address"
        },
        {
          "internalType": "uint256",
          "name": "hoursAgo",
          "type": "uint256"
        }
      ],
      "name": "claimHoursAgo",
      "outputs": [],
      "stateMutability": "nonpayable",
      "type": "function"
    },
    {
      "inputs": [],
      "name": "externalERC1155",
      "outputs": [
        {
          "internalType": "contract IExternalERC1155",
          "name": "",
          "type": "address"
        }
      ],
      "stateMutability": "view",
      "type": "function"
    },
    {
      "inputs": [],
      "name": "getBlockTimestamp",
      "outputs": [
        {
          "internalType": "uint256",
          "name": "",
          "type": "uint256"
        }
      ],
      "stateMutability": "view",
      "type": "function"
    },
    {
      "inputs": [
        {
          "internalType": "address",
          "name": "user",
          "type": "address"
        }
      ],
      "name": "getLastClaimed",
      "outputs": [
        {
          "internalType": "uint256",
          "name": "",
          "type": "uint256"
        }
      ],
      "stateMutability": "view",
      "type": "function"
    },
    {
      "inputs": [
        {
          "internalType": "address",
          "name": "user",
          "type": "address"
        }
      ],
      "name": "getStreak",
      "outputs": [
        {
          "internalType": "uint256",
          "name": "",
          "type": "uint256"
        }
      ],
      "stateMutability": "view",
      "type": "function"
    },
    {
      "inputs": [
        {
          "internalType": "address",
          "name": "",
          "type": "address"
        }
      ],
      "name": "lastClaimed",
      "outputs": [
        {
          "internalType": "uint256",
          "name": "",
          "type": "uint256"
        }
      ],
      "stateMutability": "view",
      "type": "function"
    },
    {
      "inputs": [
        {
          "internalType": "uint256",
          "name": "",
          "type": "uint256"
        }
      ],
      "name": "milestoneToTokenId",
      "outputs": [
        {
          "internalType": "uint256",
          "name": "",
          "type": "uint256"
        }
      ],
      "stateMutability": "view",
      "type": "function"
    },
    {
      "inputs": [],
      "name": "owner",
      "outputs": [
        {
          "internalType": "address",
          "name": "",
          "type": "address"
        }
      ],
      "stateMutability": "view",
      "type": "function"
    },
    {
      "inputs": [],
      "name": "renounceOwnership",
      "outputs": [],
      "stateMutability": "nonpayable",
      "type": "function"
    },
    {
      "inputs": [
        {
          "internalType": "address",
          "name": "_externalERC1155Address",
          "type": "address"
        }
      ],
      "name": "setExternalERC1155",
      "outputs": [],
      "stateMutability": "nonpayable",
      "type": "function"
    },
    {
      "inputs": [
        {
          "internalType": "uint256",
          "name": "milestone",
          "type": "uint256"
        },
        {
          "internalType": "uint256",
          "name": "tokenId",
          "type": "uint256"
        }
      ],
      "name": "setMilestone",
      "outputs": [],
      "stateMutability": "nonpayable",
      "type": "function"
    },
    {
      "inputs": [
        {
          "internalType": "address",
          "name": "user",
          "type": "address"
        },
        {
          "internalType": "uint256",
          "name": "_streak",
          "type": "uint256"
        }
      ],
      "name": "setStreak",
      "outputs": [],
      "stateMutability": "nonpayable",
      "type": "function"
    },
    {
      "inputs": [
        {
          "internalType": "address",
          "name": "",
          "type": "address"
        }
      ],
      "name": "streak",
      "outputs": [
        {
          "internalType": "uint256",
          "name": "",
          "type": "uint256"
        }
      ],
      "stateMutability": "view",
      "type": "function"
    },
    {
      "inputs": [
        {
          "internalType": "address",
          "name": "user",
          "type": "address"
        }
      ],
      "name": "timeUntilCanClaim",
      "outputs": [
        {
          "internalType": "uint256",
          "name": "",
          "type": "uint256"
        }
      ],
      "stateMutability": "view",
      "type": "function"
    },
    {
      "inputs": [
        {
          "internalType": "address",
          "name": "user",
          "type": "address"
        }
      ],
      "name": "timeUntilStreakReset",
      "outputs": [
        {
          "internalType": "uint256",
          "name": "",
          "type": "uint256"
        }
      ],
      "stateMutability": "view",
      "type": "function"
    },
    {
      "inputs": [
        {
          "internalType": "address",
          "name": "newOwner",
          "type": "address"
        }
      ],
      "name": "transferOwnership",
      "outputs": [],
      "stateMutability": "nonpayable",
      "type": "function"
    }
  ],
  "bytecode": "0x608060405234801561001057600080fd5b5060405161166238038061166283398181016040528101906100329190610224565b81600073ffffffffffffffffffffffffffffffffffffffff168173ffffffffffffffffffffffffffffffffffffffff16036100a55760006040517f1e4fbdf700000000000000000000000000000000000000000000000000000000815260040161009c9190610273565b60405180910390fd5b6100b4816100fd60201b60201c565b5080600160006101000a81548173ffffffffffffffffffffffffffffffffffffffff021916908373ffffffffffffffffffffffffffffffffffffffff160217905550505061028e565b60008060009054906101000a900473ffffffffffffffffffffffffffffffffffffffff169050816000806101000a81548173ffffffffffffffffffffffffffffffffffffffff021916908373ffffffffffffffffffffffffffffffffffffffff1602179055508173ffffffffffffffffffffffffffffffffffffffff168173ffffffffffffffffffffffffffffffffffffffff167f8be0079c531659141344cd1fd0a4f28419497f9722a3daafe3b4186f6b6457e060405160405180910390a35050565b600080fd5b600073ffffffffffffffffffffffffffffffffffffffff82169050919050565b60006101f1826101c6565b9050919050565b610201816101e6565b811461020c57600080fd5b50565b60008151905061021e816101f8565b92915050565b6000806040838503121561023b5761023a6101c1565b5b60006102498582860161020f565b925050602061025a8582860161020f565b9150509250929050565b61026d816101e6565b82525050565b60006020820190506102886000830184610264565b92915050565b6113c58061029d6000396000f3fe608060405234801561001057600080fd5b50600436106101165760003560e01c80637e4781e1116100a2578063ac40e39011610071578063ac40e390146102e1578063c23f628b14610311578063ddeae0331461032d578063eaecdc2d14610349578063f2fde38b1461036557610116565b80637e4781e11461024557806384874b9114610263578063875b282f146102935780638da5cb5b146102c357610116565b80635eeadb0d116100e95780635eeadb0d1461018d5780636a2a6518146101bd578063715018a6146101ed578063796b89b9146101f7578063799cb3b41461021557610116565b8063013eba921461011b5780633b6c02fc1461014b5780633ed0cd21146101675780634e71d92d14610183575b600080fd5b61013560048036038101906101309190610ef0565b610381565b6040516101429190610f36565b60405180910390f35b61016560048036038101906101609190610f7d565b610399565b005b610181600480360381019061017c9190610fbd565b6103e9565b005b61018b6104b4565b005b6101a760048036038101906101a29190610ef0565b6104bf565b6040516101b49190610f36565b60405180910390f35b6101d760048036038101906101d29190610ef0565b610508565b6040516101e49190610f36565b60405180910390f35b6101f5610520565b005b6101ff610534565b60405161020c9190610f36565b60405180910390f35b61022f600480360381019061022a9190610ef0565b61053c565b60405161023c9190610f36565b60405180910390f35b61024d610585565b60405161025a919061105c565b60405180910390f35b61027d60048036038101906102789190610ef0565b6105ab565b60405161028a9190610f36565b60405180910390f35b6102ad60048036038101906102a89190610ef0565b6106ba565b6040516102ba9190610f36565b60405180910390f35b6102cb6107c9565b6040516102d89190611086565b60405180910390f35b6102fb60048036038101906102f691906110a1565b6107f2565b6040516103089190610f36565b60405180910390f35b61032b60048036038101906103269190610ef0565b61080a565b005b61034760048036038101906103429190610ef0565b610856565b005b610363600480360381019061035e9190610f7d565b61086a565b005b61037f600480360381019061037a9190610ef0565b6108d2565b005b60036020528060005260406000206000915090505481565b6103a1610958565b80600260008473ffffffffffffffffffffffffffffffffffffffff1673ffffffffffffffffffffffffffffffffffffffff168152602001908152602001600020819055505050565b6103f1610958565b60005b60058054905081101561046e578260058281548110610416576104156110ce565b5b906000526020600020015403610461576040517f08c379a00000000000000000000000000000000000000000000000000000000081526004016104589061115a565b60405180910390fd5b80806001019150506103f4565b5080600460008481526020019081526020016000208190555060058290806001815401808255809150506001900390600052602060002001600090919091909150555050565b6104bd336109df565b565b6000600260008373ffffffffffffffffffffffffffffffffffffffff1673ffffffffffffffffffffffffffffffffffffffff168152602001908152602001600020549050919050565b60026020528060005260406000206000915090505481565b610528610958565b6105326000610dc1565b565b600042905090565b6000600360008373ffffffffffffffffffffffffffffffffffffffff1673ffffffffffffffffffffffffffffffffffffffff168152602001908152602001600020549050919050565b600160009054906101000a900473ffffffffffffffffffffffffffffffffffffffff1681565b600080600360008473ffffffffffffffffffffffffffffffffffffffff1673ffffffffffffffffffffffffffffffffffffffff16815260200190815260200160002054036105fc57600090506106b5565b6202a300600360008473ffffffffffffffffffffffffffffffffffffffff1673ffffffffffffffffffffffffffffffffffffffff168152602001908152602001600020544261064b91906111a9565b1061065957600090506106b5565b600360008373ffffffffffffffffffffffffffffffffffffffff1673ffffffffffffffffffffffffffffffffffffffff16815260200190815260200160002054426106a491906111a9565b6202a3006106b291906111a9565b90505b919050565b600080600360008473ffffffffffffffffffffffffffffffffffffffff1673ffffffffffffffffffffffffffffffffffffffff168152602001908152602001600020540361070b57600090506107c4565b62015180600360008473ffffffffffffffffffffffffffffffffffffffff1673ffffffffffffffffffffffffffffffffffffffff168152602001908152602001600020544261075a91906111a9565b1061076857600090506107c4565b600360008373ffffffffffffffffffffffffffffffffffffffff1673ffffffffffffffffffffffffffffffffffffffff16815260200190815260200160002054426107b391906111a9565b620151806107c191906111a9565b90505b919050565b60008060009054906101000a900473ffffffffffffffffffffffffffffffffffffffff16905090565b60046020528060005260406000206000915090505481565b610812610958565b80600160006101000a81548173ffffffffffffffffffffffffffffffffffffffff021916908373ffffffffffffffffffffffffffffffffffffffff16021790555050565b61085e610958565b610867816109df565b50565b610872610958565b610e108161088091906111dd565b4261088b91906111a9565b600360008473ffffffffffffffffffffffffffffffffffffffff1673ffffffffffffffffffffffffffffffffffffffff168152602001908152602001600020819055505050565b6108da610958565b600073ffffffffffffffffffffffffffffffffffffffff168173ffffffffffffffffffffffffffffffffffffffff160361094c5760006040517f1e4fbdf70000000000000000000000000000000000000000000000000000000081526004016109439190611086565b60405180910390fd5b61095581610dc1565b50565b610960610e85565b73ffffffffffffffffffffffffffffffffffffffff1661097e6107c9565b73ffffffffffffffffffffffffffffffffffffffff16146109dd576109a1610e85565b6040517f118cdaa70000000000000000000000000000000000000000000000000000000081526004016109d49190611086565b60405180910390fd5b565b6000600360008373ffffffffffffffffffffffffffffffffffffffff1673ffffffffffffffffffffffffffffffffffffffff168152602001908152602001600020541480610a7957506202a300600360008373ffffffffffffffffffffffffffffffffffffffff1673ffffffffffffffffffffffffffffffffffffffff1681526020019081526020016000205442610a7791906111a9565b115b15610ac8576001600260008373ffffffffffffffffffffffffffffffffffffffff1673ffffffffffffffffffffffffffffffffffffffff16815260200190815260200160002081905550610bae565b62015180600360008373ffffffffffffffffffffffffffffffffffffffff1673ffffffffffffffffffffffffffffffffffffffff1681526020019081526020016000205442610b1791906111a9565b1015610b58576040517f08c379a0000000000000000000000000000000000000000000000000000000008152600401610b4f9061126b565b60405180910390fd5b600260008273ffffffffffffffffffffffffffffffffffffffff1673ffffffffffffffffffffffffffffffffffffffff1681526020019081526020016000206000815480929190610ba89061128b565b91905055505b42600360008373ffffffffffffffffffffffffffffffffffffffff1673ffffffffffffffffffffffffffffffffffffffff16815260200190815260200160002081905550600060046000600260008573ffffffffffffffffffffffffffffffffffffffff1673ffffffffffffffffffffffffffffffffffffffff1681526020019081526020016000205481526020019081526020016000205414610d3157600160009054906101000a900473ffffffffffffffffffffffffffffffffffffffff1673ffffffffffffffffffffffffffffffffffffffff1663731133e98260046000600260008773ffffffffffffffffffffffffffffffffffffffff1673ffffffffffffffffffffffffffffffffffffffff1681526020019081526020016000205481526020019081526020016000205460016040518463ffffffff1660e01b8152600401610cfe93929190611345565b600060405180830381600087803b158015610d1857600080fd5b505af1158015610d2c573d6000803e3d6000fd5b505050505b8073ffffffffffffffffffffffffffffffffffffffff167fd8138f8a3f377c5259ca548e70e4c2de94f129f5a11036a15b69513cba2b426a600260008473ffffffffffffffffffffffffffffffffffffffff1673ffffffffffffffffffffffffffffffffffffffff16815260200190815260200160002054604051610db69190610f36565b60405180910390a250565b60008060009054906101000a900473ffffffffffffffffffffffffffffffffffffffff169050816000806101000a81548173ffffffffffffffffffffffffffffffffffffffff021916908373ffffffffffffffffffffffffffffffffffffffff1602179055508173ffffffffffffffffffffffffffffffffffffffff168173ffffffffffffffffffffffffffffffffffffffff167f8be0079c531659141344cd1fd0a4f28419497f9722a3daafe3b4186f6b6457e060405160405180910390a35050565b600033905090565b600080fd5b600073ffffffffffffffffffffffffffffffffffffffff82169050919050565b6000610ebd82610e92565b9050919050565b610ecd81610eb2565b8114610ed857600080fd5b50565b600081359050610eea81610ec4565b92915050565b600060208284031215610f0657610f05610e8d565b5b6000610f1484828501610edb565b91505092915050565b6000819050919050565b610f3081610f1d565b82525050565b6000602082019050610f4b6000830184610f27565b92915050565b610f5a81610f1d565b8114610f6557600080fd5b50565b600081359050610f7781610f51565b92915050565b60008060408385031215610f9457610f93610e8d565b5b6000610fa285828601610edb565b9250506020610fb385828601610f68565b9150509250929050565b60008060408385031215610fd457610fd3610e8d565b5b6000610fe285828601610f68565b9250506020610ff385828601610f68565b9150509250929050565b6000819050919050565b600061102261101d61101884610e92565b610ffd565b610e92565b9050919050565b600061103482611007565b9050919050565b600061104682611029565b9050919050565b6110568161103b565b82525050565b6000602082019050611071600083018461104d565b92915050565b61108081610eb2565b82525050565b600060208201905061109b6000830184611077565b92915050565b6000602082840312156110b7576110b6610e8d565b5b60006110c584828501610f68565b91505092915050565b7f4e487b7100000000000000000000000000000000000000000000000000000000600052603260045260246000fd5b600082825260208201905092915050565b7f4d696c6573746f6e6520616c7265616479206578697374730000000000000000600082015250565b60006111446018836110fd565b915061114f8261110e565b602082019050919050565b6000602082019050818103600083015261117381611137565b9050919050565b7f4e487b7100000000000000000000000000000000000000000000000000000000600052601160045260246000fd5b60006111b482610f1d565b91506111bf83610f1d565b92508282039050818111156111d7576111d661117a565b5b92915050565b60006111e882610f1d565b91506111f383610f1d565b925082820261120181610f1d565b915082820484148315176112185761121761117a565b5b5092915050565b7f596f752063616e206f6e6c7920636c61696d206f6e6365207065722064617900600082015250565b6000611255601f836110fd565b91506112608261121f565b602082019050919050565b6000602082019050818103600083015261128481611248565b9050919050565b600061129682610f1d565b91507fffffffffffffffffffffffffffffffffffffffffffffffffffffffffffffffff82036112c8576112c761117a565b5b600182019050919050565b6000819050919050565b60006112f86112f36112ee846112d3565b610ffd565b610f1d565b9050919050565b611308816112dd565b82525050565b600082825260208201905092915050565b50565b600061132f60008361130e565b915061133a8261131f565b600082019050919050565b600060808201905061135a6000830186611077565b6113676020830185610f27565b61137460408301846112ff565b818103606083015261138581611322565b905094935050505056fea2646970667358221220acb93211c5c6a3a65fff4ed7dd876444f20a8f40a1a3159d96eff7bf4cbb0f4464736f6c634300081c0033",
  "linkReferences": {},
  "deployedLinkReferences": {}
}