{"abi":[{"type":"constructor","inputs":[],"stateMutability":"nonpayable"},{"type":"function","name":"DEFAULT_ADMIN_ROLE","inputs":[],"outputs":[{"name":"","type":"bytes32","internalType":"bytes32"}],"stateMutability":"view"},{"type":"function","name":"MINTER_ROLE","inputs":[],"outputs":[{"name":"","type":"bytes32","internalType":"bytes32"}],"stateMutability":"view"},{"type":"function","name":"PAUSER_ROLE","inputs":[],"outputs":[{"name":"","type":"bytes32","internalType":"bytes32"}],"stateMutability":"view"},{"type":"function","name":"balanceOf","inputs":[{"name":"account","type":"address","internalType":"address"},{"name":"id","type":"uint256","internalType":"uint256"}],"outputs":[{"name":"","type":"uint256","internalType":"uint256"}],"stateMutability":"view"},{"type":"function","name":"balanceOfBatch","inputs":[{"name":"accounts","type":"address[]","internalType":"address[]"},{"name":"ids","type":"uint256[]","internalType":"uint256[]"}],"outputs":[{"name":"","type":"uint256[]","internalType":"uint256[]"}],"stateMutability":"view"},{"type":"function","name":"balanceOfBatchOneAddr","inputs":[{"name":"account","type":"address","internalType":"address"},{"name":"ids","type":"uint256[]","internalType":"uint256[]"}],"outputs":[{"name":"","type":"uint256[]","internalType":"uint256[]"}],"stateMutability":"view"},{"type":"function","name":"burn","inputs":[{"name":"account","type":"address","internalType":"address"},{"name":"id","type":"uint256","internalType":"uint256"},{"name":"value","type":"uint256","internalType":"uint256"}],"outputs":[],"stateMutability":"nonpayable"},{"type":"function","name":"burnBatch","inputs":[{"name":"account","type":"address","internalType":"address"},{"name":"ids","type":"uint256[]","internalType":"uint256[]"},{"name":"values","type":"uint256[]","internalType":"uint256[]"}],"outputs":[],"stateMutability":"nonpayable"},{"type":"function","name":"getRoleAdmin","inputs":[{"name":"role","type":"bytes32","internalType":"bytes32"}],"outputs":[{"name":"","type":"bytes32","internalType":"bytes32"}],"stateMutability":"view"},{"type":"function","name":"grantMinterRole","inputs":[{"name":"minter","type":"address","internalType":"address"}],"outputs":[],"stateMutability":"nonpayable"},{"type":"function","name":"grantRole","inputs":[{"name":"role","type":"bytes32","internalType":"bytes32"},{"name":"account","type":"address","internalType":"address"}],"outputs":[],"stateMutability":"nonpayable"},{"type":"function","name":"hasRole","inputs":[{"name":"role","type":"bytes32","internalType":"bytes32"},{"name":"account","type":"address","internalType":"address"}],"outputs":[{"name":"","type":"bool","internalType":"bool"}],"stateMutability":"view"},{"type":"function","name":"isApprovedForAll","inputs":[{"name":"account","type":"address","internalType":"address"},{"name":"operator","type":"address","internalType":"address"}],"outputs":[{"name":"","type":"bool","internalType":"bool"}],"stateMutability":"view"},{"type":"function","name":"mint","inputs":[{"name":"account","type":"address","internalType":"address"},{"name":"id","type":"uint256","internalType":"uint256"},{"name":"amount","type":"uint256","internalType":"uint256"},{"name":"data","type":"bytes","internalType":"bytes"}],"outputs":[],"stateMutability":"nonpayable"},{"type":"function","name":"mintBatch","inputs":[{"name":"to","type":"address","internalType":"address"},{"name":"ids","type":"uint256[]","internalType":"uint256[]"},{"name":"amounts","type":"uint256[]","internalType":"uint256[]"},{"name":"data","type":"bytes","internalType":"bytes"}],"outputs":[],"stateMutability":"nonpayable"},{"type":"function","name":"mintBatchAddr","inputs":[{"name":"accounts","type":"address[]","internalType":"address[]"},{"name":"ids","type":"uint256[]","internalType":"uint256[]"},{"name":"amounts","type":"uint256[]","internalType":"uint256[]"},{"name":"data","type":"bytes","internalType":"bytes"}],"outputs":[],"stateMutability":"nonpayable"},{"type":"function","name":"pause","inputs":[],"outputs":[],"stateMutability":"nonpayable"},{"type":"function","name":"paused","inputs":[],"outputs":[{"name":"","type":"bool","internalType":"bool"}],"stateMutability":"view"},{"type":"function","name":"renounceRole","inputs":[{"name":"role","type":"bytes32","internalType":"bytes32"},{"name":"callerConfirmation","type":"address","internalType":"address"}],"outputs":[],"stateMutability":"nonpayable"},{"type":"function","name":"revokeRole","inputs":[{"name":"role","type":"bytes32","internalType":"bytes32"},{"name":"account","type":"address","internalType":"address"}],"outputs":[],"stateMutability":"nonpayable"},{"type":"function","name":"safeBatchTransferFrom","inputs":[{"name":"from","type":"address","internalType":"address"},{"name":"to","type":"address","internalType":"address"},{"name":"ids","type":"uint256[]","internalType":"uint256[]"},{"name":"values","type":"uint256[]","internalType":"uint256[]"},{"name":"data","type":"bytes","internalType":"bytes"}],"outputs":[],"stateMutability":"nonpayable"},{"type":"function","name":"safeTransferFrom","inputs":[{"name":"from","type":"address","internalType":"address"},{"name":"to","type":"address","internalType":"address"},{"name":"id","type":"uint256","internalType":"uint256"},{"name":"value","type":"uint256","internalType":"uint256"},{"name":"data","type":"bytes","internalType":"bytes"}],"outputs":[],"stateMutability":"nonpayable"},{"type":"function","name":"setApprovalForAll","inputs":[{"name":"operator","type":"address","internalType":"address"},{"name":"approved","type":"bool","internalType":"bool"}],"outputs":[],"stateMutability":"nonpayable"},{"type":"function","name":"setURI","inputs":[{"name":"newuri","type":"string","internalType":"string"}],"outputs":[],"stateMutability":"nonpayable"},{"type":"function","name":"supportsInterface","inputs":[{"name":"interfaceId","type":"bytes4","internalType":"bytes4"}],"outputs":[{"name":"","type":"bool","internalType":"bool"}],"stateMutability":"view"},{"type":"function","name":"unpause","inputs":[],"outputs":[],"stateMutability":"nonpayable"},{"type":"function","name":"uri","inputs":[{"name":"tokenId","type":"uint256","internalType":"uint256"}],"outputs":[{"name":"","type":"string","internalType":"string"}],"stateMutability":"view"},{"type":"event","name":"ApprovalForAll","inputs":[{"name":"account","type":"address","indexed":true,"internalType":"address"},{"name":"operator","type":"address","indexed":true,"internalType":"address"},{"name":"approved","type":"bool","indexed":false,"internalType":"bool"}],"anonymous":false},{"type":"event","name":"Paused","inputs":[{"name":"account","type":"address","indexed":false,"internalType":"address"}],"anonymous":false},{"type":"event","name":"RoleAdminChanged","inputs":[{"name":"role","type":"bytes32","indexed":true,"internalType":"bytes32"},{"name":"previousAdminRole","type":"bytes32","indexed":true,"internalType":"bytes32"},{"name":"newAdminRole","type":"bytes32","indexed":true,"internalType":"bytes32"}],"anonymous":false},{"type":"event","name":"RoleGranted","inputs":[{"name":"role","type":"bytes32","indexed":true,"internalType":"bytes32"},{"name":"account","type":"address","indexed":true,"internalType":"address"},{"name":"sender","type":"address","indexed":true,"internalType":"address"}],"anonymous":false},{"type":"event","name":"RoleRevoked","inputs":[{"name":"role","type":"bytes32","indexed":true,"internalType":"bytes32"},{"name":"account","type":"address","indexed":true,"internalType":"address"},{"name":"sender","type":"address","indexed":true,"internalType":"address"}],"anonymous":false},{"type":"event","name":"TransferBatch","inputs":[{"name":"operator","type":"address","indexed":true,"internalType":"address"},{"name":"from","type":"address","indexed":true,"internalType":"address"},{"name":"to","type":"address","indexed":true,"internalType":"address"},{"name":"ids","type":"uint256[]","indexed":false,"internalType":"uint256[]"},{"name":"values","type":"uint256[]","indexed":false,"internalType":"uint256[]"}],"anonymous":false},{"type":"event","name":"TransferSingle","inputs":[{"name":"operator","type":"address","indexed":true,"internalType":"address"},{"name":"from","type":"address","indexed":true,"internalType":"address"},{"name":"to","type":"address","indexed":true,"internalType":"address"},{"name":"id","type":"uint256","indexed":false,"internalType":"uint256"},{"name":"value","type":"uint256","indexed":false,"internalType":"uint256"}],"anonymous":false},{"type":"event","name":"URI","inputs":[{"name":"value","type":"string","indexed":false,"internalType":"string"},{"name":"id","type":"uint256","indexed":true,"internalType":"uint256"}],"anonymous":false},{"type":"event","name":"Unpaused","inputs":[{"name":"account","type":"address","indexed":false,"internalType":"address"}],"anonymous":false},{"type":"error","name":"AccessControlBadConfirmation","inputs":[]},{"type":"error","name":"AccessControlUnauthorizedAccount","inputs":[{"name":"account","type":"address","internalType":"address"},{"name":"neededRole","type":"bytes32","internalType":"bytes32"}]},{"type":"error","name":"ERC1155InsufficientBalance","inputs":[{"name":"sender","type":"address","internalType":"address"},{"name":"balance","type":"uint256","internalType":"uint256"},{"name":"needed","type":"uint256","internalType":"uint256"},{"name":"tokenId","type":"uint256","internalType":"uint256"}]},{"type":"error","name":"ERC1155InvalidApprover","inputs":[{"name":"approver","type":"address","internalType":"address"}]},{"type":"error","name":"ERC1155InvalidArrayLength","inputs":[{"name":"idsLength","type":"uint256","internalType":"uint256"},{"name":"valuesLength","type":"uint256","internalType":"uint256"}]},{"type":"error","name":"ERC1155InvalidOperator","inputs":[{"name":"operator","type":"address","internalType":"address"}]},{"type":"error","name":"ERC1155InvalidReceiver","inputs":[{"name":"receiver","type":"address","internalType":"address"}]},{"type":"error","name":"ERC1155InvalidSender","inputs":[{"name":"sender","type":"address","internalType":"address"}]},{"type":"error","name":"ERC1155MissingApprovalForAll","inputs":[{"name":"operator","type":"address","internalType":"address"},{"name":"owner","type":"address","internalType":"address"}]},{"type":"error","name":"EnforcedPause","inputs":[]},{"type":"error","name":"ExpectedPause","inputs":[]}],"bytecode":{"object":"0x608060405234801561000f575f5ffd5b5060405180602001604052805f81525061002e816100a960201b60201c565b506100415f5f1b336100bc60201b60201c565b506100727f65d7a28e3265b37a6474929f336521b332c1681b933f6cb9f3376673440d862a336100bc60201b60201c565b506100a37f9f2df0fed2c77648de5860a4cc508cd0818c85b8b8a1ab4ceeef8d981c8956a6336100bc60201b60201c565b50610529565b80600290816100b8919061045a565b5050565b5f6100cd83836101b260201b60201c565b6101a857600160035f8581526020019081526020015f205f015f8473ffffffffffffffffffffffffffffffffffffffff1673ffffffffffffffffffffffffffffffffffffffff1681526020019081526020015f205f6101000a81548160ff02191690831515021790555061014561021660201b60201c565b73ffffffffffffffffffffffffffffffffffffffff168273ffffffffffffffffffffffffffffffffffffffff16847f2f8788117e7eff1d82e926ec794901d17c78024a50270940304540a733656f0d60405160405180910390a4600190506101ac565b5f90505b92915050565b5f60035f8481526020019081526020015f205f015f8373ffffffffffffffffffffffffffffffffffffffff1673ffffffffffffffffffffffffffffffffffffffff1681526020019081526020015f205f9054906101000a900460ff16905092915050565b5f33905090565b5f81519050919050565b7f4e487b71000000000000000000000000000000000000000000000000000000005f52604160045260245ffd5b7f4e487b71000000000000000000000000000000000000000000000000000000005f52602260045260245ffd5b5f600282049050600182168061029857607f821691505b6020821081036102ab576102aa610254565b5b50919050565b5f819050815f5260205f209050919050565b5f6020601f8301049050919050565b5f82821b905092915050565b5f6008830261030d7fffffffffffffffffffffffffffffffffffffffffffffffffffffffffffffffff826102d2565b61031786836102d2565b95508019841693508086168417925050509392505050565b5f819050919050565b5f819050919050565b5f61035b6103566103518461032f565b610338565b61032f565b9050919050565b5f819050919050565b61037483610341565b61038861038082610362565b8484546102de565b825550505050565b5f5f905090565b61039f610390565b6103aa81848461036b565b505050565b5b818110156103cd576103c25f82610397565b6001810190506103b0565b5050565b601f821115610412576103e3816102b1565b6103ec846102c3565b810160208510156103fb578190505b61040f610407856102c3565b8301826103af565b50505b505050565b5f82821c905092915050565b5f6104325f1984600802610417565b1980831691505092915050565b5f61044a8383610423565b9150826002028217905092915050565b6104638261021d565b67ffffffffffffffff81111561047c5761047b610227565b5b6104868254610281565b6104918282856103d1565b5f60209050601f8311600181146104c2575f84156104b0578287015190505b6104ba858261043f565b865550610521565b601f1984166104d0866102b1565b5f5b828110156104f7578489015182556001820191506020850194506020810190506104d2565b868310156105145784890151610510601f891682610423565b8355505b6001600288020188555050505b505050505050565b613827806105365f395ff3fe608060405234801561000f575f5ffd5b50600436106101a6575f3560e01c8063503a28bd116100f7578063a22cb46511610095578063e63ab1e91161006f578063e63ab1e91461049c578063e985e9c5146104ba578063f242432a146104ea578063f5298aca14610506576101a6565b8063a22cb46514610446578063d539139314610462578063d547741f14610480576101a6565b8063731133e9116100d1578063731133e9146103d25780638456cb59146103ee57806391d14854146103f8578063a217fddf14610428576101a6565b8063503a28bd1461037c5780635c975abb146103985780636b20c454146103b6576101a6565b80632e240ade1161016457806336568abe1161013e57806336568abe1461030a5780633dd1eb61146103265780633f4ba83a146103425780634e1273f41461034c576101a6565b80632e240ade146102a25780632eb2c2d6146102d25780632f2ff15d146102ee576101a6565b8062fdd58e146101aa57806301ffc9a7146101da57806302fe53051461020a5780630e89341c146102265780631f7fdffa14610256578063248a9ca314610272575b5f5ffd5b6101c460048036038101906101bf91906124c3565b610522565b6040516101d19190612510565b60405180910390f35b6101f460048036038101906101ef919061257e565b610577565b60405161020191906125c3565b60405180910390f35b610224600480360381019061021f9190612718565b610588565b005b610240600480360381019061023b919061275f565b6105a1565b60405161024d91906127ea565b60405180910390f35b610270600480360381019061026b919061296c565b6105e1565b005b61028c60048036038101906102879190612a57565b61061e565b6040516102999190612a91565b60405180910390f35b6102bc60048036038101906102b79190612aaa565b61063b565b6040516102c99190612bbb565b60405180910390f35b6102ec60048036038101906102e79190612bdb565b6106f1565b005b61030860048036038101906103039190612ca6565b610798565b005b610324600480360381019061031f9190612ca6565b6107ba565b005b610340600480360381019061033b9190612ce4565b610835565b005b61034a610870565b005b61036660048036038101906103619190612dcf565b6108a5565b6040516103739190612bbb565b60405180910390f35b61039660048036038101906103919190612e45565b6109af565b005b6103a0610a54565b6040516103ad91906125c3565b60405180910390f35b6103d060048036038101906103cb9190612f19565b610a69565b005b6103ec60048036038101906103e79190612fa1565b610b15565b005b6103f6610b52565b005b610412600480360381019061040d9190612ca6565b610b87565b60405161041f91906125c3565b60405180910390f35b610430610beb565b60405161043d9190612a91565b60405180910390f35b610460600480360381019061045b919061304b565b610bf1565b005b61046a610c07565b6040516104779190612a91565b60405180910390f35b61049a60048036038101906104959190612ca6565b610c2b565b005b6104a4610c4d565b6040516104b19190612a91565b60405180910390f35b6104d460048036038101906104cf9190613089565b610c71565b6040516104e191906125c3565b60405180910390f35b61050460048036038101906104ff91906130c7565b610cff565b005b610520600480360381019061051b919061315a565b610da6565b005b5f5f5f8381526020019081526020015f205f8473ffffffffffffffffffffffffffffffffffffffff1673ffffffffffffffffffffffffffffffffffffffff1681526020019081526020015f2054905092915050565b5f61058182610e52565b9050919050565b5f5f1b61059481610ecb565b61059d82610edf565b5050565b60605f6105ad83610ef2565b9050806105b984610f84565b6040516020016105ca9291906131e4565b604051602081830303815290604052915050919050565b7f9f2df0fed2c77648de5860a4cc508cd0818c85b8b8a1ab4ceeef8d981c8956a661060b81610ecb565b6106178585858561104e565b5050505050565b5f60035f8381526020019081526020015f20600101549050919050565b60605f825167ffffffffffffffff811115610659576106586125f4565b5b6040519080825280602002602001820160405280156106875781602001602082028036833780820191505090505b5090505f5f90505b83518110156106e6576106bc858583815181106106af576106ae613207565b5b6020026020010151610522565b8282815181106106cf576106ce613207565b5b60200260200101818152505080600101905061068f565b508091505092915050565b5f6106fa6110d1565b90508073ffffffffffffffffffffffffffffffffffffffff168673ffffffffffffffffffffffffffffffffffffffff161415801561073f575061073d8682610c71565b155b156107835780866040517fe237d92200000000000000000000000000000000000000000000000000000000815260040161077a929190613243565b60405180910390fd5b61079086868686866110d8565b505050505050565b6107a18261061e565b6107aa81610ecb565b6107b483836111cc565b50505050565b6107c26110d1565b73ffffffffffffffffffffffffffffffffffffffff168173ffffffffffffffffffffffffffffffffffffffff1614610826576040517f6697b23200000000000000000000000000000000000000000000000000000000815260040160405180910390fd5b61083082826112b6565b505050565b5f5f1b61084181610ecb565b61086b7f9f2df0fed2c77648de5860a4cc508cd0818c85b8b8a1ab4ceeef8d981c8956a6836111cc565b505050565b7f65d7a28e3265b37a6474929f336521b332c1681b933f6cb9f3376673440d862a61089a81610ecb565b6108a26113a0565b50565b606081518351146108f157815183516040517f5b0599910000000000000000000000000000000000000000000000000000000081526004016108e892919061326a565b60405180910390fd5b5f835167ffffffffffffffff81111561090d5761090c6125f4565b5b60405190808252806020026020018201604052801561093b5781602001602082028036833780820191505090505b5090505f5f90505b84518110156109a45761097a610962828761140190919063ffffffff16565b610975838761141490919063ffffffff16565b610522565b82828151811061098d5761098c613207565b5b602002602001018181525050806001019050610943565b508091505092915050565b7f9f2df0fed2c77648de5860a4cc508cd0818c85b8b8a1ab4ceeef8d981c8956a66109d981610ecb565b5f5f90505b8551811015610a4c57610a418682815181106109fd576109fc613207565b5b6020026020010151868381518110610a1857610a17613207565b5b6020026020010151868481518110610a3357610a32613207565b5b602002602001015186611427565b8060010190506109de565b505050505050565b5f60045f9054906101000a900460ff16905090565b610a716110d1565b73ffffffffffffffffffffffffffffffffffffffff168373ffffffffffffffffffffffffffffffffffffffff1614158015610aba5750610ab883610ab36110d1565b610c71565b155b15610b0557610ac76110d1565b836040517fe237d922000000000000000000000000000000000000000000000000000000008152600401610afc929190613243565b60405180910390fd5b610b108383836114bc565b505050565b7f9f2df0fed2c77648de5860a4cc508cd0818c85b8b8a1ab4ceeef8d981c8956a6610b3f81610ecb565b610b4b85858585611427565b5050505050565b7f65d7a28e3265b37a6474929f336521b332c1681b933f6cb9f3376673440d862a610b7c81610ecb565b610b8461154c565b50565b5f60035f8481526020019081526020015f205f015f8373ffffffffffffffffffffffffffffffffffffffff1673ffffffffffffffffffffffffffffffffffffffff1681526020019081526020015f205f9054906101000a900460ff16905092915050565b5f5f1b81565b610c03610bfc6110d1565b83836115ae565b5050565b7f9f2df0fed2c77648de5860a4cc508cd0818c85b8b8a1ab4ceeef8d981c8956a681565b610c348261061e565b610c3d81610ecb565b610c4783836112b6565b50505050565b7f65d7a28e3265b37a6474929f336521b332c1681b933f6cb9f3376673440d862a81565b5f60015f8473ffffffffffffffffffffffffffffffffffffffff1673ffffffffffffffffffffffffffffffffffffffff1681526020019081526020015f205f8373ffffffffffffffffffffffffffffffffffffffff1673ffffffffffffffffffffffffffffffffffffffff1681526020019081526020015f205f9054906101000a900460ff16905092915050565b5f610d086110d1565b90508073ffffffffffffffffffffffffffffffffffffffff168673ffffffffffffffffffffffffffffffffffffffff1614158015610d4d5750610d4b8682610c71565b155b15610d915780866040517fe237d922000000000000000000000000000000000000000000000000000000008152600401610d88929190613243565b60405180910390fd5b610d9e8686868686611717565b505050505050565b610dae6110d1565b73ffffffffffffffffffffffffffffffffffffffff168373ffffffffffffffffffffffffffffffffffffffff1614158015610df75750610df583610df06110d1565b610c71565b155b15610e4257610e046110d1565b836040517fe237d922000000000000000000000000000000000000000000000000000000008152600401610e39929190613243565b60405180910390fd5b610e4d83838361181d565b505050565b5f7f7965db0b000000000000000000000000000000000000000000000000000000007bffffffffffffffffffffffffffffffffffffffffffffffffffffffff1916827bffffffffffffffffffffffffffffffffffffffffffffffffffffffff19161480610ec45750610ec3826118bf565b5b9050919050565b610edc81610ed76110d1565b6119a0565b50565b8060029081610eee919061348e565b5050565b606060028054610f01906132be565b80601f0160208091040260200160405190810160405280929190818152602001828054610f2d906132be565b8015610f785780601f10610f4f57610100808354040283529160200191610f78565b820191905f5260205f20905b815481529060010190602001808311610f5b57829003601f168201915b50505050509050919050565b60605f6001610f92846119f1565b0190505f8167ffffffffffffffff811115610fb057610faf6125f4565b5b6040519080825280601f01601f191660200182016040528015610fe25781602001600182028036833780820191505090505b5090505f82602001820190505b600115611043578080600190039150507f3031323334353637383961626364656600000000000000000000000000000000600a86061a8153600a85816110385761103761355d565b5b0494505f8503610fef575b819350505050919050565b5f73ffffffffffffffffffffffffffffffffffffffff168473ffffffffffffffffffffffffffffffffffffffff16036110be575f6040517f57f447ce0000000000000000000000000000000000000000000000000000000081526004016110b5919061358a565b60405180910390fd5b6110cb5f85858585611b42565b50505050565b5f33905090565b5f73ffffffffffffffffffffffffffffffffffffffff168473ffffffffffffffffffffffffffffffffffffffff1603611148575f6040517f57f447ce00000000000000000000000000000000000000000000000000000000815260040161113f919061358a565b60405180910390fd5b5f73ffffffffffffffffffffffffffffffffffffffff168573ffffffffffffffffffffffffffffffffffffffff16036111b8575f6040517f01a835140000000000000000000000000000000000000000000000000000000081526004016111af919061358a565b60405180910390fd5b6111c58585858585611b42565b5050505050565b5f6111d78383610b87565b6112ac57600160035f8581526020019081526020015f205f015f8473ffffffffffffffffffffffffffffffffffffffff1673ffffffffffffffffffffffffffffffffffffffff1681526020019081526020015f205f6101000a81548160ff0219169083151502179055506112496110d1565b73ffffffffffffffffffffffffffffffffffffffff168273ffffffffffffffffffffffffffffffffffffffff16847f2f8788117e7eff1d82e926ec794901d17c78024a50270940304540a733656f0d60405160405180910390a4600190506112b0565b5f90505b92915050565b5f6112c18383610b87565b15611396575f60035f8581526020019081526020015f205f015f8473ffffffffffffffffffffffffffffffffffffffff1673ffffffffffffffffffffffffffffffffffffffff1681526020019081526020015f205f6101000a81548160ff0219169083151502179055506113336110d1565b73ffffffffffffffffffffffffffffffffffffffff168273ffffffffffffffffffffffffffffffffffffffff16847ff6391f5c32d9c69d2a47ea670b442974b53935d1edc7fd64eb21e047a839171b60405160405180910390a46001905061139a565b5f90505b92915050565b6113a8611bee565b5f60045f6101000a81548160ff0219169083151502179055507f5db9ee0a495bf2e6ff9c91a7834c1ba4fdd244a5e8aa4e537bd38aeae4b073aa6113ea6110d1565b6040516113f7919061358a565b60405180910390a1565b5f60208202602084010151905092915050565b5f60208202602084010151905092915050565b5f73ffffffffffffffffffffffffffffffffffffffff168473ffffffffffffffffffffffffffffffffffffffff1603611497575f6040517f57f447ce00000000000000000000000000000000000000000000000000000000815260040161148e919061358a565b60405180910390fd5b5f5f6114a38585611c2e565b915091506114b45f87848487611b42565b505050505050565b5f73ffffffffffffffffffffffffffffffffffffffff168373ffffffffffffffffffffffffffffffffffffffff160361152c575f6040517f01a83514000000000000000000000000000000000000000000000000000000008152600401611523919061358a565b60405180910390fd5b611547835f848460405180602001604052805f815250611b42565b505050565b611554611c5e565b600160045f6101000a81548160ff0219169083151502179055507f62e78cea01bee320cd4e420270b5ea74000d11b0c9f74754ebdbfc544b05a2586115976110d1565b6040516115a4919061358a565b60405180910390a1565b5f73ffffffffffffffffffffffffffffffffffffffff168273ffffffffffffffffffffffffffffffffffffffff160361161e575f6040517fced3e100000000000000000000000000000000000000000000000000000000008152600401611615919061358a565b60405180910390fd5b8060015f8573ffffffffffffffffffffffffffffffffffffffff1673ffffffffffffffffffffffffffffffffffffffff1681526020019081526020015f205f8473ffffffffffffffffffffffffffffffffffffffff1673ffffffffffffffffffffffffffffffffffffffff1681526020019081526020015f205f6101000a81548160ff0219169083151502179055508173ffffffffffffffffffffffffffffffffffffffff168373ffffffffffffffffffffffffffffffffffffffff167f17307eab39ab6107e8899845ad3d59bd9653f200f220920489ca2b5937696c318360405161170a91906125c3565b60405180910390a3505050565b5f73ffffffffffffffffffffffffffffffffffffffff168473ffffffffffffffffffffffffffffffffffffffff1603611787575f6040517f57f447ce00000000000000000000000000000000000000000000000000000000815260040161177e919061358a565b60405180910390fd5b5f73ffffffffffffffffffffffffffffffffffffffff168573ffffffffffffffffffffffffffffffffffffffff16036117f7575f6040517f01a835140000000000000000000000000000000000000000000000000000000081526004016117ee919061358a565b60405180910390fd5b5f5f6118038585611c2e565b915091506118148787848487611b42565b50505050505050565b5f73ffffffffffffffffffffffffffffffffffffffff168373ffffffffffffffffffffffffffffffffffffffff160361188d575f6040517f01a83514000000000000000000000000000000000000000000000000000000008152600401611884919061358a565b60405180910390fd5b5f5f6118998484611c2e565b915091506118b8855f848460405180602001604052805f815250611b42565b5050505050565b5f7fd9b67a26000000000000000000000000000000000000000000000000000000007bffffffffffffffffffffffffffffffffffffffffffffffffffffffff1916827bffffffffffffffffffffffffffffffffffffffffffffffffffffffff1916148061198957507f0e89341c000000000000000000000000000000000000000000000000000000007bffffffffffffffffffffffffffffffffffffffffffffffffffffffff1916827bffffffffffffffffffffffffffffffffffffffffffffffffffffffff1916145b80611999575061199882611c9f565b5b9050919050565b6119aa8282610b87565b6119ed5780826040517fe2517d3f0000000000000000000000000000000000000000000000000000000081526004016119e49291906135a3565b60405180910390fd5b5050565b5f5f5f90507a184f03e93ff9f4daa797ed6e38ed64bf6a1f0100000000000000008310611a4d577a184f03e93ff9f4daa797ed6e38ed64bf6a1f0100000000000000008381611a4357611a4261355d565b5b0492506040810190505b6d04ee2d6d415b85acef81000000008310611a8a576d04ee2d6d415b85acef81000000008381611a8057611a7f61355d565b5b0492506020810190505b662386f26fc100008310611ab957662386f26fc100008381611aaf57611aae61355d565b5b0492506010810190505b6305f5e1008310611ae2576305f5e1008381611ad857611ad761355d565b5b0492506008810190505b6127108310611b07576127108381611afd57611afc61355d565b5b0492506004810190505b60648310611b2a5760648381611b2057611b1f61355d565b5b0492506002810190505b600a8310611b39576001810190505b80915050919050565b611b4e85858585611d08565b5f73ffffffffffffffffffffffffffffffffffffffff168473ffffffffffffffffffffffffffffffffffffffff1614611be7575f611b8a6110d1565b90506001845103611bd6575f611ba95f8661141490919063ffffffff16565b90505f611bbf5f8661141490919063ffffffff16565b9050611bcf838989858589611d1a565b5050611be5565b611be4818787878787611ec9565b5b505b5050505050565b611bf6610a54565b611c2c576040517f8dfc202b00000000000000000000000000000000000000000000000000000000815260040160405180910390fd5b565b60608060405191506001825283602083015260408201905060018152826020820152604081016040529250929050565b611c66610a54565b15611c9d576040517fd93c066500000000000000000000000000000000000000000000000000000000815260040160405180910390fd5b565b5f7f01ffc9a7000000000000000000000000000000000000000000000000000000007bffffffffffffffffffffffffffffffffffffffffffffffffffffffff1916827bffffffffffffffffffffffffffffffffffffffffffffffffffffffff1916149050919050565b611d1484848484612078565b50505050565b5f8473ffffffffffffffffffffffffffffffffffffffff163b1115611ec1578373ffffffffffffffffffffffffffffffffffffffff1663f23a6e6187878686866040518663ffffffff1660e01b8152600401611d7a95949392919061361c565b6020604051808303815f875af1925050508015611db557506040513d601f19601f82011682018060405250810190611db29190613688565b60015b611e36573d805f8114611de3576040519150601f19603f3d011682016040523d82523d5f602084013e611de8565b606091505b505f815103611e2e57846040517f57f447ce000000000000000000000000000000000000000000000000000000008152600401611e25919061358a565b60405180910390fd5b805181602001fd5b63f23a6e6160e01b7bffffffffffffffffffffffffffffffffffffffffffffffffffffffff1916817bffffffffffffffffffffffffffffffffffffffffffffffffffffffff191614611ebf57846040517f57f447ce000000000000000000000000000000000000000000000000000000008152600401611eb6919061358a565b60405180910390fd5b505b505050505050565b5f8473ffffffffffffffffffffffffffffffffffffffff163b1115612070578373ffffffffffffffffffffffffffffffffffffffff1663bc197c8187878686866040518663ffffffff1660e01b8152600401611f299594939291906136b3565b6020604051808303815f875af1925050508015611f6457506040513d601f19601f82011682018060405250810190611f619190613688565b60015b611fe5573d805f8114611f92576040519150601f19603f3d011682016040523d82523d5f602084013e611f97565b606091505b505f815103611fdd57846040517f57f447ce000000000000000000000000000000000000000000000000000000008152600401611fd4919061358a565b60405180910390fd5b805181602001fd5b63bc197c8160e01b7bffffffffffffffffffffffffffffffffffffffffffffffffffffffff1916817bffffffffffffffffffffffffffffffffffffffffffffffffffffffff19161461206e57846040517f57f447ce000000000000000000000000000000000000000000000000000000008152600401612065919061358a565b60405180910390fd5b505b505050505050565b612080611c5e565b61208c84848484612092565b50505050565b80518251146120dc57815181516040517f5b0599910000000000000000000000000000000000000000000000000000000081526004016120d392919061326a565b60405180910390fd5b5f6120e56110d1565b90505f5f90505b83518110156122e4575f612109828661141490919063ffffffff16565b90505f61211f838661141490919063ffffffff16565b90505f73ffffffffffffffffffffffffffffffffffffffff168873ffffffffffffffffffffffffffffffffffffffff1614612242575f5f5f8481526020019081526020015f205f8a73ffffffffffffffffffffffffffffffffffffffff1673ffffffffffffffffffffffffffffffffffffffff1681526020019081526020015f20549050818110156121ee57888183856040517f03dee4c50000000000000000000000000000000000000000000000000000000081526004016121e59493929190613719565b60405180910390fd5b8181035f5f8581526020019081526020015f205f8b73ffffffffffffffffffffffffffffffffffffffff1673ffffffffffffffffffffffffffffffffffffffff1681526020019081526020015f2081905550505b5f73ffffffffffffffffffffffffffffffffffffffff168773ffffffffffffffffffffffffffffffffffffffff16146122d757805f5f8481526020019081526020015f205f8973ffffffffffffffffffffffffffffffffffffffff1673ffffffffffffffffffffffffffffffffffffffff1681526020019081526020015f205f8282546122cf9190613789565b925050819055505b50508060010190506120ec565b50600183510361239f575f6123025f8561141490919063ffffffff16565b90505f6123185f8561141490919063ffffffff16565b90508573ffffffffffffffffffffffffffffffffffffffff168773ffffffffffffffffffffffffffffffffffffffff168473ffffffffffffffffffffffffffffffffffffffff167fc3d58168c5ae7397731d063d5bbf3d657854427343f4c083240f7aacaa2d0f62858560405161239092919061326a565b60405180910390a4505061241e565b8373ffffffffffffffffffffffffffffffffffffffff168573ffffffffffffffffffffffffffffffffffffffff168273ffffffffffffffffffffffffffffffffffffffff167f4a39dc06d4c0dbc64b70af90fd698a233a518aa5d07e595d983b8c0526c8f7fb86866040516124159291906137bc565b60405180910390a45b5050505050565b5f604051905090565b5f5ffd5b5f5ffd5b5f73ffffffffffffffffffffffffffffffffffffffff82169050919050565b5f61245f82612436565b9050919050565b61246f81612455565b8114612479575f5ffd5b50565b5f8135905061248a81612466565b92915050565b5f819050919050565b6124a281612490565b81146124ac575f5ffd5b50565b5f813590506124bd81612499565b92915050565b5f5f604083850312156124d9576124d861242e565b5b5f6124e68582860161247c565b92505060206124f7858286016124af565b9150509250929050565b61250a81612490565b82525050565b5f6020820190506125235f830184612501565b92915050565b5f7fffffffff0000000000000000000000000000000000000000000000000000000082169050919050565b61255d81612529565b8114612567575f5ffd5b50565b5f8135905061257881612554565b92915050565b5f602082840312156125935761259261242e565b5b5f6125a08482850161256a565b91505092915050565b5f8115159050919050565b6125bd816125a9565b82525050565b5f6020820190506125d65f8301846125b4565b92915050565b5f5ffd5b5f5ffd5b5f601f19601f8301169050919050565b7f4e487b71000000000000000000000000000000000000000000000000000000005f52604160045260245ffd5b61262a826125e4565b810181811067ffffffffffffffff82111715612649576126486125f4565b5b80604052505050565b5f61265b612425565b90506126678282612621565b919050565b5f67ffffffffffffffff821115612686576126856125f4565b5b61268f826125e4565b9050602081019050919050565b828183375f83830152505050565b5f6126bc6126b78461266c565b612652565b9050828152602081018484840111156126d8576126d76125e0565b5b6126e384828561269c565b509392505050565b5f82601f8301126126ff576126fe6125dc565b5b813561270f8482602086016126aa565b91505092915050565b5f6020828403121561272d5761272c61242e565b5b5f82013567ffffffffffffffff81111561274a57612749612432565b5b612756848285016126eb565b91505092915050565b5f602082840312156127745761277361242e565b5b5f612781848285016124af565b91505092915050565b5f81519050919050565b5f82825260208201905092915050565b8281835e5f83830152505050565b5f6127bc8261278a565b6127c68185612794565b93506127d68185602086016127a4565b6127df816125e4565b840191505092915050565b5f6020820190508181035f83015261280281846127b2565b905092915050565b5f67ffffffffffffffff821115612824576128236125f4565b5b602082029050602081019050919050565b5f5ffd5b5f61284b6128468461280a565b612652565b9050808382526020820190506020840283018581111561286e5761286d612835565b5b835b81811015612897578061288388826124af565b845260208401935050602081019050612870565b5050509392505050565b5f82601f8301126128b5576128b46125dc565b5b81356128c5848260208601612839565b91505092915050565b5f67ffffffffffffffff8211156128e8576128e76125f4565b5b6128f1826125e4565b9050602081019050919050565b5f61291061290b846128ce565b612652565b90508281526020810184848401111561292c5761292b6125e0565b5b61293784828561269c565b509392505050565b5f82601f830112612953576129526125dc565b5b81356129638482602086016128fe565b91505092915050565b5f5f5f5f608085870312156129845761298361242e565b5b5f6129918782880161247c565b945050602085013567ffffffffffffffff8111156129b2576129b1612432565b5b6129be878288016128a1565b935050604085013567ffffffffffffffff8111156129df576129de612432565b5b6129eb878288016128a1565b925050606085013567ffffffffffffffff811115612a0c57612a0b612432565b5b612a188782880161293f565b91505092959194509250565b5f819050919050565b612a3681612a24565b8114612a40575f5ffd5b50565b5f81359050612a5181612a2d565b92915050565b5f60208284031215612a6c57612a6b61242e565b5b5f612a7984828501612a43565b91505092915050565b612a8b81612a24565b82525050565b5f602082019050612aa45f830184612a82565b92915050565b5f5f60408385031215612ac057612abf61242e565b5b5f612acd8582860161247c565b925050602083013567ffffffffffffffff811115612aee57612aed612432565b5b612afa858286016128a1565b9150509250929050565b5f81519050919050565b5f82825260208201905092915050565b5f819050602082019050919050565b612b3681612490565b82525050565b5f612b478383612b2d565b60208301905092915050565b5f602082019050919050565b5f612b6982612b04565b612b738185612b0e565b9350612b7e83612b1e565b805f5b83811015612bae578151612b958882612b3c565b9750612ba083612b53565b925050600181019050612b81565b5085935050505092915050565b5f6020820190508181035f830152612bd38184612b5f565b905092915050565b5f5f5f5f5f60a08688031215612bf457612bf361242e565b5b5f612c018882890161247c565b9550506020612c128882890161247c565b945050604086013567ffffffffffffffff811115612c3357612c32612432565b5b612c3f888289016128a1565b935050606086013567ffffffffffffffff811115612c6057612c5f612432565b5b612c6c888289016128a1565b925050608086013567ffffffffffffffff811115612c8d57612c8c612432565b5b612c998882890161293f565b9150509295509295909350565b5f5f60408385031215612cbc57612cbb61242e565b5b5f612cc985828601612a43565b9250506020612cda8582860161247c565b9150509250929050565b5f60208284031215612cf957612cf861242e565b5b5f612d068482850161247c565b91505092915050565b5f67ffffffffffffffff821115612d2957612d286125f4565b5b602082029050602081019050919050565b5f612d4c612d4784612d0f565b612652565b90508083825260208201905060208402830185811115612d6f57612d6e612835565b5b835b81811015612d985780612d84888261247c565b845260208401935050602081019050612d71565b5050509392505050565b5f82601f830112612db657612db56125dc565b5b8135612dc6848260208601612d3a565b91505092915050565b5f5f60408385031215612de557612de461242e565b5b5f83013567ffffffffffffffff811115612e0257612e01612432565b5b612e0e85828601612da2565b925050602083013567ffffffffffffffff811115612e2f57612e2e612432565b5b612e3b858286016128a1565b9150509250929050565b5f5f5f5f60808587031215612e5d57612e5c61242e565b5b5f85013567ffffffffffffffff811115612e7a57612e79612432565b5b612e8687828801612da2565b945050602085013567ffffffffffffffff811115612ea757612ea6612432565b5b612eb3878288016128a1565b935050604085013567ffffffffffffffff811115612ed457612ed3612432565b5b612ee0878288016128a1565b925050606085013567ffffffffffffffff811115612f0157612f00612432565b5b612f0d8782880161293f565b91505092959194509250565b5f5f5f60608486031215612f3057612f2f61242e565b5b5f612f3d8682870161247c565b935050602084013567ffffffffffffffff811115612f5e57612f5d612432565b5b612f6a868287016128a1565b925050604084013567ffffffffffffffff811115612f8b57612f8a612432565b5b612f97868287016128a1565b9150509250925092565b5f5f5f5f60808587031215612fb957612fb861242e565b5b5f612fc68782880161247c565b9450506020612fd7878288016124af565b9350506040612fe8878288016124af565b925050606085013567ffffffffffffffff81111561300957613008612432565b5b6130158782880161293f565b91505092959194509250565b61302a816125a9565b8114613034575f5ffd5b50565b5f8135905061304581613021565b92915050565b5f5f604083850312156130615761306061242e565b5b5f61306e8582860161247c565b925050602061307f85828601613037565b9150509250929050565b5f5f6040838503121561309f5761309e61242e565b5b5f6130ac8582860161247c565b92505060206130bd8582860161247c565b9150509250929050565b5f5f5f5f5f60a086880312156130e0576130df61242e565b5b5f6130ed8882890161247c565b95505060206130fe8882890161247c565b945050604061310f888289016124af565b9350506060613120888289016124af565b925050608086013567ffffffffffffffff81111561314157613140612432565b5b61314d8882890161293f565b9150509295509295909350565b5f5f5f606084860312156131715761317061242e565b5b5f61317e8682870161247c565b935050602061318f868287016124af565b92505060406131a0868287016124af565b9150509250925092565b5f81905092915050565b5f6131be8261278a565b6131c881856131aa565b93506131d88185602086016127a4565b80840191505092915050565b5f6131ef82856131b4565b91506131fb82846131b4565b91508190509392505050565b7f4e487b71000000000000000000000000000000000000000000000000000000005f52603260045260245ffd5b61323d81612455565b82525050565b5f6040820190506132565f830185613234565b6132636020830184613234565b9392505050565b5f60408201905061327d5f830185612501565b61328a6020830184612501565b9392505050565b7f4e487b71000000000000000000000000000000000000000000000000000000005f52602260045260245ffd5b5f60028204905060018216806132d557607f821691505b6020821081036132e8576132e7613291565b5b50919050565b5f819050815f5260205f209050919050565b5f6020601f8301049050919050565b5f82821b905092915050565b5f6008830261334a7fffffffffffffffffffffffffffffffffffffffffffffffffffffffffffffffff8261330f565b613354868361330f565b95508019841693508086168417925050509392505050565b5f819050919050565b5f61338f61338a61338584612490565b61336c565b612490565b9050919050565b5f819050919050565b6133a883613375565b6133bc6133b482613396565b84845461331b565b825550505050565b5f5f905090565b6133d36133c4565b6133de81848461339f565b505050565b5b81811015613401576133f65f826133cb565b6001810190506133e4565b5050565b601f82111561344657613417816132ee565b61342084613300565b8101602085101561342f578190505b61344361343b85613300565b8301826133e3565b50505b505050565b5f82821c905092915050565b5f6134665f198460080261344b565b1980831691505092915050565b5f61347e8383613457565b9150826002028217905092915050565b6134978261278a565b67ffffffffffffffff8111156134b0576134af6125f4565b5b6134ba82546132be565b6134c5828285613405565b5f60209050601f8311600181146134f6575f84156134e4578287015190505b6134ee8582613473565b865550613555565b601f198416613504866132ee565b5f5b8281101561352b57848901518255600182019150602085019450602081019050613506565b868310156135485784890151613544601f891682613457565b8355505b6001600288020188555050505b505050505050565b7f4e487b71000000000000000000000000000000000000000000000000000000005f52601260045260245ffd5b5f60208201905061359d5f830184613234565b92915050565b5f6040820190506135b65f830185613234565b6135c36020830184612a82565b9392505050565b5f81519050919050565b5f82825260208201905092915050565b5f6135ee826135ca565b6135f881856135d4565b93506136088185602086016127a4565b613611816125e4565b840191505092915050565b5f60a08201905061362f5f830188613234565b61363c6020830187613234565b6136496040830186612501565b6136566060830185612501565b818103608083015261366881846135e4565b90509695505050505050565b5f8151905061368281612554565b92915050565b5f6020828403121561369d5761369c61242e565b5b5f6136aa84828501613674565b91505092915050565b5f60a0820190506136c65f830188613234565b6136d36020830187613234565b81810360408301526136e58186612b5f565b905081810360608301526136f98185612b5f565b9050818103608083015261370d81846135e4565b90509695505050505050565b5f60808201905061372c5f830187613234565b6137396020830186612501565b6137466040830185612501565b6137536060830184612501565b95945050505050565b7f4e487b71000000000000000000000000000000000000000000000000000000005f52601160045260245ffd5b5f61379382612490565b915061379e83612490565b92508282019050808211156137b6576137b561375c565b5b92915050565b5f6040820190508181035f8301526137d48185612b5f565b905081810360208301526137e88184612b5f565b9050939250505056fea264697066735822122038472778be0e68828f8992f2108a421695db17eea8742b6c52006404b1ff7da464736f6c634300081c0033","linkReferences":{}},"methodIdentifiers":{"DEFAULT_ADMIN_ROLE()":"a217fddf","MINTER_ROLE()":"d5391393","PAUSER_ROLE()":"e63ab1e9","balanceOf(address,uint256)":"00fdd58e","balanceOfBatch(address[],uint256[])":"4e1273f4","balanceOfBatchOneAddr(address,uint256[])":"2e240ade","burn(address,uint256,uint256)":"f5298aca","burnBatch(address,uint256[],uint256[])":"6b20c454","getRoleAdmin(bytes32)":"248a9ca3","grantMinterRole(address)":"3dd1eb61","grantRole(bytes32,address)":"2f2ff15d","hasRole(bytes32,address)":"91d14854","isApprovedForAll(address,address)":"e985e9c5","mint(address,uint256,uint256,bytes)":"731133e9","mintBatch(address,uint256[],uint256[],bytes)":"1f7fdffa","mintBatchAddr(address[],uint256[],uint256[],bytes)":"503a28bd","pause()":"8456cb59","paused()":"5c975abb","renounceRole(bytes32,address)":"36568abe","revokeRole(bytes32,address)":"d547741f","safeBatchTransferFrom(address,address,uint256[],uint256[],bytes)":"2eb2c2d6","safeTransferFrom(address,address,uint256,uint256,bytes)":"f242432a","setApprovalForAll(address,bool)":"a22cb465","setURI(string)":"02fe5305","supportsInterface(bytes4)":"01ffc9a7","unpause()":"3f4ba83a","uri(uint256)":"0e89341c"},"id":53}