{"abi":[{"type":"constructor","inputs":[],"stateMutability":"nonpayable"},{"type":"function","name":"contractBalance","inputs":[],"outputs":[{"name":"","type":"uint256","internalType":"uint256"}],"stateMutability":"view"},{"type":"function","name":"owner","inputs":[],"outputs":[{"name":"","type":"address","internalType":"address"}],"stateMutability":"view"},{"type":"function","name":"payForItem","inputs":[{"name":"itemId","type":"string","internalType":"string"},{"name":"userId","type":"string","internalType":"string"}],"outputs":[],"stateMutability":"payable"},{"type":"function","name":"renounceOwnership","inputs":[],"outputs":[],"stateMutability":"nonpayable"},{"type":"function","name":"transferOwnership","inputs":[{"name":"newOwner","type":"address","internalType":"address"}],"outputs":[],"stateMutability":"nonpayable"},{"type":"function","name":"userPayments","inputs":[{"name":"","type":"address","internalType":"address"},{"name":"","type":"uint256","internalType":"uint256"}],"outputs":[{"name":"amount","type":"uint256","internalType":"uint256"},{"name":"itemId","type":"string","internalType":"string"},{"name":"userId","type":"string","internalType":"string"}],"stateMutability":"view"},{"type":"function","name":"withdraw","inputs":[{"name":"to","type":"address","internalType":"address payable"}],"outputs":[],"stateMutability":"nonpayable"},{"type":"event","name":"OwnershipTransferred","inputs":[{"name":"previousOwner","type":"address","indexed":true,"internalType":"address"},{"name":"newOwner","type":"address","indexed":true,"internalType":"address"}],"anonymous":false},{"type":"event","name":"PaymentReceived","inputs":[{"name":"payer","type":"address","indexed":true,"internalType":"address"},{"name":"amount","type":"uint256","indexed":false,"internalType":"uint256"},{"name":"itemId","type":"string","indexed":false,"internalType":"string"},{"name":"userId","type":"string","indexed":false,"internalType":"string"}],"anonymous":false},{"type":"event","name":"Withdrawal","inputs":[{"name":"to","type":"address","indexed":true,"internalType":"address"},{"name":"amount","type":"uint256","indexed":false,"internalType":"uint256"}],"anonymous":false},{"type":"error","name":"OwnableInvalidOwner","inputs":[{"name":"owner","type":"address","internalType":"address"}]},{"type":"error","name":"OwnableUnauthorizedAccount","inputs":[{"name":"account","type":"address","internalType":"address"}]}],"bytecode":{"object":"0x608060405234801561000f575f5ffd5b50335f73ffffffffffffffffffffffffffffffffffffffff168173ffffffffffffffffffffffffffffffffffffffff1603610081575f6040517f1e4fbdf70000000000000000000000000000000000000000000000000000000081526004016100789190610196565b60405180910390fd5b6100908161009660201b60201c565b506101af565b5f5f5f9054906101000a900473ffffffffffffffffffffffffffffffffffffffff169050815f5f6101000a81548173ffffffffffffffffffffffffffffffffffffffff021916908373ffffffffffffffffffffffffffffffffffffffff1602179055508173ffffffffffffffffffffffffffffffffffffffff168173ffffffffffffffffffffffffffffffffffffffff167f8be0079c531659141344cd1fd0a4f28419497f9722a3daafe3b4186f6b6457e060405160405180910390a35050565b5f73ffffffffffffffffffffffffffffffffffffffff82169050919050565b5f61018082610157565b9050919050565b61019081610176565b82525050565b5f6020820190506101a95f830184610187565b92915050565b611009806101bc5f395ff3fe60806040526004361061006f575f3560e01c80638b7afe2e1161004d5780638b7afe2e146100cd5780638cfeab35146100f75780638da5cb5b14610135578063f2fde38b1461015f5761006f565b80631edc6dde1461007357806351cff8d91461008f578063715018a6146100b7575b5f5ffd5b61008d600480360381019061008891906108c9565b610187565b005b34801561009a575f5ffd5b506100b560048036038101906100b09190610999565b6102d3565b005b3480156100c2575f5ffd5b506100cb61041c565b005b3480156100d8575f5ffd5b506100e161042f565b6040516100ee91906109dc565b60405180910390f35b348015610102575f5ffd5b5061011d60048036038101906101189190610a5a565b610436565b60405161012c93929190610af8565b60405180910390f35b348015610140575f5ffd5b50610149610582565b6040516101569190610b4a565b60405180910390f35b34801561016a575f5ffd5b5061018560048036038101906101809190610b63565b6105a9565b005b5f34116101c9576040517f08c379a00000000000000000000000000000000000000000000000000000000081526004016101c090610bd8565b60405180910390fd5b60015f3373ffffffffffffffffffffffffffffffffffffffff1673ffffffffffffffffffffffffffffffffffffffff1681526020019081526020015f20604051806060016040528034815260200184815260200183815250908060018154018082558091505060019003905f5260205f2090600302015f909190919091505f820151815f015560208201518160010190816102649190610df3565b50604082015181600201908161027a9190610df3565b5050503373ffffffffffffffffffffffffffffffffffffffff167f25f3ac702ad69406c1a408e457df3b1d43ef14ca2db0f3bca712fc1c048632673484846040516102c793929190610af8565b60405180910390a25050565b6102db61062d565b5f4790505f8111610321576040517f08c379a000000000000000000000000000000000000000000000000000000000815260040161031890610f0c565b60405180910390fd5b5f8273ffffffffffffffffffffffffffffffffffffffff168260405161034690610f57565b5f6040518083038185875af1925050503d805f8114610380576040519150601f19603f3d011682016040523d82523d5f602084013e610385565b606091505b50509050806103c9576040517f08c379a00000000000000000000000000000000000000000000000000000000081526004016103c090610fb5565b60405180910390fd5b8273ffffffffffffffffffffffffffffffffffffffff167f7fcf532c15f0a6db0bd6d0e038bea71d30d808c7d98cb3bf7268a95bf5081b658360405161040f91906109dc565b60405180910390a2505050565b61042461062d565b61042d5f6106b4565b565b5f47905090565b6001602052815f5260405f20818154811061044f575f80fd5b905f5260205f2090600302015f9150915050805f01549080600101805461047590610c23565b80601f01602080910402602001604051908101604052809291908181526020018280546104a190610c23565b80156104ec5780601f106104c3576101008083540402835291602001916104ec565b820191905f5260205f20905b8154815290600101906020018083116104cf57829003601f168201915b50505050509080600201805461050190610c23565b80601f016020809104026020016040519081016040528092919081815260200182805461052d90610c23565b80156105785780601f1061054f57610100808354040283529160200191610578565b820191905f5260205f20905b81548152906001019060200180831161055b57829003601f168201915b5050505050905083565b5f5f5f9054906101000a900473ffffffffffffffffffffffffffffffffffffffff16905090565b6105b161062d565b5f73ffffffffffffffffffffffffffffffffffffffff168173ffffffffffffffffffffffffffffffffffffffff1603610621575f6040517f1e4fbdf70000000000000000000000000000000000000000000000000000000081526004016106189190610b4a565b60405180910390fd5b61062a816106b4565b50565b610635610775565b73ffffffffffffffffffffffffffffffffffffffff16610653610582565b73ffffffffffffffffffffffffffffffffffffffff16146106b257610676610775565b6040517f118cdaa70000000000000000000000000000000000000000000000000000000081526004016106a99190610b4a565b60405180910390fd5b565b5f5f5f9054906101000a900473ffffffffffffffffffffffffffffffffffffffff169050815f5f6101000a81548173ffffffffffffffffffffffffffffffffffffffff021916908373ffffffffffffffffffffffffffffffffffffffff1602179055508173ffffffffffffffffffffffffffffffffffffffff168173ffffffffffffffffffffffffffffffffffffffff167f8be0079c531659141344cd1fd0a4f28419497f9722a3daafe3b4186f6b6457e060405160405180910390a35050565b5f33905090565b5f604051905090565b5f5ffd5b5f5ffd5b5f5ffd5b5f5ffd5b5f601f19601f8301169050919050565b7f4e487b71000000000000000000000000000000000000000000000000000000005f52604160045260245ffd5b6107db82610795565b810181811067ffffffffffffffff821117156107fa576107f96107a5565b5b80604052505050565b5f61080c61077c565b905061081882826107d2565b919050565b5f67ffffffffffffffff821115610837576108366107a5565b5b61084082610795565b9050602081019050919050565b828183375f83830152505050565b5f61086d6108688461081d565b610803565b90508281526020810184848401111561088957610888610791565b5b61089484828561084d565b509392505050565b5f82601f8301126108b0576108af61078d565b5b81356108c084826020860161085b565b91505092915050565b5f5f604083850312156108df576108de610785565b5b5f83013567ffffffffffffffff8111156108fc576108fb610789565b5b6109088582860161089c565b925050602083013567ffffffffffffffff81111561092957610928610789565b5b6109358582860161089c565b9150509250929050565b5f73ffffffffffffffffffffffffffffffffffffffff82169050919050565b5f6109688261093f565b9050919050565b6109788161095e565b8114610982575f5ffd5b50565b5f813590506109938161096f565b92915050565b5f602082840312156109ae576109ad610785565b5b5f6109bb84828501610985565b91505092915050565b5f819050919050565b6109d6816109c4565b82525050565b5f6020820190506109ef5f8301846109cd565b92915050565b5f6109ff8261093f565b9050919050565b610a0f816109f5565b8114610a19575f5ffd5b50565b5f81359050610a2a81610a06565b92915050565b610a39816109c4565b8114610a43575f5ffd5b50565b5f81359050610a5481610a30565b92915050565b5f5f60408385031215610a7057610a6f610785565b5b5f610a7d85828601610a1c565b9250506020610a8e85828601610a46565b9150509250929050565b5f81519050919050565b5f82825260208201905092915050565b8281835e5f83830152505050565b5f610aca82610a98565b610ad48185610aa2565b9350610ae4818560208601610ab2565b610aed81610795565b840191505092915050565b5f606082019050610b0b5f8301866109cd565b8181036020830152610b1d8185610ac0565b90508181036040830152610b318184610ac0565b9050949350505050565b610b44816109f5565b82525050565b5f602082019050610b5d5f830184610b3b565b92915050565b5f60208284031215610b7857610b77610785565b5b5f610b8584828501610a1c565b91505092915050565b7f4e6f20474c4d522073656e7400000000000000000000000000000000000000005f82015250565b5f610bc2600c83610aa2565b9150610bcd82610b8e565b602082019050919050565b5f6020820190508181035f830152610bef81610bb6565b9050919050565b7f4e487b71000000000000000000000000000000000000000000000000000000005f52602260045260245ffd5b5f6002820490506001821680610c3a57607f821691505b602082108103610c4d57610c4c610bf6565b5b50919050565b5f819050815f5260205f209050919050565b5f6020601f8301049050919050565b5f82821b905092915050565b5f60088302610caf7fffffffffffffffffffffffffffffffffffffffffffffffffffffffffffffffff82610c74565b610cb98683610c74565b95508019841693508086168417925050509392505050565b5f819050919050565b5f610cf4610cef610cea846109c4565b610cd1565b6109c4565b9050919050565b5f819050919050565b610d0d83610cda565b610d21610d1982610cfb565b848454610c80565b825550505050565b5f5f905090565b610d38610d29565b610d43818484610d04565b505050565b5b81811015610d6657610d5b5f82610d30565b600181019050610d49565b5050565b601f821115610dab57610d7c81610c53565b610d8584610c65565b81016020851015610d94578190505b610da8610da085610c65565b830182610d48565b50505b505050565b5f82821c905092915050565b5f610dcb5f1984600802610db0565b1980831691505092915050565b5f610de38383610dbc565b9150826002028217905092915050565b610dfc82610a98565b67ffffffffffffffff811115610e1557610e146107a5565b5b610e1f8254610c23565b610e2a828285610d6a565b5f60209050601f831160018114610e5b575f8415610e49578287015190505b610e538582610dd8565b865550610eba565b601f198416610e6986610c53565b5f5b82811015610e9057848901518255600182019150602085019450602081019050610e6b565b86831015610ead5784890151610ea9601f891682610dbc565b8355505b6001600288020188555050505b505050505050565b7f4e6f20474c4d5220746f207769746864726177000000000000000000000000005f82015250565b5f610ef6601383610aa2565b9150610f0182610ec2565b602082019050919050565b5f6020820190508181035f830152610f2381610eea565b9050919050565b5f81905092915050565b50565b5f610f425f83610f2a565b9150610f4d82610f34565b5f82019050919050565b5f610f6182610f37565b9150819050919050565b7f4661696c656420746f2073656e6420474c4d52000000000000000000000000005f82015250565b5f610f9f601383610aa2565b9150610faa82610f6b565b602082019050919050565b5f6020820190508181035f830152610fcc81610f93565b905091905056fea2646970667358221220c0520088d092f5ba8f071eaee434c33fcbe4482262375f0050ba82e5dd4ab5b764736f6c634300081c0033","linkReferences":{}},"methodIdentifiers":{"contractBalance()":"8b7afe2e","owner()":"8da5cb5b","payForItem(string,string)":"1edc6dde","renounceOwnership()":"715018a6","transferOwnership(address)":"f2fde38b","userPayments(address,uint256)":"8cfeab35","withdraw(address)":"51cff8d9"},"id":21}