{
    "_format": "hh-sol-artifact-1",
    "contractName": "RoguesItems",
    "sourceName": "contracts/RoguesItems.sol",
    "abi": [
        {
            "inputs": [
                {
                    "internalType": "address",
                    "name": "defaultAdmin",
                    "type": "address"
                },
                {
                    "internalType": "address",
                    "name": "pauser",
                    "type": "address"
                },
                {
                    "internalType": "address",
                    "name": "minter",
                    "type": "address"
                }
            ],
            "stateMutability": "nonpayable",
            "type": "constructor"
        },
        {
            "inputs": [],
            "name": "AccessControlBadConfirmation",
            "type": "error"
        },
        {
            "inputs": [
                {
                    "internalType": "address",
                    "name": "account",
                    "type": "address"
                },
                {
                    "internalType": "bytes32",
                    "name": "neededRole",
                    "type": "bytes32"
                }
            ],
            "name": "AccessControlUnauthorizedAccount",
            "type": "error"
        },
        {
            "inputs": [
                {
                    "internalType": "address",
                    "name": "sender",
                    "type": "address"
                },
                {
                    "internalType": "uint256",
                    "name": "balance",
                    "type": "uint256"
                },
                {
                    "internalType": "uint256",
                    "name": "needed",
                    "type": "uint256"
                },
                {
                    "internalType": "uint256",
                    "name": "tokenId",
                    "type": "uint256"
                }
            ],
            "name": "ERC1155InsufficientBalance",
            "type": "error"
        },
        {
            "inputs": [
                {
                    "internalType": "address",
                    "name": "approver",
                    "type": "address"
                }
            ],
            "name": "ERC1155InvalidApprover",
            "type": "error"
        },
        {
            "inputs": [
                {
                    "internalType": "uint256",
                    "name": "idsLength",
                    "type": "uint256"
                },
                {
                    "internalType": "uint256",
                    "name": "valuesLength",
                    "type": "uint256"
                }
            ],
            "name": "ERC1155InvalidArrayLength",
            "type": "error"
        },
        {
            "inputs": [
                {
                    "internalType": "address",
                    "name": "operator",
                    "type": "address"
                }
            ],
            "name": "ERC1155InvalidOperator",
            "type": "error"
        },
        {
            "inputs": [
                {
                    "internalType": "address",
                    "name": "receiver",
                    "type": "address"
                }
            ],
            "name": "ERC1155InvalidReceiver",
            "type": "error"
        },
        {
            "inputs": [
                {
                    "internalType": "address",
                    "name": "sender",
                    "type": "address"
                }
            ],
            "name": "ERC1155InvalidSender",
            "type": "error"
        },
        {
            "inputs": [
                {
                    "internalType": "address",
                    "name": "operator",
                    "type": "address"
                },
                {
                    "internalType": "address",
                    "name": "owner",
                    "type": "address"
                }
            ],
            "name": "ERC1155MissingApprovalForAll",
            "type": "error"
        },
        {
            "inputs": [],
            "name": "EnforcedPause",
            "type": "error"
        },
        {
            "inputs": [],
            "name": "ExpectedPause",
            "type": "error"
        },
        {
            "anonymous": false,
            "inputs": [
                {
                    "indexed": true,
                    "internalType": "address",
                    "name": "account",
                    "type": "address"
                },
                {
                    "indexed": true,
                    "internalType": "address",
                    "name": "operator",
                    "type": "address"
                },
                {
                    "indexed": false,
                    "internalType": "bool",
                    "name": "approved",
                    "type": "bool"
                }
            ],
            "name": "ApprovalForAll",
            "type": "event"
        },
        {
            "anonymous": false,
            "inputs": [
                {
                    "indexed": false,
                    "internalType": "address",
                    "name": "account",
                    "type": "address"
                }
            ],
            "name": "Paused",
            "type": "event"
        },
        {
            "anonymous": false,
            "inputs": [
                {
                    "indexed": true,
                    "internalType": "bytes32",
                    "name": "role",
                    "type": "bytes32"
                },
                {
                    "indexed": true,
                    "internalType": "bytes32",
                    "name": "previousAdminRole",
                    "type": "bytes32"
                },
                {
                    "indexed": true,
                    "internalType": "bytes32",
                    "name": "newAdminRole",
                    "type": "bytes32"
                }
            ],
            "name": "RoleAdminChanged",
            "type": "event"
        },
        {
            "anonymous": false,
            "inputs": [
                {
                    "indexed": true,
                    "internalType": "bytes32",
                    "name": "role",
                    "type": "bytes32"
                },
                {
                    "indexed": true,
                    "internalType": "address",
                    "name": "account",
                    "type": "address"
                },
                {
                    "indexed": true,
                    "internalType": "address",
                    "name": "sender",
                    "type": "address"
                }
            ],
            "name": "RoleGranted",
            "type": "event"
        },
        {
            "anonymous": false,
            "inputs": [
                {
                    "indexed": true,
                    "internalType": "bytes32",
                    "name": "role",
                    "type": "bytes32"
                },
                {
                    "indexed": true,
                    "internalType": "address",
                    "name": "account",
                    "type": "address"
                },
                {
                    "indexed": true,
                    "internalType": "address",
                    "name": "sender",
                    "type": "address"
                }
            ],
            "name": "RoleRevoked",
            "type": "event"
        },
        {
            "anonymous": false,
            "inputs": [
                {
                    "indexed": true,
                    "internalType": "address",
                    "name": "operator",
                    "type": "address"
                },
                {
                    "indexed": true,
                    "internalType": "address",
                    "name": "from",
                    "type": "address"
                },
                {
                    "indexed": true,
                    "internalType": "address",
                    "name": "to",
                    "type": "address"
                },
                {
                    "indexed": false,
                    "internalType": "uint256[]",
                    "name": "ids",
                    "type": "uint256[]"
                },
                {
                    "indexed": false,
                    "internalType": "uint256[]",
                    "name": "values",
                    "type": "uint256[]"
                }
            ],
            "name": "TransferBatch",
            "type": "event"
        },
        {
            "anonymous": false,
            "inputs": [
                {
                    "indexed": true,
                    "internalType": "address",
                    "name": "operator",
                    "type": "address"
                },
                {
                    "indexed": true,
                    "internalType": "address",
                    "name": "from",
                    "type": "address"
                },
                {
                    "indexed": true,
                    "internalType": "address",
                    "name": "to",
                    "type": "address"
                },
                {
                    "indexed": false,
                    "internalType": "uint256",
                    "name": "id",
                    "type": "uint256"
                },
                {
                    "indexed": false,
                    "internalType": "uint256",
                    "name": "value",
                    "type": "uint256"
                }
            ],
            "name": "TransferSingle",
            "type": "event"
        },
        {
            "anonymous": false,
            "inputs": [
                {
                    "indexed": false,
                    "internalType": "string",
                    "name": "value",
                    "type": "string"
                },
                {
                    "indexed": true,
                    "internalType": "uint256",
                    "name": "id",
                    "type": "uint256"
                }
            ],
            "name": "URI",
            "type": "event"
        },
        {
            "anonymous": false,
            "inputs": [
                {
                    "indexed": false,
                    "internalType": "address",
                    "name": "account",
                    "type": "address"
                }
            ],
            "name": "Unpaused",
            "type": "event"
        },
        {
            "inputs": [],
            "name": "DEFAULT_ADMIN_ROLE",
            "outputs": [
                {
                    "internalType": "bytes32",
                    "name": "",
                    "type": "bytes32"
                }
            ],
            "stateMutability": "view",
            "type": "function"
        },
        {
            "inputs": [],
            "name": "MINTER_ROLE",
            "outputs": [
                {
                    "internalType": "bytes32",
                    "name": "",
                    "type": "bytes32"
                }
            ],
            "stateMutability": "view",
            "type": "function"
        },
        {
            "inputs": [],
            "name": "PAUSER_ROLE",
            "outputs": [
                {
                    "internalType": "bytes32",
                    "name": "",
                    "type": "bytes32"
                }
            ],
            "stateMutability": "view",
            "type": "function"
        },
        {
            "inputs": [
                {
                    "internalType": "address",
                    "name": "account",
                    "type": "address"
                },
                {
                    "internalType": "uint256",
                    "name": "id",
                    "type": "uint256"
                }
            ],
            "name": "balanceOf",
            "outputs": [
                {
                    "internalType": "uint256",
                    "name": "",
                    "type": "uint256"
                }
            ],
            "stateMutability": "view",
            "type": "function"
        },
        {
            "inputs": [
                {
                    "internalType": "address[]",
                    "name": "accounts",
                    "type": "address[]"
                },
                {
                    "internalType": "uint256[]",
                    "name": "ids",
                    "type": "uint256[]"
                }
            ],
            "name": "balanceOfBatch",
            "outputs": [
                {
                    "internalType": "uint256[]",
                    "name": "",
                    "type": "uint256[]"
                }
            ],
            "stateMutability": "view",
            "type": "function"
        },
        {
            "inputs": [
                {
                    "internalType": "address",
                    "name": "account",
                    "type": "address"
                },
                {
                    "internalType": "uint256[]",
                    "name": "ids",
                    "type": "uint256[]"
                }
            ],
            "name": "balanceOfBatchOneAddr",
            "outputs": [
                {
                    "internalType": "uint256[]",
                    "name": "",
                    "type": "uint256[]"
                }
            ],
            "stateMutability": "view",
            "type": "function"
        },
        {
            "inputs": [
                {
                    "internalType": "address",
                    "name": "account",
                    "type": "address"
                },
                {
                    "internalType": "uint256",
                    "name": "id",
                    "type": "uint256"
                },
                {
                    "internalType": "uint256",
                    "name": "value",
                    "type": "uint256"
                }
            ],
            "name": "burn",
            "outputs": [],
            "stateMutability": "nonpayable",
            "type": "function"
        },
        {
            "inputs": [
                {
                    "internalType": "address",
                    "name": "account",
                    "type": "address"
                },
                {
                    "internalType": "uint256[]",
                    "name": "ids",
                    "type": "uint256[]"
                },
                {
                    "internalType": "uint256[]",
                    "name": "values",
                    "type": "uint256[]"
                }
            ],
            "name": "burnBatch",
            "outputs": [],
            "stateMutability": "nonpayable",
            "type": "function"
        },
        {
            "inputs": [
                {
                    "internalType": "bytes32",
                    "name": "role",
                    "type": "bytes32"
                }
            ],
            "name": "getRoleAdmin",
            "outputs": [
                {
                    "internalType": "bytes32",
                    "name": "",
                    "type": "bytes32"
                }
            ],
            "stateMutability": "view",
            "type": "function"
        },
        {
            "inputs": [
                {
                    "internalType": "address",
                    "name": "minter",
                    "type": "address"
                }
            ],
            "name": "grantMinterRole",
            "outputs": [],
            "stateMutability": "nonpayable",
            "type": "function"
        },
        {
            "inputs": [
                {
                    "internalType": "bytes32",
                    "name": "role",
                    "type": "bytes32"
                },
                {
                    "internalType": "address",
                    "name": "account",
                    "type": "address"
                }
            ],
            "name": "grantRole",
            "outputs": [],
            "stateMutability": "nonpayable",
            "type": "function"
        },
        {
            "inputs": [
                {
                    "internalType": "bytes32",
                    "name": "role",
                    "type": "bytes32"
                },
                {
                    "internalType": "address",
                    "name": "account",
                    "type": "address"
                }
            ],
            "name": "hasRole",
            "outputs": [
                {
                    "internalType": "bool",
                    "name": "",
                    "type": "bool"
                }
            ],
            "stateMutability": "view",
            "type": "function"
        },
        {
            "inputs": [
                {
                    "internalType": "address",
                    "name": "account",
                    "type": "address"
                },
                {
                    "internalType": "address",
                    "name": "operator",
                    "type": "address"
                }
            ],
            "name": "isApprovedForAll",
            "outputs": [
                {
                    "internalType": "bool",
                    "name": "",
                    "type": "bool"
                }
            ],
            "stateMutability": "view",
            "type": "function"
        },
        {
            "inputs": [
                {
                    "internalType": "address",
                    "name": "account",
                    "type": "address"
                },
                {
                    "internalType": "uint256",
                    "name": "id",
                    "type": "uint256"
                },
                {
                    "internalType": "uint256",
                    "name": "amount",
                    "type": "uint256"
                },
                {
                    "internalType": "bytes",
                    "name": "data",
                    "type": "bytes"
                }
            ],
            "name": "mint",
            "outputs": [],
            "stateMutability": "nonpayable",
            "type": "function"
        },
        {
            "inputs": [
                {
                    "internalType": "address",
                    "name": "to",
                    "type": "address"
                },
                {
                    "internalType": "uint256[]",
                    "name": "ids",
                    "type": "uint256[]"
                },
                {
                    "internalType": "uint256[]",
                    "name": "amounts",
                    "type": "uint256[]"
                },
                {
                    "internalType": "bytes",
                    "name": "data",
                    "type": "bytes"
                }
            ],
            "name": "mintBatch",
            "outputs": [],
            "stateMutability": "nonpayable",
            "type": "function"
        },
        {
            "inputs": [
                {
                    "internalType": "address[]",
                    "name": "accounts",
                    "type": "address[]"
                },
                {
                    "internalType": "uint256[]",
                    "name": "ids",
                    "type": "uint256[]"
                },
                {
                    "internalType": "uint256[]",
                    "name": "amounts",
                    "type": "uint256[]"
                },
                {
                    "internalType": "bytes",
                    "name": "data",
                    "type": "bytes"
                }
            ],
            "name": "mintBatchAddr",
            "outputs": [],
            "stateMutability": "nonpayable",
            "type": "function"
        },
        {
            "inputs": [],
            "name": "pause",
            "outputs": [],
            "stateMutability": "nonpayable",
            "type": "function"
        },
        {
            "inputs": [],
            "name": "paused",
            "outputs": [
                {
                    "internalType": "bool",
                    "name": "",
                    "type": "bool"
                }
            ],
            "stateMutability": "view",
            "type": "function"
        },
        {
            "inputs": [
                {
                    "internalType": "bytes32",
                    "name": "role",
                    "type": "bytes32"
                },
                {
                    "internalType": "address",
                    "name": "callerConfirmation",
                    "type": "address"
                }
            ],
            "name": "renounceRole",
            "outputs": [],
            "stateMutability": "nonpayable",
            "type": "function"
        },
        {
            "inputs": [
                {
                    "internalType": "bytes32",
                    "name": "role",
                    "type": "bytes32"
                },
                {
                    "internalType": "address",
                    "name": "account",
                    "type": "address"
                }
            ],
            "name": "revokeRole",
            "outputs": [],
            "stateMutability": "nonpayable",
            "type": "function"
        },
        {
            "inputs": [
                {
                    "internalType": "address",
                    "name": "from",
                    "type": "address"
                },
                {
                    "internalType": "address",
                    "name": "to",
                    "type": "address"
                },
                {
                    "internalType": "uint256[]",
                    "name": "ids",
                    "type": "uint256[]"
                },
                {
                    "internalType": "uint256[]",
                    "name": "values",
                    "type": "uint256[]"
                },
                {
                    "internalType": "bytes",
                    "name": "data",
                    "type": "bytes"
                }
            ],
            "name": "safeBatchTransferFrom",
            "outputs": [],
            "stateMutability": "nonpayable",
            "type": "function"
        },
        {
            "inputs": [
                {
                    "internalType": "address",
                    "name": "from",
                    "type": "address"
                },
                {
                    "internalType": "address",
                    "name": "to",
                    "type": "address"
                },
                {
                    "internalType": "uint256",
                    "name": "id",
                    "type": "uint256"
                },
                {
                    "internalType": "uint256",
                    "name": "value",
                    "type": "uint256"
                },
                {
                    "internalType": "bytes",
                    "name": "data",
                    "type": "bytes"
                }
            ],
            "name": "safeTransferFrom",
            "outputs": [],
            "stateMutability": "nonpayable",
            "type": "function"
        },
        {
            "inputs": [
                {
                    "internalType": "address",
                    "name": "operator",
                    "type": "address"
                },
                {
                    "internalType": "bool",
                    "name": "approved",
                    "type": "bool"
                }
            ],
            "name": "setApprovalForAll",
            "outputs": [],
            "stateMutability": "nonpayable",
            "type": "function"
        },
        {
            "inputs": [
                {
                    "internalType": "string",
                    "name": "newuri",
                    "type": "string"
                }
            ],
            "name": "setURI",
            "outputs": [],
            "stateMutability": "nonpayable",
            "type": "function"
        },
        {
            "inputs": [
                {
                    "internalType": "bytes4",
                    "name": "interfaceId",
                    "type": "bytes4"
                }
            ],
            "name": "supportsInterface",
            "outputs": [
                {
                    "internalType": "bool",
                    "name": "",
                    "type": "bool"
                }
            ],
            "stateMutability": "view",
            "type": "function"
        },
        {
            "inputs": [],
            "name": "unpause",
            "outputs": [],
            "stateMutability": "nonpayable",
            "type": "function"
        },
        {
            "inputs": [
                {
                    "internalType": "uint256",
                    "name": "tokenId",
                    "type": "uint256"
                }
            ],
            "name": "uri",
            "outputs": [
                {
                    "internalType": "string",
                    "name": "",
                    "type": "string"
                }
            ],
            "stateMutability": "view",
            "type": "function"
        }
    ],
    "bytecode": "0x608060405234801561001057600080fd5b50604051613fb7380380613fb7833981810160405281019061003291906102d2565b60405180602001604052806000815250610051816100eb60201b60201c565b506000600460006101000a81548160ff0219169083151502179055506100806000801b846100fe60201b60201c565b506100b17f65d7a28e3265b37a6474929f336521b332c1681b933f6cb9f3376673440d862a836100fe60201b60201c565b506100e27f9f2df0fed2c77648de5860a4cc508cd0818c85b8b8a1ab4ceeef8d981c8956a6826100fe60201b60201c565b50505050610647565b80600290816100fa9190610575565b5050565b600061011083836101fc60201b60201c565b6101f15760016003600085815260200190815260200160002060000160008473ffffffffffffffffffffffffffffffffffffffff1673ffffffffffffffffffffffffffffffffffffffff16815260200190815260200160002060006101000a81548160ff02191690831515021790555061018e61026760201b60201c565b73ffffffffffffffffffffffffffffffffffffffff168273ffffffffffffffffffffffffffffffffffffffff16847f2f8788117e7eff1d82e926ec794901d17c78024a50270940304540a733656f0d60405160405180910390a4600190506101f6565b600090505b92915050565b60006003600084815260200190815260200160002060000160008373ffffffffffffffffffffffffffffffffffffffff1673ffffffffffffffffffffffffffffffffffffffff16815260200190815260200160002060009054906101000a900460ff16905092915050565b600033905090565b600080fd5b600073ffffffffffffffffffffffffffffffffffffffff82169050919050565b600061029f82610274565b9050919050565b6102af81610294565b81146102ba57600080fd5b50565b6000815190506102cc816102a6565b92915050565b6000806000606084860312156102eb576102ea61026f565b5b60006102f9868287016102bd565b935050602061030a868287016102bd565b925050604061031b868287016102bd565b9150509250925092565b600081519050919050565b7f4e487b7100000000000000000000000000000000000000000000000000000000600052604160045260246000fd5b7f4e487b7100000000000000000000000000000000000000000000000000000000600052602260045260246000fd5b600060028204905060018216806103a657607f821691505b6020821081036103b9576103b861035f565b5b50919050565b60008190508160005260206000209050919050565b60006020601f8301049050919050565b600082821b905092915050565b6000600883026104217fffffffffffffffffffffffffffffffffffffffffffffffffffffffffffffffff826103e4565b61042b86836103e4565b95508019841693508086168417925050509392505050565b6000819050919050565b6000819050919050565b600061047261046d61046884610443565b61044d565b610443565b9050919050565b6000819050919050565b61048c83610457565b6104a061049882610479565b8484546103f1565b825550505050565b600090565b6104b56104a8565b6104c0818484610483565b505050565b5b818110156104e4576104d96000826104ad565b6001810190506104c6565b5050565b601f821115610529576104fa816103bf565b610503846103d4565b81016020851015610512578190505b61052661051e856103d4565b8301826104c5565b50505b505050565b600082821c905092915050565b600061054c6000198460080261052e565b1980831691505092915050565b6000610565838361053b565b9150826002028217905092915050565b61057e82610325565b67ffffffffffffffff81111561059757610596610330565b5b6105a1825461038e565b6105ac8282856104e8565b600060209050601f8311600181146105df57600084156105cd578287015190505b6105d78582610559565b86555061063f565b601f1984166105ed866103bf565b60005b82811015610615578489015182556001820191506020850194506020810190506105f0565b86831015610632578489015161062e601f89168261053b565b8355505b6001600288020188555050505b505050505050565b613961806106566000396000f3fe608060405234801561001057600080fd5b50600436106101a85760003560e01c8063503a28bd116100f9578063a22cb46511610097578063e63ab1e911610071578063e63ab1e91461049f578063e985e9c5146104bd578063f242432a146104ed578063f5298aca14610509576101a8565b8063a22cb46514610449578063d539139314610465578063d547741f14610483576101a8565b8063731133e9116100d3578063731133e9146103d55780638456cb59146103f157806391d14854146103fb578063a217fddf1461042b576101a8565b8063503a28bd1461037f5780635c975abb1461039b5780636b20c454146103b9576101a8565b80632e240ade1161016657806336568abe1161014057806336568abe1461030d5780633dd1eb61146103295780633f4ba83a146103455780634e1273f41461034f576101a8565b80632e240ade146102a55780632eb2c2d6146102d55780632f2ff15d146102f1576101a8565b8062fdd58e146101ad57806301ffc9a7146101dd57806302fe53051461020d5780630e89341c146102295780631f7fdffa14610259578063248a9ca314610275575b600080fd5b6101c760048036038101906101c29190612551565b610525565b6040516101d491906125a0565b60405180910390f35b6101f760048036038101906101f29190612613565b61057f565b604051610204919061265b565b60405180910390f35b610227600480360381019061022291906127bc565b610591565b005b610243600480360381019061023e9190612805565b6105ab565b60405161025091906128b1565b60405180910390f35b610273600480360381019061026e9190612a3c565b6105ec565b005b61028f600480360381019061028a9190612b2d565b610629565b60405161029c9190612b69565b60405180910390f35b6102bf60048036038101906102ba9190612b84565b610649565b6040516102cc9190612c9e565b60405180910390f35b6102ef60048036038101906102ea9190612cc0565b6106fe565b005b61030b60048036038101906103069190612d8f565b6107a6565b005b61032760048036038101906103229190612d8f565b6107c8565b005b610343600480360381019061033e9190612dcf565b610843565b005b61034d61087f565b005b61036960048036038101906103649190612ebf565b6108b4565b6040516103769190612c9e565b60405180910390f35b61039960048036038101906103949190612f37565b6109bd565b005b6103a3610a60565b6040516103b0919061265b565b60405180910390f35b6103d360048036038101906103ce919061300e565b610a77565b005b6103ef60048036038101906103ea9190613099565b610b23565b005b6103f9610b60565b005b61041560048036038101906104109190612d8f565b610b95565b604051610422919061265b565b60405180910390f35b610433610c00565b6040516104409190612b69565b60405180910390f35b610463600480360381019061045e9190613148565b610c07565b005b61046d610c1d565b60405161047a9190612b69565b60405180910390f35b61049d60048036038101906104989190612d8f565b610c41565b005b6104a7610c63565b6040516104b49190612b69565b60405180910390f35b6104d760048036038101906104d29190613188565b610c87565b6040516104e4919061265b565b60405180910390f35b610507600480360381019061050291906131c8565b610d1b565b005b610523600480360381019061051e919061325f565b610dc3565b005b600080600083815260200190815260200160002060008473ffffffffffffffffffffffffffffffffffffffff1673ffffffffffffffffffffffffffffffffffffffff16815260200190815260200160002054905092915050565b600061058a82610e6f565b9050919050565b6000801b61059e81610ee9565b6105a782610efd565b5050565b606060006105b883610f10565b9050806105c484610fa4565b6040516020016105d59291906132ee565b604051602081830303815290604052915050919050565b7f9f2df0fed2c77648de5860a4cc508cd0818c85b8b8a1ab4ceeef8d981c8956a661061681610ee9565b61062285858585611072565b5050505050565b600060036000838152602001908152602001600020600101549050919050565b60606000825167ffffffffffffffff81111561066857610667612691565b5b6040519080825280602002602001820160405280156106965781602001602082028036833780820191505090505b50905060005b83518110156106f3576106c9858583815181106106bc576106bb613312565b5b6020026020010151610525565b8282815181106106dc576106db613312565b5b60200260200101818152505080600101905061069c565b508091505092915050565b60006107086110f8565b90508073ffffffffffffffffffffffffffffffffffffffff168673ffffffffffffffffffffffffffffffffffffffff161415801561074d575061074b8682610c87565b155b156107915780866040517fe237d922000000000000000000000000000000000000000000000000000000008152600401610788929190613350565b60405180910390fd5b61079e8686868686611100565b505050505050565b6107af82610629565b6107b881610ee9565b6107c283836111f8565b50505050565b6107d06110f8565b73ffffffffffffffffffffffffffffffffffffffff168173ffffffffffffffffffffffffffffffffffffffff1614610834576040517f6697b23200000000000000000000000000000000000000000000000000000000815260040160405180910390fd5b61083e82826112ea565b505050565b6000801b61085081610ee9565b61087a7f9f2df0fed2c77648de5860a4cc508cd0818c85b8b8a1ab4ceeef8d981c8956a6836111f8565b505050565b7f65d7a28e3265b37a6474929f336521b332c1681b933f6cb9f3376673440d862a6108a981610ee9565b6108b16113dd565b50565b6060815183511461090057815183516040517f5b0599910000000000000000000000000000000000000000000000000000000081526004016108f7929190613379565b60405180910390fd5b6000835167ffffffffffffffff81111561091d5761091c612691565b5b60405190808252806020026020018201604052801561094b5781602001602082028036833780820191505090505b50905060005b84518110156109b257610988610970828761144090919063ffffffff16565b610983838761145490919063ffffffff16565b610525565b82828151811061099b5761099a613312565b5b602002602001018181525050806001019050610951565b508091505092915050565b7f9f2df0fed2c77648de5860a4cc508cd0818c85b8b8a1ab4ceeef8d981c8956a66109e781610ee9565b60005b8551811015610a5857610a4d868281518110610a0957610a08613312565b5b6020026020010151868381518110610a2457610a23613312565b5b6020026020010151868481518110610a3f57610a3e613312565b5b602002602001015186611468565b8060010190506109ea565b505050505050565b6000600460009054906101000a900460ff16905090565b610a7f6110f8565b73ffffffffffffffffffffffffffffffffffffffff168373ffffffffffffffffffffffffffffffffffffffff1614158015610ac85750610ac683610ac16110f8565b610c87565b155b15610b1357610ad56110f8565b836040517fe237d922000000000000000000000000000000000000000000000000000000008152600401610b0a929190613350565b60405180910390fd5b610b1e838383611501565b505050565b7f9f2df0fed2c77648de5860a4cc508cd0818c85b8b8a1ab4ceeef8d981c8956a6610b4d81610ee9565b610b5985858585611468565b5050505050565b7f65d7a28e3265b37a6474929f336521b332c1681b933f6cb9f3376673440d862a610b8a81610ee9565b610b92611595565b50565b60006003600084815260200190815260200160002060000160008373ffffffffffffffffffffffffffffffffffffffff1673ffffffffffffffffffffffffffffffffffffffff16815260200190815260200160002060009054906101000a900460ff16905092915050565b6000801b81565b610c19610c126110f8565b83836115f8565b5050565b7f9f2df0fed2c77648de5860a4cc508cd0818c85b8b8a1ab4ceeef8d981c8956a681565b610c4a82610629565b610c5381610ee9565b610c5d83836112ea565b50505050565b7f65d7a28e3265b37a6474929f336521b332c1681b933f6cb9f3376673440d862a81565b6000600160008473ffffffffffffffffffffffffffffffffffffffff1673ffffffffffffffffffffffffffffffffffffffff16815260200190815260200160002060008373ffffffffffffffffffffffffffffffffffffffff1673ffffffffffffffffffffffffffffffffffffffff16815260200190815260200160002060009054906101000a900460ff16905092915050565b6000610d256110f8565b90508073ffffffffffffffffffffffffffffffffffffffff168673ffffffffffffffffffffffffffffffffffffffff1614158015610d6a5750610d688682610c87565b155b15610dae5780866040517fe237d922000000000000000000000000000000000000000000000000000000008152600401610da5929190613350565b60405180910390fd5b610dbb8686868686611768565b505050505050565b610dcb6110f8565b73ffffffffffffffffffffffffffffffffffffffff168373ffffffffffffffffffffffffffffffffffffffff1614158015610e145750610e1283610e0d6110f8565b610c87565b155b15610e5f57610e216110f8565b836040517fe237d922000000000000000000000000000000000000000000000000000000008152600401610e56929190613350565b60405180910390fd5b610e6a838383611873565b505050565b60007f7965db0b000000000000000000000000000000000000000000000000000000007bffffffffffffffffffffffffffffffffffffffffffffffffffffffff1916827bffffffffffffffffffffffffffffffffffffffffffffffffffffffff19161480610ee25750610ee18261191a565b5b9050919050565b610efa81610ef56110f8565b6119fc565b50565b8060029081610f0c91906135ae565b5050565b606060028054610f1f906133d1565b80601f0160208091040260200160405190810160405280929190818152602001828054610f4b906133d1565b8015610f985780601f10610f6d57610100808354040283529160200191610f98565b820191906000526020600020905b815481529060010190602001808311610f7b57829003601f168201915b50505050509050919050565b606060006001610fb384611a4d565b01905060008167ffffffffffffffff811115610fd257610fd1612691565b5b6040519080825280601f01601f1916602001820160405280156110045781602001600182028036833780820191505090505b509050600082602001820190505b600115611067578080600190039150507f3031323334353637383961626364656600000000000000000000000000000000600a86061a8153600a858161105b5761105a613680565b5b04945060008503611012575b819350505050919050565b600073ffffffffffffffffffffffffffffffffffffffff168473ffffffffffffffffffffffffffffffffffffffff16036110e45760006040517f57f447ce0000000000000000000000000000000000000000000000000000000081526004016110db91906136af565b60405180910390fd5b6110f2600085858585611ba0565b50505050565b600033905090565b600073ffffffffffffffffffffffffffffffffffffffff168473ffffffffffffffffffffffffffffffffffffffff16036111725760006040517f57f447ce00000000000000000000000000000000000000000000000000000000815260040161116991906136af565b60405180910390fd5b600073ffffffffffffffffffffffffffffffffffffffff168573ffffffffffffffffffffffffffffffffffffffff16036111e45760006040517f01a835140000000000000000000000000000000000000000000000000000000081526004016111db91906136af565b60405180910390fd5b6111f18585858585611ba0565b5050505050565b60006112048383610b95565b6112df5760016003600085815260200190815260200160002060000160008473ffffffffffffffffffffffffffffffffffffffff1673ffffffffffffffffffffffffffffffffffffffff16815260200190815260200160002060006101000a81548160ff02191690831515021790555061127c6110f8565b73ffffffffffffffffffffffffffffffffffffffff168273ffffffffffffffffffffffffffffffffffffffff16847f2f8788117e7eff1d82e926ec794901d17c78024a50270940304540a733656f0d60405160405180910390a4600190506112e4565b600090505b92915050565b60006112f68383610b95565b156113d25760006003600085815260200190815260200160002060000160008473ffffffffffffffffffffffffffffffffffffffff1673ffffffffffffffffffffffffffffffffffffffff16815260200190815260200160002060006101000a81548160ff02191690831515021790555061136f6110f8565b73ffffffffffffffffffffffffffffffffffffffff168273ffffffffffffffffffffffffffffffffffffffff16847ff6391f5c32d9c69d2a47ea670b442974b53935d1edc7fd64eb21e047a839171b60405160405180910390a4600190506113d7565b600090505b92915050565b6113e5611c52565b6000600460006101000a81548160ff0219169083151502179055507f5db9ee0a495bf2e6ff9c91a7834c1ba4fdd244a5e8aa4e537bd38aeae4b073aa6114296110f8565b60405161143691906136af565b60405180910390a1565b600060208202602084010151905092915050565b600060208202602084010151905092915050565b600073ffffffffffffffffffffffffffffffffffffffff168473ffffffffffffffffffffffffffffffffffffffff16036114da5760006040517f57f447ce0000000000000000000000000000000000000000000000000000000081526004016114d191906136af565b60405180910390fd5b6000806114e78585611c92565b915091506114f9600087848487611ba0565b505050505050565b600073ffffffffffffffffffffffffffffffffffffffff168373ffffffffffffffffffffffffffffffffffffffff16036115735760006040517f01a8351400000000000000000000000000000000000000000000000000000000815260040161156a91906136af565b60405180910390fd5b611590836000848460405180602001604052806000815250611ba0565b505050565b61159d611cc2565b6001600460006101000a81548160ff0219169083151502179055507f62e78cea01bee320cd4e420270b5ea74000d11b0c9f74754ebdbfc544b05a2586115e16110f8565b6040516115ee91906136af565b60405180910390a1565b600073ffffffffffffffffffffffffffffffffffffffff168273ffffffffffffffffffffffffffffffffffffffff160361166a5760006040517fced3e10000000000000000000000000000000000000000000000000000000000815260040161166191906136af565b60405180910390fd5b80600160008573ffffffffffffffffffffffffffffffffffffffff1673ffffffffffffffffffffffffffffffffffffffff16815260200190815260200160002060008473ffffffffffffffffffffffffffffffffffffffff1673ffffffffffffffffffffffffffffffffffffffff16815260200190815260200160002060006101000a81548160ff0219169083151502179055508173ffffffffffffffffffffffffffffffffffffffff168373ffffffffffffffffffffffffffffffffffffffff167f17307eab39ab6107e8899845ad3d59bd9653f200f220920489ca2b5937696c318360405161175b919061265b565b60405180910390a3505050565b600073ffffffffffffffffffffffffffffffffffffffff168473ffffffffffffffffffffffffffffffffffffffff16036117da5760006040517f57f447ce0000000000000000000000000000000000000000000000000000000081526004016117d191906136af565b60405180910390fd5b600073ffffffffffffffffffffffffffffffffffffffff168573ffffffffffffffffffffffffffffffffffffffff160361184c5760006040517f01a8351400000000000000000000000000000000000000000000000000000000815260040161184391906136af565b60405180910390fd5b6000806118598585611c92565b9150915061186a8787848487611ba0565b50505050505050565b600073ffffffffffffffffffffffffffffffffffffffff168373ffffffffffffffffffffffffffffffffffffffff16036118e55760006040517f01a835140000000000000000000000000000000000000000000000000000000081526004016118dc91906136af565b60405180910390fd5b6000806118f28484611c92565b91509150611913856000848460405180602001604052806000815250611ba0565b5050505050565b60007fd9b67a26000000000000000000000000000000000000000000000000000000007bffffffffffffffffffffffffffffffffffffffffffffffffffffffff1916827bffffffffffffffffffffffffffffffffffffffffffffffffffffffff191614806119e557507f0e89341c000000000000000000000000000000000000000000000000000000007bffffffffffffffffffffffffffffffffffffffffffffffffffffffff1916827bffffffffffffffffffffffffffffffffffffffffffffffffffffffff1916145b806119f557506119f482611d03565b5b9050919050565b611a068282610b95565b611a495780826040517fe2517d3f000000000000000000000000000000000000000000000000000000008152600401611a409291906136ca565b60405180910390fd5b5050565b600080600090507a184f03e93ff9f4daa797ed6e38ed64bf6a1f0100000000000000008310611aab577a184f03e93ff9f4daa797ed6e38ed64bf6a1f0100000000000000008381611aa157611aa0613680565b5b0492506040810190505b6d04ee2d6d415b85acef81000000008310611ae8576d04ee2d6d415b85acef81000000008381611ade57611add613680565b5b0492506020810190505b662386f26fc100008310611b1757662386f26fc100008381611b0d57611b0c613680565b5b0492506010810190505b6305f5e1008310611b40576305f5e1008381611b3657611b35613680565b5b0492506008810190505b6127108310611b65576127108381611b5b57611b5a613680565b5b0492506004810190505b60648310611b885760648381611b7e57611b7d613680565b5b0492506002810190505b600a8310611b97576001810190505b80915050919050565b611bac85858585611d6d565b600073ffffffffffffffffffffffffffffffffffffffff168473ffffffffffffffffffffffffffffffffffffffff1614611c4b576000611bea6110f8565b90506001845103611c3a576000611c0b60008661145490919063ffffffff16565b90506000611c2360008661145490919063ffffffff16565b9050611c33838989858589611d7f565b5050611c49565b611c48818787878787611f33565b5b505b5050505050565b611c5a610a60565b611c90576040517f8dfc202b00000000000000000000000000000000000000000000000000000000815260040160405180910390fd5b565b60608060405191506001825283602083015260408201905060018152826020820152604081016040529250929050565b611cca610a60565b15611d01576040517fd93c066500000000000000000000000000000000000000000000000000000000815260040160405180910390fd5b565b60007f01ffc9a7000000000000000000000000000000000000000000000000000000007bffffffffffffffffffffffffffffffffffffffffffffffffffffffff1916827bffffffffffffffffffffffffffffffffffffffffffffffffffffffff1916149050919050565b611d79848484846120e7565b50505050565b60008473ffffffffffffffffffffffffffffffffffffffff163b1115611f2b578373ffffffffffffffffffffffffffffffffffffffff1663f23a6e6187878686866040518663ffffffff1660e01b8152600401611de0959493929190613748565b6020604051808303816000875af1925050508015611e1c57506040513d601f19601f82011682018060405250810190611e1991906137b7565b60015b611ea0573d8060008114611e4c576040519150601f19603f3d011682016040523d82523d6000602084013e611e51565b606091505b506000815103611e9857846040517f57f447ce000000000000000000000000000000000000000000000000000000008152600401611e8f91906136af565b60405180910390fd5b805181602001fd5b63f23a6e6160e01b7bffffffffffffffffffffffffffffffffffffffffffffffffffffffff1916817bffffffffffffffffffffffffffffffffffffffffffffffffffffffff191614611f2957846040517f57f447ce000000000000000000000000000000000000000000000000000000008152600401611f2091906136af565b60405180910390fd5b505b505050505050565b60008473ffffffffffffffffffffffffffffffffffffffff163b11156120df578373ffffffffffffffffffffffffffffffffffffffff1663bc197c8187878686866040518663ffffffff1660e01b8152600401611f949594939291906137e4565b6020604051808303816000875af1925050508015611fd057506040513d601f19601f82011682018060405250810190611fcd91906137b7565b60015b612054573d8060008114612000576040519150601f19603f3d011682016040523d82523d6000602084013e612005565b606091505b50600081510361204c57846040517f57f447ce00000000000000000000000000000000000000000000000000000000815260040161204391906136af565b60405180910390fd5b805181602001fd5b63bc197c8160e01b7bffffffffffffffffffffffffffffffffffffffffffffffffffffffff1916817bffffffffffffffffffffffffffffffffffffffffffffffffffffffff1916146120dd57846040517f57f447ce0000000000000000000000000000000000000000000000000000000081526004016120d491906136af565b60405180910390fd5b505b505050505050565b6120ef611cc2565b6120fb84848484612101565b50505050565b805182511461214b57815181516040517f5b059991000000000000000000000000000000000000000000000000000000008152600401612142929190613379565b60405180910390fd5b60006121556110f8565b905060005b8351811015612364576000612178828661145490919063ffffffff16565b9050600061218f838661145490919063ffffffff16565b9050600073ffffffffffffffffffffffffffffffffffffffff168873ffffffffffffffffffffffffffffffffffffffff16146122bc57600080600084815260200190815260200160002060008a73ffffffffffffffffffffffffffffffffffffffff1673ffffffffffffffffffffffffffffffffffffffff1681526020019081526020016000205490508181101561226457888183856040517f03dee4c500000000000000000000000000000000000000000000000000000000815260040161225b949392919061384c565b60405180910390fd5b81810360008085815260200190815260200160002060008b73ffffffffffffffffffffffffffffffffffffffff1673ffffffffffffffffffffffffffffffffffffffff16815260200190815260200160002081905550505b600073ffffffffffffffffffffffffffffffffffffffff168773ffffffffffffffffffffffffffffffffffffffff1614612357578060008084815260200190815260200160002060008973ffffffffffffffffffffffffffffffffffffffff1673ffffffffffffffffffffffffffffffffffffffff168152602001908152602001600020600082825461234f91906138c0565b925050819055505b505080600101905061215a565b50600183510361242357600061238460008561145490919063ffffffff16565b9050600061239c60008561145490919063ffffffff16565b90508573ffffffffffffffffffffffffffffffffffffffff168773ffffffffffffffffffffffffffffffffffffffff168473ffffffffffffffffffffffffffffffffffffffff167fc3d58168c5ae7397731d063d5bbf3d657854427343f4c083240f7aacaa2d0f628585604051612414929190613379565b60405180910390a450506124a2565b8373ffffffffffffffffffffffffffffffffffffffff168573ffffffffffffffffffffffffffffffffffffffff168273ffffffffffffffffffffffffffffffffffffffff167f4a39dc06d4c0dbc64b70af90fd698a233a518aa5d07e595d983b8c0526c8f7fb86866040516124999291906138f4565b60405180910390a45b5050505050565b6000604051905090565b600080fd5b600080fd5b600073ffffffffffffffffffffffffffffffffffffffff82169050919050565b60006124e8826124bd565b9050919050565b6124f8816124dd565b811461250357600080fd5b50565b600081359050612515816124ef565b92915050565b6000819050919050565b61252e8161251b565b811461253957600080fd5b50565b60008135905061254b81612525565b92915050565b60008060408385031215612568576125676124b3565b5b600061257685828601612506565b92505060206125878582860161253c565b9150509250929050565b61259a8161251b565b82525050565b60006020820190506125b56000830184612591565b92915050565b60007fffffffff0000000000000000000000000000000000000000000000000000000082169050919050565b6125f0816125bb565b81146125fb57600080fd5b50565b60008135905061260d816125e7565b92915050565b600060208284031215612629576126286124b3565b5b6000612637848285016125fe565b91505092915050565b60008115159050919050565b61265581612640565b82525050565b6000602082019050612670600083018461264c565b92915050565b600080fd5b600080fd5b6000601f19601f8301169050919050565b7f4e487b7100000000000000000000000000000000000000000000000000000000600052604160045260246000fd5b6126c982612680565b810181811067ffffffffffffffff821117156126e8576126e7612691565b5b80604052505050565b60006126fb6124a9565b905061270782826126c0565b919050565b600067ffffffffffffffff82111561272757612726612691565b5b61273082612680565b9050602081019050919050565b82818337600083830152505050565b600061275f61275a8461270c565b6126f1565b90508281526020810184848401111561277b5761277a61267b565b5b61278684828561273d565b509392505050565b600082601f8301126127a3576127a2612676565b5b81356127b384826020860161274c565b91505092915050565b6000602082840312156127d2576127d16124b3565b5b600082013567ffffffffffffffff8111156127f0576127ef6124b8565b5b6127fc8482850161278e565b91505092915050565b60006020828403121561281b5761281a6124b3565b5b60006128298482850161253c565b91505092915050565b600081519050919050565b600082825260208201905092915050565b60005b8381101561286c578082015181840152602081019050612851565b60008484015250505050565b600061288382612832565b61288d818561283d565b935061289d81856020860161284e565b6128a681612680565b840191505092915050565b600060208201905081810360008301526128cb8184612878565b905092915050565b600067ffffffffffffffff8211156128ee576128ed612691565b5b602082029050602081019050919050565b600080fd5b6000612917612912846128d3565b6126f1565b9050808382526020820190506020840283018581111561293a576129396128ff565b5b835b81811015612963578061294f888261253c565b84526020840193505060208101905061293c565b5050509392505050565b600082601f83011261298257612981612676565b5b8135612992848260208601612904565b91505092915050565b600067ffffffffffffffff8211156129b6576129b5612691565b5b6129bf82612680565b9050602081019050919050565b60006129df6129da8461299b565b6126f1565b9050828152602081018484840111156129fb576129fa61267b565b5b612a0684828561273d565b509392505050565b600082601f830112612a2357612a22612676565b5b8135612a338482602086016129cc565b91505092915050565b60008060008060808587031215612a5657612a556124b3565b5b6000612a6487828801612506565b945050602085013567ffffffffffffffff811115612a8557612a846124b8565b5b612a918782880161296d565b935050604085013567ffffffffffffffff811115612ab257612ab16124b8565b5b612abe8782880161296d565b925050606085013567ffffffffffffffff811115612adf57612ade6124b8565b5b612aeb87828801612a0e565b91505092959194509250565b6000819050919050565b612b0a81612af7565b8114612b1557600080fd5b50565b600081359050612b2781612b01565b92915050565b600060208284031215612b4357612b426124b3565b5b6000612b5184828501612b18565b91505092915050565b612b6381612af7565b82525050565b6000602082019050612b7e6000830184612b5a565b92915050565b60008060408385031215612b9b57612b9a6124b3565b5b6000612ba985828601612506565b925050602083013567ffffffffffffffff811115612bca57612bc96124b8565b5b612bd68582860161296d565b9150509250929050565b600081519050919050565b600082825260208201905092915050565b6000819050602082019050919050565b612c158161251b565b82525050565b6000612c278383612c0c565b60208301905092915050565b6000602082019050919050565b6000612c4b82612be0565b612c558185612beb565b9350612c6083612bfc565b8060005b83811015612c91578151612c788882612c1b565b9750612c8383612c33565b925050600181019050612c64565b5085935050505092915050565b60006020820190508181036000830152612cb88184612c40565b905092915050565b600080600080600060a08688031215612cdc57612cdb6124b3565b5b6000612cea88828901612506565b9550506020612cfb88828901612506565b945050604086013567ffffffffffffffff811115612d1c57612d1b6124b8565b5b612d288882890161296d565b935050606086013567ffffffffffffffff811115612d4957612d486124b8565b5b612d558882890161296d565b925050608086013567ffffffffffffffff811115612d7657612d756124b8565b5b612d8288828901612a0e565b9150509295509295909350565b60008060408385031215612da657612da56124b3565b5b6000612db485828601612b18565b9250506020612dc585828601612506565b9150509250929050565b600060208284031215612de557612de46124b3565b5b6000612df384828501612506565b91505092915050565b600067ffffffffffffffff821115612e1757612e16612691565b5b602082029050602081019050919050565b6000612e3b612e3684612dfc565b6126f1565b90508083825260208201905060208402830185811115612e5e57612e5d6128ff565b5b835b81811015612e875780612e738882612506565b845260208401935050602081019050612e60565b5050509392505050565b600082601f830112612ea657612ea5612676565b5b8135612eb6848260208601612e28565b91505092915050565b60008060408385031215612ed657612ed56124b3565b5b600083013567ffffffffffffffff811115612ef457612ef36124b8565b5b612f0085828601612e91565b925050602083013567ffffffffffffffff811115612f2157612f206124b8565b5b612f2d8582860161296d565b9150509250929050565b60008060008060808587031215612f5157612f506124b3565b5b600085013567ffffffffffffffff811115612f6f57612f6e6124b8565b5b612f7b87828801612e91565b945050602085013567ffffffffffffffff811115612f9c57612f9b6124b8565b5b612fa88782880161296d565b935050604085013567ffffffffffffffff811115612fc957612fc86124b8565b5b612fd58782880161296d565b925050606085013567ffffffffffffffff811115612ff657612ff56124b8565b5b61300287828801612a0e565b91505092959194509250565b600080600060608486031215613027576130266124b3565b5b600061303586828701612506565b935050602084013567ffffffffffffffff811115613056576130556124b8565b5b6130628682870161296d565b925050604084013567ffffffffffffffff811115613083576130826124b8565b5b61308f8682870161296d565b9150509250925092565b600080600080608085870312156130b3576130b26124b3565b5b60006130c187828801612506565b94505060206130d28782880161253c565b93505060406130e38782880161253c565b925050606085013567ffffffffffffffff811115613104576131036124b8565b5b61311087828801612a0e565b91505092959194509250565b61312581612640565b811461313057600080fd5b50565b6000813590506131428161311c565b92915050565b6000806040838503121561315f5761315e6124b3565b5b600061316d85828601612506565b925050602061317e85828601613133565b9150509250929050565b6000806040838503121561319f5761319e6124b3565b5b60006131ad85828601612506565b92505060206131be85828601612506565b9150509250929050565b600080600080600060a086880312156131e4576131e36124b3565b5b60006131f288828901612506565b955050602061320388828901612506565b94505060406132148882890161253c565b93505060606132258882890161253c565b925050608086013567ffffffffffffffff811115613246576132456124b8565b5b61325288828901612a0e565b9150509295509295909350565b600080600060608486031215613278576132776124b3565b5b600061328686828701612506565b93505060206132978682870161253c565b92505060406132a88682870161253c565b9150509250925092565b600081905092915050565b60006132c882612832565b6132d281856132b2565b93506132e281856020860161284e565b80840191505092915050565b60006132fa82856132bd565b915061330682846132bd565b91508190509392505050565b7f4e487b7100000000000000000000000000000000000000000000000000000000600052603260045260246000fd5b61334a816124dd565b82525050565b60006040820190506133656000830185613341565b6133726020830184613341565b9392505050565b600060408201905061338e6000830185612591565b61339b6020830184612591565b9392505050565b7f4e487b7100000000000000000000000000000000000000000000000000000000600052602260045260246000fd5b600060028204905060018216806133e957607f821691505b6020821081036133fc576133fb6133a2565b5b50919050565b60008190508160005260206000209050919050565b60006020601f8301049050919050565b600082821b905092915050565b6000600883026134647fffffffffffffffffffffffffffffffffffffffffffffffffffffffffffffffff82613427565b61346e8683613427565b95508019841693508086168417925050509392505050565b6000819050919050565b60006134ab6134a66134a18461251b565b613486565b61251b565b9050919050565b6000819050919050565b6134c583613490565b6134d96134d1826134b2565b848454613434565b825550505050565b600090565b6134ee6134e1565b6134f98184846134bc565b505050565b5b8181101561351d576135126000826134e6565b6001810190506134ff565b5050565b601f8211156135625761353381613402565b61353c84613417565b8101602085101561354b578190505b61355f61355785613417565b8301826134fe565b50505b505050565b600082821c905092915050565b600061358560001984600802613567565b1980831691505092915050565b600061359e8383613574565b9150826002028217905092915050565b6135b782612832565b67ffffffffffffffff8111156135d0576135cf612691565b5b6135da82546133d1565b6135e5828285613521565b600060209050601f8311600181146136185760008415613606578287015190505b6136108582613592565b865550613678565b601f19841661362686613402565b60005b8281101561364e57848901518255600182019150602085019450602081019050613629565b8683101561366b5784890151613667601f891682613574565b8355505b6001600288020188555050505b505050505050565b7f4e487b7100000000000000000000000000000000000000000000000000000000600052601260045260246000fd5b60006020820190506136c46000830184613341565b92915050565b60006040820190506136df6000830185613341565b6136ec6020830184612b5a565b9392505050565b600081519050919050565b600082825260208201905092915050565b600061371a826136f3565b61372481856136fe565b935061373481856020860161284e565b61373d81612680565b840191505092915050565b600060a08201905061375d6000830188613341565b61376a6020830187613341565b6137776040830186612591565b6137846060830185612591565b8181036080830152613796818461370f565b90509695505050505050565b6000815190506137b1816125e7565b92915050565b6000602082840312156137cd576137cc6124b3565b5b60006137db848285016137a2565b91505092915050565b600060a0820190506137f96000830188613341565b6138066020830187613341565b81810360408301526138188186612c40565b9050818103606083015261382c8185612c40565b90508181036080830152613840818461370f565b90509695505050505050565b60006080820190506138616000830187613341565b61386e6020830186612591565b61387b6040830185612591565b6138886060830184612591565b95945050505050565b7f4e487b7100000000000000000000000000000000000000000000000000000000600052601160045260246000fd5b60006138cb8261251b565b91506138d68361251b565b92508282019050808211156138ee576138ed613891565b5b92915050565b6000604082019050818103600083015261390e8185612c40565b905081810360208301526139228184612c40565b9050939250505056fea26469706673582212205ac9dc5bc918f40527e482c2ed28889ca000ace2ceefe130411bc08ec42cbab864736f6c634300081c0033",
    "linkReferences": {},
    "deployedLinkReferences": {}
}