{
    "_format": "hh-sol-artifact-1",
    "contractName": "DailyStreakSystem",
    "sourceName": "contracts/DailyStreakSystem.sol",
    "abi": [
        {
            "inputs": [
                {
                    "internalType": "address",
                    "name": "initialOwner",
                    "type": "address"
                },
                {
                    "internalType": "address",
                    "name": "_externalERC1155Address",
                    "type": "address"
                }
            ],
            "stateMutability": "nonpayable",
            "type": "constructor"
        },
        {
            "inputs": [
                {
                    "internalType": "address",
                    "name": "owner",
                    "type": "address"
                }
            ],
            "name": "OwnableInvalidOwner",
            "type": "error"
        },
        {
            "inputs": [
                {
                    "internalType": "address",
                    "name": "account",
                    "type": "address"
                }
            ],
            "name": "OwnableUnauthorizedAccount",
            "type": "error"
        },
        {
            "anonymous": false,
            "inputs": [
                {
                    "indexed": true,
                    "internalType": "address",
                    "name": "user",
                    "type": "address"
                },
                {
                    "indexed": false,
                    "internalType": "uint256",
                    "name": "streak",
                    "type": "uint256"
                },
                {
                    "indexed": false,
                    "internalType": "uint256",
                    "name": "tokenId",
                    "type": "uint256"
                }
            ],
            "name": "Claimed",
            "type": "event"
        },
        {
            "anonymous": false,
            "inputs": [
                {
                    "indexed": true,
                    "internalType": "address",
                    "name": "previousOwner",
                    "type": "address"
                },
                {
                    "indexed": true,
                    "internalType": "address",
                    "name": "newOwner",
                    "type": "address"
                }
            ],
            "name": "OwnershipTransferred",
            "type": "event"
        },
        {
            "inputs": [],
            "name": "claim",
            "outputs": [],
            "stateMutability": "nonpayable",
            "type": "function"
        },
        {
            "inputs": [
                {
                    "internalType": "address",
                    "name": "user",
                    "type": "address"
                }
            ],
            "name": "claimFor",
            "outputs": [],
            "stateMutability": "nonpayable",
            "type": "function"
        },
        {
            "inputs": [
                {
                    "internalType": "address",
                    "name": "user",
                    "type": "address"
                },
                {
                    "internalType": "uint256",
                    "name": "hoursAgo",
                    "type": "uint256"
                }
            ],
            "name": "claimHoursAgo",
            "outputs": [],
            "stateMutability": "nonpayable",
            "type": "function"
        },
        {
            "inputs": [],
            "name": "externalERC1155",
            "outputs": [
                {
                    "internalType": "contract IExternalERC1155",
                    "name": "",
                    "type": "address"
                }
            ],
            "stateMutability": "view",
            "type": "function"
        },
        {
            "inputs": [],
            "name": "getBlockTimestamp",
            "outputs": [
                {
                    "internalType": "uint256",
                    "name": "",
                    "type": "uint256"
                }
            ],
            "stateMutability": "view",
            "type": "function"
        },
        {
            "inputs": [
                {
                    "internalType": "address",
                    "name": "user",
                    "type": "address"
                }
            ],
            "name": "getLastClaimed",
            "outputs": [
                {
                    "internalType": "uint256",
                    "name": "",
                    "type": "uint256"
                }
            ],
            "stateMutability": "view",
            "type": "function"
        },
        {
            "inputs": [],
            "name": "getPointMilestones",
            "outputs": [
                {
                    "internalType": "uint256[]",
                    "name": "",
                    "type": "uint256[]"
                },
                {
                    "internalType": "uint256[]",
                    "name": "",
                    "type": "uint256[]"
                }
            ],
            "stateMutability": "view",
            "type": "function"
        },
        {
            "inputs": [
                {
                    "internalType": "address",
                    "name": "user",
                    "type": "address"
                }
            ],
            "name": "getStreak",
            "outputs": [
                {
                    "internalType": "uint256",
                    "name": "",
                    "type": "uint256"
                }
            ],
            "stateMutability": "view",
            "type": "function"
        },
        {
            "inputs": [],
            "name": "getTokenMilestones",
            "outputs": [
                {
                    "internalType": "uint256[]",
                    "name": "",
                    "type": "uint256[]"
                },
                {
                    "internalType": "uint256[]",
                    "name": "",
                    "type": "uint256[]"
                }
            ],
            "stateMutability": "view",
            "type": "function"
        },
        {
            "inputs": [
                {
                    "internalType": "address",
                    "name": "",
                    "type": "address"
                }
            ],
            "name": "lastClaimed",
            "outputs": [
                {
                    "internalType": "uint256",
                    "name": "",
                    "type": "uint256"
                }
            ],
            "stateMutability": "view",
            "type": "function"
        },
        {
            "inputs": [
                {
                    "internalType": "uint256",
                    "name": "",
                    "type": "uint256"
                }
            ],
            "name": "milestoneToPointReward",
            "outputs": [
                {
                    "internalType": "uint256",
                    "name": "",
                    "type": "uint256"
                }
            ],
            "stateMutability": "view",
            "type": "function"
        },
        {
            "inputs": [
                {
                    "internalType": "uint256",
                    "name": "",
                    "type": "uint256"
                }
            ],
            "name": "milestoneToTokenId",
            "outputs": [
                {
                    "internalType": "uint256",
                    "name": "",
                    "type": "uint256"
                }
            ],
            "stateMutability": "view",
            "type": "function"
        },
        {
            "inputs": [],
            "name": "owner",
            "outputs": [
                {
                    "internalType": "address",
                    "name": "",
                    "type": "address"
                }
            ],
            "stateMutability": "view",
            "type": "function"
        },
        {
            "inputs": [
                {
                    "internalType": "uint256",
                    "name": "",
                    "type": "uint256"
                }
            ],
            "name": "point_Milestones",
            "outputs": [
                {
                    "internalType": "uint256",
                    "name": "",
                    "type": "uint256"
                }
            ],
            "stateMutability": "view",
            "type": "function"
        },
        {
            "inputs": [
                {
                    "internalType": "address",
                    "name": "",
                    "type": "address"
                }
            ],
            "name": "points",
            "outputs": [
                {
                    "internalType": "uint256",
                    "name": "",
                    "type": "uint256"
                }
            ],
            "stateMutability": "view",
            "type": "function"
        },
        {
            "inputs": [],
            "name": "renounceOwnership",
            "outputs": [],
            "stateMutability": "nonpayable",
            "type": "function"
        },
        {
            "inputs": [
                {
                    "internalType": "address",
                    "name": "_externalERC1155Address",
                    "type": "address"
                }
            ],
            "name": "setExternalERC1155",
            "outputs": [],
            "stateMutability": "nonpayable",
            "type": "function"
        },
        {
            "inputs": [
                {
                    "internalType": "uint256",
                    "name": "milestone",
                    "type": "uint256"
                },
                {
                    "internalType": "uint256",
                    "name": "pointReward",
                    "type": "uint256"
                }
            ],
            "name": "setPointMilestone",
            "outputs": [],
            "stateMutability": "nonpayable",
            "type": "function"
        },
        {
            "inputs": [
                {
                    "internalType": "address",
                    "name": "user",
                    "type": "address"
                },
                {
                    "internalType": "uint256",
                    "name": "_streak",
                    "type": "uint256"
                }
            ],
            "name": "setStreak",
            "outputs": [],
            "stateMutability": "nonpayable",
            "type": "function"
        },
        {
            "inputs": [
                {
                    "internalType": "uint256",
                    "name": "milestone",
                    "type": "uint256"
                },
                {
                    "internalType": "uint256",
                    "name": "tokenId",
                    "type": "uint256"
                }
            ],
            "name": "setTokenMilestone",
            "outputs": [],
            "stateMutability": "nonpayable",
            "type": "function"
        },
        {
            "inputs": [
                {
                    "internalType": "address",
                    "name": "",
                    "type": "address"
                }
            ],
            "name": "streak",
            "outputs": [
                {
                    "internalType": "uint256",
                    "name": "",
                    "type": "uint256"
                }
            ],
            "stateMutability": "view",
            "type": "function"
        },
        {
            "inputs": [
                {
                    "internalType": "address",
                    "name": "user",
                    "type": "address"
                }
            ],
            "name": "timeUntilCanClaim",
            "outputs": [
                {
                    "internalType": "uint256",
                    "name": "",
                    "type": "uint256"
                }
            ],
            "stateMutability": "view",
            "type": "function"
        },
        {
            "inputs": [
                {
                    "internalType": "address",
                    "name": "user",
                    "type": "address"
                }
            ],
            "name": "timeUntilStreakReset",
            "outputs": [
                {
                    "internalType": "uint256",
                    "name": "",
                    "type": "uint256"
                }
            ],
            "stateMutability": "view",
            "type": "function"
        },
        {
            "inputs": [
                {
                    "internalType": "uint256",
                    "name": "",
                    "type": "uint256"
                }
            ],
            "name": "token_Milestones",
            "outputs": [
                {
                    "internalType": "uint256",
                    "name": "",
                    "type": "uint256"
                }
            ],
            "stateMutability": "view",
            "type": "function"
        },
        {
            "inputs": [
                {
                    "internalType": "address",
                    "name": "newOwner",
                    "type": "address"
                }
            ],
            "name": "transferOwnership",
            "outputs": [],
            "stateMutability": "nonpayable",
            "type": "function"
        }
    ],
    "bytecode": "0x608060405234801561001057600080fd5b50604051611e38380380611e3883398181016040528101906100329190610224565b81600073ffffffffffffffffffffffffffffffffffffffff168173ffffffffffffffffffffffffffffffffffffffff16036100a55760006040517f1e4fbdf700000000000000000000000000000000000000000000000000000000815260040161009c9190610273565b60405180910390fd5b6100b4816100fd60201b60201c565b5080600160006101000a81548173ffffffffffffffffffffffffffffffffffffffff021916908373ffffffffffffffffffffffffffffffffffffffff160217905550505061028e565b60008060009054906101000a900473ffffffffffffffffffffffffffffffffffffffff169050816000806101000a81548173ffffffffffffffffffffffffffffffffffffffff021916908373ffffffffffffffffffffffffffffffffffffffff1602179055508173ffffffffffffffffffffffffffffffffffffffff168173ffffffffffffffffffffffffffffffffffffffff167f8be0079c531659141344cd1fd0a4f28419497f9722a3daafe3b4186f6b6457e060405160405180910390a35050565b600080fd5b600073ffffffffffffffffffffffffffffffffffffffff82169050919050565b60006101f1826101c6565b9050919050565b610201816101e6565b811461020c57600080fd5b50565b60008151905061021e816101f8565b92915050565b6000806040838503121561023b5761023a6101c1565b5b60006102498582860161020f565b925050602061025a8582860161020f565b9150509250929050565b61026d816101e6565b82525050565b60006020820190506102886000830184610264565b92915050565b611b9b8061029d6000396000f3fe608060405234801561001057600080fd5b50600436106101735760003560e01c806384874b91116100de578063ac40e39011610097578063ddeae03311610071578063ddeae03314610485578063dfc30ea7146104a1578063eaecdc2d146104c0578063f2fde38b146104dc57610173565b8063ac40e3901461041d578063b3feee6f1461044d578063c23f628b1461046957610173565b806384874b9114610323578063875b282f146103535780638da5cb5b1461038357806390c5e1e4146103a1578063a2417418146103d1578063a74cd477146103ed57610173565b80635eeadb0d116101305780635eeadb0d1461024d5780636a2a65181461027d578063715018a6146102ad578063796b89b9146102b7578063799cb3b4146102d55780637e4781e11461030557610173565b8063013eba921461017857806302148175146101a8578063358b8166146101c75780633b6c02fc146101f75780634e71d92d146102135780635267c1271461021d575b600080fd5b610192600480360381019061018d9190611545565b6104f8565b60405161019f919061158b565b60405180910390f35b6101b0610510565b6040516101be929190611664565b60405180910390f35b6101e160048036038101906101dc9190611545565b610632565b6040516101ee919061158b565b60405180910390f35b610211600480360381019061020c91906116c7565b61064a565b005b61021b61069a565b005b61023760048036038101906102329190611707565b6106a5565b604051610244919061158b565b60405180910390f35b61026760048036038101906102629190611545565b6106bd565b604051610274919061158b565b60405180910390f35b61029760048036038101906102929190611545565b610706565b6040516102a4919061158b565b60405180910390f35b6102b561071e565b005b6102bf610732565b6040516102cc919061158b565b60405180910390f35b6102ef60048036038101906102ea9190611545565b61073a565b6040516102fc919061158b565b60405180910390f35b61030d610783565b60405161031a9190611793565b60405180910390f35b61033d60048036038101906103389190611545565b6107a9565b60405161034a919061158b565b60405180910390f35b61036d60048036038101906103689190611545565b6108b8565b60405161037a919061158b565b60405180910390f35b61038b6109c7565b60405161039891906117bd565b60405180910390f35b6103bb60048036038101906103b69190611707565b6109f0565b6040516103c8919061158b565b60405180910390f35b6103eb60048036038101906103e691906117d8565b610a14565b005b61040760048036038101906104029190611707565b610adf565b604051610414919061158b565b60405180910390f35b61043760048036038101906104329190611707565b610b03565b604051610444919061158b565b60405180910390f35b610467600480360381019061046291906117d8565b610b1b565b005b610483600480360381019061047e9190611545565b610be6565b005b61049f600480360381019061049a9190611545565b610c32565b005b6104a9610c46565b6040516104b7929190611664565b60405180910390f35b6104da60048036038101906104d591906116c7565b610d68565b005b6104f660048036038101906104f19190611545565b610dd0565b005b60036020528060005260406000206000915090505481565b606080600060078054905067ffffffffffffffff81111561053457610533611818565b5b6040519080825280602002602001820160405280156105625781602001602082028036833780820191505090505b50905060005b6007805490508110156105d357600560006007838154811061058d5761058c611847565b5b90600052602060002001548152602001908152602001600020548282815181106105ba576105b9611847565b5b6020026020010181815250508080600101915050610568565b506007818180548060200260200160405190810160405280929190818152602001828054801561062257602002820191906000526020600020905b81548152602001906001019080831161060e575b5050505050915092509250509091565b60046020528060005260406000206000915090505481565b610652610e56565b80600260008473ffffffffffffffffffffffffffffffffffffffff1673ffffffffffffffffffffffffffffffffffffffff168152602001908152602001600020819055505050565b6106a333610edd565b565b60066020528060005260406000206000915090505481565b6000600260008373ffffffffffffffffffffffffffffffffffffffff1673ffffffffffffffffffffffffffffffffffffffff168152602001908152602001600020549050919050565b60026020528060005260406000206000915090505481565b610726610e56565b6107306000611416565b565b600042905090565b6000600360008373ffffffffffffffffffffffffffffffffffffffff1673ffffffffffffffffffffffffffffffffffffffff168152602001908152602001600020549050919050565b600160009054906101000a900473ffffffffffffffffffffffffffffffffffffffff1681565b600080600360008473ffffffffffffffffffffffffffffffffffffffff1673ffffffffffffffffffffffffffffffffffffffff16815260200190815260200160002054036107fa57600090506108b3565b6202a300600360008473ffffffffffffffffffffffffffffffffffffffff1673ffffffffffffffffffffffffffffffffffffffff168152602001908152602001600020544261084991906118a5565b1061085757600090506108b3565b600360008373ffffffffffffffffffffffffffffffffffffffff1673ffffffffffffffffffffffffffffffffffffffff16815260200190815260200160002054426108a291906118a5565b6202a3006108b091906118a5565b90505b919050565b600080600360008473ffffffffffffffffffffffffffffffffffffffff1673ffffffffffffffffffffffffffffffffffffffff168152602001908152602001600020540361090957600090506109c2565b62015180600360008473ffffffffffffffffffffffffffffffffffffffff1673ffffffffffffffffffffffffffffffffffffffff168152602001908152602001600020544261095891906118a5565b1061096657600090506109c2565b600360008373ffffffffffffffffffffffffffffffffffffffff1673ffffffffffffffffffffffffffffffffffffffff16815260200190815260200160002054426109b191906118a5565b620151806109bf91906118a5565b90505b919050565b60008060009054906101000a900473ffffffffffffffffffffffffffffffffffffffff16905090565b60078181548110610a0057600080fd5b906000526020600020016000915090505481565b610a1c610e56565b60005b600880549050811015610a99578260088281548110610a4157610a40611847565b5b906000526020600020015403610a8c576040517f08c379a0000000000000000000000000000000000000000000000000000000008152600401610a8390611936565b60405180910390fd5b8080600101915050610a1f565b5080600660008481526020019081526020016000208190555060088290806001815401808255809150506001900390600052602060002001600090919091909150555050565b60088181548110610aef57600080fd5b906000526020600020016000915090505481565b60056020528060005260406000206000915090505481565b610b23610e56565b60005b600780549050811015610ba0578260078281548110610b4857610b47611847565b5b906000526020600020015403610b93576040517f08c379a0000000000000000000000000000000000000000000000000000000008152600401610b8a90611936565b60405180910390fd5b8080600101915050610b26565b5080600560008481526020019081526020016000208190555060078290806001815401808255809150506001900390600052602060002001600090919091909150555050565b610bee610e56565b80600160006101000a81548173ffffffffffffffffffffffffffffffffffffffff021916908373ffffffffffffffffffffffffffffffffffffffff16021790555050565b610c3a610e56565b610c4381610edd565b50565b606080600060088054905067ffffffffffffffff811115610c6a57610c69611818565b5b604051908082528060200260200182016040528015610c985781602001602082028036833780820191505090505b50905060005b600880549050811015610d09576006600060088381548110610cc357610cc2611847565b5b9060005260206000200154815260200190815260200160002054828281518110610cf057610cef611847565b5b6020026020010181815250508080600101915050610c9e565b5060088181805480602002602001604051908101604052809291908181526020018280548015610d5857602002820191906000526020600020905b815481526020019060010190808311610d44575b5050505050915092509250509091565b610d70610e56565b610e1081610d7e9190611956565b42610d8991906118a5565b600360008473ffffffffffffffffffffffffffffffffffffffff1673ffffffffffffffffffffffffffffffffffffffff168152602001908152602001600020819055505050565b610dd8610e56565b600073ffffffffffffffffffffffffffffffffffffffff168173ffffffffffffffffffffffffffffffffffffffff1603610e4a5760006040517f1e4fbdf7000000000000000000000000000000000000000000000000000000008152600401610e4191906117bd565b60405180910390fd5b610e5381611416565b50565b610e5e6114da565b73ffffffffffffffffffffffffffffffffffffffff16610e7c6109c7565b73ffffffffffffffffffffffffffffffffffffffff1614610edb57610e9f6114da565b6040517f118cdaa7000000000000000000000000000000000000000000000000000000008152600401610ed291906117bd565b60405180910390fd5b565b6000600360008373ffffffffffffffffffffffffffffffffffffffff1673ffffffffffffffffffffffffffffffffffffffff168152602001908152602001600020541480610f7757506202a300600360008373ffffffffffffffffffffffffffffffffffffffff1673ffffffffffffffffffffffffffffffffffffffff1681526020019081526020016000205442610f7591906118a5565b115b15610fc6576001600260008373ffffffffffffffffffffffffffffffffffffffff1673ffffffffffffffffffffffffffffffffffffffff168152602001908152602001600020819055506110ac565b62015180600360008373ffffffffffffffffffffffffffffffffffffffff1673ffffffffffffffffffffffffffffffffffffffff168152602001908152602001600020544261101591906118a5565b1015611056576040517f08c379a000000000000000000000000000000000000000000000000000000000815260040161104d906119e4565b60405180910390fd5b600260008273ffffffffffffffffffffffffffffffffffffffff1673ffffffffffffffffffffffffffffffffffffffff16815260200190815260200160002060008154809291906110a690611a04565b91905055505b42600360008373ffffffffffffffffffffffffffffffffffffffff1673ffffffffffffffffffffffffffffffffffffffff168152602001908152602001600020819055508073ffffffffffffffffffffffffffffffffffffffff167f987d620f307ff6b94d58743cb7a7509f24071586a77759b77c2d4e29f75a2f9a600260008473ffffffffffffffffffffffffffffffffffffffff1673ffffffffffffffffffffffffffffffffffffffff1681526020019081526020016000205460056000600260008773ffffffffffffffffffffffffffffffffffffffff1673ffffffffffffffffffffffffffffffffffffffff168152602001908152602001600020548152602001908152602001600020546040516111c9929190611a4c565b60405180910390a2600060056000600260008573ffffffffffffffffffffffffffffffffffffffff1673ffffffffffffffffffffffffffffffffffffffff168152602001908152602001600020548152602001908152602001600020541461131057600160009054906101000a900473ffffffffffffffffffffffffffffffffffffffff1673ffffffffffffffffffffffffffffffffffffffff1663731133e98260056000600260008773ffffffffffffffffffffffffffffffffffffffff1673ffffffffffffffffffffffffffffffffffffffff1681526020019081526020016000205481526020019081526020016000205460016040518463ffffffff1660e01b81526004016112dd93929190611ae7565b600060405180830381600087803b1580156112f757600080fd5b505af115801561130b573d6000803e3d6000fd5b505050505b600060066000600260008573ffffffffffffffffffffffffffffffffffffffff1673ffffffffffffffffffffffffffffffffffffffff16815260200190815260200160002054815260200190815260200160002054146114135760066000600260008473ffffffffffffffffffffffffffffffffffffffff1673ffffffffffffffffffffffffffffffffffffffff16815260200190815260200160002054815260200190815260200160002054600460008373ffffffffffffffffffffffffffffffffffffffff1673ffffffffffffffffffffffffffffffffffffffff168152602001908152602001600020600082825461140b9190611b31565b925050819055505b50565b60008060009054906101000a900473ffffffffffffffffffffffffffffffffffffffff169050816000806101000a81548173ffffffffffffffffffffffffffffffffffffffff021916908373ffffffffffffffffffffffffffffffffffffffff1602179055508173ffffffffffffffffffffffffffffffffffffffff168173ffffffffffffffffffffffffffffffffffffffff167f8be0079c531659141344cd1fd0a4f28419497f9722a3daafe3b4186f6b6457e060405160405180910390a35050565b600033905090565b600080fd5b600073ffffffffffffffffffffffffffffffffffffffff82169050919050565b6000611512826114e7565b9050919050565b61152281611507565b811461152d57600080fd5b50565b60008135905061153f81611519565b92915050565b60006020828403121561155b5761155a6114e2565b5b600061156984828501611530565b91505092915050565b6000819050919050565b61158581611572565b82525050565b60006020820190506115a0600083018461157c565b92915050565b600081519050919050565b600082825260208201905092915050565b6000819050602082019050919050565b6115db81611572565b82525050565b60006115ed83836115d2565b60208301905092915050565b6000602082019050919050565b6000611611826115a6565b61161b81856115b1565b9350611626836115c2565b8060005b8381101561165757815161163e88826115e1565b9750611649836115f9565b92505060018101905061162a565b5085935050505092915050565b6000604082019050818103600083015261167e8185611606565b905081810360208301526116928184611606565b90509392505050565b6116a481611572565b81146116af57600080fd5b50565b6000813590506116c18161169b565b92915050565b600080604083850312156116de576116dd6114e2565b5b60006116ec85828601611530565b92505060206116fd858286016116b2565b9150509250929050565b60006020828403121561171d5761171c6114e2565b5b600061172b848285016116b2565b91505092915050565b6000819050919050565b600061175961175461174f846114e7565b611734565b6114e7565b9050919050565b600061176b8261173e565b9050919050565b600061177d82611760565b9050919050565b61178d81611772565b82525050565b60006020820190506117a86000830184611784565b92915050565b6117b781611507565b82525050565b60006020820190506117d260008301846117ae565b92915050565b600080604083850312156117ef576117ee6114e2565b5b60006117fd858286016116b2565b925050602061180e858286016116b2565b9150509250929050565b7f4e487b7100000000000000000000000000000000000000000000000000000000600052604160045260246000fd5b7f4e487b7100000000000000000000000000000000000000000000000000000000600052603260045260246000fd5b7f4e487b7100000000000000000000000000000000000000000000000000000000600052601160045260246000fd5b60006118b082611572565b91506118bb83611572565b92508282039050818111156118d3576118d2611876565b5b92915050565b600082825260208201905092915050565b7f4d696c6573746f6e6520616c7265616479206578697374730000000000000000600082015250565b60006119206018836118d9565b915061192b826118ea565b602082019050919050565b6000602082019050818103600083015261194f81611913565b9050919050565b600061196182611572565b915061196c83611572565b925082820261197a81611572565b9150828204841483151761199157611990611876565b5b5092915050565b7f596f752063616e206f6e6c7920636c61696d206f6e6365207065722064617900600082015250565b60006119ce601f836118d9565b91506119d982611998565b602082019050919050565b600060208201905081810360008301526119fd816119c1565b9050919050565b6000611a0f82611572565b91507fffffffffffffffffffffffffffffffffffffffffffffffffffffffffffffffff8203611a4157611a40611876565b5b600182019050919050565b6000604082019050611a61600083018561157c565b611a6e602083018461157c565b9392505050565b6000819050919050565b6000611a9a611a95611a9084611a75565b611734565b611572565b9050919050565b611aaa81611a7f565b82525050565b600082825260208201905092915050565b50565b6000611ad1600083611ab0565b9150611adc82611ac1565b600082019050919050565b6000608082019050611afc60008301866117ae565b611b09602083018561157c565b611b166040830184611aa1565b8181036060830152611b2781611ac4565b9050949350505050565b6000611b3c82611572565b9150611b4783611572565b9250828201905080821115611b5f57611b5e611876565b5b9291505056fea26469706673582212204df5df77e78fc656f544d0af9287510629355769e2f400120bac3d2129015f5964736f6c634300081c0033",
    "linkReferences": {},
    "deployedLinkReferences": {}
}